{
  "address": "0x3a77375988667fB4EA5d7AeD0696f606741F5e84",
  "abi": [
    {
      "inputs": [],
      "stateMutability": "nonpayable",
      "type": "constructor"
    },
    {
      "anonymous": false,
      "inputs": [
        {
          "indexed": true,
          "internalType": "address",
          "name": "account",
          "type": "address"
        }
      ],
      "name": "AddressBlacklisted",
      "type": "event"
    },
    {
      "anonymous": false,
      "inputs": [
        {
          "indexed": true,
          "internalType": "address",
          "name": "account",
          "type": "address"
        }
      ],
      "name": "AddressRemovedFromBlacklist",
      "type": "event"
    },
    {
      "anonymous": false,
      "inputs": [
        {
          "indexed": false,
          "internalType": "uint256",
          "name": "count",
          "type": "uint256"
        }
      ],
      "name": "BatchBlacklisted",
      "type": "event"
    },
    {
      "anonymous": false,
      "inputs": [
        {
          "indexed": false,
          "internalType": "uint256",
          "name": "count",
          "type": "uint256"
        }
      ],
      "name": "BatchRemovedFromBlacklist",
      "type": "event"
    },
    {
      "anonymous": false,
      "inputs": [
        {
          "indexed": true,
          "internalType": "address",
          "name": "previousOwner",
          "type": "address"
        },
        {
          "indexed": true,
          "internalType": "address",
          "name": "newOwner",
          "type": "address"
        }
      ],
      "name": "OwnershipTransferred",
      "type": "event"
    },
    {
      "inputs": [
        {
          "internalType": "address",
          "name": "account",
          "type": "address"
        }
      ],
      "name": "blacklistAddress",
      "outputs": [],
      "stateMutability": "nonpayable",
      "type": "function"
    },
    {
      "inputs": [
        {
          "internalType": "address[]",
          "name": "accounts",
          "type": "address[]"
        }
      ],
      "name": "blacklistAddresses",
      "outputs": [],
      "stateMutability": "nonpayable",
      "type": "function"
    },
    {
      "inputs": [],
      "name": "getAllBlacklistedAddresses",
      "outputs": [
        {
          "internalType": "address[]",
          "name": "",
          "type": "address[]"
        }
      ],
      "stateMutability": "view",
      "type": "function"
    },
    {
      "inputs": [],
      "name": "getBlacklistCount",
      "outputs": [
        {
          "internalType": "uint256",
          "name": "",
          "type": "uint256"
        }
      ],
      "stateMutability": "view",
      "type": "function"
    },
    {
      "inputs": [
        {
          "internalType": "address",
          "name": "account",
          "type": "address"
        }
      ],
      "name": "isBlacklisted",
      "outputs": [
        {
          "internalType": "bool",
          "name": "",
          "type": "bool"
        }
      ],
      "stateMutability": "view",
      "type": "function"
    },
    {
      "inputs": [],
      "name": "owner",
      "outputs": [
        {
          "internalType": "address",
          "name": "",
          "type": "address"
        }
      ],
      "stateMutability": "view",
      "type": "function"
    },
    {
      "inputs": [
        {
          "internalType": "address",
          "name": "account",
          "type": "address"
        }
      ],
      "name": "removeFromBlacklist",
      "outputs": [],
      "stateMutability": "nonpayable",
      "type": "function"
    },
    {
      "inputs": [
        {
          "internalType": "address[]",
          "name": "accounts",
          "type": "address[]"
        }
      ],
      "name": "removeFromBlacklistBatch",
      "outputs": [],
      "stateMutability": "nonpayable",
      "type": "function"
    },
    {
      "inputs": [
        {
          "internalType": "address",
          "name": "newOwner",
          "type": "address"
        }
      ],
      "name": "transferOwnership",
      "outputs": [],
      "stateMutability": "nonpayable",
      "type": "function"
    }
  ],
  "transactionHash": "0x5d2d513d8693eaf4221c72f2d276bb332dfed3d30983a5b9a621c51fc00d9ad8",
  "args": [],
  "numDeployments": 1,
  "solcInputHash": "2b597d29a251bbd1ea35f0ccdd5906f5",
  "bytecode": "0x608060405234801561001057600080fd5b50600080546001600160a01b03191633179055610cd7806100326000396000f3fe608060405234801561001057600080fd5b50600436106100835760003560e01c8063034b306a14610088578063068d1af8146100a6578063537df3b6146100bb57806377a54eb8146100ce5780638da5cb5b146100e1578063e860cb8f1461010c578063f2fde38b1461011d578063f3290d7514610130578063fe575a8714610143575b600080fd5b61009061017f565b60405161009d9190610a5c565b60405180910390f35b6100b96100b4366004610aa9565b6101e1565b005b6100b96100c9366004610b1d565b610429565b6100b96100dc366004610aa9565b610665565b6000546100f4906001600160a01b031681565b6040516001600160a01b03909116815260200161009d565b60025460405190815260200161009d565b6100b961012b366004610b1d565b6107e0565b6100b961013e366004610b1d565b6108d3565b61016f610151366004610b1d565b6001600160a01b031660009081526001602052604090205460ff1690565b604051901515815260200161009d565b606060028054806020026020016040519081016040528092919081815260200182805480156101d757602002820191906000526020600020905b81546001600160a01b031681526001909101906020018083116101b9575b5050505050905090565b6000546001600160a01b031633146102145760405162461bcd60e51b815260040161020b90610b4d565b60405180910390fd5b80806102325760405162461bcd60e51b815260040161020b90610b96565b6000805b828110156103ee57600085858381811061025257610252610bcd565b90506020020160208101906102679190610b1d565b90506001600160a01b03811661027d57506103dc565b6001600160a01b03811660009081526001602052604090205460ff166102a357506103dc565b6001600160a01b0381166000908152600360205260408120546002549091906102ce90600190610bf9565b9050808214610356576000600282815481106102ec576102ec610bcd565b600091825260209091200154600280546001600160a01b03909216925082918590811061031b5761031b610bcd565b600091825260208083209190910180546001600160a01b0319166001600160a01b039485161790559290911681526003909152604090208290555b600280548061036757610367610c12565b60008281526020808220830160001990810180546001600160a01b03191690559092019092556001600160a01b038516808352600182526040808420805460ff19169055600390925281832083905590519091600080516020610c8283398151915291a2846103d581610c28565b9550505050505b806103e681610c28565b915050610236565b506040518181527f99c25ee48bfd9e6d77777306b903e8b9a10a8f491cad065812124c811c8451a0906020015b60405180910390a150505050565b6000546001600160a01b031633146104535760405162461bcd60e51b815260040161020b90610b4d565b6001600160a01b0381166104be5760405162461bcd60e51b815260206004820152602c60248201527f41646472657373426c61636b6c6973743a2063616e6e6f742072656d6f76652060448201526b7a65726f206164647265737360a01b606482015260840161020b565b6001600160a01b03811660009081526001602052604090205460ff166105385760405162461bcd60e51b815260206004820152602960248201527f41646472657373426c61636b6c6973743a2061646472657373206e6f7420626c6044820152681858dadb1a5cdd195960ba1b606482015260840161020b565b6001600160a01b03811660009081526003602052604081205460025490919061056390600190610bf9565b90508082146105eb5760006002828154811061058157610581610bcd565b600091825260209091200154600280546001600160a01b0390921692508291859081106105b0576105b0610bcd565b600091825260208083209190910180546001600160a01b0319166001600160a01b039485161790559290911681526003909152604090208290555b60028054806105fc576105fc610c12565b60008281526020808220830160001990810180546001600160a01b03191690559092019092556001600160a01b038516808352600182526040808420805460ff19169055600390925281832083905590519091600080516020610c8283398151915291a2505050565b6000546001600160a01b0316331461068f5760405162461bcd60e51b815260040161020b90610b4d565b80806106ad5760405162461bcd60e51b815260040161020b90610b96565b6000805b828110156107af5760008585838181106106cd576106cd610bcd565b90506020020160208101906106e29190610b1d565b90506001600160a01b0381166106f8575061079d565b6001600160a01b03811660009081526001602052604090205460ff161561071f575061079d565b6001600160a01b0381166000818152600160208181526040808420805460ff1916841790556002805460039093528185208390559282018355918352600080516020610c428339815191520180546001600160a01b0319168417905551600080516020610c628339815191529190a28261079881610c28565b935050505b806107a781610c28565b9150506106b1565b506040518181527f03d9be15e0f0655ea1873edaafad76f9bc5d9abb9dbb0cb0f4db532436ec03cc9060200161041b565b6000546001600160a01b0316331461080a5760405162461bcd60e51b815260040161020b90610b4d565b6001600160a01b0381166108785760405162461bcd60e51b815260206004820152602f60248201527f41646472657373426c61636b6c6973743a206e6577206f776e6572206973207460448201526e6865207a65726f206164647265737360881b606482015260840161020b565b600080546040516001600160a01b03808516939216917f8be0079c531659141344cd1fd0a4f28419497f9722a3daafe3b4186f6b6457e091a3600080546001600160a01b0319166001600160a01b0392909216919091179055565b6000546001600160a01b031633146108fd5760405162461bcd60e51b815260040161020b90610b4d565b6001600160a01b03811661096b5760405162461bcd60e51b815260206004820152602f60248201527f41646472657373426c61636b6c6973743a2063616e6e6f7420626c61636b6c6960448201526e7374207a65726f206164647265737360881b606482015260840161020b565b6001600160a01b03811660009081526001602052604090205460ff16156109ea5760405162461bcd60e51b815260206004820152602d60248201527f41646472657373426c61636b6c6973743a206164647265737320616c7265616460448201526c1e48189b1858dadb1a5cdd1959609a1b606482015260840161020b565b6001600160a01b0381166000818152600160208181526040808420805460ff1916841790556002805460039093528185208390559282018355918352600080516020610c428339815191520180546001600160a01b0319168417905551600080516020610c628339815191529190a250565b6020808252825182820181905260009190848201906040850190845b81811015610a9d5783516001600160a01b031683529284019291840191600101610a78565b50909695505050505050565b60008060208385031215610abc57600080fd5b82356001600160401b0380821115610ad357600080fd5b818501915085601f830112610ae757600080fd5b813581811115610af657600080fd5b8660208260051b8501011115610b0b57600080fd5b60209290920196919550909350505050565b600060208284031215610b2f57600080fd5b81356001600160a01b0381168114610b4657600080fd5b9392505050565b60208082526029908201527f41646472657373426c61636b6c6973743a2063616c6c6572206973206e6f74206040820152683a34329037bbb732b960b91b606082015260800190565b6020808252601d908201527f41646472657373426c61636b6c6973743a20656d707479206172726179000000604082015260600190565b634e487b7160e01b600052603260045260246000fd5b634e487b7160e01b600052601160045260246000fd5b81810381811115610c0c57610c0c610be3565b92915050565b634e487b7160e01b600052603160045260246000fd5b600060018201610c3a57610c3a610be3565b506001019056fe405787fa12a823e0f2b7631cc41b3ba8828b3321ca811111fa75cd3aa3bb5acedaf49ab9345b6cb75bcb5a7f726bff9183c34dcf5c098c385730f9fd893765f65339e76deb16eade3efd8544d1f683635ff55e3866c7a2fae6aee23211cd5f03a2646970667358221220f2d4945957745b9133c4b370e44a348e07d92f2fb51633e9757a955b9f01891b64736f6c63430008110033",
  "devdoc": {
    "kind": "dev",
    "methods": {},
    "version": 1
  },
  "userdoc": {
    "kind": "user",
    "methods": {},
    "version": 1
  },
  "storageLayout": {
    "storage": [
      {
        "astId": 3,
        "contract": "contracts/AddressBlacklist.sol:AddressBlacklist",
        "label": "owner",
        "offset": 0,
        "slot": "0",
        "type": "t_address"
      },
      {
        "astId": 7,
        "contract": "contracts/AddressBlacklist.sol:AddressBlacklist",
        "label": "blacklist",
        "offset": 0,
        "slot": "1",
        "type": "t_mapping(t_address,t_bool)"
      },
      {
        "astId": 10,
        "contract": "contracts/AddressBlacklist.sol:AddressBlacklist",
        "label": "blacklistedAddresses",
        "offset": 0,
        "slot": "2",
        "type": "t_array(t_address)dyn_storage"
      },
      {
        "astId": 14,
        "contract": "contracts/AddressBlacklist.sol:AddressBlacklist",
        "label": "addressToIndex",
        "offset": 0,
        "slot": "3",
        "type": "t_mapping(t_address,t_uint256)"
      }
    ],
    "types": {
      "t_address": {
        "encoding": "inplace",
        "label": "address",
        "numberOfBytes": "20"
      },
      "t_array(t_address)dyn_storage": {
        "base": "t_address",
        "encoding": "dynamic_array",
        "label": "address[]",
        "numberOfBytes": "32"
      },
      "t_bool": {
        "encoding": "inplace",
        "label": "bool",
        "numberOfBytes": "1"
      },
      "t_mapping(t_address,t_bool)": {
        "encoding": "mapping",
        "key": "t_address",
        "label": "mapping(address => bool)",
        "numberOfBytes": "32",
        "value": "t_bool"
      },
      "t_mapping(t_address,t_uint256)": {
        "encoding": "mapping",
        "key": "t_address",
        "label": "mapping(address => uint256)",
        "numberOfBytes": "32",
        "value": "t_uint256"
      },
      "t_uint256": {
        "encoding": "inplace",
        "label": "uint256",
        "numberOfBytes": "32"
      }
    }
  }
}