{
  "address": "0xD65E7a3acE9e27730Aa9D319BC93d1b5bF629d91",
  "abi": [
    {
      "inputs": [],
      "name": "BorrowersRegistryNotConfigured",
      "type": "error"
    },
    {
      "inputs": [],
      "name": "BurnAmountExceedsAvailableForUser",
      "type": "error"
    },
    {
      "inputs": [],
      "name": "BurnAmountExceedsBalance",
      "type": "error"
    },
    {
      "inputs": [],
      "name": "CalldataMustHaveValidPayload",
      "type": "error"
    },
    {
      "inputs": [],
      "name": "CalldataOverOrUnderFlow",
      "type": "error"
    },
    {
      "inputs": [],
      "name": "DataPackageTimestampMustNotBeZero",
      "type": "error"
    },
    {
      "inputs": [],
      "name": "DataPackageTimestampsMustBeEqual",
      "type": "error"
    },
    {
      "inputs": [],
      "name": "EachSignerMustProvideTheSameValue",
      "type": "error"
    },
    {
      "inputs": [],
      "name": "EmptyCalldataPointersArr",
      "type": "error"
    },
    {
      "inputs": [],
      "name": "IncorrectUnsignedMetadataSize",
      "type": "error"
    },
    {
      "inputs": [
        {
          "internalType": "uint256",
          "name": "requested",
          "type": "uint256"
        },
        {
          "internalType": "uint256",
          "name": "allowance",
          "type": "uint256"
        }
      ],
      "name": "InsufficientAllowance",
      "type": "error"
    },
    {
      "inputs": [
        {
          "internalType": "uint256",
          "name": "amount",
          "type": "uint256"
        },
        {
          "internalType": "uint256",
          "name": "availableBalance",
          "type": "uint256"
        }
      ],
      "name": "InsufficientAvailableBalance",
      "type": "error"
    },
    {
      "inputs": [
        {
          "internalType": "uint256",
          "name": "receivedSignersCount",
          "type": "uint256"
        },
        {
          "internalType": "uint256",
          "name": "requiredSignersCount",
          "type": "uint256"
        }
      ],
      "name": "InsufficientNumberOfUniqueSigners",
      "type": "error"
    },
    {
      "inputs": [],
      "name": "InsufficientPoolFunds",
      "type": "error"
    },
    {
      "inputs": [],
      "name": "InsufficientSurplus",
      "type": "error"
    },
    {
      "inputs": [],
      "name": "InvalidCalldataPointer",
      "type": "error"
    },
    {
      "inputs": [],
      "name": "MaxPoolUtilisationBreached",
      "type": "error"
    },
    {
      "inputs": [],
      "name": "MintToAddressZero",
      "type": "error"
    },
    {
      "inputs": [
        {
          "internalType": "address",
          "name": "target",
          "type": "address"
        }
      ],
      "name": "NotAContract",
      "type": "error"
    },
    {
      "inputs": [],
      "name": "NotAuthorizedToBorrow",
      "type": "error"
    },
    {
      "inputs": [],
      "name": "PoolFrozen",
      "type": "error"
    },
    {
      "inputs": [
        {
          "internalType": "bytes",
          "name": "result",
          "type": "bytes"
        }
      ],
      "name": "ProxyCalldataFailedWithCustomError",
      "type": "error"
    },
    {
      "inputs": [
        {
          "internalType": "string",
          "name": "message",
          "type": "string"
        }
      ],
      "name": "ProxyCalldataFailedWithStringMessage",
      "type": "error"
    },
    {
      "inputs": [],
      "name": "ProxyCalldataFailedWithoutErrMsg",
      "type": "error"
    },
    {
      "inputs": [],
      "name": "RedstonePayloadMustHaveAtLeastOneDataPackage",
      "type": "error"
    },
    {
      "inputs": [],
      "name": "RepayingMoreThanWasBorrowed",
      "type": "error"
    },
    {
      "inputs": [
        {
          "internalType": "address",
          "name": "receivedSigner",
          "type": "address"
        }
      ],
      "name": "SignerNotAuthorised",
      "type": "error"
    },
    {
      "inputs": [],
      "name": "SpenderZeroAddress",
      "type": "error"
    },
    {
      "inputs": [],
      "name": "TotalSupplyCapBreached",
      "type": "error"
    },
    {
      "inputs": [
        {
          "internalType": "uint256",
          "name": "amount",
          "type": "uint256"
        },
        {
          "internalType": "uint256",
          "name": "balance",
          "type": "uint256"
        }
      ],
      "name": "TransferAmountExceedsBalance",
      "type": "error"
    },
    {
      "inputs": [],
      "name": "TransferToPoolAddress",
      "type": "error"
    },
    {
      "inputs": [],
      "name": "TransferToZeroAddress",
      "type": "error"
    },
    {
      "inputs": [],
      "name": "ZeroDepositAmount",
      "type": "error"
    },
    {
      "anonymous": false,
      "inputs": [
        {
          "indexed": true,
          "internalType": "address",
          "name": "owner",
          "type": "address"
        },
        {
          "indexed": true,
          "internalType": "address",
          "name": "spender",
          "type": "address"
        },
        {
          "indexed": false,
          "internalType": "uint256",
          "name": "value",
          "type": "uint256"
        }
      ],
      "name": "Approval",
      "type": "event"
    },
    {
      "anonymous": false,
      "inputs": [
        {
          "indexed": true,
          "internalType": "address",
          "name": "account",
          "type": "address"
        },
        {
          "indexed": false,
          "internalType": "int256",
          "name": "diff",
          "type": "int256"
        },
        {
          "indexed": false,
          "internalType": "uint256",
          "name": "timestamp",
          "type": "uint256"
        }
      ],
      "name": "BalanceCorrected",
      "type": "event"
    },
    {
      "anonymous": false,
      "inputs": [
        {
          "indexed": true,
          "internalType": "address",
          "name": "user",
          "type": "address"
        },
        {
          "indexed": true,
          "internalType": "address",
          "name": "borrower",
          "type": "address"
        },
        {
          "indexed": false,
          "internalType": "uint256",
          "name": "value",
          "type": "uint256"
        },
        {
          "indexed": false,
          "internalType": "uint256",
          "name": "timestamp",
          "type": "uint256"
        }
      ],
      "name": "BorrowerInitialized",
      "type": "event"
    },
    {
      "anonymous": false,
      "inputs": [
        {
          "indexed": true,
          "internalType": "address",
          "name": "registry",
          "type": "address"
        },
        {
          "indexed": false,
          "internalType": "uint256",
          "name": "timestamp",
          "type": "uint256"
        }
      ],
      "name": "BorrowersRegistryChanged",
      "type": "event"
    },
    {
      "anonymous": false,
      "inputs": [
        {
          "indexed": true,
          "internalType": "address",
          "name": "user",
          "type": "address"
        },
        {
          "indexed": false,
          "internalType": "uint256",
          "name": "value",
          "type": "uint256"
        },
        {
          "indexed": false,
          "internalType": "uint256",
          "name": "timestamp",
          "type": "uint256"
        }
      ],
      "name": "Borrowing",
      "type": "event"
    },
    {
      "anonymous": false,
      "inputs": [
        {
          "indexed": true,
          "internalType": "address",
          "name": "user",
          "type": "address"
        },
        {
          "indexed": false,
          "internalType": "uint256",
          "name": "value",
          "type": "uint256"
        },
        {
          "indexed": false,
          "internalType": "uint256",
          "name": "timestamp",
          "type": "uint256"
        }
      ],
      "name": "Deposit",
      "type": "event"
    },
    {
      "anonymous": false,
      "inputs": [
        {
          "indexed": true,
          "internalType": "address",
          "name": "user",
          "type": "address"
        },
        {
          "indexed": false,
          "internalType": "uint256",
          "name": "amount",
          "type": "uint256"
        },
        {
          "indexed": false,
          "internalType": "uint256",
          "name": "lockTime",
          "type": "uint256"
        },
        {
          "indexed": false,
          "internalType": "uint256",
          "name": "unlockTime",
          "type": "uint256"
        }
      ],
      "name": "DepositLocked",
      "type": "event"
    },
    {
      "anonymous": false,
      "inputs": [
        {
          "indexed": true,
          "internalType": "address",
          "name": "user",
          "type": "address"
        },
        {
          "indexed": true,
          "internalType": "address",
          "name": "_of",
          "type": "address"
        },
        {
          "indexed": false,
          "internalType": "uint256",
          "name": "value",
          "type": "uint256"
        },
        {
          "indexed": false,
          "internalType": "uint256",
          "name": "timestamp",
          "type": "uint256"
        }
      ],
      "name": "DepositOnBehalfOf",
      "type": "event"
    },
    {
      "anonymous": false,
      "inputs": [
        {
          "indexed": true,
          "internalType": "address",
          "name": "user",
          "type": "address"
        },
        {
          "indexed": true,
          "internalType": "address",
          "name": "depositor",
          "type": "address"
        },
        {
          "indexed": false,
          "internalType": "uint256",
          "name": "value",
          "type": "uint256"
        },
        {
          "indexed": false,
          "internalType": "uint256",
          "name": "timestamp",
          "type": "uint256"
        }
      ],
      "name": "DepositorInitialized",
      "type": "event"
    },
    {
      "anonymous": false,
      "inputs": [
        {
          "indexed": false,
          "internalType": "uint8",
          "name": "version",
          "type": "uint8"
        }
      ],
      "name": "Initialized",
      "type": "event"
    },
    {
      "anonymous": false,
      "inputs": [
        {
          "indexed": true,
          "internalType": "address",
          "name": "user",
          "type": "address"
        },
        {
          "indexed": false,
          "internalType": "uint256",
          "name": "value",
          "type": "uint256"
        },
        {
          "indexed": false,
          "internalType": "uint256",
          "name": "timestamp",
          "type": "uint256"
        }
      ],
      "name": "InterestCollected",
      "type": "event"
    },
    {
      "anonymous": false,
      "inputs": [
        {
          "indexed": true,
          "internalType": "address",
          "name": "from",
          "type": "address"
        },
        {
          "indexed": true,
          "internalType": "address",
          "name": "to",
          "type": "address"
        }
      ],
      "name": "OwnershipTransferRequested",
      "type": "event"
    },
    {
      "anonymous": false,
      "inputs": [
        {
          "indexed": true,
          "internalType": "address",
          "name": "previousOwner",
          "type": "address"
        },
        {
          "indexed": true,
          "internalType": "address",
          "name": "newOwner",
          "type": "address"
        }
      ],
      "name": "OwnershipTransferred",
      "type": "event"
    },
    {
      "anonymous": false,
      "inputs": [
        {
          "indexed": true,
          "internalType": "address",
          "name": "poolRewarder",
          "type": "address"
        },
        {
          "indexed": false,
          "internalType": "uint256",
          "name": "timestamp",
          "type": "uint256"
        }
      ],
      "name": "PoolRewarderChanged",
      "type": "event"
    },
    {
      "anonymous": false,
      "inputs": [
        {
          "indexed": true,
          "internalType": "address",
          "name": "calculator",
          "type": "address"
        },
        {
          "indexed": false,
          "internalType": "uint256",
          "name": "timestamp",
          "type": "uint256"
        }
      ],
      "name": "RatesCalculatorChanged",
      "type": "event"
    },
    {
      "anonymous": false,
      "inputs": [
        {
          "indexed": true,
          "internalType": "address",
          "name": "user",
          "type": "address"
        },
        {
          "indexed": false,
          "internalType": "uint256",
          "name": "value",
          "type": "uint256"
        },
        {
          "indexed": false,
          "internalType": "uint256",
          "name": "timestamp",
          "type": "uint256"
        }
      ],
      "name": "Repayment",
      "type": "event"
    },
    {
      "anonymous": false,
      "inputs": [
        {
          "indexed": true,
          "internalType": "address",
          "name": "from",
          "type": "address"
        },
        {
          "indexed": true,
          "internalType": "address",
          "name": "to",
          "type": "address"
        },
        {
          "indexed": false,
          "internalType": "uint256",
          "name": "value",
          "type": "uint256"
        }
      ],
      "name": "Transfer",
      "type": "event"
    },
    {
      "anonymous": false,
      "inputs": [
        {
          "indexed": true,
          "internalType": "address",
          "name": "user",
          "type": "address"
        },
        {
          "indexed": false,
          "internalType": "uint256",
          "name": "value",
          "type": "uint256"
        },
        {
          "indexed": false,
          "internalType": "uint256",
          "name": "timestamp",
          "type": "uint256"
        }
      ],
      "name": "Withdrawal",
      "type": "event"
    },
    {
      "anonymous": false,
      "inputs": [
        {
          "indexed": true,
          "internalType": "address",
          "name": "user",
          "type": "address"
        },
        {
          "indexed": false,
          "internalType": "uint256",
          "name": "amount",
          "type": "uint256"
        },
        {
          "indexed": false,
          "internalType": "uint256",
          "name": "timestamp",
          "type": "uint256"
        }
      ],
      "name": "WithdrawalIntentCancelled",
      "type": "event"
    },
    {
      "anonymous": false,
      "inputs": [
        {
          "indexed": true,
          "internalType": "address",
          "name": "user",
          "type": "address"
        },
        {
          "indexed": false,
          "internalType": "uint256",
          "name": "amount",
          "type": "uint256"
        },
        {
          "indexed": false,
          "internalType": "uint256",
          "name": "actionableAt",
          "type": "uint256"
        },
        {
          "indexed": false,
          "internalType": "uint256",
          "name": "expiresAt",
          "type": "uint256"
        }
      ],
      "name": "WithdrawalIntentCreated",
      "type": "event"
    },
    {
      "inputs": [],
      "name": "MAX_LOCK_TIME",
      "outputs": [
        {
          "internalType": "uint256",
          "name": "",
          "type": "uint256"
        }
      ],
      "stateMutability": "view",
      "type": "function"
    },
    {
      "inputs": [],
      "name": "acceptOwnership",
      "outputs": [],
      "stateMutability": "nonpayable",
      "type": "function"
    },
    {
      "inputs": [
        {
          "internalType": "address",
          "name": "owner",
          "type": "address"
        },
        {
          "internalType": "address",
          "name": "spender",
          "type": "address"
        }
      ],
      "name": "allowance",
      "outputs": [
        {
          "internalType": "uint256",
          "name": "",
          "type": "uint256"
        }
      ],
      "stateMutability": "view",
      "type": "function"
    },
    {
      "inputs": [
        {
          "internalType": "address",
          "name": "spender",
          "type": "address"
        },
        {
          "internalType": "uint256",
          "name": "amount",
          "type": "uint256"
        }
      ],
      "name": "approve",
      "outputs": [
        {
          "internalType": "bool",
          "name": "",
          "type": "bool"
        }
      ],
      "stateMutability": "nonpayable",
      "type": "function"
    },
    {
      "inputs": [
        {
          "internalType": "address",
          "name": "user",
          "type": "address"
        }
      ],
      "name": "balanceOf",
      "outputs": [
        {
          "internalType": "uint256",
          "name": "",
          "type": "uint256"
        }
      ],
      "stateMutability": "view",
      "type": "function"
    },
    {
      "inputs": [
        {
          "internalType": "uint256",
          "name": "_amount",
          "type": "uint256"
        }
      ],
      "name": "borrow",
      "outputs": [],
      "stateMutability": "nonpayable",
      "type": "function"
    },
    {
      "inputs": [],
      "name": "borrowIndex",
      "outputs": [
        {
          "internalType": "contract IIndex",
          "name": "",
          "type": "address"
        }
      ],
      "stateMutability": "view",
      "type": "function"
    },
    {
      "inputs": [
        {
          "internalType": "address",
          "name": "",
          "type": "address"
        }
      ],
      "name": "borrowed",
      "outputs": [
        {
          "internalType": "uint256",
          "name": "",
          "type": "uint256"
        }
      ],
      "stateMutability": "view",
      "type": "function"
    },
    {
      "inputs": [],
      "name": "borrowersRegistry",
      "outputs": [
        {
          "internalType": "contract IBorrowersRegistry",
          "name": "",
          "type": "address"
        }
      ],
      "stateMutability": "view",
      "type": "function"
    },
    {
      "inputs": [
        {
          "internalType": "uint256",
          "name": "intentIndex",
          "type": "uint256"
        }
      ],
      "name": "cancelWithdrawalIntent",
      "outputs": [],
      "stateMutability": "nonpayable",
      "type": "function"
    },
    {
      "inputs": [],
      "name": "checkRewards",
      "outputs": [
        {
          "internalType": "uint256",
          "name": "",
          "type": "uint256"
        }
      ],
      "stateMutability": "view",
      "type": "function"
    },
    {
      "inputs": [],
      "name": "clearExpiredIntents",
      "outputs": [],
      "stateMutability": "nonpayable",
      "type": "function"
    },
    {
      "inputs": [],
      "name": "containsOracleCalldata",
      "outputs": [
        {
          "internalType": "bool",
          "name": "",
          "type": "bool"
        }
      ],
      "stateMutability": "view",
      "type": "function"
    },
    {
      "inputs": [
        {
          "internalType": "address[]",
          "name": "accounts",
          "type": "address[]"
        },
        {
          "internalType": "uint256[]",
          "name": "balances",
          "type": "uint256[]"
        }
      ],
      "name": "correctBalances",
      "outputs": [],
      "stateMutability": "nonpayable",
      "type": "function"
    },
    {
      "inputs": [
        {
          "internalType": "uint256",
          "name": "amount",
          "type": "uint256"
        }
      ],
      "name": "createWithdrawalIntent",
      "outputs": [],
      "stateMutability": "nonpayable",
      "type": "function"
    },
    {
      "inputs": [],
      "name": "decimals",
      "outputs": [
        {
          "internalType": "uint8",
          "name": "decimals",
          "type": "uint8"
        }
      ],
      "stateMutability": "pure",
      "type": "function"
    },
    {
      "inputs": [
        {
          "internalType": "address",
          "name": "spender",
          "type": "address"
        },
        {
          "internalType": "uint256",
          "name": "subtractedValue",
          "type": "uint256"
        }
      ],
      "name": "decreaseAllowance",
      "outputs": [
        {
          "internalType": "bool",
          "name": "",
          "type": "bool"
        }
      ],
      "stateMutability": "nonpayable",
      "type": "function"
    },
    {
      "inputs": [
        {
          "internalType": "uint256",
          "name": "_amount",
          "type": "uint256"
        }
      ],
      "name": "deposit",
      "outputs": [],
      "stateMutability": "nonpayable",
      "type": "function"
    },
    {
      "inputs": [],
      "name": "depositIndex",
      "outputs": [
        {
          "internalType": "contract IIndex",
          "name": "",
          "type": "address"
        }
      ],
      "stateMutability": "view",
      "type": "function"
    },
    {
      "inputs": [
        {
          "internalType": "uint256",
          "name": "_amount",
          "type": "uint256"
        },
        {
          "internalType": "address",
          "name": "_of",
          "type": "address"
        }
      ],
      "name": "depositOnBehalf",
      "outputs": [],
      "stateMutability": "nonpayable",
      "type": "function"
    },
    {
      "inputs": [],
      "name": "extractTimestampsAndAssertAllAreEqual",
      "outputs": [
        {
          "internalType": "uint256",
          "name": "extractedTimestamp",
          "type": "uint256"
        }
      ],
      "stateMutability": "pure",
      "type": "function"
    },
    {
      "inputs": [
        {
          "internalType": "address",
          "name": "_user",
          "type": "address"
        }
      ],
      "name": "getBorrowed",
      "outputs": [
        {
          "internalType": "uint256",
          "name": "",
          "type": "uint256"
        }
      ],
      "stateMutability": "view",
      "type": "function"
    },
    {
      "inputs": [],
      "name": "getBorrowingRate",
      "outputs": [
        {
          "internalType": "uint256",
          "name": "",
          "type": "uint256"
        }
      ],
      "stateMutability": "view",
      "type": "function"
    },
    {
      "inputs": [],
      "name": "getDepositRate",
      "outputs": [
        {
          "internalType": "uint256",
          "name": "",
          "type": "uint256"
        }
      ],
      "stateMutability": "view",
      "type": "function"
    },
    {
      "inputs": [],
      "name": "getFullPoolStatus",
      "outputs": [
        {
          "internalType": "uint256[5]",
          "name": "",
          "type": "uint256[5]"
        }
      ],
      "stateMutability": "view",
      "type": "function"
    },
    {
      "inputs": [
        {
          "internalType": "address",
          "name": "account",
          "type": "address"
        }
      ],
      "name": "getFullyVestedLockedBalance",
      "outputs": [
        {
          "internalType": "uint256",
          "name": "fullyVestedBalance",
          "type": "uint256"
        }
      ],
      "stateMutability": "view",
      "type": "function"
    },
    {
      "inputs": [
        {
          "internalType": "address",
          "name": "account",
          "type": "address"
        }
      ],
      "name": "getLockedBalance",
      "outputs": [
        {
          "internalType": "uint256",
          "name": "",
          "type": "uint256"
        }
      ],
      "stateMutability": "view",
      "type": "function"
    },
    {
      "inputs": [],
      "name": "getMaxPoolUtilisationForBorrowing",
      "outputs": [
        {
          "internalType": "uint256",
          "name": "",
          "type": "uint256"
        }
      ],
      "stateMutability": "view",
      "type": "function"
    },
    {
      "inputs": [
        {
          "internalType": "address",
          "name": "account",
          "type": "address"
        },
        {
          "internalType": "uint256",
          "name": "excludedIntentAmount",
          "type": "uint256"
        }
      ],
      "name": "getNotLockedBalance",
      "outputs": [
        {
          "internalType": "uint256",
          "name": "notLockedBalance",
          "type": "uint256"
        }
      ],
      "stateMutability": "view",
      "type": "function"
    },
    {
      "inputs": [],
      "name": "getRewards",
      "outputs": [],
      "stateMutability": "nonpayable",
      "type": "function"
    },
    {
      "inputs": [
        {
          "internalType": "address",
          "name": "user",
          "type": "address"
        }
      ],
      "name": "getTotalIntentAmount",
      "outputs": [
        {
          "internalType": "uint256",
          "name": "totalIntentAmount",
          "type": "uint256"
        }
      ],
      "stateMutability": "view",
      "type": "function"
    },
    {
      "inputs": [
        {
          "internalType": "address",
          "name": "user",
          "type": "address"
        }
      ],
      "name": "getUserIntents",
      "outputs": [
        {
          "components": [
            {
              "internalType": "uint256",
              "name": "amount",
              "type": "uint256"
            },
            {
              "internalType": "uint256",
              "name": "actionableAt",
              "type": "uint256"
            },
            {
              "internalType": "uint256",
              "name": "expiresAt",
              "type": "uint256"
            },
            {
              "internalType": "bool",
              "name": "isPending",
              "type": "bool"
            },
            {
              "internalType": "bool",
              "name": "isActionable",
              "type": "bool"
            },
            {
              "internalType": "bool",
              "name": "isExpired",
              "type": "bool"
            }
          ],
          "internalType": "struct Pool.IntentInfo[]",
          "name": "",
          "type": "tuple[]"
        }
      ],
      "stateMutability": "view",
      "type": "function"
    },
    {
      "inputs": [],
      "name": "getVPrimeControllerAddress",
      "outputs": [
        {
          "internalType": "address",
          "name": "",
          "type": "address"
        }
      ],
      "stateMutability": "view",
      "type": "function"
    },
    {
      "inputs": [
        {
          "internalType": "address",
          "name": "spender",
          "type": "address"
        },
        {
          "internalType": "uint256",
          "name": "addedValue",
          "type": "uint256"
        }
      ],
      "name": "increaseAllowance",
      "outputs": [
        {
          "internalType": "bool",
          "name": "",
          "type": "bool"
        }
      ],
      "stateMutability": "nonpayable",
      "type": "function"
    },
    {
      "inputs": [
        {
          "internalType": "contract IRatesCalculator",
          "name": "ratesCalculator_",
          "type": "address"
        },
        {
          "internalType": "contract IBorrowersRegistry",
          "name": "borrowersRegistry_",
          "type": "address"
        },
        {
          "internalType": "contract IIndex",
          "name": "depositIndex_",
          "type": "address"
        },
        {
          "internalType": "contract IIndex",
          "name": "borrowIndex_",
          "type": "address"
        },
        {
          "internalType": "address payable",
          "name": "tokenAddress_",
          "type": "address"
        },
        {
          "internalType": "contract IPoolRewarder",
          "name": "poolRewarder_",
          "type": "address"
        },
        {
          "internalType": "uint256",
          "name": "_totalSupplyCap",
          "type": "uint256"
        }
      ],
      "name": "initialize",
      "outputs": [],
      "stateMutability": "nonpayable",
      "type": "function"
    },
    {
      "inputs": [
        {
          "internalType": "address",
          "name": "account",
          "type": "address"
        },
        {
          "internalType": "uint256",
          "name": "amount",
          "type": "uint256"
        },
        {
          "internalType": "uint256",
          "name": "excludedIntentAmount",
          "type": "uint256"
        }
      ],
      "name": "isWithdrawalAmountAvailable",
      "outputs": [
        {
          "internalType": "bool",
          "name": "",
          "type": "bool"
        }
      ],
      "stateMutability": "view",
      "type": "function"
    },
    {
      "inputs": [
        {
          "internalType": "uint256",
          "name": "amount",
          "type": "uint256"
        },
        {
          "internalType": "uint256",
          "name": "lockTime",
          "type": "uint256"
        }
      ],
      "name": "lockDeposit",
      "outputs": [],
      "stateMutability": "nonpayable",
      "type": "function"
    },
    {
      "inputs": [
        {
          "internalType": "address",
          "name": "",
          "type": "address"
        },
        {
          "internalType": "uint256",
          "name": "",
          "type": "uint256"
        }
      ],
      "name": "locks",
      "outputs": [
        {
          "internalType": "uint256",
          "name": "lockTime",
          "type": "uint256"
        },
        {
          "internalType": "uint256",
          "name": "amount",
          "type": "uint256"
        },
        {
          "internalType": "uint256",
          "name": "unlockTime",
          "type": "uint256"
        }
      ],
      "stateMutability": "view",
      "type": "function"
    },
    {
      "inputs": [],
      "name": "name",
      "outputs": [
        {
          "internalType": "string",
          "name": "_name",
          "type": "string"
        }
      ],
      "stateMutability": "pure",
      "type": "function"
    },
    {
      "inputs": [],
      "name": "owner",
      "outputs": [
        {
          "internalType": "address",
          "name": "",
          "type": "address"
        }
      ],
      "stateMutability": "view",
      "type": "function"
    },
    {
      "inputs": [],
      "name": "pendingOwner",
      "outputs": [
        {
          "internalType": "address",
          "name": "",
          "type": "address"
        }
      ],
      "stateMutability": "view",
      "type": "function"
    },
    {
      "inputs": [],
      "name": "poolRewarder",
      "outputs": [
        {
          "internalType": "contract IPoolRewarder",
          "name": "",
          "type": "address"
        }
      ],
      "stateMutability": "view",
      "type": "function"
    },
    {
      "inputs": [],
      "name": "ratesCalculator",
      "outputs": [
        {
          "internalType": "contract IRatesCalculator",
          "name": "",
          "type": "address"
        }
      ],
      "stateMutability": "view",
      "type": "function"
    },
    {
      "inputs": [
        {
          "internalType": "uint256",
          "name": "amount",
          "type": "uint256"
        },
        {
          "internalType": "address",
          "name": "account",
          "type": "address"
        }
      ],
      "name": "recoverSurplus",
      "outputs": [],
      "stateMutability": "nonpayable",
      "type": "function"
    },
    {
      "inputs": [],
      "name": "renounceOwnership",
      "outputs": [],
      "stateMutability": "nonpayable",
      "type": "function"
    },
    {
      "inputs": [
        {
          "internalType": "uint256",
          "name": "amount",
          "type": "uint256"
        }
      ],
      "name": "repay",
      "outputs": [],
      "stateMutability": "nonpayable",
      "type": "function"
    },
    {
      "inputs": [
        {
          "internalType": "contract IBorrowersRegistry",
          "name": "borrowersRegistry_",
          "type": "address"
        }
      ],
      "name": "setBorrowersRegistry",
      "outputs": [],
      "stateMutability": "nonpayable",
      "type": "function"
    },
    {
      "inputs": [
        {
          "internalType": "contract IPoolRewarder",
          "name": "_poolRewarder",
          "type": "address"
        }
      ],
      "name": "setPoolRewarder",
      "outputs": [],
      "stateMutability": "nonpayable",
      "type": "function"
    },
    {
      "inputs": [
        {
          "internalType": "contract IRatesCalculator",
          "name": "ratesCalculator_",
          "type": "address"
        }
      ],
      "name": "setRatesCalculator",
      "outputs": [],
      "stateMutability": "nonpayable",
      "type": "function"
    },
    {
      "inputs": [
        {
          "internalType": "contract ITokenManager",
          "name": "_tokenManager",
          "type": "address"
        }
      ],
      "name": "setTokenManager",
      "outputs": [],
      "stateMutability": "nonpayable",
      "type": "function"
    },
    {
      "inputs": [
        {
          "internalType": "uint256",
          "name": "_newTotalSupplyCap",
          "type": "uint256"
        }
      ],
      "name": "setTotalSupplyCap",
      "outputs": [],
      "stateMutability": "nonpayable",
      "type": "function"
    },
    {
      "inputs": [],
      "name": "symbol",
      "outputs": [
        {
          "internalType": "string",
          "name": "_symbol",
          "type": "string"
        }
      ],
      "stateMutability": "pure",
      "type": "function"
    },
    {
      "inputs": [],
      "name": "tokenAddress",
      "outputs": [
        {
          "internalType": "address payable",
          "name": "",
          "type": "address"
        }
      ],
      "stateMutability": "view",
      "type": "function"
    },
    {
      "inputs": [],
      "name": "tokenManager",
      "outputs": [
        {
          "internalType": "contract ITokenManager",
          "name": "",
          "type": "address"
        }
      ],
      "stateMutability": "view",
      "type": "function"
    },
    {
      "inputs": [],
      "name": "totalBorrowed",
      "outputs": [
        {
          "internalType": "uint256",
          "name": "",
          "type": "uint256"
        }
      ],
      "stateMutability": "view",
      "type": "function"
    },
    {
      "inputs": [],
      "name": "totalSupply",
      "outputs": [
        {
          "internalType": "uint256",
          "name": "",
          "type": "uint256"
        }
      ],
      "stateMutability": "view",
      "type": "function"
    },
    {
      "inputs": [],
      "name": "totalSupplyCap",
      "outputs": [
        {
          "internalType": "uint256",
          "name": "",
          "type": "uint256"
        }
      ],
      "stateMutability": "view",
      "type": "function"
    },
    {
      "inputs": [
        {
          "internalType": "address",
          "name": "recipient",
          "type": "address"
        },
        {
          "internalType": "uint256",
          "name": "amount",
          "type": "uint256"
        }
      ],
      "name": "transfer",
      "outputs": [
        {
          "internalType": "bool",
          "name": "",
          "type": "bool"
        }
      ],
      "stateMutability": "nonpayable",
      "type": "function"
    },
    {
      "inputs": [
        {
          "internalType": "address",
          "name": "sender",
          "type": "address"
        },
        {
          "internalType": "address",
          "name": "recipient",
          "type": "address"
        },
        {
          "internalType": "uint256",
          "name": "amount",
          "type": "uint256"
        }
      ],
      "name": "transferFrom",
      "outputs": [
        {
          "internalType": "bool",
          "name": "",
          "type": "bool"
        }
      ],
      "stateMutability": "nonpayable",
      "type": "function"
    },
    {
      "inputs": [
        {
          "internalType": "address",
          "name": "newOwner",
          "type": "address"
        }
      ],
      "name": "transferOwnership",
      "outputs": [],
      "stateMutability": "nonpayable",
      "type": "function"
    },
    {
      "inputs": [],
      "name": "vestingDistributor",
      "outputs": [
        {
          "internalType": "contract VestingDistributor",
          "name": "",
          "type": "address"
        }
      ],
      "stateMutability": "view",
      "type": "function"
    },
    {
      "inputs": [
        {
          "internalType": "uint256",
          "name": "_amount",
          "type": "uint256"
        },
        {
          "internalType": "uint256[]",
          "name": "intentIndices",
          "type": "uint256[]"
        }
      ],
      "name": "withdraw",
      "outputs": [],
      "stateMutability": "nonpayable",
      "type": "function"
    },
    {
      "inputs": [
        {
          "internalType": "address",
          "name": "",
          "type": "address"
        },
        {
          "internalType": "uint256",
          "name": "",
          "type": "uint256"
        }
      ],
      "name": "withdrawalIntents",
      "outputs": [
        {
          "internalType": "uint256",
          "name": "amount",
          "type": "uint256"
        },
        {
          "internalType": "uint256",
          "name": "actionableAt",
          "type": "uint256"
        },
        {
          "internalType": "uint256",
          "name": "expiresAt",
          "type": "uint256"
        }
      ],
      "stateMutability": "view",
      "type": "function"
    }
  ],
  "transactionHash": "0xbcb95801b8e2e78fb300ae4f7ebc99f5055f43088158e8bd95c4951b114575bb",
  "args": [],
  "numDeployments": 7,
  "solcInputHash": "fc8ca9ea27e11b3160aca8ff6e2c93f9",
  "bytecode": "0x608060405234801561001057600080fd5b50614794806100206000396000f3fe608060405234801561001057600080fd5b50600436106102e55760003560e01c8063726cd4151161018f578063726cd4151461055357806379ba50971461055b5780637b898939146105635780637cb2b79c1461057657806389e8adb4146105895780638da5cb5b1461059c578063920878d6146105a457806395d89b41146105b75780639d76ea58146105da578063a457c2d7146105ed578063a9059cbb14610600578063aa5af0fd14610613578063b425f80214610626578063b6b55f2514610639578063b75c42bd1461064c578063b790634e14610661578063bb102aea14610669578063c408689314610672578063c4ce635814610685578063c5ebeaec14610698578063d06dca89146106ab578063dd62ed3e146106be578063e2b9442e146106f7578063e30c39781461070a578063e84d13c814610712578063ee61bd6e14610725578063ef5fd2d114610738578063f2fde38b14610740578063f36b242514610753578063fa3209b21461075b578063fa78668f1461077b578063fc68f6611461078657600080fd5b80630572b0cc146102ea57806306fdde03146102f45780630790ef9a1461033857806307bbebdd1461034b5780630941cb3d1461036b578063095ea7b3146103995780630d1870df146103bc5780631457db34146103c45780631460e390146103d757806318160ddd146103ea57806323b872dd146103f25780632742f253146104055780632a709b14146104275780632aeaa2911461043a578063313ce5671461044257806331d05b1114610451578063371fd8e61461046457806337b764fe146104775780633866ecf71461048a578063395093511461049d5780634c19386c146104b057806355a547d5146104b8578063562b1168146104c05780635915d806146104d35780636011163e146104e657806361215aa8146104f95780636ca6d5d0146105075780636cf55ea21461051a57806370a082311461052d57806370d4cea014610540578063715018a6146102f2575b600080fd5b6102f2610799565b005b6040805180820190915260168152752232b63a30a83934b6b2abb930b83832b222ba3432b960511b60208201525b60405161032f91906140bf565b60405180910390f35b6102f26103463660046140e7565b6107fd565b60a15461035e906001600160a01b031681565b60405161032f9190614117565b61038b61037936600461412b565b609a6020526000908152604090205481565b60405190815260200161032f565b6103ac6103a7366004614148565b610905565b604051901515815260200161032f565b6103ac610981565b6102f26103d236600461412b565b610995565b6102f26103e5366004614174565b610a44565b61038b610cf0565b6103ac610400366004614201565b610d00565b610418610413366004614148565b611005565b60405161032f93929190614242565b60a35461035e906001600160a01b031681565b61038b611047565b6040516012815260200161032f565b6102f261045f366004614258565b6110b7565b6102f2610472366004614258565b6110c4565b6102f2610485366004614258565b6111b0565b6103ac610498366004614271565b611321565b6103ac6104ab366004614148565b61133a565b61038b6113e7565b61038b6113f2565b6102f26104ce366004614258565b61150a565b6102f26104e13660046142f1565b611662565b61038b6104f436600461412b565b6119b4565b670cd64299613c800061038b565b609d5461035e906001600160a01b031681565b6102f26105283660046140e7565b611a3b565b61038b61053b36600461412b565b611ce4565b6102f261054e36600461412b565b611d2a565b61035e611dd8565b6102f2611e69565b609e5461035e906001600160a01b031681565b6102f261058436600461412b565b611ef8565b61038b610597366004614148565b611f22565b61035e611f9a565b6102f26105b236600461433c565b611fa9565b6040805180820190915260078152664450574554486560c81b6020820152610322565b60a05461035e906001600160a01b031681565b6103ac6105fb366004614148565b61218d565b6103ac61060e366004614148565b612261565b609f5461035e906001600160a01b031681565b610418610634366004614148565b612495565b6102f2610647366004614258565b6124b1565b6106546124bb565b60405161032f91906143a7565b61038b612512565b61038b60975481565b61038b61068036600461412b565b612553565b61038b61069336600461412b565b612620565b6102f26106a6366004614258565b612740565b609c5461035e906001600160a01b031681565b61038b6106cc3660046143d8565b6001600160a01b03918216600090815260986020908152604080832093909416825291909152205490565b6102f2610705366004614406565b6129bd565b61035e612b29565b61038b61072036600461412b565b612b33565b609b5461035e906001600160a01b031681565b6102f2612bcb565b6102f261074e36600461412b565b612bd4565b61038b612c9b565b61076e61076936600461412b565b612cb7565b60405161032f9190614428565b61038b6305a39a8081565b6102f261079436600461412b565b612e1a565b609d546040516311305c1f60e11b81526001600160a01b0390911690632260b83e906107c9903390600401614117565b600060405180830381600087803b1580156107e357600080fd5b505af11580156107f7573d6000803e3d6000fd5b50505050565b610805612e98565b61080d612ef7565b60a0546040516370a0823160e01b81526000916001600160a01b0316906370a082319061083e903090600401614117565b602060405180830381865afa15801561085b573d6000803e3d6000fd5b505050506040513d601f19601f8201168201806040525081019061087f91906144a6565b9050600061088b610cf0565b6108936113e7565b61089d90846144d5565b6108a791906144e8565b9050818411156108ca576040516316d5c93f60e21b815260040160405180910390fd5b838110156108eb576040516394290ab960e01b815260040160405180910390fd5b6108f58385612f50565b50506109016001606555565b5050565b60006001600160a01b03831661092e57604051633d6601c760e11b815260040160405180910390fd5b3360008181526098602090815260408083206001600160a01b038816808552908352928190208690555185815291929160008051602061473f833981519152910160405180910390a35060015b92915050565b6602ed57011e0000601f1936013581161490565b61099d612e98565b6109a681612f6e565b1580156109bb57506001600160a01b03811615155b156109ef57609d546040516322a2d07b60e21b81526109e6916001600160a01b031690600401614117565b60405180910390fd5b609d80546001600160a01b0319166001600160a01b0383169081179091556040514281527f85796821ee1d670b0fdb986f256b5c1a29b9019038831c7f09df2061879cf9e5906020015b60405180910390a250565b600054610100900460ff1615808015610a645750600054600160ff909116105b80610a855750610a7330612f6e565b158015610a85575060005460ff166001145b610ae85760405162461bcd60e51b815260206004820152602e60248201527f496e697469616c697a61626c653a20636f6e747261637420697320616c72656160448201526d191e481a5b9a5d1a585b1a5e995960921b60648201526084016109e6565b6000805460ff191660011790558015610b0b576000805461ff0019166101001790555b610b1488612f6e565b8015610b245750610b2487612f6e565b8015610b345750610b3486612f6e565b8015610b445750610b4485612f6e565b8015610b665750610b5483612f6e565b80610b6657506001600160a01b038316155b610ba95760405162461bcd60e51b815260206004820152601460248201527357726f6e6720696e697420617267756d656e747360601b60448201526064016109e6565b609c80546001600160a01b03199081166001600160a01b038a811691909117909255609b805482168b8416179055609e80548216898416179055609f80548216888416179055609d8054821686841617905560a08054909116918616918217905560978390556040805163313ce56760e01b8152905163313ce567916004818101926020929091908290030181865afa158015610c4a573d6000803e3d6000fd5b505050506040513d601f19601f82011682018060405250810190610c6e91906144fb565b60a160146101000a81548160ff021916908360ff160217905550610c90612f7d565b610c98612fac565b610ca0612fdb565b8015610ce6576000805461ff0019169055604051600181527f7f26b83ff96e1f2b6a682f133852f6798a09c465da95921460cefb38474024989060200160405180910390a15b5050505050505050565b6000610cfb30611ce4565b905090565b6000610d0a612ef7565b6001600160a01b0384166000908152609860209081526040808320338452909152902054821115610d75576001600160a01b03841660009081526098602090815260408083203384529091529081902054905163054365bb60e31b81526109e691849160040161451e565b6001600160a01b038316610d9c57604051633a954ecd60e21b815260040160405180910390fd5b306001600160a01b03841603610dc55760405163ed728e5760e01b815260040160405180910390fd5b610dd184836000611321565b610dfc5781610de1856000611f22565b60405163adb9e04360e01b81526004016109e692919061451e565b610e05846131be565b6001600160a01b03841660009081526099602052604081208054849290610e2d9084906144e8565b90915550506001600160a01b038416600090815260986020908152604080832033845290915281208054849290610e659084906144e8565b90915550610e749050836131be565b6001600160a01b03831660009081526099602052604081208054849290610e9c9084906144d5565b9091555050609d546001600160a01b031615801590610eba57508115155b15610fa457609d54604051630d5dbdb360e21b81526000916001600160a01b031690633576f6cc90610ef2908690899060040161452c565b6020604051808303816000875af1158015610f11573d6000803e3d6000fd5b505050506040513d601f19601f82011682018060405250810190610f3591906144a6565b90508015610fa257609d546040516328ba35d960e11b81526001600160a01b03909116906351746bb290610f6f908490889060040161452c565b600060405180830381600087803b158015610f8957600080fd5b505af1158015610f9d573d6000803e3d6000fd5b505050505b505b826001600160a01b0316846001600160a01b031660008051602061471f83398151915284604051610fd791815260200190565b60405180910390a3610fe8846132e9565b610ff1836132e9565b506001610ffe6001606555565b9392505050565b60a4602052816000526040600020818154811061102157600080fd5b600091825260209091206003909102018054600182015460029092015490935090915083565b609d546040516246613160e11b81526000916001600160a01b031690628cc26290611076903390600401614117565b602060405180830381865afa158015611093573d6000803e3d6000fd5b505050506040513d601f19601f82011682018060405250810190610cfb91906144a6565b6110bf612e98565b609755565b6110cc612ef7565b6110d533613383565b336000908152609a602052604090205481111561110557604051630dcad43360e11b815260040160405180910390fd5b61110f3382613489565b336000908152609a60205260408120805483929061112e9084906144e8565b9091555050306000908152609a6020526040812080548392906111529084906144e8565b909155506111609050612fdb565b336001600160a01b03167f24fcca58a997b1b2eff6db8107e860458544c09ddd3693b3b779e1df6c0d6c5d824260405161119b92919061451e565b60405180910390a26111ad6001606555565b50565b6111b8612ef7565b33600090815260a460205260409020805482106111e75760405162461bcd60e51b81526004016109e690614543565b60008183815481106111fb576111fb614571565b6000918252602080832060408051606081018252600390940290910180548452600180820154938501939093526002015490830152845491935061123e916144e8565b90508084146112a25782818154811061125957611259614571565b906000526020600020906003020183858154811061127957611279614571565b600091825260209091208254600390920201908155600180830154908201556002918201549101555b828054806112b2576112b2614587565b60008281526020812060036000199093019283020181815560018101829055600201559055815160405133917fd33d8fdc6783acd0812c254bbb11863beb43e98ae9bb139867d674bb2a32336e9161130c9190429061451e565b60405180910390a25050506111ad6001606555565b60008061132e8584611f22565b90931115949350505050565b60006001600160a01b03831661136357604051633d6601c760e11b815260040160405180910390fd5b3360009081526098602090815260408083206001600160a01b03871684529091528120546113929084906144d5565b3360008181526098602090815260408083206001600160a01b038a168085529083529281902085905551848152939450909260008051602061473f833981519152910160405180910390a35060019392505050565b6000610cfb306119b4565b6000806113fd6134a1565b9050600061140a82613548565b61ffff1690508060000361143157604051632154bfcf60e21b815260040160405180910390fd5b61143c6002836144d5565b915060005b8181101561150457600061145484613582565b90506000806114646068876144d5565b9050600061147282366144e8565b9050803592508265ffffffffffff166000036114a157604051630336dc9d60e41b815260040160405180910390fd5b876000036114b9578265ffffffffffff1697506114e1565b878365ffffffffffff16146114e15760405163d9d1f46560e01b815260040160405180910390fd5b6114eb84886144d5565b96505050505080806114fc9061459d565b915050611441565b50505090565b611512612ef7565b600081116115625760405162461bcd60e51b815260206004820181905260248201527f416d6f756e74206d7573742062652067726561746572207468616e207a65726f60448201526064016109e6565b61156b336135be565b6000611578336000611f22565b90508082111561159f57818160405163adb9e04360e01b81526004016109e692919061451e565b60006115ae42620151806144d5565b905060006115bf826202a3006144d5565b60408051606081018252868152602080820186815282840185815233600081815260a48552868120805460018181018355918352959091208651600390960201948555925192840192909255516002909201919091559151929350917ff7e664c0da2f587b77873cf0f2c343841d19557b27f07a4fadf367fcabb15e679061164c90889087908790614242565b60405180910390a2505050506111ad6001606555565b61166a612ef7565b33600090815260a46020526040812090611686828585886136ce565b9050611693338283611321565b6116d35760405162461bcd60e51b815260206004820152601160248201527010985b185b98d9481a5cc81b1bd8dad959607a1b60448201526064016109e6565b825b80156117c357600085856116ea6001856144e8565b8181106116f9576116f9614571565b90506020020135905060006001858054905061171591906144e8565b90508082146117795784818154811061173057611730614571565b906000526020600020906003020185838154811061175057611750614571565b600091825260209091208254600390920201908155600180830154908201556002918201549101555b8480548061178957611789614587565b60008281526020812060036000199093019283020181815560018101829055600201559055508190506117bb816145b6565b9150506116d5565b506117cd336131be565b60a0546040516370a0823160e01b81526001600160a01b03909116906370a08231906117fd903090600401614117565b602060405180830381865afa15801561181a573d6000803e3d6000fd5b505050506040513d601f19601f8201168201806040525081019061183e91906144a6565b81111561185e576040516316d5c93f60e21b815260040160405180910390fd5b3060009081526099602052604090205481111561188e57604051630bba337f60e11b815260040160405180910390fd5b30600090815260996020526040812080548392906118ad9084906144e8565b909155506118bd905033826139b0565b6118c5612fdb565b6118ce336132e9565b609d546001600160a01b03161561195657609d54604051630d5dbdb360e21b81526001600160a01b0390911690633576f6cc90611911908490339060040161452c565b6020604051808303816000875af1158015611930573d6000803e3d6000fd5b505050506040513d601f19601f8201168201806040525081019061195491906144a6565b505b6119603382612f50565b336001600160a01b03167fdf273cb619d95419a9cd0ec88123a0538c85064229baa6363788f743fff90deb824260405161199b92919061451e565b60405180910390a250506119af6001606555565b505050565b609f546001600160a01b038281166000908152609a602052604080822054905163966da88960e01b81529193929092169163966da889916119fa9190869060040161452c565b602060405180830381865afa158015611a17573d6000803e3d6000fd5b505050506040513d601f19601f8201168201806040525081019061097b91906144a6565b611a43612ef7565b81600003611a645760405163078e1d8560e01b815260040160405180910390fd5b6001600160a01b038116611aa95760405162461bcd60e51b815260206004820152600c60248201526b41646472657373207a65726f60a01b60448201526064016109e6565b306001600160a01b03821603611b015760405162461bcd60e51b815260206004820181905260248201527f43616e6e6f74206465706f736974206f6e20626568616c66206f6620706f6f6c60448201526064016109e6565b60a0546040516370a0823160e01b8152611b7d9184916001600160a01b03909116906370a0823190611b37903390600401614117565b602060405180830381865afa158015611b54573d6000803e3d6000fd5b505050506040513d601f19601f82011682018060405250810190611b7891906144a6565b613a30565b9150611b88816131be565b60975415611bcd5760975430600090815260996020526040902054611bae9084906144d5565b1115611bcd57604051633f27d61760e01b815260040160405180910390fd5b611bd73383613489565b611be18183613a46565b3060009081526099602052604081208054849290611c009084906144d5565b90915550611c0e9050612fdb565b609d546001600160a01b031615611c8457609d546040516328ba35d960e11b81526001600160a01b03909116906351746bb290611c51908590859060040161452c565b600060405180830381600087803b158015611c6b57600080fd5b505af1158015611c7f573d6000803e3d6000fd5b505050505b806001600160a01b0316336001600160a01b03167fef0ada5ca19bede6a40b575865a6ce451938d26835b7215e6a5e03bb2c4392128442604051611cc992919061451e565b60405180910390a3611cda816132e9565b6109016001606555565b609e546001600160a01b0382811660009081526099602052604080822054905163966da88960e01b81529193929092169163966da889916119fa9190869060040161452c565b611d32612e98565b611d3b81612f6e565b158015611d5057506001600160a01b03811615155b15611d7057806040516322a2d07b60e21b81526004016109e69190614117565b609b80546001600160a01b0319166001600160a01b03831690811790915515611d9b57611d9b612fdb565b806001600160a01b03167fef1b7e9216e08b283cc613824ccb26ea505227777839a4f3c6810d64594e018242604051610a3991815260200190565b565b60a3546000906001600160a01b031615611e635760a360009054906101000a90046001600160a01b03166001600160a01b031663726cd4156040518163ffffffff1660e01b8152600401602060405180830381865afa158015611e3f573d6000803e3d6000fd5b505050506040513d601f19601f82011682018060405250810190610cfb91906145cd565b50600090565b6000611e73613ac6565b9050336001600160a01b03821614611ee55760405162461bcd60e51b815260206004820152602f60248201527f50656e64696e674f776e61626c653a2063616c6c6572206973206e6f7420746860448201526e32903832b73234b7339037bbb732b960891b60648201526084016109e6565b611eee81613ad9565b6111ad6000613b2b565b611f00612e98565b60a380546001600160a01b0319166001600160a01b0392909216919091179055565b600080611f2e84612553565b90506000611f3b85612b33565b9050838111611f4b576000611f55565b611f5584826144e8565b90506000611f6286611ce4565b90506000611f7083856144d5565b905080821015611f835760009450611f90565b611f8d81836144e8565b94505b5050505092915050565b6033546001600160a01b031690565b611fb1612ef7565b611fb9612e98565b8281146120015760405162461bcd60e51b8152602060048201526016602482015275082e4e4c2f2e640d8cadccee8d040dad2e6dac2e8c6d60531b60448201526064016109e6565b60005b8381101561218257600085858381811061202057612020614571565b9050602002016020810190612035919061412b565b9050600084848481811061204b5761204b614571565b90506020020135905061205d826131be565b600061206883611ce4565b9050808211156120e957600061207e82846144e8565b306000908152609960205260408120805492935083929091906120a29084906144d5565b909155506120b290508482613a46565b836001600160a01b03166000805160206146df83398151915282426040516120db92919061451e565b60405180910390a25061216c565b8082101561216c5760006120fd83836144e8565b306000908152609960205260408120805492935083929091906121219084906144e8565b90915550612131905084826139b0565b6001600160a01b0384166000805160206146df833981519152612153836145ea565b4260405161216292919061451e565b60405180910390a2505b505050808061217a9061459d565b915050612004565b506107f76001606555565b60006001600160a01b0383166121b657604051633d6601c760e11b815260040160405180910390fd5b3360009081526098602090815260408083206001600160a01b0387168452909152902054828110156121ff57828160405163054365bb60e31b81526004016109e692919061451e565b600061220b84836144e8565b3360008181526098602090815260408083206001600160a01b038b168085529083529281902085905551848152939450909260008051602061473f833981519152910160405180910390a3506001949350505050565b600061226b612ef7565b6001600160a01b03831661229257604051633a954ecd60e21b815260040160405180910390fd5b306001600160a01b038416036122bb5760405163ed728e5760e01b815260040160405180910390fd5b6122c733836000611321565b6122d75781610de1336000611f22565b336122e1816131be565b6001600160a01b038116600090815260996020526040902080548490039055612309846131be565b6001600160a01b038416600090815260996020526040812080548592906123319084906144d5565b9091555050609d546001600160a01b03161580159061234f57508215155b1561243957609d54604051630d5dbdb360e21b81526000916001600160a01b031690633576f6cc90612387908790869060040161452c565b6020604051808303816000875af11580156123a6573d6000803e3d6000fd5b505050506040513d601f19601f820116820180604052508101906123ca91906144a6565b9050801561243757609d546040516328ba35d960e11b81526001600160a01b03909116906351746bb290612404908490899060040161452c565b600060405180830381600087803b15801561241e57600080fd5b505af1158015612432573d6000803e3d6000fd5b505050505b505b836001600160a01b0316816001600160a01b031660008051602061471f8339815191528560405161246c91815260200190565b60405180910390a361247d336132e9565b612486846132e9565b600191505061097b6001606555565b60a2602052816000526040600020818154811061102157600080fd5b6111ad8133611a3b565b6124c3614051565b6040518060a001604052806124d6610cf0565b81526020016124e3612512565b81526020016124f0612c9b565b81526020016124fd6113e7565b8152602001670cd64299613c80009052919050565b609b546000906001600160a01b0316637cd0833161252e6113e7565b612536610cf0565b6040518363ffffffff1660e01b815260040161107692919061451e565b600080805b6001600160a01b038416600090815260a26020526040902054811015612619576001600160a01b038416600090815260a2602052604090208054429190839081106125a5576125a5614571565b9060005260206000209060030201600201541115612607576001600160a01b038416600090815260a2602052604090208054829081106125e7576125e7614571565b9060005260206000209060030201600101548261260491906144d5565b91505b806126118161459d565b915050612558565b5092915050565b6000805b6001600160a01b038316600090815260a2602052604090205481101561273a576001600160a01b038316600090815260a26020526040902080544291908390811061267157612671614571565b9060005260206000209060030201600201541115612728576001600160a01b038316600090815260a26020526040902080546305a39a809190839081106126ba576126ba614571565b600091825260208083206003909202909101546001600160a01b038716835260a290915260409091208054849081106126f5576126f5614571565b9060005260206000209060030201600101546127119190614606565b61271b919061461d565b61272590836144d5565b91505b806127328161459d565b915050612624565b50919050565b609c546001600160a01b031661276957604051631c038dab60e21b815260040160405180910390fd5b609c5460405163039ff21960e21b81526001600160a01b0390911690630e7fc86490612799903390600401614117565b602060405180830381865afa1580156127b6573d6000803e3d6000fd5b505050506040513d601f19601f820116820180604052508101906127da919061463f565b6127f757604051637582fa9b60e11b815260040160405180910390fd5b6127ff610cf0565b60000361281f576040516316d5c93f60e21b815260040160405180910390fd5b612827612ef7565b60a0546040516370a0823160e01b81526001600160a01b03909116906370a0823190612857903090600401614117565b602060405180830381865afa158015612874573d6000803e3d6000fd5b505050506040513d601f19601f8201168201806040525081019061289891906144a6565b8111156128b8576040516316d5c93f60e21b815260040160405180910390fd5b6128c133613383565b336000908152609a6020526040812080548392906128e09084906144d5565b9091555050306000908152609a6020526040812080548392906129049084906144d5565b9091555061291490503382612f50565b61291c612fdb565b336001600160a01b03167fd6b37be10b58108f696d9ed067fedad0bff7cb417ef4c28d2f8a25d6d83c98d5824260405161295792919061451e565b60405180910390a26129696001606555565b670cd64299613c800061297a610cf0565b6129826113e7565b61299490670de0b6b3a7640000614606565b61299e919061461d565b11156111ad576040516372b9ce3f60e11b815260040160405180910390fd5b816129c9336000611f22565b1015612a165760405162461bcd60e51b815260206004820152601c60248201527b496e73756666696369656e742062616c616e636520746f206c6f636b60201b60448201526064016109e6565b6305a39a80811115612a745760405162461bcd60e51b815260206004820152602160248201527f43616e6e6f74206c6f636b20666f72206d6f7265207468616e203320796561726044820152607360f81b60648201526084016109e6565b33600090815260a260209081526040918290208251606081018452848152918201859052918101612aa584426144d5565b905281546001818101845560009384526020938490208351600390930201918255928201519281019290925560400151600290910155337fada80de846c2fa6289ae8db8bd0145346851ca76d49946df18240ebbf97200a78383612b0981426144d5565b604051612b1893929190614242565b60405180910390a2610901336132e9565b6000610cfb613ac6565b6001600160a01b038116600090815260a460205260408120815b8154811015612bc457818181548110612b6857612b68614571565b9060005260206000209060030201600201544211612bb257818181548110612b9257612b92614571565b90600052602060002090600302016000015483612baf91906144d5565b92505b80612bbc8161459d565b915050612b4d565b5050919050565b611dd6336135be565b612bdc612e98565b6001600160a01b038116612c485760405162461bcd60e51b815260206004820152602d60248201527f50656e64696e674f776e61626c653a206e6577206f776e65722069732074686560448201526c207a65726f206164647265737360981b60648201526084016109e6565b612c5181613b2b565b806001600160a01b0316612c63611f9a565b6001600160a01b03167fed8889f560326eb138920d842192f0eb3dd22b4f139c87a2c57538e05bae127860405160405180910390a350565b609b546000906001600160a01b031663df841eec61252e6113e7565b6001600160a01b038116600090815260a4602052604081208054606092906001600160401b03811115612cec57612cec614661565b604051908082528060200260200182016040528015612d4c57816020015b6040805160c08101825260008082526020808301829052928201819052606082018190526080820181905260a08201528252600019909201910181612d0a5790505b50905060005b8254811015612e12576000838281548110612d6f57612d6f614571565b906000526020600020906003020190506040518060c00160405280826000015481526020018260010154815260200182600201548152602001826001015442101515815260200182600101544210158015612dce575082600201544211155b15158152602001826002015442111515815250838381518110612df357612df3614571565b6020026020010181905250508080612e0a9061459d565b915050612d52565b509392505050565b612e22612e98565b612e2b81612f6e565b612e4a57806040516322a2d07b60e21b81526004016109e69190614117565b609c80546001600160a01b0319166001600160a01b0383169081179091556040514281527f04dce7d074f7e287a2e6e3516c802271d58d5c14e0dede83a49719eb6b92046990602001610a39565b33612ea1611f9a565b6001600160a01b031614611dd65760405162461bcd60e51b815260206004820181905260248201527f4f776e61626c653a2063616c6c6572206973206e6f7420746865206f776e657260448201526064016109e6565b600260655403612f495760405162461bcd60e51b815260206004820152601f60248201527f5265656e7472616e637947756172643a207265656e7472616e742063616c6c0060448201526064016109e6565b6002606555565b60a054610901906001600160a01b03168383613b3d565b6001606555565b6001600160a01b03163b151590565b600054610100900460ff16612fa45760405162461bcd60e51b81526004016109e690614677565b611dd6613c67565b600054610100900460ff16612fd35760405162461bcd60e51b81526004016109e690614677565b611dd6613c97565b6000612fe56113e7565b90506000612ff1610cf0565b609b549091506001600160a01b031661301d5760405163fd4851e960e01b815260040160405180910390fd5b609e54609b54604051637cd0833160e01b81526001600160a01b03928316926334fcf437921690637cd083319061305a908790879060040161451e565b602060405180830381865afa158015613077573d6000803e3d6000fd5b505050506040513d601f19601f8201168201806040525081019061309b91906144a6565b6040518263ffffffff1660e01b81526004016130b991815260200190565b600060405180830381600087803b1580156130d357600080fd5b505af11580156130e7573d6000803e3d6000fd5b5050609f54609b546040516337e107bb60e21b81526001600160a01b0392831694506334fcf437935091169063df841eec90613129908790879060040161451e565b602060405180830381865afa158015613146573d6000803e3d6000fd5b505050506040513d601f19601f8201168201806040525081019061316a91906144a6565b6040518263ffffffff1660e01b815260040161318891815260200190565b600060405180830381600087803b1580156131a257600080fd5b505af11580156131b6573d6000803e3d6000fd5b505050505050565b6001600160a01b0381166000908152609960205260408120546131e083611ce4565b6131ea91906144e8565b90506131f68282613a46565b6131ff30611ce4565b306000908152609960205260409081902091909155516001600160a01b038316907f9bbd517758fbae61197f1c1c04c8614064e89512dbaf4350dcdf76fcaa5e21619061324f908490429061451e565b60405180910390a2609e54604051637681d99b60e11b81526001600160a01b039091169063ed03b33690613287908590600401614117565b600060405180830381600087803b1580156132a157600080fd5b505af11580156132b5573d6000803e3d6000fd5b5050609e54604051637681d99b60e11b81526001600160a01b03909116925063ed03b3369150613188903090600401614117565b60006132f3611dd8565b90506001600160a01b038116156109015761330c610981565b15613357576119af81836040516024016133269190614117565b60408051601f198184030181529190526020810180516001600160e01b0316636cec346160e01b1790526000613cbe565b60405163bf18c23960e01b81526001600160a01b0382169063bf18c23990613188908590600401614117565b61338c816119b4565b6001600160a01b0382166000908152609a60205260409020556133ae306119b4565b306000908152609a60205260409081902091909155609f549051637681d99b60e11b81526001600160a01b039091169063ed03b336906133f2908490600401614117565b600060405180830381600087803b15801561340c57600080fd5b505af1158015613420573d6000803e3d6000fd5b5050609f54604051637681d99b60e11b81526001600160a01b03909116925063ed03b3369150613454903090600401614117565b600060405180830381600087803b15801561346e57600080fd5b505af1158015613482573d6000803e3d6000fd5b5050505050565b60a054610901906001600160a01b0316833084613d47565b60006602ed57011e0000601f19360135811614806134d2576040516373bb264f60e11b815260040160405180910390fd5b600036602911156134f657604051632bcb7bc560e11b815260040160405180910390fd5b5060281936013560006009613511600362ffffff85166144d5565b61351b91906144d5565b9050366135296002836144d5565b1115610ffe5760405163c30a7bd760e01b815260040160405180910390fd5b6000806135566020846144d5565b90503681111561357957604051632bcb7bc560e11b815260040160405180910390fd5b36033592915050565b600080600061359084613e7d565b9092509050604e6135a28260206144d5565b6135ac9084614606565b6135b691906144d5565b949350505050565b6001600160a01b038116600090815260a460205260408120905b81548110156119af578181815481106135f3576135f3614571565b9060005260206000209060030201600201544211156136bc57815460009061361d906001906144e8565b90508082146136815782818154811061363857613638614571565b906000526020600020906003020183838154811061365857613658614571565b600091825260209091208254600390920201908155600180830154908201556002918201549101555b8280548061369157613691614587565b60008281526020812060036000199093019283020181815560018101829055600201559055506135d8565b806136c68161459d565b9150506135d8565b60008261371d5760405162461bcd60e51b815260206004820181905260248201527f4d7573742070726f76696465206174206c65617374206f6e6520696e74656e7460448201526064016109e6565b60015b838110156137d65784846137356001846144e8565b81811061374457613744614571565b9050602002013585858381811061375d5761375d614571565b90506020020135116137c45760405162461bcd60e51b815260206004820152602a60248201527f496e74656e7420696e6469636573206d757374206265207374726963746c7920604482015269696e6372656173696e6760b01b60648201526084016109e6565b806137ce8161459d565b915050613720565b506000805b8481101561390e5760008686838181106137f7576137f7614571565b905060200201359050878054905081106138235760405162461bcd60e51b81526004016109e690614543565b600088828154811061383757613837614571565b90600052602060002090600302019050806001015442101561389b5760405162461bcd60e51b815260206004820152601d60248201527f5769746864726177616c20696e74656e74206e6f74206d61747572656400000060448201526064016109e6565b80600201544211156138eb5760405162461bcd60e51b815260206004820152601960248201527815da5d1a191c985dd85b081a5b9d195b9d08195e1c1a5c9959603a1b60448201526064016109e6565b80546138f790856144d5565b9350505080806139069061459d565b9150506137db565b50600061391c60648361461d565b61392690836144d5565b9050808411156139975760405162461bcd60e51b815260206004820152603660248201527f52657175657374656420616d6f756e74206578636565647320696e74656e7420604482015275616d6f756e74206279206d6f7265207468616e20312560501b60648201526084016109e6565b6139a584611b783385611f22565b979650505050505050565b6001600160a01b0382166000908152609960205260409020548111156139e957604051630bba337f60e11b815260040160405180910390fd5b6001600160a01b0382166000818152609960209081526040808320805486900390555184815291929160008051602061471f83398151915291015b60405180910390a35050565b6000818310613a3f5781610ffe565b5090919050565b6001600160a01b038216613a6d576040516346dbfb6d60e11b815260040160405180910390fd5b6001600160a01b03821660009081526099602052604081208054839290613a959084906144d5565b90915550506040518181526001600160a01b0383169060009060008051602061471f83398151915290602001613a24565b6000805160206146ff8339815191525490565b603380546001600160a01b038381166001600160a01b0319831681179093556040519116919082907f8be0079c531659141344cd1fd0a4f28419497f9722a3daafe3b4186f6b6457e090600090a35050565b6000805160206146ff83398151915255565b604080516001600160a01b038481166024830152604480830185905283518084039091018152606490920183526020820180516001600160e01b031663a9059cbb60e01b1790529151600092839290871691613b9991906146c2565b6000604051808303816000865af19150503d8060008114613bd6576040519150601f19603f3d011682016040523d82523d6000602084013e613bdb565b606091505b5091509150818015613c05575080511580613c05575080806020019051810190613c05919061463f565b6134825760405162461bcd60e51b815260206004820152602d60248201527f5472616e7366657248656c7065723a3a736166655472616e736665723a20747260448201526c185b9cd9995c8819985a5b1959609a1b60648201526084016109e6565b600054610100900460ff16613c8e5760405162461bcd60e51b81526004016109e690614677565b611dd633613ad9565b600054610100900460ff16612f675760405162461bcd60e51b81526004016109e690614677565b60606000613ccb84613ed4565b9050600080866001600160a01b031685613ce6576000613ce8565b345b84604051613cf691906146c2565b60006040518083038185875af1925050503d8060008114613d33576040519150601f19603f3d011682016040523d82523d6000602084013e613d38565b606091505b50915091506139a58282613f63565b604080516001600160a01b0385811660248301528481166044830152606480830185905283518084039091018152608490920183526020820180516001600160e01b03166323b872dd60e01b1790529151600092839290881691613dab91906146c2565b6000604051808303816000865af19150503d8060008114613de8576040519150601f19603f3d011682016040523d82523d6000602084013e613ded565b606091505b5091509150818015613e17575080511580613e17575080806020019051810190613e17919061463f565b6131b65760405162461bcd60e51b815260206004820152603160248201527f5472616e7366657248656c7065723a3a7472616e7366657246726f6d3a207472604482015270185b9cd9995c919c9bdb4819985a5b1959607a1b60648201526084016109e6565b600080808080613e8e6041876144d5565b90506000613ea7613ea06020846144d5565b3690613fda565b803594509050613eb8816003613fda565b62ffffff9490941697933563ffffffff16965092945050505050565b80516060906000613ee3613fe6565b90506000613ef182846144d5565b905036821115613f1457604051632bcb7bc560e11b815260040160405180910390fd5b6060604051905081815285602001848101826020015b81831015613f42578251815260209283019201613f2a565b50505082833603856020018301379190920181016020016040529392505050565b60608261273a578151600003613f8c57604051632b3ff13d60e11b815260040160405180910390fd5b602082015162461bcd60e51b148015613fbf576040516301efd04f60e31b815260448401906109e69082906004016140bf565b8260405163fd36fde360e01b81526004016109e691906140bf565b6000610ffe82846144e8565b600080613ff16134a1565b90506000613ffe82613548565b61ffff16905061400f6002836144d5565b915060005b8181101561404957600061402784613582565b905061403381856144d5565b93505080806140419061459d565b915050614014565b509092915050565b6040518060a001604052806005906020820280368337509192915050565b60005b8381101561408a578181015183820152602001614072565b50506000910152565b600081518084526140ab81602086016020860161406f565b601f01601f19169290920160200192915050565b602081526000610ffe6020830184614093565b6001600160a01b03811681146111ad57600080fd5b600080604083850312156140fa57600080fd5b82359150602083013561410c816140d2565b809150509250929050565b6001600160a01b0391909116815260200190565b60006020828403121561413d57600080fd5b8135610ffe816140d2565b6000806040838503121561415b57600080fd5b8235614166816140d2565b946020939093013593505050565b600080600080600080600060e0888a03121561418f57600080fd5b873561419a816140d2565b965060208801356141aa816140d2565b955060408801356141ba816140d2565b945060608801356141ca816140d2565b935060808801356141da816140d2565b925060a08801356141ea816140d2565b8092505060c0880135905092959891949750929550565b60008060006060848603121561421657600080fd5b8335614221816140d2565b92506020840135614231816140d2565b929592945050506040919091013590565b9283526020830191909152604082015260600190565b60006020828403121561426a57600080fd5b5035919050565b60008060006060848603121561428657600080fd5b8335614291816140d2565b95602085013595506040909401359392505050565b60008083601f8401126142b857600080fd5b5081356001600160401b038111156142cf57600080fd5b6020830191508360208260051b85010111156142ea57600080fd5b9250929050565b60008060006040848603121561430657600080fd5b8335925060208401356001600160401b0381111561432357600080fd5b61432f868287016142a6565b9497909650939450505050565b6000806000806040858703121561435257600080fd5b84356001600160401b038082111561436957600080fd5b614375888389016142a6565b9096509450602087013591508082111561438e57600080fd5b5061439b878288016142a6565b95989497509550505050565b60a08101818360005b60058110156143cf5781518352602092830192909101906001016143b0565b50505092915050565b600080604083850312156143eb57600080fd5b82356143f6816140d2565b9150602083013561410c816140d2565b6000806040838503121561441957600080fd5b50508035926020909101359150565b602080825282518282018190526000919060409081850190868401855b82811015614499578151805185528681015187860152858101518686015260608082015115159086015260808082015115159086015260a09081015115159085015260c09093019290850190600101614445565b5091979650505050505050565b6000602082840312156144b857600080fd5b5051919050565b634e487b7160e01b600052601160045260246000fd5b8082018082111561097b5761097b6144bf565b8181038181111561097b5761097b6144bf565b60006020828403121561450d57600080fd5b815160ff81168114610ffe57600080fd5b918252602082015260400190565b9182526001600160a01b0316602082015260400190565b602080825260149082015273092dcecc2d8d2c840d2dce8cadce840d2dcc8caf60631b604082015260600190565b634e487b7160e01b600052603260045260246000fd5b634e487b7160e01b600052603160045260246000fd5b6000600182016145af576145af6144bf565b5060010190565b6000816145c5576145c56144bf565b506000190190565b6000602082840312156145df57600080fd5b8151610ffe816140d2565b6000600160ff1b82016145ff576145ff6144bf565b5060000390565b808202811582820484141761097b5761097b6144bf565b60008261463a57634e487b7160e01b600052601260045260246000fd5b500490565b60006020828403121561465157600080fd5b81518015158114610ffe57600080fd5b634e487b7160e01b600052604160045260246000fd5b6020808252602b908201527f496e697469616c697a61626c653a20636f6e7472616374206973206e6f74206960408201526a6e697469616c697a696e6760a81b606082015260800190565b600082516146d481846020870161406f565b919091019291505056fee29c3780599c5ad64da27efc73401f88fa950ce07a0ebdd1ba2fd595b8cef2af63a0d9df49fae3f1b9d24f8dc819a568c429a1b11d0d8e9de63df53a0194acb2ddf252ad1be2c89b69c2b068fc378daa952ba7f163c4a11628f55a4df523b3ef8c5be1e5ebec7d5bd14f71427d1e84f3dd0314c0f7b2291e5b200ac8c7c3b925a2646970667358221220a3ab775b1a7e91b17c38529aaa77ffd2750ce36dec4c0b4b21317b6ad89a2a3064736f6c63430008110033",
  "devdoc": {
    "details": "Contract allowing user to deposit to and borrow WETH.e from a dedicated user account",
    "errors": {
      "InsufficientAllowance(uint256,uint256)": [
        {
          "params": {
            "allowance": "current allowance",
            "requested": "requested transfer amount"
          }
        }
      ],
      "TransferAmountExceedsBalance(uint256,uint256)": [
        {
          "params": {
            "amount": "transfer amount",
            "balance": "available balance"
          }
        }
      ]
    },
    "kind": "dev",
    "methods": {
      "allowance(address,address)": {
        "details": "Returns the remaining number of tokens that `spender` will be allowed to spend on behalf of `owner` through {transferFrom}. This is zero by default. This value changes when {approve} or {transferFrom} are called."
      },
      "approve(address,uint256)": {
        "details": "Sets `amount` as the allowance of `spender` over the caller's tokens. Returns a boolean value indicating whether the operation succeeded. IMPORTANT: Beware that changing an allowance with this method brings the risk that someone may use both the old and the new allowance by unfortunate transaction ordering. One possible solution to mitigate this race condition is to first reduce the spender's allowance to 0 and set the desired value afterwards: https://github.com/ethereum/EIPs/issues/20#issuecomment-263524729 Emits an {Approval} event."
      },
      "balanceOf(address)": {
        "details": "_user the address of queried depositor*"
      },
      "borrow(uint256)": {
        "details": "_amount the amount to be borrowedIt is only meant to be used by a SmartLoanDiamondProxy*"
      },
      "getBorrowed(address)": {
        "details": "_user the address of queried borrower*"
      },
      "getFullyVestedLockedBalance(address)": {
        "details": "The fully vested locked balance is used in the governance mechanism of the system, specifically for the allocation of vPrime tokens. The method calculates the fully vested locked balance by iterating over all the locks of the account and summing up the amounts of those locks that are still active (i.e., their `unlockTime` is greater than the current block timestamp). However, the amount of each lock is scaled by the ratio of its `lockTime` to the `MAX_LOCK_TIME` (3 years). This means that the longer the lock time, the larger the contribution of the lock to the fully vested locked balance. The fully vested locked balance is used to calculate the maximum vPrime allocation for a user. Users accrue vPrime over a period of 3 years, from 0 to the maximum vPrime based on their 10-1 pairs of pool-deposit and sPrime. Locking pool deposits and sPrime immediately vests the vPrime.",
        "params": {
          "account": "The address of the account for which to calculate the fully vested locked balance."
        },
        "returns": {
          "fullyVestedBalance": "The fully vested locked balance of the provided account."
        }
      },
      "getTotalIntentAmount(address)": {
        "details": "user the address of the queried user*"
      },
      "getUserIntents(address)": {
        "details": "Returns array of all intents with their current status for a given user",
        "params": {
          "user": "Address of the user to check intents for"
        },
        "returns": {
          "_0": "Array of IntentInfo structs containing all intent details and status*"
        }
      },
      "owner()": {
        "details": "Returns the address of the current owner."
      },
      "renounceOwnership()": {
        "details": "Leaves the contract without owner. It will not be possible to call `onlyOwner` functions. Can only be called by the current owner. NOTE: Renouncing ownership will leave the contract without an owner, thereby disabling any functionality that is only available to the owner."
      },
      "repay(uint256)": {
        "details": "It is only meant to be used by a SmartLoanDiamondProxy*"
      },
      "setBorrowersRegistry(address)": {
        "details": "borrowersRegistry the address of borrowers registry*"
      },
      "setPoolRewarder(address)": {
        "details": "_poolRewarder the address of PoolRewarder*"
      },
      "setRatesCalculator(address)": {
        "details": "ratesCalculator the address of rates calculator*"
      },
      "setTotalSupplyCap(uint256)": {
        "details": "_newTotalSupplyCap new deposit cap*"
      },
      "totalSupply()": {
        "details": "Returns the amount of tokens in existence."
      },
      "withdraw(uint256,uint256[])": {
        "params": {
          "_amount": "the total amount to be withdrawn",
          "intentIndices": "array of intent indices to be used for withdrawal*"
        }
      }
    },
    "title": "EthPool",
    "version": 1
  },
  "userdoc": {
    "kind": "user",
    "methods": {
      "balanceOf(address)": {
        "notice": "Returns the current deposited amount for the given user The value includes the interest rates earned at the current moment"
      },
      "borrow(uint256)": {
        "notice": "Borrows the specified amount It updates user borrowed balance, total borrowed amount and rates"
      },
      "deposit(uint256)": {
        "notice": "Deposits the amount It updates user deposited balance, total deposited and rates*"
      },
      "depositOnBehalf(uint256,address)": {
        "notice": "Deposits the amount on behalf of `_of` user. It updates `_of` user deposited balance, total deposited and rates*"
      },
      "getBorrowed(address)": {
        "notice": "Returns the current borrowed amount for the given user The value includes the interest rates owned at the current moment"
      },
      "getBorrowingRate()": {
        "notice": "Returns the current interest rate for borrowings*"
      },
      "getDepositRate()": {
        "notice": "Returns the current interest rate for deposits*"
      },
      "getFullPoolStatus()": {
        "notice": "Returns full pool status"
      },
      "getFullyVestedLockedBalance(address)": {
        "notice": "Calculates and returns the fully vested locked balance for a given account."
      },
      "getTotalIntentAmount(address)": {
        "notice": "Returns the total amount of the withdrawal intents for the given user"
      },
      "recoverSurplus(uint256,address)": {
        "notice": "Recovers the surplus funds resultant from difference between deposit and borrowing rates*"
      },
      "repay(uint256)": {
        "notice": "Repays the amount It updates user borrowed balance, total borrowed amount and rates"
      },
      "setBorrowersRegistry(address)": {
        "notice": "Sets the new borrowers registry contract. The borrowers registry decides if an account can borrow funds. Only the owner of the Contract can execute this function."
      },
      "setPoolRewarder(address)": {
        "notice": "Sets the new Pool Rewarder. The IPoolRewarder that distributes additional token rewards to people having a stake in this pool proportionally to their stake and time of participance. Only the owner of the Contract can execute this function."
      },
      "setRatesCalculator(address)": {
        "notice": "Sets the new rate calculator. The calculator is an external contract that contains the logic for calculating deposit and borrowing rates. Only the owner of the Contract can execute this function."
      },
      "setTotalSupplyCap(uint256)": {
        "notice": "Sets new totalSupplyCap limiting how much in total can be deposited to the Pool. Only the owner of the Contract can execute this function."
      },
      "withdraw(uint256,uint256[])": {
        "notice": "Withdraws selected amount using multiple intents"
      }
    },
    "version": 1
  },
  "storageLayout": {
    "storage": [
      {
        "astId": 138,
        "contract": "contracts/deployment/avalanche/EthPool.sol:EthPool",
        "label": "_initialized",
        "offset": 0,
        "slot": "0",
        "type": "t_uint8"
      },
      {
        "astId": 141,
        "contract": "contracts/deployment/avalanche/EthPool.sol:EthPool",
        "label": "_initializing",
        "offset": 1,
        "slot": "0",
        "type": "t_bool"
      },
      {
        "astId": 755,
        "contract": "contracts/deployment/avalanche/EthPool.sol:EthPool",
        "label": "__gap",
        "offset": 0,
        "slot": "1",
        "type": "t_array(t_uint256)50_storage"
      },
      {
        "astId": 10,
        "contract": "contracts/deployment/avalanche/EthPool.sol:EthPool",
        "label": "_owner",
        "offset": 0,
        "slot": "51",
        "type": "t_address"
      },
      {
        "astId": 130,
        "contract": "contracts/deployment/avalanche/EthPool.sol:EthPool",
        "label": "__gap",
        "offset": 0,
        "slot": "52",
        "type": "t_array(t_uint256)49_storage"
      },
      {
        "astId": 314,
        "contract": "contracts/deployment/avalanche/EthPool.sol:EthPool",
        "label": "_status",
        "offset": 0,
        "slot": "101",
        "type": "t_uint256"
      },
      {
        "astId": 383,
        "contract": "contracts/deployment/avalanche/EthPool.sol:EthPool",
        "label": "__gap",
        "offset": 0,
        "slot": "102",
        "type": "t_array(t_uint256)49_storage"
      },
      {
        "astId": 2879,
        "contract": "contracts/deployment/avalanche/EthPool.sol:EthPool",
        "label": "totalSupplyCap",
        "offset": 0,
        "slot": "151",
        "type": "t_uint256"
      },
      {
        "astId": 2885,
        "contract": "contracts/deployment/avalanche/EthPool.sol:EthPool",
        "label": "_allowed",
        "offset": 0,
        "slot": "152",
        "type": "t_mapping(t_address,t_mapping(t_address,t_uint256))"
      },
      {
        "astId": 2889,
        "contract": "contracts/deployment/avalanche/EthPool.sol:EthPool",
        "label": "_deposited",
        "offset": 0,
        "slot": "153",
        "type": "t_mapping(t_address,t_uint256)"
      },
      {
        "astId": 2893,
        "contract": "contracts/deployment/avalanche/EthPool.sol:EthPool",
        "label": "borrowed",
        "offset": 0,
        "slot": "154",
        "type": "t_mapping(t_address,t_uint256)"
      },
      {
        "astId": 2896,
        "contract": "contracts/deployment/avalanche/EthPool.sol:EthPool",
        "label": "ratesCalculator",
        "offset": 0,
        "slot": "155",
        "type": "t_contract(IRatesCalculator)7222"
      },
      {
        "astId": 2899,
        "contract": "contracts/deployment/avalanche/EthPool.sol:EthPool",
        "label": "borrowersRegistry",
        "offset": 0,
        "slot": "156",
        "type": "t_contract(IBorrowersRegistry)7119"
      },
      {
        "astId": 2902,
        "contract": "contracts/deployment/avalanche/EthPool.sol:EthPool",
        "label": "poolRewarder",
        "offset": 0,
        "slot": "157",
        "type": "t_contract(IPoolRewarder)7200"
      },
      {
        "astId": 2905,
        "contract": "contracts/deployment/avalanche/EthPool.sol:EthPool",
        "label": "depositIndex",
        "offset": 0,
        "slot": "158",
        "type": "t_contract(IIndex)7146"
      },
      {
        "astId": 2908,
        "contract": "contracts/deployment/avalanche/EthPool.sol:EthPool",
        "label": "borrowIndex",
        "offset": 0,
        "slot": "159",
        "type": "t_contract(IIndex)7146"
      },
      {
        "astId": 2910,
        "contract": "contracts/deployment/avalanche/EthPool.sol:EthPool",
        "label": "tokenAddress",
        "offset": 0,
        "slot": "160",
        "type": "t_address_payable"
      },
      {
        "astId": 2913,
        "contract": "contracts/deployment/avalanche/EthPool.sol:EthPool",
        "label": "vestingDistributor",
        "offset": 0,
        "slot": "161",
        "type": "t_contract(VestingDistributor)6884"
      },
      {
        "astId": 2915,
        "contract": "contracts/deployment/avalanche/EthPool.sol:EthPool",
        "label": "_decimals",
        "offset": 20,
        "slot": "161",
        "type": "t_uint8"
      },
      {
        "astId": 2928,
        "contract": "contracts/deployment/avalanche/EthPool.sol:EthPool",
        "label": "locks",
        "offset": 0,
        "slot": "162",
        "type": "t_mapping(t_address,t_array(t_struct(LockDetails)2922_storage)dyn_storage)"
      },
      {
        "astId": 2936,
        "contract": "contracts/deployment/avalanche/EthPool.sol:EthPool",
        "label": "tokenManager",
        "offset": 0,
        "slot": "163",
        "type": "t_contract(ITokenManager)7446"
      },
      {
        "astId": 2962,
        "contract": "contracts/deployment/avalanche/EthPool.sol:EthPool",
        "label": "withdrawalIntents",
        "offset": 0,
        "slot": "164",
        "type": "t_mapping(t_address,t_array(t_struct(WithdrawalIntent)2943_storage)dyn_storage)"
      }
    ],
    "types": {
      "t_address": {
        "encoding": "inplace",
        "label": "address",
        "numberOfBytes": "20"
      },
      "t_address_payable": {
        "encoding": "inplace",
        "label": "address payable",
        "numberOfBytes": "20"
      },
      "t_array(t_struct(LockDetails)2922_storage)dyn_storage": {
        "base": "t_struct(LockDetails)2922_storage",
        "encoding": "dynamic_array",
        "label": "struct Pool.LockDetails[]",
        "numberOfBytes": "32"
      },
      "t_array(t_struct(WithdrawalIntent)2943_storage)dyn_storage": {
        "base": "t_struct(WithdrawalIntent)2943_storage",
        "encoding": "dynamic_array",
        "label": "struct Pool.WithdrawalIntent[]",
        "numberOfBytes": "32"
      },
      "t_array(t_uint256)49_storage": {
        "base": "t_uint256",
        "encoding": "inplace",
        "label": "uint256[49]",
        "numberOfBytes": "1568"
      },
      "t_array(t_uint256)50_storage": {
        "base": "t_uint256",
        "encoding": "inplace",
        "label": "uint256[50]",
        "numberOfBytes": "1600"
      },
      "t_bool": {
        "encoding": "inplace",
        "label": "bool",
        "numberOfBytes": "1"
      },
      "t_contract(IBorrowersRegistry)7119": {
        "encoding": "inplace",
        "label": "contract IBorrowersRegistry",
        "numberOfBytes": "20"
      },
      "t_contract(IIndex)7146": {
        "encoding": "inplace",
        "label": "contract IIndex",
        "numberOfBytes": "20"
      },
      "t_contract(IPoolRewarder)7200": {
        "encoding": "inplace",
        "label": "contract IPoolRewarder",
        "numberOfBytes": "20"
      },
      "t_contract(IRatesCalculator)7222": {
        "encoding": "inplace",
        "label": "contract IRatesCalculator",
        "numberOfBytes": "20"
      },
      "t_contract(ITokenManager)7446": {
        "encoding": "inplace",
        "label": "contract ITokenManager",
        "numberOfBytes": "20"
      },
      "t_contract(VestingDistributor)6884": {
        "encoding": "inplace",
        "label": "contract VestingDistributor",
        "numberOfBytes": "20"
      },
      "t_mapping(t_address,t_array(t_struct(LockDetails)2922_storage)dyn_storage)": {
        "encoding": "mapping",
        "key": "t_address",
        "label": "mapping(address => struct Pool.LockDetails[])",
        "numberOfBytes": "32",
        "value": "t_array(t_struct(LockDetails)2922_storage)dyn_storage"
      },
      "t_mapping(t_address,t_array(t_struct(WithdrawalIntent)2943_storage)dyn_storage)": {
        "encoding": "mapping",
        "key": "t_address",
        "label": "mapping(address => struct Pool.WithdrawalIntent[])",
        "numberOfBytes": "32",
        "value": "t_array(t_struct(WithdrawalIntent)2943_storage)dyn_storage"
      },
      "t_mapping(t_address,t_mapping(t_address,t_uint256))": {
        "encoding": "mapping",
        "key": "t_address",
        "label": "mapping(address => mapping(address => uint256))",
        "numberOfBytes": "32",
        "value": "t_mapping(t_address,t_uint256)"
      },
      "t_mapping(t_address,t_uint256)": {
        "encoding": "mapping",
        "key": "t_address",
        "label": "mapping(address => uint256)",
        "numberOfBytes": "32",
        "value": "t_uint256"
      },
      "t_struct(LockDetails)2922_storage": {
        "encoding": "inplace",
        "label": "struct Pool.LockDetails",
        "members": [
          {
            "astId": 2917,
            "contract": "contracts/deployment/avalanche/EthPool.sol:EthPool",
            "label": "lockTime",
            "offset": 0,
            "slot": "0",
            "type": "t_uint256"
          },
          {
            "astId": 2919,
            "contract": "contracts/deployment/avalanche/EthPool.sol:EthPool",
            "label": "amount",
            "offset": 0,
            "slot": "1",
            "type": "t_uint256"
          },
          {
            "astId": 2921,
            "contract": "contracts/deployment/avalanche/EthPool.sol:EthPool",
            "label": "unlockTime",
            "offset": 0,
            "slot": "2",
            "type": "t_uint256"
          }
        ],
        "numberOfBytes": "96"
      },
      "t_struct(WithdrawalIntent)2943_storage": {
        "encoding": "inplace",
        "label": "struct Pool.WithdrawalIntent",
        "members": [
          {
            "astId": 2938,
            "contract": "contracts/deployment/avalanche/EthPool.sol:EthPool",
            "label": "amount",
            "offset": 0,
            "slot": "0",
            "type": "t_uint256"
          },
          {
            "astId": 2940,
            "contract": "contracts/deployment/avalanche/EthPool.sol:EthPool",
            "label": "actionableAt",
            "offset": 0,
            "slot": "1",
            "type": "t_uint256"
          },
          {
            "astId": 2942,
            "contract": "contracts/deployment/avalanche/EthPool.sol:EthPool",
            "label": "expiresAt",
            "offset": 0,
            "slot": "2",
            "type": "t_uint256"
          }
        ],
        "numberOfBytes": "96"
      },
      "t_uint256": {
        "encoding": "inplace",
        "label": "uint256",
        "numberOfBytes": "32"
      },
      "t_uint8": {
        "encoding": "inplace",
        "label": "uint8",
        "numberOfBytes": "1"
      }
    }
  }
}