{
  "address": "0x025faeba8a2A25293F43F079E2Caa099D018F05D",
  "abi": [
    {
      "inputs": [],
      "stateMutability": "nonpayable",
      "type": "constructor"
    },
    {
      "anonymous": false,
      "inputs": [
        {
          "indexed": false,
          "internalType": "uint256",
          "name": "amount",
          "type": "uint256"
        }
      ],
      "name": "Burned",
      "type": "event"
    },
    {
      "anonymous": false,
      "inputs": [
        {
          "indexed": false,
          "internalType": "uint8",
          "name": "version",
          "type": "uint8"
        }
      ],
      "name": "Initialized",
      "type": "event"
    },
    {
      "anonymous": false,
      "inputs": [
        {
          "indexed": false,
          "internalType": "uint256",
          "name": "prevMaxCap",
          "type": "uint256"
        },
        {
          "indexed": false,
          "internalType": "uint256",
          "name": "newMaxCap",
          "type": "uint256"
        }
      ],
      "name": "MaxCapSet",
      "type": "event"
    },
    {
      "anonymous": false,
      "inputs": [
        {
          "indexed": true,
          "internalType": "address",
          "name": "previousOwner",
          "type": "address"
        },
        {
          "indexed": true,
          "internalType": "address",
          "name": "newOwner",
          "type": "address"
        }
      ],
      "name": "OwnershipTransferred",
      "type": "event"
    },
    {
      "anonymous": false,
      "inputs": [
        {
          "indexed": false,
          "internalType": "enum IRtknToPrimeConverter.Phase",
          "name": "newPhase",
          "type": "uint8"
        },
        {
          "indexed": false,
          "internalType": "uint256",
          "name": "scalingFactor",
          "type": "uint256"
        }
      ],
      "name": "PhaseStarted",
      "type": "event"
    },
    {
      "anonymous": false,
      "inputs": [
        {
          "indexed": true,
          "internalType": "address",
          "name": "user",
          "type": "address"
        },
        {
          "indexed": false,
          "internalType": "uint256",
          "name": "amount",
          "type": "uint256"
        }
      ],
      "name": "PledgeCancelled",
      "type": "event"
    },
    {
      "anonymous": false,
      "inputs": [
        {
          "indexed": true,
          "internalType": "address",
          "name": "user",
          "type": "address"
        },
        {
          "indexed": false,
          "internalType": "uint256",
          "name": "amount",
          "type": "uint256"
        }
      ],
      "name": "Pledged",
      "type": "event"
    },
    {
      "anonymous": false,
      "inputs": [
        {
          "indexed": true,
          "internalType": "address",
          "name": "user",
          "type": "address"
        },
        {
          "indexed": false,
          "internalType": "uint256",
          "name": "adjustedPledgedAmount",
          "type": "uint256"
        },
        {
          "indexed": false,
          "internalType": "uint256",
          "name": "excessAmount",
          "type": "uint256"
        }
      ],
      "name": "UserProcessed",
      "type": "event"
    },
    {
      "anonymous": false,
      "inputs": [
        {
          "indexed": true,
          "internalType": "address",
          "name": "owner",
          "type": "address"
        },
        {
          "indexed": false,
          "internalType": "uint256",
          "name": "amount",
          "type": "uint256"
        }
      ],
      "name": "Withdrawal",
      "type": "event"
    },
    {
      "inputs": [],
      "name": "CONVERSION_RATIO",
      "outputs": [
        {
          "internalType": "uint256",
          "name": "",
          "type": "uint256"
        }
      ],
      "stateMutability": "view",
      "type": "function"
    },
    {
      "inputs": [],
      "name": "burnRTKNs",
      "outputs": [],
      "stateMutability": "nonpayable",
      "type": "function"
    },
    {
      "inputs": [
        {
          "internalType": "uint256",
          "name": "amount",
          "type": "uint256"
        }
      ],
      "name": "cancelPledge",
      "outputs": [],
      "stateMutability": "nonpayable",
      "type": "function"
    },
    {
      "inputs": [],
      "name": "currentBatchIndex",
      "outputs": [
        {
          "internalType": "uint256",
          "name": "",
          "type": "uint256"
        }
      ],
      "stateMutability": "view",
      "type": "function"
    },
    {
      "inputs": [],
      "name": "currentPhase",
      "outputs": [
        {
          "internalType": "enum IRtknToPrimeConverter.Phase",
          "name": "",
          "type": "uint8"
        }
      ],
      "stateMutability": "view",
      "type": "function"
    },
    {
      "inputs": [],
      "name": "getTotalUsers",
      "outputs": [
        {
          "internalType": "uint256",
          "name": "",
          "type": "uint256"
        }
      ],
      "stateMutability": "view",
      "type": "function"
    },
    {
      "inputs": [
        {
          "internalType": "address",
          "name": "_rTKNAddress",
          "type": "address"
        },
        {
          "internalType": "uint256",
          "name": "_rRTKNMaxCap",
          "type": "uint256"
        },
        {
          "internalType": "address",
          "name": "_owner",
          "type": "address"
        }
      ],
      "name": "initialize",
      "outputs": [],
      "stateMutability": "nonpayable",
      "type": "function"
    },
    {
      "inputs": [],
      "name": "owner",
      "outputs": [
        {
          "internalType": "address",
          "name": "",
          "type": "address"
        }
      ],
      "stateMutability": "view",
      "type": "function"
    },
    {
      "inputs": [
        {
          "internalType": "uint256",
          "name": "amount",
          "type": "uint256"
        }
      ],
      "name": "pledgerTKN",
      "outputs": [],
      "stateMutability": "nonpayable",
      "type": "function"
    },
    {
      "inputs": [
        {
          "internalType": "address",
          "name": "user",
          "type": "address"
        }
      ],
      "name": "previewFuturePrimeAmountBasedOnPledgedAmountForUser",
      "outputs": [
        {
          "internalType": "uint256",
          "name": "",
          "type": "uint256"
        }
      ],
      "stateMutability": "view",
      "type": "function"
    },
    {
      "inputs": [
        {
          "internalType": "uint256",
          "name": "batchSize",
          "type": "uint256"
        }
      ],
      "name": "processUsers",
      "outputs": [],
      "stateMutability": "nonpayable",
      "type": "function"
    },
    {
      "inputs": [],
      "name": "rRTKNMaxCap",
      "outputs": [
        {
          "internalType": "uint256",
          "name": "",
          "type": "uint256"
        }
      ],
      "stateMutability": "view",
      "type": "function"
    },
    {
      "inputs": [],
      "name": "rTKN",
      "outputs": [
        {
          "internalType": "contract ERC20BurnableUpgradeable",
          "name": "",
          "type": "address"
        }
      ],
      "stateMutability": "view",
      "type": "function"
    },
    {
      "inputs": [],
      "name": "renounceOwnership",
      "outputs": [],
      "stateMutability": "nonpayable",
      "type": "function"
    },
    {
      "inputs": [],
      "name": "scalingFactor",
      "outputs": [
        {
          "internalType": "uint256",
          "name": "",
          "type": "uint256"
        }
      ],
      "stateMutability": "view",
      "type": "function"
    },
    {
      "inputs": [
        {
          "internalType": "uint256",
          "name": "_newMaxCap",
          "type": "uint256"
        }
      ],
      "name": "setRTKNMaxCap",
      "outputs": [],
      "stateMutability": "nonpayable",
      "type": "function"
    },
    {
      "inputs": [],
      "name": "startPhase2",
      "outputs": [],
      "stateMutability": "nonpayable",
      "type": "function"
    },
    {
      "inputs": [],
      "name": "totalAdjustedrTKNPledged",
      "outputs": [
        {
          "internalType": "uint256",
          "name": "",
          "type": "uint256"
        }
      ],
      "stateMutability": "view",
      "type": "function"
    },
    {
      "inputs": [],
      "name": "totalrTKNPledged",
      "outputs": [
        {
          "internalType": "uint256",
          "name": "",
          "type": "uint256"
        }
      ],
      "stateMutability": "view",
      "type": "function"
    },
    {
      "inputs": [
        {
          "internalType": "address",
          "name": "newOwner",
          "type": "address"
        }
      ],
      "name": "transferOwnership",
      "outputs": [],
      "stateMutability": "nonpayable",
      "type": "function"
    },
    {
      "inputs": [
        {
          "internalType": "address",
          "name": "",
          "type": "address"
        }
      ],
      "name": "userProcessed",
      "outputs": [
        {
          "internalType": "bool",
          "name": "",
          "type": "bool"
        }
      ],
      "stateMutability": "view",
      "type": "function"
    },
    {
      "inputs": [
        {
          "internalType": "address",
          "name": "",
          "type": "address"
        }
      ],
      "name": "userrTKNPledged",
      "outputs": [
        {
          "internalType": "uint256",
          "name": "",
          "type": "uint256"
        }
      ],
      "stateMutability": "view",
      "type": "function"
    },
    {
      "inputs": [
        {
          "internalType": "uint256",
          "name": "",
          "type": "uint256"
        }
      ],
      "name": "users",
      "outputs": [
        {
          "internalType": "address",
          "name": "",
          "type": "address"
        }
      ],
      "stateMutability": "view",
      "type": "function"
    },
    {
      "inputs": [],
      "name": "withdrawrTKN",
      "outputs": [],
      "stateMutability": "nonpayable",
      "type": "function"
    }
  ],
  "transactionHash": "0x17d3a65285496cd53192a29ea2a76f80f54d27ed6bf2233207b2ce3cd4f9f0c0",
  "args": [],
  "numDeployments": 1,
  "solcInputHash": "6809deedf9b0f393ee8007ee7bed7bb9",
  "bytecode": "0x608060405234801561001057600080fd5b5061001961001e565b6100dd565b600054610100900460ff161561008a5760405162461bcd60e51b815260206004820152602760248201527f496e697469616c697a61626c653a20636f6e747261637420697320696e697469604482015266616c697a696e6760c81b606482015260840160405180910390fd5b60005460ff908116146100db576000805460ff191660ff9081179091556040519081527f7f26b83ff96e1f2b6a682f133852f6798a09c465da95921460cefb38474024989060200160405180910390a15b565b61191f806100ec6000396000f3fe608060405234801561001057600080fd5b50600436106101285760003560e01c8063055ad42e1461012d57806324f6334214610150578063291a9f18146101835780632adce76d146101b1578063365b98b2146101bb57806345294596146101db5780636090b30e146101ee578063715018a6146101f7578063793e438c146101ff57806389509c2d146102075780638da5cb5b1461021a5780639be572f6146102225780639ed2bbc31461022a578063a8977b2514610233578063a97379d014610242578063b3fc07e314610255578063c350a1b51461025e578063c535e89d14610271578063ce6d6f6214610284578063d25067001461028d578063d3d9dac9146102a0578063ed3437f8146102b3578063f2fde38b146102bc578063fcb5bc29146102cf575b600080fd5b60995461013a9060ff1681565b60405161014791906115c4565b60405180910390f35b61017361015e3660046115ee565b609b6020526000908152604090205460ff1681565b6040519015158152602001610147565b6101a36101913660046115ee565b609a6020526000908152604090205481565b604051908152602001610147565b6101b96102d7565b005b6101ce6101c9366004611610565b61045c565b6040516101479190611629565b6097546101ce906001600160a01b031681565b6101a360a05481565b6101b9610486565b6101b9610498565b6101b9610215366004611610565b61061e565b6101ce61090a565b609c546101a3565b6101a360985481565b6101a3670b36a5d42ee316f881565b6101a36102503660046115ee565b610919565b6101a3609d5481565b6101b961026c36600461163d565b61095f565b6101b961027f366004611610565b610b23565b6101a3609e5481565b6101b961029b366004611610565b610bf2565b6101b96102ae366004611610565b610d7b565b6101a3609f5481565b6101b96102ca3660046115ee565b610f52565b6101b9610fc8565b6102df6110b4565b6102e7611113565b600160995460ff1660018111156103005761030061158c565b146103265760405162461bcd60e51b815260040161031d90611679565b60405180910390fd5b609c5460a054146103735760405162461bcd60e51b815260206004820152601760248201527650726f63657373696e67206e6f7420636f6d706c65746560481b604482015260640161031d565b6097546040516370a0823160e01b81526000916001600160a01b0316906370a08231906103a4903090600401611629565b602060405180830381865afa1580156103c1573d6000803e3d6000fd5b505050506040513d601f19601f820116820180604052508101906103e591906116a5565b90506104056103f261090a565b6097546001600160a01b0316908361116c565b61040d61090a565b6001600160a01b03167f7fcf532c15f0a6db0bd6d0e038bea71d30d808c7d98cb3bf7268a95bf5081b658260405161044791815260200190565b60405180910390a25061045a6001606555565b565b609c818154811061046c57600080fd5b6000918252602090912001546001600160a01b0316905081565b61048e6110b4565b61045a60006111db565b6104a06110b4565b600060995460ff1660018111156104b9576104b961158c565b146105115760405162461bcd60e51b815260206004820152602260248201527f43616e6e6f74206275726e2052544b4e7320696e2063757272656e7420706861604482015261736560f01b606482015260840161031d565b6097546040516370a0823160e01b81526000916001600160a01b0316906370a0823190610542903090600401611629565b602060405180830381865afa15801561055f573d6000803e3d6000fd5b505050506040513d601f19601f8201168201806040525081019061058391906116a5565b609754604051630852cd8d60e31b8152600481018390529192506001600160a01b0316906342966c6890602401600060405180830381600087803b1580156105ca57600080fd5b505af11580156105de573d6000803e3d6000fd5b505050507fd83c63197e8e676d80ab0122beba9a9d20f3828839e9a1d6fe81d242e9cd7e6e8160405161061391815260200190565b60405180910390a150565b610626611113565b600060995460ff16600181111561063f5761063f61158c565b146106965760405162461bcd60e51b815260206004820152602160248201527f43616e206f6e6c792063616e63656c20706c6564676520696e205068617365206044820152603160f81b606482015260840161031d565b600081116106b65760405162461bcd60e51b815260040161031d906116be565b336000908152609a6020526040902054806107095760405162461bcd60e51b8152602060048201526013602482015272139bc81c1b195919d9481d1bc818d85b98d95b606a1b604482015260640161031d565b808211156107595760405162461bcd60e51b815260206004820152601f60248201527f43616e6e6f742063616e63656c206d6f7265207468616e20706c656467656400604482015260640161031d565b81609d600082825461076b9190611709565b909155505080820361089557336000908152609a602052604081208190555b609c5481101561088f57336001600160a01b0316609c82815481106107b1576107b161171c565b6000918252602090912001546001600160a01b03160361087d57609c80546107db90600190611709565b815481106107eb576107eb61171c565b600091825260209091200154609c80546001600160a01b0390921691839081106108175761081761171c565b9060005260206000200160006101000a8154816001600160a01b0302191690836001600160a01b03160217905550609c80548061085657610856611732565b600082815260209020810160001990810180546001600160a01b031916905501905561088f565b8061088781611748565b91505061078a565b506108b0565b61089f8282611709565b336000908152609a60205260409020555b6097546108c7906001600160a01b0316338461116c565b60405182815233907f687dfbf7becd6547b2f3117b2a33059182dda3e556d0437916bc6b465406ff0e9060200160405180910390a2506109076001606555565b50565b6033546001600160a01b031690565b6001600160a01b0381166000908152609a6020526040812054670de0b6b3a76400009061094f90670b36a5d42ee316f890611761565b6109599190611778565b92915050565b600054610100900460ff161580801561097f5750600054600160ff909116105b806109a0575061098e3061122d565b1580156109a0575060005460ff166001145b610a035760405162461bcd60e51b815260206004820152602e60248201527f496e697469616c697a61626c653a20636f6e747261637420697320616c72656160448201526d191e481a5b9a5d1a585b1a5e995960921b606482015260840161031d565b6000805460ff191660011790558015610a26576000805461ff0019166101001790555b6001600160a01b038416610a745760405162461bcd60e51b8152602060048201526015602482015274496e76616c696420746f6b656e206164647265737360581b604482015260640161031d565b60008311610a945760405162461bcd60e51b815260040161031d9061179a565b610a9c61123c565b610aa461126b565b610aad826111db565b609780546001600160a01b0319166001600160a01b03861617905560988390556099805460ff191690558015610b1d576000805461ff0019169055604051600181527f7f26b83ff96e1f2b6a682f133852f6798a09c465da95921460cefb38474024989060200160405180910390a15b50505050565b610b2b6110b4565b600060995460ff166001811115610b4457610b4461158c565b14610b915760405162461bcd60e51b815260206004820152601e60248201527f43616e206f6e6c79206368616e67652063617020696e20506861736520310000604482015260640161031d565b60008111610bb15760405162461bcd60e51b815260040161031d9061179a565b60985460408051918252602082018390527f5ff4c16eb2f1e86002943cbdbc5ff22d12e9674b18580610efb9084a2cccc0de910160405180910390a1609855565b610bfa611113565b600060995460ff166001811115610c1357610c1361158c565b14610c6e5760405162461bcd60e51b815260206004820152602560248201527f506c656467696e67206e6f7420616c6c6f77656420696e2063757272656e7420604482015264706861736560d81b606482015260840161031d565b60008111610c8e5760405162461bcd60e51b815260040161031d906116be565b609754610ca6906001600160a01b031633308461129a565b336000908152609a60205260408120549003610cff57609c80546001810182556000919091527faf85b9071dfafeac1409d3f1d19bafc9bc7c37974cde8df0ee6168f0086e539c0180546001600160a01b031916331790555b336000908152609a602052604081208054839290610d1e9084906117db565b9250508190555080609d6000828254610d3791906117db565b909155505060405181815233907f2726ce6e3b7987cbbb10c5a55b44725526c540fbba590cfc20afab691fa45edf9060200160405180910390a26109076001606555565b610d83611113565b600160995460ff166001811115610d9c57610d9c61158c565b14610db95760405162461bcd60e51b815260040161031d90611679565b609c5460a054600090610dcd9084906117db565b905081811115610dda5750805b60a0545b81811015610f43576000609c8281548110610dfb57610dfb61171c565b60009182526020808320909101546001600160a01b0316808352609b90915260409091205490915060ff16610f30576001600160a01b0381166000908152609a6020526040812054609f54909190670de0b6b3a764000090610e5d9084611761565b610e679190611778565b90506000610e758284611709565b90508015610e9457609754610e94906001600160a01b0316858361116c565b6001600160a01b0384166000908152609a60205260408120839055609e8054849290610ec19084906117db565b90915550506001600160a01b0384166000818152609b602052604090819020805460ff19166001179055517f8e2a75d637409d0001aaa57de17e32df76c036b8144ce8670a8858620155809390610f249085908590918252602082015260400190565b60405180910390a25050505b5080610f3b81611748565b915050610dde565b5060a055506109076001606555565b610f5a6110b4565b6001600160a01b038116610fbf5760405162461bcd60e51b815260206004820152602660248201527f4f776e61626c653a206e6577206f776e657220697320746865207a65726f206160448201526564647265737360d01b606482015260840161031d565b610907816111db565b610fd06110b4565b600060995460ff166001811115610fe957610fe961158c565b1461102b5760405162461bcd60e51b815260206004820152601260248201527120b63932b0b23c9034b710283430b9b2901960711b604482015260640161031d565b6099805460ff19166001179055609d54609854811161105557670de0b6b3a7640000609f5561107a565b80609854670de0b6b3a764000061106c9190611761565b6110769190611778565b609f555b609954609f546040517f07ae9ff1ff5922feb7221008b80a606dce2b123504acb459285fc38250e06397926106139260ff909116916117ee565b336110bd61090a565b6001600160a01b03161461045a5760405162461bcd60e51b815260206004820181905260248201527f4f776e61626c653a2063616c6c6572206973206e6f7420746865206f776e6572604482015260640161031d565b6002606554036111655760405162461bcd60e51b815260206004820152601f60248201527f5265656e7472616e637947756172643a207265656e7472616e742063616c6c00604482015260640161031d565b6002606555565b6040516001600160a01b0383166024820152604481018290526111cf90849063a9059cbb60e01b906064015b60408051601f198184030181529190526020810180516001600160e01b03166001600160e01b0319909316929092179091526112d2565b505050565b6001606555565b603380546001600160a01b038381166001600160a01b0319831681179093556040519116919082907f8be0079c531659141344cd1fd0a4f28419497f9722a3daafe3b4186f6b6457e090600090a35050565b6001600160a01b03163b151590565b600054610100900460ff166112635760405162461bcd60e51b815260040161031d90611809565b61045a6113a7565b600054610100900460ff166112925760405162461bcd60e51b815260040161031d90611809565b61045a6113d7565b6040516001600160a01b0380851660248301528316604482015260648101829052610b1d9085906323b872dd60e01b90608401611198565b6000611327826040518060400160405280602081526020017f5361666545524332303a206c6f772d6c6576656c2063616c6c206661696c6564815250856001600160a01b03166113fe9092919063ffffffff16565b90508051600014806113485750808060200190518101906113489190611854565b6111cf5760405162461bcd60e51b815260206004820152602a60248201527f5361666545524332303a204552433230206f7065726174696f6e20646964206e6044820152691bdd081cdd58d8d9595960b21b606482015260840161031d565b600054610100900460ff166113ce5760405162461bcd60e51b815260040161031d90611809565b61045a336111db565b600054610100900460ff166111d45760405162461bcd60e51b815260040161031d90611809565b606061140d8484600085611415565b949350505050565b6060824710156114765760405162461bcd60e51b815260206004820152602660248201527f416464726573733a20696e73756666696369656e742062616c616e636520666f6044820152651c8818d85b1b60d21b606482015260840161031d565b600080866001600160a01b03168587604051611492919061189a565b60006040518083038185875af1925050503d80600081146114cf576040519150601f19603f3d011682016040523d82523d6000602084013e6114d4565b606091505b50915091506114e5878383876114f0565b979650505050505050565b6060831561155d5782516000036115565761150a8561122d565b6115565760405162461bcd60e51b815260206004820152601d60248201527f416464726573733a2063616c6c20746f206e6f6e2d636f6e7472616374000000604482015260640161031d565b508161140d565b61140d83838151156115725781518083602001fd5b8060405162461bcd60e51b815260040161031d91906118b6565b634e487b7160e01b600052602160045260246000fd5b600281106115c057634e487b7160e01b600052602160045260246000fd5b9052565b6020810161095982846115a2565b80356001600160a01b03811681146115e957600080fd5b919050565b60006020828403121561160057600080fd5b611609826115d2565b9392505050565b60006020828403121561162257600080fd5b5035919050565b6001600160a01b0391909116815260200190565b60008060006060848603121561165257600080fd5b61165b846115d2565b925060208401359150611670604085016115d2565b90509250925092565b60208082526012908201527126bab9ba1031329034b710283430b9b2901960711b604082015260600190565b6000602082840312156116b757600080fd5b5051919050565b6020808252818101527f416d6f756e74206d7573742062652067726561746572207468616e207a65726f604082015260600190565b634e487b7160e01b600052601160045260246000fd5b81810381811115610959576109596116f3565b634e487b7160e01b600052603260045260246000fd5b634e487b7160e01b600052603160045260246000fd5b60006001820161175a5761175a6116f3565b5060010190565b8082028115828204841417610959576109596116f3565b60008261179557634e487b7160e01b600052601260045260246000fd5b500490565b60208082526021908201527f4d617820636170206d7573742062652067726561746572207468616e207a65726040820152606f60f81b606082015260800190565b80820180821115610959576109596116f3565b604081016117fc82856115a2565b8260208301529392505050565b6020808252602b908201527f496e697469616c697a61626c653a20636f6e7472616374206973206e6f74206960408201526a6e697469616c697a696e6760a81b606082015260800190565b60006020828403121561186657600080fd5b8151801515811461160957600080fd5b60005b83811015611891578181015183820152602001611879565b50506000910152565b600082516118ac818460208701611876565b9190910192915050565b60208152600082518060208401526118d5816040850160208701611876565b601f01601f1916919091016040019291505056fea26469706673582212205e6c1a57d50c5a7022a9c59214104a28eefaea7d5de6292b87366eeb9193ac8d64736f6c63430008110033",
  "devdoc": {
    "kind": "dev",
    "methods": {
      "owner()": {
        "details": "Returns the address of the current owner."
      },
      "renounceOwnership()": {
        "details": "Leaves the contract without owner. It will not be possible to call `onlyOwner` functions. Can only be called by the current owner. NOTE: Renouncing ownership will leave the contract without an owner, thereby disabling any functionality that is only available to the owner."
      },
      "transferOwnership(address)": {
        "details": "Transfers ownership of the contract to a new account (`newOwner`). Can only be called by the current owner."
      }
    },
    "version": 1
  },
  "userdoc": {
    "kind": "user",
    "methods": {},
    "version": 1
  },
  "storageLayout": {
    "storage": [
      {
        "astId": 138,
        "contract": "contracts/token/RtknToPrimeConverter.sol:RtknToPrimeConverter",
        "label": "_initialized",
        "offset": 0,
        "slot": "0",
        "type": "t_uint8"
      },
      {
        "astId": 141,
        "contract": "contracts/token/RtknToPrimeConverter.sol:RtknToPrimeConverter",
        "label": "_initializing",
        "offset": 1,
        "slot": "0",
        "type": "t_bool"
      },
      {
        "astId": 1946,
        "contract": "contracts/token/RtknToPrimeConverter.sol:RtknToPrimeConverter",
        "label": "__gap",
        "offset": 0,
        "slot": "1",
        "type": "t_array(t_uint256)50_storage"
      },
      {
        "astId": 10,
        "contract": "contracts/token/RtknToPrimeConverter.sol:RtknToPrimeConverter",
        "label": "_owner",
        "offset": 0,
        "slot": "51",
        "type": "t_address"
      },
      {
        "astId": 130,
        "contract": "contracts/token/RtknToPrimeConverter.sol:RtknToPrimeConverter",
        "label": "__gap",
        "offset": 0,
        "slot": "52",
        "type": "t_array(t_uint256)49_storage"
      },
      {
        "astId": 314,
        "contract": "contracts/token/RtknToPrimeConverter.sol:RtknToPrimeConverter",
        "label": "_status",
        "offset": 0,
        "slot": "101",
        "type": "t_uint256"
      },
      {
        "astId": 383,
        "contract": "contracts/token/RtknToPrimeConverter.sol:RtknToPrimeConverter",
        "label": "__gap",
        "offset": 0,
        "slot": "102",
        "type": "t_array(t_uint256)49_storage"
      },
      {
        "astId": 2105,
        "contract": "contracts/token/RtknToPrimeConverter.sol:RtknToPrimeConverter",
        "label": "rTKN",
        "offset": 0,
        "slot": "151",
        "type": "t_contract(ERC20BurnableUpgradeable)1138"
      },
      {
        "astId": 2110,
        "contract": "contracts/token/RtknToPrimeConverter.sol:RtknToPrimeConverter",
        "label": "rRTKNMaxCap",
        "offset": 0,
        "slot": "152",
        "type": "t_uint256"
      },
      {
        "astId": 2113,
        "contract": "contracts/token/RtknToPrimeConverter.sol:RtknToPrimeConverter",
        "label": "currentPhase",
        "offset": 0,
        "slot": "153",
        "type": "t_enum(Phase)1953"
      },
      {
        "astId": 2117,
        "contract": "contracts/token/RtknToPrimeConverter.sol:RtknToPrimeConverter",
        "label": "userrTKNPledged",
        "offset": 0,
        "slot": "154",
        "type": "t_mapping(t_address,t_uint256)"
      },
      {
        "astId": 2121,
        "contract": "contracts/token/RtknToPrimeConverter.sol:RtknToPrimeConverter",
        "label": "userProcessed",
        "offset": 0,
        "slot": "155",
        "type": "t_mapping(t_address,t_bool)"
      },
      {
        "astId": 2124,
        "contract": "contracts/token/RtknToPrimeConverter.sol:RtknToPrimeConverter",
        "label": "users",
        "offset": 0,
        "slot": "156",
        "type": "t_array(t_address)dyn_storage"
      },
      {
        "astId": 2126,
        "contract": "contracts/token/RtknToPrimeConverter.sol:RtknToPrimeConverter",
        "label": "totalrTKNPledged",
        "offset": 0,
        "slot": "157",
        "type": "t_uint256"
      },
      {
        "astId": 2128,
        "contract": "contracts/token/RtknToPrimeConverter.sol:RtknToPrimeConverter",
        "label": "totalAdjustedrTKNPledged",
        "offset": 0,
        "slot": "158",
        "type": "t_uint256"
      },
      {
        "astId": 2130,
        "contract": "contracts/token/RtknToPrimeConverter.sol:RtknToPrimeConverter",
        "label": "scalingFactor",
        "offset": 0,
        "slot": "159",
        "type": "t_uint256"
      },
      {
        "astId": 2132,
        "contract": "contracts/token/RtknToPrimeConverter.sol:RtknToPrimeConverter",
        "label": "currentBatchIndex",
        "offset": 0,
        "slot": "160",
        "type": "t_uint256"
      }
    ],
    "types": {
      "t_address": {
        "encoding": "inplace",
        "label": "address",
        "numberOfBytes": "20"
      },
      "t_array(t_address)dyn_storage": {
        "base": "t_address",
        "encoding": "dynamic_array",
        "label": "address[]",
        "numberOfBytes": "32"
      },
      "t_array(t_uint256)49_storage": {
        "base": "t_uint256",
        "encoding": "inplace",
        "label": "uint256[49]",
        "numberOfBytes": "1568"
      },
      "t_array(t_uint256)50_storage": {
        "base": "t_uint256",
        "encoding": "inplace",
        "label": "uint256[50]",
        "numberOfBytes": "1600"
      },
      "t_bool": {
        "encoding": "inplace",
        "label": "bool",
        "numberOfBytes": "1"
      },
      "t_contract(ERC20BurnableUpgradeable)1138": {
        "encoding": "inplace",
        "label": "contract ERC20BurnableUpgradeable",
        "numberOfBytes": "20"
      },
      "t_enum(Phase)1953": {
        "encoding": "inplace",
        "label": "enum IRtknToPrimeConverter.Phase",
        "numberOfBytes": "1"
      },
      "t_mapping(t_address,t_bool)": {
        "encoding": "mapping",
        "key": "t_address",
        "label": "mapping(address => bool)",
        "numberOfBytes": "32",
        "value": "t_bool"
      },
      "t_mapping(t_address,t_uint256)": {
        "encoding": "mapping",
        "key": "t_address",
        "label": "mapping(address => uint256)",
        "numberOfBytes": "32",
        "value": "t_uint256"
      },
      "t_uint256": {
        "encoding": "inplace",
        "label": "uint256",
        "numberOfBytes": "32"
      },
      "t_uint8": {
        "encoding": "inplace",
        "label": "uint8",
        "numberOfBytes": "1"
      }
    }
  }
}