{
  "address": "0x0b11a1F29FEBC32Cc831e80b6b0C9DB330b8664e",
  "abi": [
    {
      "inputs": [],
      "name": "BorrowersRegistryNotConfigured",
      "type": "error"
    },
    {
      "inputs": [],
      "name": "BurnAmountExceedsAvailableForUser",
      "type": "error"
    },
    {
      "inputs": [],
      "name": "BurnAmountExceedsBalance",
      "type": "error"
    },
    {
      "inputs": [],
      "name": "CalldataMustHaveValidPayload",
      "type": "error"
    },
    {
      "inputs": [],
      "name": "CalldataOverOrUnderFlow",
      "type": "error"
    },
    {
      "inputs": [],
      "name": "DataPackageTimestampMustNotBeZero",
      "type": "error"
    },
    {
      "inputs": [],
      "name": "DataPackageTimestampsMustBeEqual",
      "type": "error"
    },
    {
      "inputs": [],
      "name": "EachSignerMustProvideTheSameValue",
      "type": "error"
    },
    {
      "inputs": [],
      "name": "EmptyCalldataPointersArr",
      "type": "error"
    },
    {
      "inputs": [],
      "name": "IncorrectUnsignedMetadataSize",
      "type": "error"
    },
    {
      "inputs": [
        {
          "internalType": "uint256",
          "name": "requested",
          "type": "uint256"
        },
        {
          "internalType": "uint256",
          "name": "allowance",
          "type": "uint256"
        }
      ],
      "name": "InsufficientAllowance",
      "type": "error"
    },
    {
      "inputs": [
        {
          "internalType": "uint256",
          "name": "amount",
          "type": "uint256"
        },
        {
          "internalType": "uint256",
          "name": "availableBalance",
          "type": "uint256"
        }
      ],
      "name": "InsufficientAvailableBalance",
      "type": "error"
    },
    {
      "inputs": [
        {
          "internalType": "uint256",
          "name": "receivedSignersCount",
          "type": "uint256"
        },
        {
          "internalType": "uint256",
          "name": "requiredSignersCount",
          "type": "uint256"
        }
      ],
      "name": "InsufficientNumberOfUniqueSigners",
      "type": "error"
    },
    {
      "inputs": [],
      "name": "InsufficientPoolFunds",
      "type": "error"
    },
    {
      "inputs": [],
      "name": "InsufficientSurplus",
      "type": "error"
    },
    {
      "inputs": [],
      "name": "InvalidCalldataPointer",
      "type": "error"
    },
    {
      "inputs": [],
      "name": "MaxPoolUtilisationBreached",
      "type": "error"
    },
    {
      "inputs": [],
      "name": "MintToAddressZero",
      "type": "error"
    },
    {
      "inputs": [
        {
          "internalType": "address",
          "name": "target",
          "type": "address"
        }
      ],
      "name": "NotAContract",
      "type": "error"
    },
    {
      "inputs": [],
      "name": "NotAuthorizedToBorrow",
      "type": "error"
    },
    {
      "inputs": [],
      "name": "PoolFrozen",
      "type": "error"
    },
    {
      "inputs": [
        {
          "internalType": "bytes",
          "name": "result",
          "type": "bytes"
        }
      ],
      "name": "ProxyCalldataFailedWithCustomError",
      "type": "error"
    },
    {
      "inputs": [
        {
          "internalType": "string",
          "name": "message",
          "type": "string"
        }
      ],
      "name": "ProxyCalldataFailedWithStringMessage",
      "type": "error"
    },
    {
      "inputs": [],
      "name": "ProxyCalldataFailedWithoutErrMsg",
      "type": "error"
    },
    {
      "inputs": [],
      "name": "RedstonePayloadMustHaveAtLeastOneDataPackage",
      "type": "error"
    },
    {
      "inputs": [],
      "name": "RepayingMoreThanWasBorrowed",
      "type": "error"
    },
    {
      "inputs": [
        {
          "internalType": "address",
          "name": "receivedSigner",
          "type": "address"
        }
      ],
      "name": "SignerNotAuthorised",
      "type": "error"
    },
    {
      "inputs": [],
      "name": "SpenderZeroAddress",
      "type": "error"
    },
    {
      "inputs": [],
      "name": "TotalSupplyCapBreached",
      "type": "error"
    },
    {
      "inputs": [
        {
          "internalType": "uint256",
          "name": "amount",
          "type": "uint256"
        },
        {
          "internalType": "uint256",
          "name": "balance",
          "type": "uint256"
        }
      ],
      "name": "TransferAmountExceedsBalance",
      "type": "error"
    },
    {
      "inputs": [],
      "name": "TransferToPoolAddress",
      "type": "error"
    },
    {
      "inputs": [],
      "name": "TransferToZeroAddress",
      "type": "error"
    },
    {
      "inputs": [],
      "name": "ZeroDepositAmount",
      "type": "error"
    },
    {
      "anonymous": false,
      "inputs": [
        {
          "indexed": true,
          "internalType": "address",
          "name": "owner",
          "type": "address"
        },
        {
          "indexed": true,
          "internalType": "address",
          "name": "spender",
          "type": "address"
        },
        {
          "indexed": false,
          "internalType": "uint256",
          "name": "value",
          "type": "uint256"
        }
      ],
      "name": "Approval",
      "type": "event"
    },
    {
      "anonymous": false,
      "inputs": [
        {
          "indexed": true,
          "internalType": "address",
          "name": "user",
          "type": "address"
        },
        {
          "indexed": true,
          "internalType": "address",
          "name": "borrower",
          "type": "address"
        },
        {
          "indexed": false,
          "internalType": "uint256",
          "name": "value",
          "type": "uint256"
        },
        {
          "indexed": false,
          "internalType": "uint256",
          "name": "timestamp",
          "type": "uint256"
        }
      ],
      "name": "BorrowerInitialized",
      "type": "event"
    },
    {
      "anonymous": false,
      "inputs": [
        {
          "indexed": true,
          "internalType": "address",
          "name": "registry",
          "type": "address"
        },
        {
          "indexed": false,
          "internalType": "uint256",
          "name": "timestamp",
          "type": "uint256"
        }
      ],
      "name": "BorrowersRegistryChanged",
      "type": "event"
    },
    {
      "anonymous": false,
      "inputs": [
        {
          "indexed": true,
          "internalType": "address",
          "name": "user",
          "type": "address"
        },
        {
          "indexed": false,
          "internalType": "uint256",
          "name": "value",
          "type": "uint256"
        },
        {
          "indexed": false,
          "internalType": "uint256",
          "name": "timestamp",
          "type": "uint256"
        }
      ],
      "name": "Borrowing",
      "type": "event"
    },
    {
      "anonymous": false,
      "inputs": [
        {
          "indexed": true,
          "internalType": "address",
          "name": "user",
          "type": "address"
        },
        {
          "indexed": false,
          "internalType": "uint256",
          "name": "value",
          "type": "uint256"
        },
        {
          "indexed": false,
          "internalType": "uint256",
          "name": "timestamp",
          "type": "uint256"
        }
      ],
      "name": "Deposit",
      "type": "event"
    },
    {
      "anonymous": false,
      "inputs": [
        {
          "indexed": true,
          "internalType": "address",
          "name": "user",
          "type": "address"
        },
        {
          "indexed": false,
          "internalType": "uint256",
          "name": "amount",
          "type": "uint256"
        },
        {
          "indexed": false,
          "internalType": "uint256",
          "name": "lockTime",
          "type": "uint256"
        },
        {
          "indexed": false,
          "internalType": "uint256",
          "name": "unlockTime",
          "type": "uint256"
        }
      ],
      "name": "DepositLocked",
      "type": "event"
    },
    {
      "anonymous": false,
      "inputs": [
        {
          "indexed": true,
          "internalType": "address",
          "name": "user",
          "type": "address"
        },
        {
          "indexed": true,
          "internalType": "address",
          "name": "_of",
          "type": "address"
        },
        {
          "indexed": false,
          "internalType": "uint256",
          "name": "value",
          "type": "uint256"
        },
        {
          "indexed": false,
          "internalType": "uint256",
          "name": "timestamp",
          "type": "uint256"
        }
      ],
      "name": "DepositOnBehalfOf",
      "type": "event"
    },
    {
      "anonymous": false,
      "inputs": [
        {
          "indexed": true,
          "internalType": "address",
          "name": "user",
          "type": "address"
        },
        {
          "indexed": true,
          "internalType": "address",
          "name": "depositor",
          "type": "address"
        },
        {
          "indexed": false,
          "internalType": "uint256",
          "name": "value",
          "type": "uint256"
        },
        {
          "indexed": false,
          "internalType": "uint256",
          "name": "timestamp",
          "type": "uint256"
        }
      ],
      "name": "DepositorInitialized",
      "type": "event"
    },
    {
      "anonymous": false,
      "inputs": [
        {
          "indexed": false,
          "internalType": "uint8",
          "name": "version",
          "type": "uint8"
        }
      ],
      "name": "Initialized",
      "type": "event"
    },
    {
      "anonymous": false,
      "inputs": [
        {
          "indexed": true,
          "internalType": "address",
          "name": "user",
          "type": "address"
        },
        {
          "indexed": false,
          "internalType": "uint256",
          "name": "value",
          "type": "uint256"
        },
        {
          "indexed": false,
          "internalType": "uint256",
          "name": "timestamp",
          "type": "uint256"
        }
      ],
      "name": "InterestCollected",
      "type": "event"
    },
    {
      "anonymous": false,
      "inputs": [
        {
          "indexed": true,
          "internalType": "address",
          "name": "from",
          "type": "address"
        },
        {
          "indexed": true,
          "internalType": "address",
          "name": "to",
          "type": "address"
        }
      ],
      "name": "OwnershipTransferRequested",
      "type": "event"
    },
    {
      "anonymous": false,
      "inputs": [
        {
          "indexed": true,
          "internalType": "address",
          "name": "previousOwner",
          "type": "address"
        },
        {
          "indexed": true,
          "internalType": "address",
          "name": "newOwner",
          "type": "address"
        }
      ],
      "name": "OwnershipTransferred",
      "type": "event"
    },
    {
      "anonymous": false,
      "inputs": [
        {
          "indexed": true,
          "internalType": "address",
          "name": "poolRewarder",
          "type": "address"
        },
        {
          "indexed": false,
          "internalType": "uint256",
          "name": "timestamp",
          "type": "uint256"
        }
      ],
      "name": "PoolRewarderChanged",
      "type": "event"
    },
    {
      "anonymous": false,
      "inputs": [
        {
          "indexed": true,
          "internalType": "address",
          "name": "calculator",
          "type": "address"
        },
        {
          "indexed": false,
          "internalType": "uint256",
          "name": "timestamp",
          "type": "uint256"
        }
      ],
      "name": "RatesCalculatorChanged",
      "type": "event"
    },
    {
      "anonymous": false,
      "inputs": [
        {
          "indexed": true,
          "internalType": "address",
          "name": "user",
          "type": "address"
        },
        {
          "indexed": false,
          "internalType": "uint256",
          "name": "value",
          "type": "uint256"
        },
        {
          "indexed": false,
          "internalType": "uint256",
          "name": "timestamp",
          "type": "uint256"
        }
      ],
      "name": "Repayment",
      "type": "event"
    },
    {
      "anonymous": false,
      "inputs": [
        {
          "indexed": true,
          "internalType": "address",
          "name": "from",
          "type": "address"
        },
        {
          "indexed": true,
          "internalType": "address",
          "name": "to",
          "type": "address"
        },
        {
          "indexed": false,
          "internalType": "uint256",
          "name": "value",
          "type": "uint256"
        }
      ],
      "name": "Transfer",
      "type": "event"
    },
    {
      "anonymous": false,
      "inputs": [
        {
          "indexed": true,
          "internalType": "address",
          "name": "user",
          "type": "address"
        },
        {
          "indexed": false,
          "internalType": "uint256",
          "name": "value",
          "type": "uint256"
        },
        {
          "indexed": false,
          "internalType": "uint256",
          "name": "timestamp",
          "type": "uint256"
        }
      ],
      "name": "Withdrawal",
      "type": "event"
    },
    {
      "anonymous": false,
      "inputs": [
        {
          "indexed": true,
          "internalType": "address",
          "name": "user",
          "type": "address"
        },
        {
          "indexed": false,
          "internalType": "uint256",
          "name": "amount",
          "type": "uint256"
        },
        {
          "indexed": false,
          "internalType": "uint256",
          "name": "timestamp",
          "type": "uint256"
        }
      ],
      "name": "WithdrawalIntentCancelled",
      "type": "event"
    },
    {
      "anonymous": false,
      "inputs": [
        {
          "indexed": true,
          "internalType": "address",
          "name": "user",
          "type": "address"
        },
        {
          "indexed": false,
          "internalType": "uint256",
          "name": "amount",
          "type": "uint256"
        },
        {
          "indexed": false,
          "internalType": "uint256",
          "name": "actionableAt",
          "type": "uint256"
        },
        {
          "indexed": false,
          "internalType": "uint256",
          "name": "expiresAt",
          "type": "uint256"
        }
      ],
      "name": "WithdrawalIntentCreated",
      "type": "event"
    },
    {
      "inputs": [],
      "name": "MAX_LOCK_TIME",
      "outputs": [
        {
          "internalType": "uint256",
          "name": "",
          "type": "uint256"
        }
      ],
      "stateMutability": "view",
      "type": "function"
    },
    {
      "inputs": [],
      "name": "acceptOwnership",
      "outputs": [],
      "stateMutability": "nonpayable",
      "type": "function"
    },
    {
      "inputs": [
        {
          "internalType": "address",
          "name": "owner",
          "type": "address"
        },
        {
          "internalType": "address",
          "name": "spender",
          "type": "address"
        }
      ],
      "name": "allowance",
      "outputs": [
        {
          "internalType": "uint256",
          "name": "",
          "type": "uint256"
        }
      ],
      "stateMutability": "view",
      "type": "function"
    },
    {
      "inputs": [
        {
          "internalType": "address",
          "name": "spender",
          "type": "address"
        },
        {
          "internalType": "uint256",
          "name": "amount",
          "type": "uint256"
        }
      ],
      "name": "approve",
      "outputs": [
        {
          "internalType": "bool",
          "name": "",
          "type": "bool"
        }
      ],
      "stateMutability": "nonpayable",
      "type": "function"
    },
    {
      "inputs": [
        {
          "internalType": "address",
          "name": "user",
          "type": "address"
        }
      ],
      "name": "balanceOf",
      "outputs": [
        {
          "internalType": "uint256",
          "name": "",
          "type": "uint256"
        }
      ],
      "stateMutability": "view",
      "type": "function"
    },
    {
      "inputs": [
        {
          "internalType": "uint256",
          "name": "_amount",
          "type": "uint256"
        }
      ],
      "name": "borrow",
      "outputs": [],
      "stateMutability": "nonpayable",
      "type": "function"
    },
    {
      "inputs": [],
      "name": "borrowIndex",
      "outputs": [
        {
          "internalType": "contract IIndex",
          "name": "",
          "type": "address"
        }
      ],
      "stateMutability": "view",
      "type": "function"
    },
    {
      "inputs": [
        {
          "internalType": "address",
          "name": "",
          "type": "address"
        }
      ],
      "name": "borrowed",
      "outputs": [
        {
          "internalType": "uint256",
          "name": "",
          "type": "uint256"
        }
      ],
      "stateMutability": "view",
      "type": "function"
    },
    {
      "inputs": [],
      "name": "borrowersRegistry",
      "outputs": [
        {
          "internalType": "contract IBorrowersRegistry",
          "name": "",
          "type": "address"
        }
      ],
      "stateMutability": "view",
      "type": "function"
    },
    {
      "inputs": [
        {
          "internalType": "uint256",
          "name": "intentIndex",
          "type": "uint256"
        }
      ],
      "name": "cancelWithdrawalIntent",
      "outputs": [],
      "stateMutability": "nonpayable",
      "type": "function"
    },
    {
      "inputs": [],
      "name": "checkRewards",
      "outputs": [
        {
          "internalType": "uint256",
          "name": "",
          "type": "uint256"
        }
      ],
      "stateMutability": "view",
      "type": "function"
    },
    {
      "inputs": [],
      "name": "clearExpiredIntents",
      "outputs": [],
      "stateMutability": "nonpayable",
      "type": "function"
    },
    {
      "inputs": [],
      "name": "containsOracleCalldata",
      "outputs": [
        {
          "internalType": "bool",
          "name": "",
          "type": "bool"
        }
      ],
      "stateMutability": "view",
      "type": "function"
    },
    {
      "inputs": [
        {
          "internalType": "uint256",
          "name": "amount",
          "type": "uint256"
        }
      ],
      "name": "createWithdrawalIntent",
      "outputs": [],
      "stateMutability": "nonpayable",
      "type": "function"
    },
    {
      "inputs": [],
      "name": "decimals",
      "outputs": [
        {
          "internalType": "uint8",
          "name": "decimals",
          "type": "uint8"
        }
      ],
      "stateMutability": "pure",
      "type": "function"
    },
    {
      "inputs": [
        {
          "internalType": "address",
          "name": "spender",
          "type": "address"
        },
        {
          "internalType": "uint256",
          "name": "subtractedValue",
          "type": "uint256"
        }
      ],
      "name": "decreaseAllowance",
      "outputs": [
        {
          "internalType": "bool",
          "name": "",
          "type": "bool"
        }
      ],
      "stateMutability": "nonpayable",
      "type": "function"
    },
    {
      "inputs": [
        {
          "internalType": "uint256",
          "name": "_amount",
          "type": "uint256"
        }
      ],
      "name": "deposit",
      "outputs": [],
      "stateMutability": "nonpayable",
      "type": "function"
    },
    {
      "inputs": [],
      "name": "depositIndex",
      "outputs": [
        {
          "internalType": "contract IIndex",
          "name": "",
          "type": "address"
        }
      ],
      "stateMutability": "view",
      "type": "function"
    },
    {
      "inputs": [
        {
          "internalType": "uint256",
          "name": "_amount",
          "type": "uint256"
        },
        {
          "internalType": "address",
          "name": "_of",
          "type": "address"
        }
      ],
      "name": "depositOnBehalf",
      "outputs": [],
      "stateMutability": "nonpayable",
      "type": "function"
    },
    {
      "inputs": [],
      "name": "extractTimestampsAndAssertAllAreEqual",
      "outputs": [
        {
          "internalType": "uint256",
          "name": "extractedTimestamp",
          "type": "uint256"
        }
      ],
      "stateMutability": "pure",
      "type": "function"
    },
    {
      "inputs": [
        {
          "internalType": "address",
          "name": "_user",
          "type": "address"
        }
      ],
      "name": "getBorrowed",
      "outputs": [
        {
          "internalType": "uint256",
          "name": "",
          "type": "uint256"
        }
      ],
      "stateMutability": "view",
      "type": "function"
    },
    {
      "inputs": [],
      "name": "getBorrowingRate",
      "outputs": [
        {
          "internalType": "uint256",
          "name": "",
          "type": "uint256"
        }
      ],
      "stateMutability": "view",
      "type": "function"
    },
    {
      "inputs": [],
      "name": "getDepositRate",
      "outputs": [
        {
          "internalType": "uint256",
          "name": "",
          "type": "uint256"
        }
      ],
      "stateMutability": "view",
      "type": "function"
    },
    {
      "inputs": [],
      "name": "getFullPoolStatus",
      "outputs": [
        {
          "internalType": "uint256[5]",
          "name": "",
          "type": "uint256[5]"
        }
      ],
      "stateMutability": "view",
      "type": "function"
    },
    {
      "inputs": [
        {
          "internalType": "address",
          "name": "account",
          "type": "address"
        }
      ],
      "name": "getFullyVestedLockedBalance",
      "outputs": [
        {
          "internalType": "uint256",
          "name": "fullyVestedBalance",
          "type": "uint256"
        }
      ],
      "stateMutability": "view",
      "type": "function"
    },
    {
      "inputs": [
        {
          "internalType": "address",
          "name": "account",
          "type": "address"
        }
      ],
      "name": "getLockedBalance",
      "outputs": [
        {
          "internalType": "uint256",
          "name": "",
          "type": "uint256"
        }
      ],
      "stateMutability": "view",
      "type": "function"
    },
    {
      "inputs": [],
      "name": "getMaxPoolUtilisationForBorrowing",
      "outputs": [
        {
          "internalType": "uint256",
          "name": "",
          "type": "uint256"
        }
      ],
      "stateMutability": "view",
      "type": "function"
    },
    {
      "inputs": [
        {
          "internalType": "address",
          "name": "account",
          "type": "address"
        },
        {
          "internalType": "uint256",
          "name": "excludedIntentAmount",
          "type": "uint256"
        }
      ],
      "name": "getNotLockedBalance",
      "outputs": [
        {
          "internalType": "uint256",
          "name": "notLockedBalance",
          "type": "uint256"
        }
      ],
      "stateMutability": "view",
      "type": "function"
    },
    {
      "inputs": [],
      "name": "getRewards",
      "outputs": [],
      "stateMutability": "nonpayable",
      "type": "function"
    },
    {
      "inputs": [
        {
          "internalType": "address",
          "name": "user",
          "type": "address"
        }
      ],
      "name": "getTotalIntentAmount",
      "outputs": [
        {
          "internalType": "uint256",
          "name": "totalIntentAmount",
          "type": "uint256"
        }
      ],
      "stateMutability": "view",
      "type": "function"
    },
    {
      "inputs": [
        {
          "internalType": "address",
          "name": "user",
          "type": "address"
        }
      ],
      "name": "getUserIntents",
      "outputs": [
        {
          "components": [
            {
              "internalType": "uint256",
              "name": "amount",
              "type": "uint256"
            },
            {
              "internalType": "uint256",
              "name": "actionableAt",
              "type": "uint256"
            },
            {
              "internalType": "uint256",
              "name": "expiresAt",
              "type": "uint256"
            },
            {
              "internalType": "bool",
              "name": "isPending",
              "type": "bool"
            },
            {
              "internalType": "bool",
              "name": "isActionable",
              "type": "bool"
            },
            {
              "internalType": "bool",
              "name": "isExpired",
              "type": "bool"
            }
          ],
          "internalType": "struct Pool.IntentInfo[]",
          "name": "",
          "type": "tuple[]"
        }
      ],
      "stateMutability": "view",
      "type": "function"
    },
    {
      "inputs": [],
      "name": "getVPrimeControllerAddress",
      "outputs": [
        {
          "internalType": "address",
          "name": "",
          "type": "address"
        }
      ],
      "stateMutability": "view",
      "type": "function"
    },
    {
      "inputs": [
        {
          "internalType": "address",
          "name": "spender",
          "type": "address"
        },
        {
          "internalType": "uint256",
          "name": "addedValue",
          "type": "uint256"
        }
      ],
      "name": "increaseAllowance",
      "outputs": [
        {
          "internalType": "bool",
          "name": "",
          "type": "bool"
        }
      ],
      "stateMutability": "nonpayable",
      "type": "function"
    },
    {
      "inputs": [
        {
          "internalType": "contract IRatesCalculator",
          "name": "ratesCalculator_",
          "type": "address"
        },
        {
          "internalType": "contract IBorrowersRegistry",
          "name": "borrowersRegistry_",
          "type": "address"
        },
        {
          "internalType": "contract IIndex",
          "name": "depositIndex_",
          "type": "address"
        },
        {
          "internalType": "contract IIndex",
          "name": "borrowIndex_",
          "type": "address"
        },
        {
          "internalType": "address payable",
          "name": "tokenAddress_",
          "type": "address"
        },
        {
          "internalType": "contract IPoolRewarder",
          "name": "poolRewarder_",
          "type": "address"
        },
        {
          "internalType": "uint256",
          "name": "_totalSupplyCap",
          "type": "uint256"
        }
      ],
      "name": "initialize",
      "outputs": [],
      "stateMutability": "nonpayable",
      "type": "function"
    },
    {
      "inputs": [
        {
          "internalType": "address[]",
          "name": "borrowers",
          "type": "address[]"
        },
        {
          "internalType": "uint256[]",
          "name": "amounts",
          "type": "uint256[]"
        }
      ],
      "name": "initializeBorrows",
      "outputs": [],
      "stateMutability": "nonpayable",
      "type": "function"
    },
    {
      "inputs": [
        {
          "internalType": "address[]",
          "name": "depositors",
          "type": "address[]"
        },
        {
          "internalType": "uint256[]",
          "name": "depositAmounts",
          "type": "uint256[]"
        }
      ],
      "name": "initializeDeposits",
      "outputs": [],
      "stateMutability": "nonpayable",
      "type": "function"
    },
    {
      "inputs": [
        {
          "internalType": "address",
          "name": "account",
          "type": "address"
        },
        {
          "internalType": "uint256",
          "name": "amount",
          "type": "uint256"
        },
        {
          "internalType": "uint256",
          "name": "excludedIntentAmount",
          "type": "uint256"
        }
      ],
      "name": "isWithdrawalAmountAvailable",
      "outputs": [
        {
          "internalType": "bool",
          "name": "",
          "type": "bool"
        }
      ],
      "stateMutability": "view",
      "type": "function"
    },
    {
      "inputs": [
        {
          "internalType": "uint256",
          "name": "amount",
          "type": "uint256"
        },
        {
          "internalType": "uint256",
          "name": "lockTime",
          "type": "uint256"
        }
      ],
      "name": "lockDeposit",
      "outputs": [],
      "stateMutability": "nonpayable",
      "type": "function"
    },
    {
      "inputs": [
        {
          "internalType": "address",
          "name": "",
          "type": "address"
        },
        {
          "internalType": "uint256",
          "name": "",
          "type": "uint256"
        }
      ],
      "name": "locks",
      "outputs": [
        {
          "internalType": "uint256",
          "name": "lockTime",
          "type": "uint256"
        },
        {
          "internalType": "uint256",
          "name": "amount",
          "type": "uint256"
        },
        {
          "internalType": "uint256",
          "name": "unlockTime",
          "type": "uint256"
        }
      ],
      "stateMutability": "view",
      "type": "function"
    },
    {
      "inputs": [],
      "name": "name",
      "outputs": [
        {
          "internalType": "string",
          "name": "_name",
          "type": "string"
        }
      ],
      "stateMutability": "pure",
      "type": "function"
    },
    {
      "inputs": [],
      "name": "owner",
      "outputs": [
        {
          "internalType": "address",
          "name": "",
          "type": "address"
        }
      ],
      "stateMutability": "view",
      "type": "function"
    },
    {
      "inputs": [],
      "name": "pendingOwner",
      "outputs": [
        {
          "internalType": "address",
          "name": "",
          "type": "address"
        }
      ],
      "stateMutability": "view",
      "type": "function"
    },
    {
      "inputs": [],
      "name": "poolRewarder",
      "outputs": [
        {
          "internalType": "contract IPoolRewarder",
          "name": "",
          "type": "address"
        }
      ],
      "stateMutability": "view",
      "type": "function"
    },
    {
      "inputs": [],
      "name": "ratesCalculator",
      "outputs": [
        {
          "internalType": "contract IRatesCalculator",
          "name": "",
          "type": "address"
        }
      ],
      "stateMutability": "view",
      "type": "function"
    },
    {
      "inputs": [
        {
          "internalType": "uint256",
          "name": "amount",
          "type": "uint256"
        },
        {
          "internalType": "address",
          "name": "account",
          "type": "address"
        }
      ],
      "name": "recoverSurplus",
      "outputs": [],
      "stateMutability": "nonpayable",
      "type": "function"
    },
    {
      "inputs": [],
      "name": "renounceOwnership",
      "outputs": [],
      "stateMutability": "nonpayable",
      "type": "function"
    },
    {
      "inputs": [
        {
          "internalType": "uint256",
          "name": "amount",
          "type": "uint256"
        }
      ],
      "name": "repay",
      "outputs": [],
      "stateMutability": "nonpayable",
      "type": "function"
    },
    {
      "inputs": [
        {
          "internalType": "contract IBorrowersRegistry",
          "name": "borrowersRegistry_",
          "type": "address"
        }
      ],
      "name": "setBorrowersRegistry",
      "outputs": [],
      "stateMutability": "nonpayable",
      "type": "function"
    },
    {
      "inputs": [
        {
          "internalType": "contract IPoolRewarder",
          "name": "_poolRewarder",
          "type": "address"
        }
      ],
      "name": "setPoolRewarder",
      "outputs": [],
      "stateMutability": "nonpayable",
      "type": "function"
    },
    {
      "inputs": [
        {
          "internalType": "contract IRatesCalculator",
          "name": "ratesCalculator_",
          "type": "address"
        }
      ],
      "name": "setRatesCalculator",
      "outputs": [],
      "stateMutability": "nonpayable",
      "type": "function"
    },
    {
      "inputs": [
        {
          "internalType": "contract ITokenManager",
          "name": "_tokenManager",
          "type": "address"
        }
      ],
      "name": "setTokenManager",
      "outputs": [],
      "stateMutability": "nonpayable",
      "type": "function"
    },
    {
      "inputs": [
        {
          "internalType": "uint256",
          "name": "_newTotalSupplyCap",
          "type": "uint256"
        }
      ],
      "name": "setTotalSupplyCap",
      "outputs": [],
      "stateMutability": "nonpayable",
      "type": "function"
    },
    {
      "inputs": [],
      "name": "symbol",
      "outputs": [
        {
          "internalType": "string",
          "name": "_symbol",
          "type": "string"
        }
      ],
      "stateMutability": "pure",
      "type": "function"
    },
    {
      "inputs": [],
      "name": "tokenAddress",
      "outputs": [
        {
          "internalType": "address payable",
          "name": "",
          "type": "address"
        }
      ],
      "stateMutability": "view",
      "type": "function"
    },
    {
      "inputs": [],
      "name": "tokenManager",
      "outputs": [
        {
          "internalType": "contract ITokenManager",
          "name": "",
          "type": "address"
        }
      ],
      "stateMutability": "view",
      "type": "function"
    },
    {
      "inputs": [],
      "name": "totalBorrowed",
      "outputs": [
        {
          "internalType": "uint256",
          "name": "",
          "type": "uint256"
        }
      ],
      "stateMutability": "view",
      "type": "function"
    },
    {
      "inputs": [],
      "name": "totalSupply",
      "outputs": [
        {
          "internalType": "uint256",
          "name": "",
          "type": "uint256"
        }
      ],
      "stateMutability": "view",
      "type": "function"
    },
    {
      "inputs": [],
      "name": "totalSupplyCap",
      "outputs": [
        {
          "internalType": "uint256",
          "name": "",
          "type": "uint256"
        }
      ],
      "stateMutability": "view",
      "type": "function"
    },
    {
      "inputs": [
        {
          "internalType": "address",
          "name": "recipient",
          "type": "address"
        },
        {
          "internalType": "uint256",
          "name": "amount",
          "type": "uint256"
        }
      ],
      "name": "transfer",
      "outputs": [
        {
          "internalType": "bool",
          "name": "",
          "type": "bool"
        }
      ],
      "stateMutability": "nonpayable",
      "type": "function"
    },
    {
      "inputs": [
        {
          "internalType": "address",
          "name": "sender",
          "type": "address"
        },
        {
          "internalType": "address",
          "name": "recipient",
          "type": "address"
        },
        {
          "internalType": "uint256",
          "name": "amount",
          "type": "uint256"
        }
      ],
      "name": "transferFrom",
      "outputs": [
        {
          "internalType": "bool",
          "name": "",
          "type": "bool"
        }
      ],
      "stateMutability": "nonpayable",
      "type": "function"
    },
    {
      "inputs": [
        {
          "internalType": "address",
          "name": "newOwner",
          "type": "address"
        }
      ],
      "name": "transferOwnership",
      "outputs": [],
      "stateMutability": "nonpayable",
      "type": "function"
    },
    {
      "inputs": [],
      "name": "vestingDistributor",
      "outputs": [
        {
          "internalType": "contract VestingDistributor",
          "name": "",
          "type": "address"
        }
      ],
      "stateMutability": "view",
      "type": "function"
    },
    {
      "inputs": [
        {
          "internalType": "uint256",
          "name": "_amount",
          "type": "uint256"
        },
        {
          "internalType": "uint256[]",
          "name": "intentIndices",
          "type": "uint256[]"
        }
      ],
      "name": "withdraw",
      "outputs": [],
      "stateMutability": "nonpayable",
      "type": "function"
    },
    {
      "inputs": [
        {
          "internalType": "address",
          "name": "",
          "type": "address"
        },
        {
          "internalType": "uint256",
          "name": "",
          "type": "uint256"
        }
      ],
      "name": "withdrawalIntents",
      "outputs": [
        {
          "internalType": "uint256",
          "name": "amount",
          "type": "uint256"
        },
        {
          "internalType": "uint256",
          "name": "actionableAt",
          "type": "uint256"
        },
        {
          "internalType": "uint256",
          "name": "expiresAt",
          "type": "uint256"
        }
      ],
      "stateMutability": "view",
      "type": "function"
    }
  ],
  "transactionHash": "0x8bef73b3b83dbb8271191c9bda7636a3036ce3d83584508b732abb8abca43b6f",
  "args": [],
  "numDeployments": 4,
  "solcInputHash": "c454b908f4e28b884f6019b1717a320a",
  "bytecode": "0x608060405234801561001057600080fd5b50614b28806100206000396000f3fe608060405234801561001057600080fd5b50600436106102f05760003560e01c8063726cd4151161018f578063726cd4151461057057806379ba5097146105785780637b898939146105805780637cb2b79c1461059357806389e8adb4146105a65780638da5cb5b146105b957806395d89b41146105c15780639d76ea58146105e3578063a457c2d7146105f6578063a9059cbb14610609578063aa5af0fd1461061c578063ab9eb1481461062f578063b425f80214610642578063b6b55f2514610655578063b75c42bd14610668578063b790634e1461067d578063bb102aea14610685578063c40868931461068e578063c4ce6358146106a1578063c5ebeaec146106b4578063d06dca89146106c7578063dd62ed3e146106da578063e2b9442e14610713578063e30c397814610726578063e84d13c81461072e578063ee61bd6e14610741578063ef5fd2d114610754578063f2fde38b1461075c578063f36b24251461076f578063fa3209b214610777578063fa78668f14610797578063fc68f661146107a257600080fd5b80630572b0cc146102f557806306fdde03146102ff5780630790ef9a1461034257806307bbebdd146103555780630941cb3d14610375578063095ea7b3146103a35780630d1870df146103c65780631457db34146103ce5780631460e390146103e157806318160ddd146103f457806323b872dd146103fc5780632742f2531461040f57806329194a7c146104315780632a709b14146104445780632aeaa29114610457578063313ce5671461045f57806331d05b111461046e578063371fd8e61461048157806337b764fe146104945780633866ecf7146104a757806339509351146104ba5780634c19386c146104cd57806355a547d5146104d5578063562b1168146104dd5780635915d806146104f05780636011163e1461050357806361215aa8146105165780636ca6d5d0146105245780636cf55ea21461053757806370a082311461054a57806370d4cea01461055d578063715018a6146102fd575b600080fd5b6102fd6107b5565b005b6040805180820190915260158152742232b63a30a83934b6b2aa32ba3432b92a37b5b2b760591b60208201525b6040516103399190614404565b60405180910390f35b6102fd61035036600461442c565b610819565b60a154610368906001600160a01b031681565b604051610339919061445c565b610395610383366004614470565b609a6020526000908152604090205481565b604051908152602001610339565b6103b66103b136600461448d565b610921565b6040519015158152602001610339565b6103b661099d565b6102fd6103dc366004614470565b6109b1565b6102fd6103ef3660046144b9565b610a60565b610395610d0c565b6103b661040a366004614546565b610d1c565b61042261041d36600461448d565b611021565b60405161033993929190614587565b6102fd61043f3660046145e8565b611063565b60a354610368906001600160a01b031681565b610395611240565b60405160068152602001610339565b6102fd61047c366004614653565b6112b0565b6102fd61048f366004614653565b6112bd565b6102fd6104a2366004614653565b6113a9565b6103b66104b536600461466c565b61151a565b6103b66104c836600461448d565b611533565b6103956115e0565b6103956115eb565b6102fd6104eb366004614653565b611703565b6102fd6104fe3660046146a1565b61185b565b610395610511366004614470565b611bad565b670cd64299613c8000610395565b609d54610368906001600160a01b031681565b6102fd61054536600461442c565b611c34565b610395610558366004614470565b611e8e565b6102fd61056b366004614470565b611ed4565b610368611f82565b6102fd612013565b609e54610368906001600160a01b031681565b6102fd6105a1366004614470565b6120a2565b6103956105b436600461448d565b6120cc565b610368612144565b60408051808201909152600681526511141554d11d60d21b602082015261032c565b60a054610368906001600160a01b031681565b6103b661060436600461448d565b612153565b6103b661061736600461448d565b612227565b609f54610368906001600160a01b031681565b6102fd61063d3660046145e8565b61245b565b61042261065036600461448d565b612718565b6102fd610663366004614653565b612734565b61067061273e565b60405161033991906146ec565b610395612795565b61039560975481565b61039561069c366004614470565b6127d6565b6103956106af366004614470565b6128a3565b6102fd6106c2366004614653565b6129c3565b609c54610368906001600160a01b031681565b6103956106e836600461471d565b6001600160a01b03918216600090815260986020908152604080832093909416825291909152205490565b6102fd61072136600461474b565b612c40565b610368612dac565b61039561073c366004614470565b612db6565b609b54610368906001600160a01b031681565b6102fd612e4e565b6102fd61076a366004614470565b612e57565b610395612f1e565b61078a610785366004614470565b612f3a565b604051610339919061476d565b6103956305a39a8081565b6102fd6107b0366004614470565b61309d565b609d546040516311305c1f60e11b81526001600160a01b0390911690632260b83e906107e590339060040161445c565b600060405180830381600087803b1580156107ff57600080fd5b505af1158015610813573d6000803e3d6000fd5b50505050565b61082161311b565b61082961317a565b60a0546040516370a0823160e01b81526000916001600160a01b0316906370a082319061085a90309060040161445c565b602060405180830381865afa158015610877573d6000803e3d6000fd5b505050506040513d601f19601f8201168201806040525081019061089b91906147eb565b905060006108a7610d0c565b6108af6115e0565b6108b9908461481a565b6108c3919061482d565b9050818411156108e6576040516316d5c93f60e21b815260040160405180910390fd5b83811015610907576040516394290ab960e01b815260040160405180910390fd5b61091183856131d3565b505061091d6001606555565b5050565b60006001600160a01b03831661094a57604051633d6601c760e11b815260040160405180910390fd5b3360008181526098602090815260408083206001600160a01b0388168085529083529281902086905551858152919291600080516020614ad3833981519152910160405180910390a35060015b92915050565b6602ed57011e0000601f1936013581161490565b6109b961311b565b6109c2816131f1565b1580156109d757506001600160a01b03811615155b15610a0b57609d546040516322a2d07b60e21b8152610a02916001600160a01b03169060040161445c565b60405180910390fd5b609d80546001600160a01b0319166001600160a01b0383169081179091556040514281527f85796821ee1d670b0fdb986f256b5c1a29b9019038831c7f09df2061879cf9e5906020015b60405180910390a250565b600054610100900460ff1615808015610a805750600054600160ff909116105b80610aa15750610a8f306131f1565b158015610aa1575060005460ff166001145b610b045760405162461bcd60e51b815260206004820152602e60248201527f496e697469616c697a61626c653a20636f6e747261637420697320616c72656160448201526d191e481a5b9a5d1a585b1a5e995960921b6064820152608401610a02565b6000805460ff191660011790558015610b27576000805461ff0019166101001790555b610b30886131f1565b8015610b405750610b40876131f1565b8015610b505750610b50866131f1565b8015610b605750610b60856131f1565b8015610b825750610b70836131f1565b80610b8257506001600160a01b038316155b610bc55760405162461bcd60e51b815260206004820152601460248201527357726f6e6720696e697420617267756d656e747360601b6044820152606401610a02565b609c80546001600160a01b03199081166001600160a01b038a811691909117909255609b805482168b8416179055609e80548216898416179055609f80548216888416179055609d8054821686841617905560a08054909116918616918217905560978390556040805163313ce56760e01b8152905163313ce567916004818101926020929091908290030181865afa158015610c66573d6000803e3d6000fd5b505050506040513d601f19601f82011682018060405250810190610c8a9190614840565b60a160146101000a81548160ff021916908360ff160217905550610cac613200565b610cb461322f565b610cbc61325e565b8015610d02576000805461ff0019169055604051600181527f7f26b83ff96e1f2b6a682f133852f6798a09c465da95921460cefb38474024989060200160405180910390a15b5050505050505050565b6000610d1730611e8e565b905090565b6000610d2661317a565b6001600160a01b0384166000908152609860209081526040808320338452909152902054821115610d91576001600160a01b03841660009081526098602090815260408083203384529091529081902054905163054365bb60e31b8152610a02918491600401614863565b6001600160a01b038316610db857604051633a954ecd60e21b815260040160405180910390fd5b306001600160a01b03841603610de15760405163ed728e5760e01b815260040160405180910390fd5b610ded8483600061151a565b610e185781610dfd8560006120cc565b60405163adb9e04360e01b8152600401610a02929190614863565b610e2184613441565b6001600160a01b03841660009081526099602052604081208054849290610e4990849061482d565b90915550506001600160a01b038416600090815260986020908152604080832033845290915281208054849290610e8190849061482d565b90915550610e90905083613441565b6001600160a01b03831660009081526099602052604081208054849290610eb890849061481a565b9091555050609d546001600160a01b031615801590610ed657508115155b15610fc057609d54604051630d5dbdb360e21b81526000916001600160a01b031690633576f6cc90610f0e9086908990600401614871565b6020604051808303816000875af1158015610f2d573d6000803e3d6000fd5b505050506040513d601f19601f82011682018060405250810190610f5191906147eb565b90508015610fbe57609d546040516328ba35d960e11b81526001600160a01b03909116906351746bb290610f8b9084908890600401614871565b600060405180830381600087803b158015610fa557600080fd5b505af1158015610fb9573d6000803e3d6000fd5b505050505b505b826001600160a01b0316846001600160a01b0316600080516020614ab383398151915284604051610ff391815260200190565b60405180910390a36110048461356c565b61100d8361356c565b50600161101a6001606555565b9392505050565b60a4602052816000526040600020818154811061103d57600080fd5b600091825260209091206003909102018054600182015460029092015490935090915083565b61106b61317a565b61107361311b565b8281146110925760405162461bcd60e51b8152600401610a0290614888565b60005b838110156112355760008585838181106110b1576110b16148b8565b90506020020160208101906110c69190614470565b905060008484848181106110dc576110dc6148b8565b9050602002013590506110ee82613606565b61110b57604051637582fa9b60e11b815260040160405180910390fd5b6001600160a01b0382166000908152609a6020526040902054156111705760405162461bcd60e51b815260206004820152601c60248201527b109bdc9c9bddd95c88185b1c9958591e481a5b9a5d1a585b1a5e995960221b6044820152606401610a02565b611179826136c8565b6001600160a01b0382166000908152609a6020526040812080548392906111a190849061481a565b9091555050306000908152609a6020526040812080548392906111c590849061481a565b909155506111d3905061325e565b816001600160a01b0316336001600160a01b03167f3b9a3aee39a2a7e2a67dfc91feeddddff04dccb47d2f13be4d8938e08ffae5c98342604051611218929190614863565b60405180910390a35050808061122d906148ce565b915050611095565b506108136001606555565b609d546040516246613160e11b81526000916001600160a01b031690628cc2629061126f90339060040161445c565b602060405180830381865afa15801561128c573d6000803e3d6000fd5b505050506040513d601f19601f82011682018060405250810190610d1791906147eb565b6112b861311b565b609755565b6112c561317a565b6112ce336136c8565b336000908152609a60205260409020548111156112fe57604051630dcad43360e11b815260040160405180910390fd5b61130833826137ce565b336000908152609a60205260408120805483929061132790849061482d565b9091555050306000908152609a60205260408120805483929061134b90849061482d565b90915550611359905061325e565b336001600160a01b03167f24fcca58a997b1b2eff6db8107e860458544c09ddd3693b3b779e1df6c0d6c5d8242604051611394929190614863565b60405180910390a26113a66001606555565b50565b6113b161317a565b33600090815260a460205260409020805482106113e05760405162461bcd60e51b8152600401610a02906148e7565b60008183815481106113f4576113f46148b8565b600091825260208083206040805160608101825260039094029091018054845260018082015493850193909352600201549083015284549193506114379161482d565b905080841461149b57828181548110611452576114526148b8565b9060005260206000209060030201838581548110611472576114726148b8565b600091825260209091208254600390920201908155600180830154908201556002918201549101555b828054806114ab576114ab614915565b60008281526020812060036000199093019283020181815560018101829055600201559055815160405133917fd33d8fdc6783acd0812c254bbb11863beb43e98ae9bb139867d674bb2a32336e9161150591904290614863565b60405180910390a25050506113a66001606555565b60008061152785846120cc565b90931115949350505050565b60006001600160a01b03831661155c57604051633d6601c760e11b815260040160405180910390fd5b3360009081526098602090815260408083206001600160a01b038716845290915281205461158b90849061481a565b3360008181526098602090815260408083206001600160a01b038a1680855290835292819020859055518481529394509092600080516020614ad3833981519152910160405180910390a35060019392505050565b6000610d1730611bad565b6000806115f66137e6565b905060006116038261388d565b61ffff1690508060000361162a57604051632154bfcf60e21b815260040160405180910390fd5b61163560028361481a565b915060005b818110156116fd57600061164d846138c7565b905060008061165d60688761481a565b9050600061166b823661482d565b9050803592508265ffffffffffff1660000361169a57604051630336dc9d60e41b815260040160405180910390fd5b876000036116b2578265ffffffffffff1697506116da565b878365ffffffffffff16146116da5760405163d9d1f46560e01b815260040160405180910390fd5b6116e4848861481a565b96505050505080806116f5906148ce565b91505061163a565b50505090565b61170b61317a565b6000811161175b5760405162461bcd60e51b815260206004820181905260248201527f416d6f756e74206d7573742062652067726561746572207468616e207a65726f6044820152606401610a02565b61176433613903565b60006117713360006120cc565b90508082111561179857818160405163adb9e04360e01b8152600401610a02929190614863565b60006117a7426201518061481a565b905060006117b8826201518061481a565b60408051606081018252868152602080820186815282840185815233600081815260a48552868120805460018181018355918352959091208651600390960201948555925192840192909255516002909201919091559151929350917ff7e664c0da2f587b77873cf0f2c343841d19557b27f07a4fadf367fcabb15e679061184590889087908790614587565b60405180910390a2505050506113a66001606555565b61186361317a565b33600090815260a4602052604081209061187f82858588613a13565b905061188c33828361151a565b6118cc5760405162461bcd60e51b815260206004820152601160248201527010985b185b98d9481a5cc81b1bd8dad959607a1b6044820152606401610a02565b825b80156119bc57600085856118e360018561482d565b8181106118f2576118f26148b8565b90506020020135905060006001858054905061190e919061482d565b905080821461197257848181548110611929576119296148b8565b9060005260206000209060030201858381548110611949576119496148b8565b600091825260209091208254600390920201908155600180830154908201556002918201549101555b8480548061198257611982614915565b60008281526020812060036000199093019283020181815560018101829055600201559055508190506119b48161492b565b9150506118ce565b506119c633613441565b60a0546040516370a0823160e01b81526001600160a01b03909116906370a08231906119f690309060040161445c565b602060405180830381865afa158015611a13573d6000803e3d6000fd5b505050506040513d601f19601f82011682018060405250810190611a3791906147eb565b811115611a57576040516316d5c93f60e21b815260040160405180910390fd5b30600090815260996020526040902054811115611a8757604051630bba337f60e11b815260040160405180910390fd5b3060009081526099602052604081208054839290611aa690849061482d565b90915550611ab690503382613cf5565b611abe61325e565b611ac73361356c565b609d546001600160a01b031615611b4f57609d54604051630d5dbdb360e21b81526001600160a01b0390911690633576f6cc90611b0a9084903390600401614871565b6020604051808303816000875af1158015611b29573d6000803e3d6000fd5b505050506040513d601f19601f82011682018060405250810190611b4d91906147eb565b505b611b5933826131d3565b336001600160a01b03167fdf273cb619d95419a9cd0ec88123a0538c85064229baa6363788f743fff90deb8242604051611b94929190614863565b60405180910390a25050611ba86001606555565b505050565b609f546001600160a01b038281166000908152609a602052604080822054905163966da88960e01b81529193929092169163966da88991611bf391908690600401614871565b602060405180830381865afa158015611c10573d6000803e3d6000fd5b505050506040513d601f19601f8201168201806040525081019061099791906147eb565b611c3c61317a565b81600003611c5d5760405163078e1d8560e01b815260040160405180910390fd5b6001600160a01b038116611c835760405162461bcd60e51b8152600401610a0290614942565b306001600160a01b03821603611cab5760405162461bcd60e51b8152600401610a0290614968565b60a0546040516370a0823160e01b8152611d279184916001600160a01b03909116906370a0823190611ce190339060040161445c565b602060405180830381865afa158015611cfe573d6000803e3d6000fd5b505050506040513d601f19601f82011682018060405250810190611d2291906147eb565b613d75565b9150611d3281613441565b60975415611d775760975430600090815260996020526040902054611d5890849061481a565b1115611d7757604051633f27d61760e01b815260040160405180910390fd5b611d8133836137ce565b611d8b8183613d8b565b3060009081526099602052604081208054849290611daa90849061481a565b90915550611db8905061325e565b609d546001600160a01b031615611e2e57609d546040516328ba35d960e11b81526001600160a01b03909116906351746bb290611dfb9085908590600401614871565b600060405180830381600087803b158015611e1557600080fd5b505af1158015611e29573d6000803e3d6000fd5b505050505b806001600160a01b0316336001600160a01b03167fef0ada5ca19bede6a40b575865a6ce451938d26835b7215e6a5e03bb2c4392128442604051611e73929190614863565b60405180910390a3611e848161356c565b61091d6001606555565b609e546001600160a01b0382811660009081526099602052604080822054905163966da88960e01b81529193929092169163966da88991611bf391908690600401614871565b611edc61311b565b611ee5816131f1565b158015611efa57506001600160a01b03811615155b15611f1a57806040516322a2d07b60e21b8152600401610a02919061445c565b609b80546001600160a01b0319166001600160a01b03831690811790915515611f4557611f4561325e565b806001600160a01b03167fef1b7e9216e08b283cc613824ccb26ea505227777839a4f3c6810d64594e018242604051610a5591815260200190565b565b60a3546000906001600160a01b03161561200d5760a360009054906101000a90046001600160a01b03166001600160a01b031663726cd4156040518163ffffffff1660e01b8152600401602060405180830381865afa158015611fe9573d6000803e3d6000fd5b505050506040513d601f19601f82011682018060405250810190610d17919061499d565b50600090565b600061201d613e0b565b9050336001600160a01b0382161461208f5760405162461bcd60e51b815260206004820152602f60248201527f50656e64696e674f776e61626c653a2063616c6c6572206973206e6f7420746860448201526e32903832b73234b7339037bbb732b960891b6064820152608401610a02565b61209881613e1e565b6113a66000613e70565b6120aa61311b565b60a380546001600160a01b0319166001600160a01b0392909216919091179055565b6000806120d8846127d6565b905060006120e585612db6565b90508381116120f55760006120ff565b6120ff848261482d565b9050600061210c86611e8e565b9050600061211a838561481a565b90508082101561212d576000945061213a565b612137818361482d565b94505b5050505092915050565b6033546001600160a01b031690565b60006001600160a01b03831661217c57604051633d6601c760e11b815260040160405180910390fd5b3360009081526098602090815260408083206001600160a01b0387168452909152902054828110156121c557828160405163054365bb60e31b8152600401610a02929190614863565b60006121d1848361482d565b3360008181526098602090815260408083206001600160a01b038b1680855290835292819020859055518481529394509092600080516020614ad3833981519152910160405180910390a3506001949350505050565b600061223161317a565b6001600160a01b03831661225857604051633a954ecd60e21b815260040160405180910390fd5b306001600160a01b038416036122815760405163ed728e5760e01b815260040160405180910390fd5b61228d3383600061151a565b61229d5781610dfd3360006120cc565b336122a781613441565b6001600160a01b0381166000908152609960205260409020805484900390556122cf84613441565b6001600160a01b038416600090815260996020526040812080548592906122f790849061481a565b9091555050609d546001600160a01b03161580159061231557508215155b156123ff57609d54604051630d5dbdb360e21b81526000916001600160a01b031690633576f6cc9061234d9087908690600401614871565b6020604051808303816000875af115801561236c573d6000803e3d6000fd5b505050506040513d601f19601f8201168201806040525081019061239091906147eb565b905080156123fd57609d546040516328ba35d960e11b81526001600160a01b03909116906351746bb2906123ca9084908990600401614871565b600060405180830381600087803b1580156123e457600080fd5b505af11580156123f8573d6000803e3d6000fd5b505050505b505b836001600160a01b0316816001600160a01b0316600080516020614ab38339815191528560405161243291815260200190565b60405180910390a36124433361356c565b61244c8461356c565b60019150506109976001606555565b61246361317a565b61246b61311b565b80831461248a5760405162461bcd60e51b8152600401610a0290614888565b60005b838110156112355760008383838181106124a9576124a96148b8565b90506020020135905060008686848181106124c6576124c66148b8565b90506020020160208101906124db9190614470565b9050816000036124fe5760405163078e1d8560e01b815260040160405180910390fd5b6001600160a01b0381166125245760405162461bcd60e51b8152600401610a0290614942565b306001600160a01b0382160361254c5760405162461bcd60e51b8152600401610a0290614968565b6001600160a01b038116600090815260996020526040902054156125b25760405162461bcd60e51b815260206004820152601d60248201527f4465706f7369746f7220616c726561647920696e697469616c697a65640000006044820152606401610a02565b6125bb81613441565b6097541561260057609754306000908152609960205260409020546125e190849061481a565b111561260057604051633f27d61760e01b815260040160405180910390fd5b61260a8183613d8b565b306000908152609960205260408120805484929061262990849061481a565b90915550612637905061325e565b609d546001600160a01b0316156126ad57609d546040516328ba35d960e11b81526001600160a01b03909116906351746bb29061267a9085908590600401614871565b600060405180830381600087803b15801561269457600080fd5b505af11580156126a8573d6000803e3d6000fd5b505050505b806001600160a01b0316336001600160a01b03167fb5a680d9a22629ee5eef8f54bfbe6204ddb674ca26425ddadb06cb4b53313d5684426040516126f2929190614863565b60405180910390a36127038161356c565b50508080612710906148ce565b91505061248d565b60a2602052816000526040600020818154811061103d57600080fd5b6113a68133611c34565b612746614396565b6040518060a00160405280612759610d0c565b8152602001612766612795565b8152602001612773612f1e565b81526020016127806115e0565b8152602001670cd64299613c80009052919050565b609b546000906001600160a01b0316637cd083316127b16115e0565b6127b9610d0c565b6040518363ffffffff1660e01b815260040161126f929190614863565b600080805b6001600160a01b038416600090815260a2602052604090205481101561289c576001600160a01b038416600090815260a260205260409020805442919083908110612828576128286148b8565b906000526020600020906003020160020154111561288a576001600160a01b038416600090815260a26020526040902080548290811061286a5761286a6148b8565b90600052602060002090600302016001015482612887919061481a565b91505b80612894816148ce565b9150506127db565b5092915050565b6000805b6001600160a01b038316600090815260a260205260409020548110156129bd576001600160a01b038316600090815260a2602052604090208054429190839081106128f4576128f46148b8565b90600052602060002090600302016002015411156129ab576001600160a01b038316600090815260a26020526040902080546305a39a8091908390811061293d5761293d6148b8565b600091825260208083206003909202909101546001600160a01b038716835260a29091526040909120805484908110612978576129786148b8565b90600052602060002090600302016001015461299491906149ba565b61299e91906149d1565b6129a8908361481a565b91505b806129b5816148ce565b9150506128a7565b50919050565b609c546001600160a01b03166129ec57604051631c038dab60e21b815260040160405180910390fd5b609c5460405163039ff21960e21b81526001600160a01b0390911690630e7fc86490612a1c90339060040161445c565b602060405180830381865afa158015612a39573d6000803e3d6000fd5b505050506040513d601f19601f82011682018060405250810190612a5d91906149f3565b612a7a57604051637582fa9b60e11b815260040160405180910390fd5b612a82610d0c565b600003612aa2576040516316d5c93f60e21b815260040160405180910390fd5b612aaa61317a565b60a0546040516370a0823160e01b81526001600160a01b03909116906370a0823190612ada90309060040161445c565b602060405180830381865afa158015612af7573d6000803e3d6000fd5b505050506040513d601f19601f82011682018060405250810190612b1b91906147eb565b811115612b3b576040516316d5c93f60e21b815260040160405180910390fd5b612b44336136c8565b336000908152609a602052604081208054839290612b6390849061481a565b9091555050306000908152609a602052604081208054839290612b8790849061481a565b90915550612b97905033826131d3565b612b9f61325e565b336001600160a01b03167fd6b37be10b58108f696d9ed067fedad0bff7cb417ef4c28d2f8a25d6d83c98d58242604051612bda929190614863565b60405180910390a2612bec6001606555565b670cd64299613c8000612bfd610d0c565b612c056115e0565b612c1790670de0b6b3a76400006149ba565b612c2191906149d1565b11156113a6576040516372b9ce3f60e11b815260040160405180910390fd5b81612c4c3360006120cc565b1015612c995760405162461bcd60e51b815260206004820152601c60248201527b496e73756666696369656e742062616c616e636520746f206c6f636b60201b6044820152606401610a02565b6305a39a80811115612cf75760405162461bcd60e51b815260206004820152602160248201527f43616e6e6f74206c6f636b20666f72206d6f7265207468616e203320796561726044820152607360f81b6064820152608401610a02565b33600090815260a260209081526040918290208251606081018452848152918201859052918101612d28844261481a565b905281546001818101845560009384526020938490208351600390930201918255928201519281019290925560400151600290910155337fada80de846c2fa6289ae8db8bd0145346851ca76d49946df18240ebbf97200a78383612d8c814261481a565b604051612d9b93929190614587565b60405180910390a261091d3361356c565b6000610d17613e0b565b6001600160a01b038116600090815260a460205260408120815b8154811015612e4757818181548110612deb57612deb6148b8565b9060005260206000209060030201600201544211612e3557818181548110612e1557612e156148b8565b90600052602060002090600302016000015483612e32919061481a565b92505b80612e3f816148ce565b915050612dd0565b5050919050565b611f8033613903565b612e5f61311b565b6001600160a01b038116612ecb5760405162461bcd60e51b815260206004820152602d60248201527f50656e64696e674f776e61626c653a206e6577206f776e65722069732074686560448201526c207a65726f206164647265737360981b6064820152608401610a02565b612ed481613e70565b806001600160a01b0316612ee6612144565b6001600160a01b03167fed8889f560326eb138920d842192f0eb3dd22b4f139c87a2c57538e05bae127860405160405180910390a350565b609b546000906001600160a01b031663df841eec6127b16115e0565b6001600160a01b038116600090815260a4602052604081208054606092906001600160401b03811115612f6f57612f6f614a15565b604051908082528060200260200182016040528015612fcf57816020015b6040805160c08101825260008082526020808301829052928201819052606082018190526080820181905260a08201528252600019909201910181612f8d5790505b50905060005b8254811015613095576000838281548110612ff257612ff26148b8565b906000526020600020906003020190506040518060c00160405280826000015481526020018260010154815260200182600201548152602001826001015442101515815260200182600101544210158015613051575082600201544211155b15158152602001826002015442111515815250838381518110613076576130766148b8565b602002602001018190525050808061308d906148ce565b915050612fd5565b509392505050565b6130a561311b565b6130ae816131f1565b6130cd57806040516322a2d07b60e21b8152600401610a02919061445c565b609c80546001600160a01b0319166001600160a01b0383169081179091556040514281527f04dce7d074f7e287a2e6e3516c802271d58d5c14e0dede83a49719eb6b92046990602001610a55565b33613124612144565b6001600160a01b031614611f805760405162461bcd60e51b815260206004820181905260248201527f4f776e61626c653a2063616c6c6572206973206e6f7420746865206f776e65726044820152606401610a02565b6002606554036131cc5760405162461bcd60e51b815260206004820152601f60248201527f5265656e7472616e637947756172643a207265656e7472616e742063616c6c006044820152606401610a02565b6002606555565b60a05461091d906001600160a01b03168383613e82565b6001606555565b6001600160a01b03163b151590565b600054610100900460ff166132275760405162461bcd60e51b8152600401610a0290614a2b565b611f80613fac565b600054610100900460ff166132565760405162461bcd60e51b8152600401610a0290614a2b565b611f80613fdc565b60006132686115e0565b90506000613274610d0c565b609b549091506001600160a01b03166132a05760405163fd4851e960e01b815260040160405180910390fd5b609e54609b54604051637cd0833160e01b81526001600160a01b03928316926334fcf437921690637cd08331906132dd9087908790600401614863565b602060405180830381865afa1580156132fa573d6000803e3d6000fd5b505050506040513d601f19601f8201168201806040525081019061331e91906147eb565b6040518263ffffffff1660e01b815260040161333c91815260200190565b600060405180830381600087803b15801561335657600080fd5b505af115801561336a573d6000803e3d6000fd5b5050609f54609b546040516337e107bb60e21b81526001600160a01b0392831694506334fcf437935091169063df841eec906133ac9087908790600401614863565b602060405180830381865afa1580156133c9573d6000803e3d6000fd5b505050506040513d601f19601f820116820180604052508101906133ed91906147eb565b6040518263ffffffff1660e01b815260040161340b91815260200190565b600060405180830381600087803b15801561342557600080fd5b505af1158015613439573d6000803e3d6000fd5b505050505050565b6001600160a01b03811660009081526099602052604081205461346383611e8e565b61346d919061482d565b90506134798282613d8b565b61348230611e8e565b306000908152609960205260409081902091909155516001600160a01b038316907f9bbd517758fbae61197f1c1c04c8614064e89512dbaf4350dcdf76fcaa5e2161906134d29084904290614863565b60405180910390a2609e54604051637681d99b60e11b81526001600160a01b039091169063ed03b3369061350a90859060040161445c565b600060405180830381600087803b15801561352457600080fd5b505af1158015613538573d6000803e3d6000fd5b5050609e54604051637681d99b60e11b81526001600160a01b03909116925063ed03b336915061340b90309060040161445c565b6000613576611f82565b90506001600160a01b0381161561091d5761358f61099d565b156135da57611ba881836040516024016135a9919061445c565b60408051601f198184030181529190526020810180516001600160e01b0316636cec346160e01b1790526000614003565b60405163bf18c23960e01b81526001600160a01b0382169063bf18c2399061340b90859060040161445c565b609c546000906001600160a01b031661363257604051631c038dab60e21b815260040160405180910390fd5b609c5460405163039ff21960e21b81526001600160a01b0390911690630e7fc8649061366290859060040161445c565b602060405180830381865afa15801561367f573d6000803e3d6000fd5b505050506040513d601f19601f820116820180604052508101906136a391906149f3565b6136c057604051637582fa9b60e11b815260040160405180910390fd5b506001919050565b6136d181611bad565b6001600160a01b0382166000908152609a60205260409020556136f330611bad565b306000908152609a60205260409081902091909155609f549051637681d99b60e11b81526001600160a01b039091169063ed03b3369061373790849060040161445c565b600060405180830381600087803b15801561375157600080fd5b505af1158015613765573d6000803e3d6000fd5b5050609f54604051637681d99b60e11b81526001600160a01b03909116925063ed03b336915061379990309060040161445c565b600060405180830381600087803b1580156137b357600080fd5b505af11580156137c7573d6000803e3d6000fd5b5050505050565b60a05461091d906001600160a01b031683308461408c565b60006602ed57011e0000601f1936013581161480613817576040516373bb264f60e11b815260040160405180910390fd5b6000366029111561383b57604051632bcb7bc560e11b815260040160405180910390fd5b5060281936013560006009613856600362ffffff851661481a565b613860919061481a565b90503661386e60028361481a565b111561101a5760405163c30a7bd760e01b815260040160405180910390fd5b60008061389b60208461481a565b9050368111156138be57604051632bcb7bc560e11b815260040160405180910390fd5b36033592915050565b60008060006138d5846141c2565b9092509050604e6138e782602061481a565b6138f190846149ba565b6138fb919061481a565b949350505050565b6001600160a01b038116600090815260a460205260408120905b8154811015611ba857818181548110613938576139386148b8565b906000526020600020906003020160020154421115613a015781546000906139629060019061482d565b90508082146139c65782818154811061397d5761397d6148b8565b906000526020600020906003020183838154811061399d5761399d6148b8565b600091825260209091208254600390920201908155600180830154908201556002918201549101555b828054806139d6576139d6614915565b600082815260208120600360001990930192830201818155600181018290556002015590555061391d565b80613a0b816148ce565b91505061391d565b600082613a625760405162461bcd60e51b815260206004820181905260248201527f4d7573742070726f76696465206174206c65617374206f6e6520696e74656e746044820152606401610a02565b60015b83811015613b1b578484613a7a60018461482d565b818110613a8957613a896148b8565b90506020020135858583818110613aa257613aa26148b8565b9050602002013511613b095760405162461bcd60e51b815260206004820152602a60248201527f496e74656e7420696e6469636573206d757374206265207374726963746c7920604482015269696e6372656173696e6760b01b6064820152608401610a02565b80613b13816148ce565b915050613a65565b506000805b84811015613c53576000868683818110613b3c57613b3c6148b8565b90506020020135905087805490508110613b685760405162461bcd60e51b8152600401610a02906148e7565b6000888281548110613b7c57613b7c6148b8565b906000526020600020906003020190508060010154421015613be05760405162461bcd60e51b815260206004820152601d60248201527f5769746864726177616c20696e74656e74206e6f74206d6174757265640000006044820152606401610a02565b8060020154421115613c305760405162461bcd60e51b815260206004820152601960248201527815da5d1a191c985dd85b081a5b9d195b9d08195e1c1a5c9959603a1b6044820152606401610a02565b8054613c3c908561481a565b935050508080613c4b906148ce565b915050613b20565b506000613c616064836149d1565b613c6b908361481a565b905080841115613cdc5760405162461bcd60e51b815260206004820152603660248201527f52657175657374656420616d6f756e74206578636565647320696e74656e7420604482015275616d6f756e74206279206d6f7265207468616e20312560501b6064820152608401610a02565b613cea84611d2233856120cc565b979650505050505050565b6001600160a01b038216600090815260996020526040902054811115613d2e57604051630bba337f60e11b815260040160405180910390fd5b6001600160a01b03821660008181526099602090815260408083208054869003905551848152919291600080516020614ab383398151915291015b60405180910390a35050565b6000818310613d84578161101a565b5090919050565b6001600160a01b038216613db2576040516346dbfb6d60e11b815260040160405180910390fd5b6001600160a01b03821660009081526099602052604081208054839290613dda90849061481a565b90915550506040518181526001600160a01b03831690600090600080516020614ab383398151915290602001613d69565b600080516020614a938339815191525490565b603380546001600160a01b038381166001600160a01b0319831681179093556040519116919082907f8be0079c531659141344cd1fd0a4f28419497f9722a3daafe3b4186f6b6457e090600090a35050565b600080516020614a9383398151915255565b604080516001600160a01b038481166024830152604480830185905283518084039091018152606490920183526020820180516001600160e01b031663a9059cbb60e01b1790529151600092839290871691613ede9190614a76565b6000604051808303816000865af19150503d8060008114613f1b576040519150601f19603f3d011682016040523d82523d6000602084013e613f20565b606091505b5091509150818015613f4a575080511580613f4a575080806020019051810190613f4a91906149f3565b6137c75760405162461bcd60e51b815260206004820152602d60248201527f5472616e7366657248656c7065723a3a736166655472616e736665723a20747260448201526c185b9cd9995c8819985a5b1959609a1b6064820152608401610a02565b600054610100900460ff16613fd35760405162461bcd60e51b8152600401610a0290614a2b565b611f8033613e1e565b600054610100900460ff166131ea5760405162461bcd60e51b8152600401610a0290614a2b565b6060600061401084614219565b9050600080866001600160a01b03168561402b57600061402d565b345b8460405161403b9190614a76565b60006040518083038185875af1925050503d8060008114614078576040519150601f19603f3d011682016040523d82523d6000602084013e61407d565b606091505b5091509150613cea82826142a8565b604080516001600160a01b0385811660248301528481166044830152606480830185905283518084039091018152608490920183526020820180516001600160e01b03166323b872dd60e01b17905291516000928392908816916140f09190614a76565b6000604051808303816000865af19150503d806000811461412d576040519150601f19603f3d011682016040523d82523d6000602084013e614132565b606091505b509150915081801561415c57508051158061415c57508080602001905181019061415c91906149f3565b6134395760405162461bcd60e51b815260206004820152603160248201527f5472616e7366657248656c7065723a3a7472616e7366657246726f6d3a207472604482015270185b9cd9995c919c9bdb4819985a5b1959607a1b6064820152608401610a02565b6000808080806141d360418761481a565b905060006141ec6141e560208461481a565b369061431f565b8035945090506141fd81600361431f565b62ffffff9490941697933563ffffffff16965092945050505050565b8051606090600061422861432b565b90506000614236828461481a565b90503682111561425957604051632bcb7bc560e11b815260040160405180910390fd5b6060604051905081815285602001848101826020015b8183101561428757825181526020928301920161426f565b50505082833603856020018301379190920181016020016040529392505050565b6060826129bd5781516000036142d157604051632b3ff13d60e11b815260040160405180910390fd5b602082015162461bcd60e51b148015614304576040516301efd04f60e31b81526044840190610a02908290600401614404565b8260405163fd36fde360e01b8152600401610a029190614404565b600061101a828461482d565b6000806143366137e6565b905060006143438261388d565b61ffff16905061435460028361481a565b915060005b8181101561438e57600061436c846138c7565b9050614378818561481a565b9350508080614386906148ce565b915050614359565b509092915050565b6040518060a001604052806005906020820280368337509192915050565b60005b838110156143cf5781810151838201526020016143b7565b50506000910152565b600081518084526143f08160208601602086016143b4565b601f01601f19169290920160200192915050565b60208152600061101a60208301846143d8565b6001600160a01b03811681146113a657600080fd5b6000806040838503121561443f57600080fd5b82359150602083013561445181614417565b809150509250929050565b6001600160a01b0391909116815260200190565b60006020828403121561448257600080fd5b813561101a81614417565b600080604083850312156144a057600080fd5b82356144ab81614417565b946020939093013593505050565b600080600080600080600060e0888a0312156144d457600080fd5b87356144df81614417565b965060208801356144ef81614417565b955060408801356144ff81614417565b9450606088013561450f81614417565b9350608088013561451f81614417565b925060a088013561452f81614417565b8092505060c0880135905092959891949750929550565b60008060006060848603121561455b57600080fd5b833561456681614417565b9250602084013561457681614417565b929592945050506040919091013590565b9283526020830191909152604082015260600190565b60008083601f8401126145af57600080fd5b5081356001600160401b038111156145c657600080fd5b6020830191508360208260051b85010111156145e157600080fd5b9250929050565b600080600080604085870312156145fe57600080fd5b84356001600160401b038082111561461557600080fd5b6146218883890161459d565b9096509450602087013591508082111561463a57600080fd5b506146478782880161459d565b95989497509550505050565b60006020828403121561466557600080fd5b5035919050565b60008060006060848603121561468157600080fd5b833561468c81614417565b95602085013595506040909401359392505050565b6000806000604084860312156146b657600080fd5b8335925060208401356001600160401b038111156146d357600080fd5b6146df8682870161459d565b9497909650939450505050565b60a08101818360005b60058110156147145781518352602092830192909101906001016146f5565b50505092915050565b6000806040838503121561473057600080fd5b823561473b81614417565b9150602083013561445181614417565b6000806040838503121561475e57600080fd5b50508035926020909101359150565b602080825282518282018190526000919060409081850190868401855b828110156147de578151805185528681015187860152858101518686015260608082015115159086015260808082015115159086015260a09081015115159085015260c0909301929085019060010161478a565b5091979650505050505050565b6000602082840312156147fd57600080fd5b5051919050565b634e487b7160e01b600052601160045260246000fd5b8082018082111561099757610997614804565b8181038181111561099757610997614804565b60006020828403121561485257600080fd5b815160ff8116811461101a57600080fd5b918252602082015260400190565b9182526001600160a01b0316602082015260400190565b602080825260169082015275082e4e4c2f2e640d8cadccee8d040dad2e6dac2e8c6d60531b604082015260600190565b634e487b7160e01b600052603260045260246000fd5b6000600182016148e0576148e0614804565b5060010190565b602080825260149082015273092dcecc2d8d2c840d2dce8cadce840d2dcc8caf60631b604082015260600190565b634e487b7160e01b600052603160045260246000fd5b60008161493a5761493a614804565b506000190190565b6020808252600c908201526b41646472657373207a65726f60a01b604082015260600190565b6020808252818101527f43616e6e6f74206465706f736974206f6e20626568616c66206f6620706f6f6c604082015260600190565b6000602082840312156149af57600080fd5b815161101a81614417565b808202811582820484141761099757610997614804565b6000826149ee57634e487b7160e01b600052601260045260246000fd5b500490565b600060208284031215614a0557600080fd5b8151801515811461101a57600080fd5b634e487b7160e01b600052604160045260246000fd5b6020808252602b908201527f496e697469616c697a61626c653a20636f6e7472616374206973206e6f74206960408201526a6e697469616c697a696e6760a81b606082015260800190565b60008251614a888184602087016143b4565b919091019291505056fe63a0d9df49fae3f1b9d24f8dc819a568c429a1b11d0d8e9de63df53a0194acb2ddf252ad1be2c89b69c2b068fc378daa952ba7f163c4a11628f55a4df523b3ef8c5be1e5ebec7d5bd14f71427d1e84f3dd0314c0f7b2291e5b200ac8c7c3b925a2646970667358221220d6f30ce96550866bc9e59ae1e47a15eef10cc87d22f74ffe46cfae7a9ebbaaba64736f6c63430008110033",
  "devdoc": {
    "details": "Contract allowing user to deposit to and borrow USDT from a dedicated user account",
    "errors": {
      "InsufficientAllowance(uint256,uint256)": [
        {
          "params": {
            "allowance": "current allowance",
            "requested": "requested transfer amount"
          }
        }
      ],
      "TransferAmountExceedsBalance(uint256,uint256)": [
        {
          "params": {
            "amount": "transfer amount",
            "balance": "available balance"
          }
        }
      ]
    },
    "kind": "dev",
    "methods": {
      "allowance(address,address)": {
        "details": "Returns the remaining number of tokens that `spender` will be allowed to spend on behalf of `owner` through {transferFrom}. This is zero by default. This value changes when {approve} or {transferFrom} are called."
      },
      "approve(address,uint256)": {
        "details": "Sets `amount` as the allowance of `spender` over the caller's tokens. Returns a boolean value indicating whether the operation succeeded. IMPORTANT: Beware that changing an allowance with this method brings the risk that someone may use both the old and the new allowance by unfortunate transaction ordering. One possible solution to mitigate this race condition is to first reduce the spender's allowance to 0 and set the desired value afterwards: https://github.com/ethereum/EIPs/issues/20#issuecomment-263524729 Emits an {Approval} event."
      },
      "balanceOf(address)": {
        "details": "_user the address of queried depositor*"
      },
      "borrow(uint256)": {
        "details": "_amount the amount to be borrowedIt is only meant to be used by a SmartLoanDiamondProxy*"
      },
      "getBorrowed(address)": {
        "details": "_user the address of queried borrower*"
      },
      "getFullyVestedLockedBalance(address)": {
        "details": "The fully vested locked balance is used in the governance mechanism of the system, specifically for the allocation of vPrime tokens. The method calculates the fully vested locked balance by iterating over all the locks of the account and summing up the amounts of those locks that are still active (i.e., their `unlockTime` is greater than the current block timestamp). However, the amount of each lock is scaled by the ratio of its `lockTime` to the `MAX_LOCK_TIME` (3 years). This means that the longer the lock time, the larger the contribution of the lock to the fully vested locked balance. The fully vested locked balance is used to calculate the maximum vPrime allocation for a user. Users accrue vPrime over a period of 3 years, from 0 to the maximum vPrime based on their 10-1 pairs of pool-deposit and sPrime. Locking pool deposits and sPrime immediately vests the vPrime.",
        "params": {
          "account": "The address of the account for which to calculate the fully vested locked balance."
        },
        "returns": {
          "fullyVestedBalance": "The fully vested locked balance of the provided account."
        }
      },
      "getTotalIntentAmount(address)": {
        "details": "user the address of the queried user*"
      },
      "getUserIntents(address)": {
        "details": "Returns array of all intents with their current status for a given user",
        "params": {
          "user": "Address of the user to check intents for"
        },
        "returns": {
          "_0": "Array of IntentInfo structs containing all intent details and status*"
        }
      },
      "owner()": {
        "details": "Returns the address of the current owner."
      },
      "renounceOwnership()": {
        "details": "Leaves the contract without owner. It will not be possible to call `onlyOwner` functions. Can only be called by the current owner. NOTE: Renouncing ownership will leave the contract without an owner, thereby disabling any functionality that is only available to the owner."
      },
      "repay(uint256)": {
        "details": "It is only meant to be used by a SmartLoanDiamondProxy*"
      },
      "setBorrowersRegistry(address)": {
        "details": "borrowersRegistry the address of borrowers registry*"
      },
      "setPoolRewarder(address)": {
        "details": "_poolRewarder the address of PoolRewarder*"
      },
      "setRatesCalculator(address)": {
        "details": "ratesCalculator the address of rates calculator*"
      },
      "setTotalSupplyCap(uint256)": {
        "details": "_newTotalSupplyCap new deposit cap*"
      },
      "totalSupply()": {
        "details": "Returns the amount of tokens in existence."
      },
      "withdraw(uint256,uint256[])": {
        "params": {
          "_amount": "the total amount to be withdrawn",
          "intentIndices": "array of intent indices to be used for withdrawal*"
        }
      }
    },
    "title": "UsdtPool",
    "version": 1
  },
  "userdoc": {
    "kind": "user",
    "methods": {
      "balanceOf(address)": {
        "notice": "Returns the current deposited amount for the given user The value includes the interest rates earned at the current moment"
      },
      "borrow(uint256)": {
        "notice": "Borrows the specified amount It updates user borrowed balance, total borrowed amount and rates"
      },
      "deposit(uint256)": {
        "notice": "Deposits the amount It updates user deposited balance, total deposited and rates*"
      },
      "depositOnBehalf(uint256,address)": {
        "notice": "Deposits the amount on behalf of `_of` user. It updates `_of` user deposited balance, total deposited and rates*"
      },
      "getBorrowed(address)": {
        "notice": "Returns the current borrowed amount for the given user The value includes the interest rates owned at the current moment"
      },
      "getBorrowingRate()": {
        "notice": "Returns the current interest rate for borrowings*"
      },
      "getDepositRate()": {
        "notice": "Returns the current interest rate for deposits*"
      },
      "getFullPoolStatus()": {
        "notice": "Returns full pool status"
      },
      "getFullyVestedLockedBalance(address)": {
        "notice": "Calculates and returns the fully vested locked balance for a given account."
      },
      "getTotalIntentAmount(address)": {
        "notice": "Returns the total amount of the withdrawal intents for the given user"
      },
      "recoverSurplus(uint256,address)": {
        "notice": "Recovers the surplus funds resultant from difference between deposit and borrowing rates*"
      },
      "repay(uint256)": {
        "notice": "Repays the amount It updates user borrowed balance, total borrowed amount and rates"
      },
      "setBorrowersRegistry(address)": {
        "notice": "Sets the new borrowers registry contract. The borrowers registry decides if an account can borrow funds. Only the owner of the Contract can execute this function."
      },
      "setPoolRewarder(address)": {
        "notice": "Sets the new Pool Rewarder. The IPoolRewarder that distributes additional token rewards to people having a stake in this pool proportionally to their stake and time of participance. Only the owner of the Contract can execute this function."
      },
      "setRatesCalculator(address)": {
        "notice": "Sets the new rate calculator. The calculator is an external contract that contains the logic for calculating deposit and borrowing rates. Only the owner of the Contract can execute this function."
      },
      "setTotalSupplyCap(uint256)": {
        "notice": "Sets new totalSupplyCap limiting how much in total can be deposited to the Pool. Only the owner of the Contract can execute this function."
      },
      "withdraw(uint256,uint256[])": {
        "notice": "Withdraws selected amount using multiple intents"
      }
    },
    "version": 1
  },
  "storageLayout": {
    "storage": [
      {
        "astId": 3226,
        "contract": "contracts/deployment/avalanche/UsdtPool.sol:UsdtPool",
        "label": "_initialized",
        "offset": 0,
        "slot": "0",
        "type": "t_uint8"
      },
      {
        "astId": 3229,
        "contract": "contracts/deployment/avalanche/UsdtPool.sol:UsdtPool",
        "label": "_initializing",
        "offset": 1,
        "slot": "0",
        "type": "t_bool"
      },
      {
        "astId": 4623,
        "contract": "contracts/deployment/avalanche/UsdtPool.sol:UsdtPool",
        "label": "__gap",
        "offset": 0,
        "slot": "1",
        "type": "t_array(t_uint256)50_storage"
      },
      {
        "astId": 3098,
        "contract": "contracts/deployment/avalanche/UsdtPool.sol:UsdtPool",
        "label": "_owner",
        "offset": 0,
        "slot": "51",
        "type": "t_address"
      },
      {
        "astId": 3218,
        "contract": "contracts/deployment/avalanche/UsdtPool.sol:UsdtPool",
        "label": "__gap",
        "offset": 0,
        "slot": "52",
        "type": "t_array(t_uint256)49_storage"
      },
      {
        "astId": 3402,
        "contract": "contracts/deployment/avalanche/UsdtPool.sol:UsdtPool",
        "label": "_status",
        "offset": 0,
        "slot": "101",
        "type": "t_uint256"
      },
      {
        "astId": 3471,
        "contract": "contracts/deployment/avalanche/UsdtPool.sol:UsdtPool",
        "label": "__gap",
        "offset": 0,
        "slot": "102",
        "type": "t_array(t_uint256)49_storage"
      },
      {
        "astId": 17309,
        "contract": "contracts/deployment/avalanche/UsdtPool.sol:UsdtPool",
        "label": "totalSupplyCap",
        "offset": 0,
        "slot": "151",
        "type": "t_uint256"
      },
      {
        "astId": 17315,
        "contract": "contracts/deployment/avalanche/UsdtPool.sol:UsdtPool",
        "label": "_allowed",
        "offset": 0,
        "slot": "152",
        "type": "t_mapping(t_address,t_mapping(t_address,t_uint256))"
      },
      {
        "astId": 17319,
        "contract": "contracts/deployment/avalanche/UsdtPool.sol:UsdtPool",
        "label": "_deposited",
        "offset": 0,
        "slot": "153",
        "type": "t_mapping(t_address,t_uint256)"
      },
      {
        "astId": 17323,
        "contract": "contracts/deployment/avalanche/UsdtPool.sol:UsdtPool",
        "label": "borrowed",
        "offset": 0,
        "slot": "154",
        "type": "t_mapping(t_address,t_uint256)"
      },
      {
        "astId": 17326,
        "contract": "contracts/deployment/avalanche/UsdtPool.sol:UsdtPool",
        "label": "ratesCalculator",
        "offset": 0,
        "slot": "155",
        "type": "t_contract(IRatesCalculator)72801"
      },
      {
        "astId": 17329,
        "contract": "contracts/deployment/avalanche/UsdtPool.sol:UsdtPool",
        "label": "borrowersRegistry",
        "offset": 0,
        "slot": "156",
        "type": "t_contract(IBorrowersRegistry)72080"
      },
      {
        "astId": 17332,
        "contract": "contracts/deployment/avalanche/UsdtPool.sol:UsdtPool",
        "label": "poolRewarder",
        "offset": 0,
        "slot": "157",
        "type": "t_contract(IPoolRewarder)72661"
      },
      {
        "astId": 17335,
        "contract": "contracts/deployment/avalanche/UsdtPool.sol:UsdtPool",
        "label": "depositIndex",
        "offset": 0,
        "slot": "158",
        "type": "t_contract(IIndex)72325"
      },
      {
        "astId": 17338,
        "contract": "contracts/deployment/avalanche/UsdtPool.sol:UsdtPool",
        "label": "borrowIndex",
        "offset": 0,
        "slot": "159",
        "type": "t_contract(IIndex)72325"
      },
      {
        "astId": 17340,
        "contract": "contracts/deployment/avalanche/UsdtPool.sol:UsdtPool",
        "label": "tokenAddress",
        "offset": 0,
        "slot": "160",
        "type": "t_address_payable"
      },
      {
        "astId": 17343,
        "contract": "contracts/deployment/avalanche/UsdtPool.sol:UsdtPool",
        "label": "vestingDistributor",
        "offset": 0,
        "slot": "161",
        "type": "t_contract(VestingDistributor)26445"
      },
      {
        "astId": 17345,
        "contract": "contracts/deployment/avalanche/UsdtPool.sol:UsdtPool",
        "label": "_decimals",
        "offset": 20,
        "slot": "161",
        "type": "t_uint8"
      },
      {
        "astId": 17358,
        "contract": "contracts/deployment/avalanche/UsdtPool.sol:UsdtPool",
        "label": "locks",
        "offset": 0,
        "slot": "162",
        "type": "t_mapping(t_address,t_array(t_struct(LockDetails)17352_storage)dyn_storage)"
      },
      {
        "astId": 17366,
        "contract": "contracts/deployment/avalanche/UsdtPool.sol:UsdtPool",
        "label": "tokenManager",
        "offset": 0,
        "slot": "163",
        "type": "t_contract(ITokenManager)73234"
      },
      {
        "astId": 17392,
        "contract": "contracts/deployment/avalanche/UsdtPool.sol:UsdtPool",
        "label": "withdrawalIntents",
        "offset": 0,
        "slot": "164",
        "type": "t_mapping(t_address,t_array(t_struct(WithdrawalIntent)17373_storage)dyn_storage)"
      }
    ],
    "types": {
      "t_address": {
        "encoding": "inplace",
        "label": "address",
        "numberOfBytes": "20"
      },
      "t_address_payable": {
        "encoding": "inplace",
        "label": "address payable",
        "numberOfBytes": "20"
      },
      "t_array(t_struct(LockDetails)17352_storage)dyn_storage": {
        "base": "t_struct(LockDetails)17352_storage",
        "encoding": "dynamic_array",
        "label": "struct Pool.LockDetails[]",
        "numberOfBytes": "32"
      },
      "t_array(t_struct(WithdrawalIntent)17373_storage)dyn_storage": {
        "base": "t_struct(WithdrawalIntent)17373_storage",
        "encoding": "dynamic_array",
        "label": "struct Pool.WithdrawalIntent[]",
        "numberOfBytes": "32"
      },
      "t_array(t_uint256)49_storage": {
        "base": "t_uint256",
        "encoding": "inplace",
        "label": "uint256[49]",
        "numberOfBytes": "1568"
      },
      "t_array(t_uint256)50_storage": {
        "base": "t_uint256",
        "encoding": "inplace",
        "label": "uint256[50]",
        "numberOfBytes": "1600"
      },
      "t_bool": {
        "encoding": "inplace",
        "label": "bool",
        "numberOfBytes": "1"
      },
      "t_contract(IBorrowersRegistry)72080": {
        "encoding": "inplace",
        "label": "contract IBorrowersRegistry",
        "numberOfBytes": "20"
      },
      "t_contract(IIndex)72325": {
        "encoding": "inplace",
        "label": "contract IIndex",
        "numberOfBytes": "20"
      },
      "t_contract(IPoolRewarder)72661": {
        "encoding": "inplace",
        "label": "contract IPoolRewarder",
        "numberOfBytes": "20"
      },
      "t_contract(IRatesCalculator)72801": {
        "encoding": "inplace",
        "label": "contract IRatesCalculator",
        "numberOfBytes": "20"
      },
      "t_contract(ITokenManager)73234": {
        "encoding": "inplace",
        "label": "contract ITokenManager",
        "numberOfBytes": "20"
      },
      "t_contract(VestingDistributor)26445": {
        "encoding": "inplace",
        "label": "contract VestingDistributor",
        "numberOfBytes": "20"
      },
      "t_mapping(t_address,t_array(t_struct(LockDetails)17352_storage)dyn_storage)": {
        "encoding": "mapping",
        "key": "t_address",
        "label": "mapping(address => struct Pool.LockDetails[])",
        "numberOfBytes": "32",
        "value": "t_array(t_struct(LockDetails)17352_storage)dyn_storage"
      },
      "t_mapping(t_address,t_array(t_struct(WithdrawalIntent)17373_storage)dyn_storage)": {
        "encoding": "mapping",
        "key": "t_address",
        "label": "mapping(address => struct Pool.WithdrawalIntent[])",
        "numberOfBytes": "32",
        "value": "t_array(t_struct(WithdrawalIntent)17373_storage)dyn_storage"
      },
      "t_mapping(t_address,t_mapping(t_address,t_uint256))": {
        "encoding": "mapping",
        "key": "t_address",
        "label": "mapping(address => mapping(address => uint256))",
        "numberOfBytes": "32",
        "value": "t_mapping(t_address,t_uint256)"
      },
      "t_mapping(t_address,t_uint256)": {
        "encoding": "mapping",
        "key": "t_address",
        "label": "mapping(address => uint256)",
        "numberOfBytes": "32",
        "value": "t_uint256"
      },
      "t_struct(LockDetails)17352_storage": {
        "encoding": "inplace",
        "label": "struct Pool.LockDetails",
        "members": [
          {
            "astId": 17347,
            "contract": "contracts/deployment/avalanche/UsdtPool.sol:UsdtPool",
            "label": "lockTime",
            "offset": 0,
            "slot": "0",
            "type": "t_uint256"
          },
          {
            "astId": 17349,
            "contract": "contracts/deployment/avalanche/UsdtPool.sol:UsdtPool",
            "label": "amount",
            "offset": 0,
            "slot": "1",
            "type": "t_uint256"
          },
          {
            "astId": 17351,
            "contract": "contracts/deployment/avalanche/UsdtPool.sol:UsdtPool",
            "label": "unlockTime",
            "offset": 0,
            "slot": "2",
            "type": "t_uint256"
          }
        ],
        "numberOfBytes": "96"
      },
      "t_struct(WithdrawalIntent)17373_storage": {
        "encoding": "inplace",
        "label": "struct Pool.WithdrawalIntent",
        "members": [
          {
            "astId": 17368,
            "contract": "contracts/deployment/avalanche/UsdtPool.sol:UsdtPool",
            "label": "amount",
            "offset": 0,
            "slot": "0",
            "type": "t_uint256"
          },
          {
            "astId": 17370,
            "contract": "contracts/deployment/avalanche/UsdtPool.sol:UsdtPool",
            "label": "actionableAt",
            "offset": 0,
            "slot": "1",
            "type": "t_uint256"
          },
          {
            "astId": 17372,
            "contract": "contracts/deployment/avalanche/UsdtPool.sol:UsdtPool",
            "label": "expiresAt",
            "offset": 0,
            "slot": "2",
            "type": "t_uint256"
          }
        ],
        "numberOfBytes": "96"
      },
      "t_uint256": {
        "encoding": "inplace",
        "label": "uint256",
        "numberOfBytes": "32"
      },
      "t_uint8": {
        "encoding": "inplace",
        "label": "uint8",
        "numberOfBytes": "1"
      }
    }
  }
}