{
  "address": "0x8BB6586DCAc7a92d098345FfBeFAB913a69fD3eE",
  "abi": [
    {
      "inputs": [],
      "stateMutability": "nonpayable",
      "type": "constructor"
    },
    {
      "inputs": [],
      "name": "DivisionByZero",
      "type": "error"
    },
    {
      "inputs": [],
      "name": "EmptyPools",
      "type": "error"
    },
    {
      "inputs": [],
      "name": "InvalidBaseAsset",
      "type": "error"
    },
    {
      "inputs": [],
      "name": "InvalidInput",
      "type": "error"
    },
    {
      "inputs": [],
      "name": "LengthMismatch",
      "type": "error"
    },
    {
      "inputs": [],
      "name": "MissingBaseAssetPrice",
      "type": "error"
    },
    {
      "inputs": [],
      "name": "NoValidPrice",
      "type": "error"
    },
    {
      "inputs": [],
      "name": "TWAPDeviationTooHigh",
      "type": "error"
    },
    {
      "inputs": [],
      "name": "TokenNotConfigured",
      "type": "error"
    },
    {
      "anonymous": false,
      "inputs": [
        {
          "indexed": false,
          "internalType": "uint8",
          "name": "version",
          "type": "uint8"
        }
      ],
      "name": "Initialized",
      "type": "event"
    },
    {
      "anonymous": false,
      "inputs": [
        {
          "indexed": true,
          "internalType": "address",
          "name": "previousOwner",
          "type": "address"
        },
        {
          "indexed": true,
          "internalType": "address",
          "name": "newOwner",
          "type": "address"
        }
      ],
      "name": "OwnershipTransferred",
      "type": "event"
    },
    {
      "anonymous": false,
      "inputs": [
        {
          "indexed": true,
          "internalType": "address",
          "name": "token",
          "type": "address"
        },
        {
          "indexed": true,
          "internalType": "address",
          "name": "pool",
          "type": "address"
        }
      ],
      "name": "PoolAdded",
      "type": "event"
    },
    {
      "anonymous": false,
      "inputs": [
        {
          "indexed": true,
          "internalType": "address",
          "name": "token",
          "type": "address"
        },
        {
          "indexed": true,
          "internalType": "address",
          "name": "pool",
          "type": "address"
        }
      ],
      "name": "PoolRemoved",
      "type": "event"
    },
    {
      "anonymous": false,
      "inputs": [
        {
          "indexed": true,
          "internalType": "address",
          "name": "token",
          "type": "address"
        }
      ],
      "name": "TokenConfigured",
      "type": "event"
    },
    {
      "anonymous": false,
      "inputs": [
        {
          "indexed": true,
          "internalType": "address",
          "name": "token",
          "type": "address"
        }
      ],
      "name": "TokenRemoved",
      "type": "event"
    },
    {
      "inputs": [
        {
          "internalType": "address",
          "name": "token",
          "type": "address"
        },
        {
          "components": [
            {
              "internalType": "address",
              "name": "poolAddress",
              "type": "address"
            },
            {
              "internalType": "bool",
              "name": "isCL",
              "type": "bool"
            },
            {
              "internalType": "int24",
              "name": "tickSpacing",
              "type": "int24"
            },
            {
              "internalType": "uint32",
              "name": "shortTwap",
              "type": "uint32"
            },
            {
              "components": [
                {
                  "internalType": "uint32",
                  "name": "duration",
                  "type": "uint32"
                },
                {
                  "internalType": "uint256",
                  "name": "maxDeviation",
                  "type": "uint256"
                }
              ],
              "internalType": "struct BaseOracle.TWAPCheck[]",
              "name": "twapChecks",
              "type": "tuple[]"
            },
            {
              "internalType": "address",
              "name": "baseAsset",
              "type": "address"
            }
          ],
          "internalType": "struct BaseOracle.PoolConfig[]",
          "name": "pools",
          "type": "tuple[]"
        }
      ],
      "name": "configureToken",
      "outputs": [],
      "stateMutability": "nonpayable",
      "type": "function"
    },
    {
      "inputs": [
        {
          "components": [
            {
              "internalType": "address",
              "name": "asset",
              "type": "address"
            },
            {
              "internalType": "uint256",
              "name": "amount",
              "type": "uint256"
            },
            {
              "internalType": "bool",
              "name": "useTwapChecks",
              "type": "bool"
            },
            {
              "internalType": "address[]",
              "name": "baseAssets",
              "type": "address[]"
            },
            {
              "internalType": "uint256[]",
              "name": "baseAssetPrices",
              "type": "uint256[]"
            }
          ],
          "internalType": "struct BaseOracle.GetDollarValueParams",
          "name": "params",
          "type": "tuple"
        }
      ],
      "name": "getDollarValue",
      "outputs": [
        {
          "internalType": "uint256",
          "name": "",
          "type": "uint256"
        }
      ],
      "stateMutability": "view",
      "type": "function"
    },
    {
      "inputs": [
        {
          "internalType": "address",
          "name": "token",
          "type": "address"
        }
      ],
      "name": "getFullTokenConfig",
      "outputs": [
        {
          "components": [
            {
              "internalType": "bool",
              "name": "isConfigured",
              "type": "bool"
            },
            {
              "components": [
                {
                  "internalType": "address",
                  "name": "poolAddress",
                  "type": "address"
                },
                {
                  "internalType": "bool",
                  "name": "isCL",
                  "type": "bool"
                },
                {
                  "internalType": "int24",
                  "name": "tickSpacing",
                  "type": "int24"
                },
                {
                  "internalType": "uint32",
                  "name": "shortTwap",
                  "type": "uint32"
                },
                {
                  "components": [
                    {
                      "internalType": "uint32",
                      "name": "duration",
                      "type": "uint32"
                    },
                    {
                      "internalType": "uint256",
                      "name": "maxDeviation",
                      "type": "uint256"
                    }
                  ],
                  "internalType": "struct BaseOracle.TWAPCheck[]",
                  "name": "twapChecks",
                  "type": "tuple[]"
                },
                {
                  "internalType": "address",
                  "name": "baseAsset",
                  "type": "address"
                }
              ],
              "internalType": "struct BaseOracle.PoolConfig[]",
              "name": "pools",
              "type": "tuple[]"
            }
          ],
          "internalType": "struct BaseOracle.TokenConfig",
          "name": "",
          "type": "tuple"
        }
      ],
      "stateMutability": "view",
      "type": "function"
    },
    {
      "inputs": [
        {
          "internalType": "address",
          "name": "_initialOwner",
          "type": "address"
        }
      ],
      "name": "initialize",
      "outputs": [],
      "stateMutability": "nonpayable",
      "type": "function"
    },
    {
      "inputs": [],
      "name": "owner",
      "outputs": [
        {
          "internalType": "address",
          "name": "",
          "type": "address"
        }
      ],
      "stateMutability": "view",
      "type": "function"
    },
    {
      "inputs": [
        {
          "internalType": "address",
          "name": "token",
          "type": "address"
        }
      ],
      "name": "removeToken",
      "outputs": [],
      "stateMutability": "nonpayable",
      "type": "function"
    },
    {
      "inputs": [],
      "name": "renounceOwnership",
      "outputs": [],
      "stateMutability": "nonpayable",
      "type": "function"
    },
    {
      "inputs": [
        {
          "internalType": "address",
          "name": "",
          "type": "address"
        }
      ],
      "name": "tokenConfigs",
      "outputs": [
        {
          "internalType": "bool",
          "name": "isConfigured",
          "type": "bool"
        }
      ],
      "stateMutability": "view",
      "type": "function"
    },
    {
      "inputs": [
        {
          "internalType": "address",
          "name": "newOwner",
          "type": "address"
        }
      ],
      "name": "transferOwnership",
      "outputs": [],
      "stateMutability": "nonpayable",
      "type": "function"
    }
  ],
  "transactionHash": "0x8bef115fa5b26d0d0280f629c050dbe812a30d5672032edd11c056723e4505f9",
  "args": [],
  "numDeployments": 1,
  "solcInputHash": "0d709f687359352c0dc5b5b263105a58",
  "bytecode": "0x60806040523480156200001157600080fd5b506200001c62000022565b620000e3565b600054610100900460ff16156200008f5760405162461bcd60e51b815260206004820152602760248201527f496e697469616c697a61626c653a20636f6e747261637420697320696e697469604482015266616c697a696e6760c81b606482015260840160405180910390fd5b60005460ff90811614620000e1576000805460ff191660ff9081179091556040519081527f7f26b83ff96e1f2b6a682f133852f6798a09c465da95921460cefb38474024989060200160405180910390a15b565b61259980620000f36000396000f3fe608060405234801561001057600080fd5b50600436106100835760003560e01c80631b69dc5f1461008857806338b1db46146100c05780635fa7b584146100d5578063715018a6146100e85780638da5cb5b146100f0578063a706ceb814610110578063c4d66de814610131578063dbc4131014610144578063f2fde38b14610164575b600080fd5b6100ab610096366004611b78565b60976020526000908152604090205460ff1681565b60405190151581526020015b60405180910390f35b6100d36100ce366004611b95565b610177565b005b6100d36100e3366004611b78565b610314565b6100d3610395565b6100f86103a9565b6040516001600160a01b0390911681526020016100b7565b61012361011e366004611c1c565b6103b8565b6040519081526020016100b7565b6100d361013f366004611b78565b6107b0565b610157610152366004611b78565b6108d8565b6040516100b79190611c56565b6100d3610172366004611b78565b610a42565b61017f610ab8565b610187610b17565b60008190036101a9576040516333f3e07b60e11b815260040160405180910390fd5b6001600160a01b03831660009081526097602052604081206101d091600190910190611ac3565b6001600160a01b0383166000908152609760205260408120805460ff191660011790555b818110156102d057600083838381811061021057610210611d62565b90506020028101906102229190611d78565b6102339060c081019060a001611b78565b6001600160a01b03160361025a576040516366856dc760e11b815260040160405180910390fd5b6001600160a01b038416600090815260976020526040902060010183838381811061028757610287611d62565b90506020028101906102999190611d78565b8154600181018355600092835260209092209091600302016102bb8282611f64565b505080806102c89061203f565b9150506101f4565b506040516001600160a01b038416907f3de6bfe55516f9cadcb09b7992370370609e179252c38173146ac026ecb40df090600090a261030f6001606555565b505050565b61031c610ab8565b610324610b17565b6001600160a01b0381166000908152609760205260408120805460ff19168155906103526001830182611ac3565b50506040516001600160a01b038216907f4c910b69fe65a61f7531b9c5042b2329ca7179c77290aa7e2eb3afa3c8511fd390600090a26103926001606555565b50565b61039d610ab8565b6103a76000610b77565b565b6033546001600160a01b031690565b60006097816103ca6020850185611b78565b6001600160a01b0316815260208101919091526040016000205460ff1661040457604051631d8730d160e31b815260040160405180910390fd5b6104116080830183612058565b90506104206060840184612058565b905014610443576040516001621398b960e31b0319815260040160405180910390fd5b81602001356000036104685760405163b4fa3fb360e01b815260040160405180910390fd5b60005b6104786080840184612058565b90508110156104d75761048e6080840184612058565b8281811061049e5761049e611d62565b905060200201356000036104c55760405163b4fa3fb360e01b815260040160405180910390fd5b806104cf8161203f565b91505061046b565b5060001960006097816104ed6020870187611b78565b6001600160a01b03166001600160a01b03168152602001908152602001600020600101805480602002602001604051908101604052809291908181526020016000905b8282101561062757600084815260208082206040805160c0810182526003870290920180546001600160a01b0381168452600160a01b810460ff16151584860152600160a81b810460020b84840152600160c01b900463ffffffff16606084015260018101805483518187028101870190945280845293959194608087019491929084015b828210156105fa5760008481526020908190206040805180820190915260028502909101805463ffffffff1682526001908101548284015290835290920191016105b5565b50505090825250600291909101546001600160a01b03166020918201529082526001929092019101610530565b50505050905060005b8151811015610786576000805b61064a6060880188612058565b90508110156106fa5783838151811061066557610665611d62565b602002602001015160a001516001600160a01b031687806060019061068a9190612058565b8381811061069a5761069a611d62565b90506020020160208101906106af9190611b78565b6001600160a01b0316036106e8576106ca6080880188612058565b828181106106da576106da611d62565b9050602002013591506106fa565b806106f28161203f565b91505061063d565b508060000361071c57604051631291458360e01b815260040160405180910390fd5b600061076361072e6020890189611b78565b602089013561074360608b0160408c016120a1565b8588888151811061075657610756611d62565b6020026020010151610bc9565b905084811015610771578094505b5050808061077e9061203f565b915050610630565b5060001982036107a95760405163d41b1bb160e01b815260040160405180910390fd5b5092915050565b600054610100900460ff16158080156107d05750600054600160ff909116105b806107ea5750303b1580156107ea575060005460ff166001145b6108525760405162461bcd60e51b815260206004820152602e60248201527f496e697469616c697a61626c653a20636f6e747261637420697320616c72656160448201526d191e481a5b9a5d1a585b1a5e995960921b60648201526084015b60405180910390fd5b6000805460ff191660011790558015610875576000805461ff0019166101001790555b61087d610c01565b610885610c30565b61088e82610a42565b80156108d4576000805461ff0019169055604051600181527f7f26b83ff96e1f2b6a682f133852f6798a09c465da95921460cefb38474024989060200160405180910390a15b5050565b6040805180820190915260008152606060208201526001600160a01b038216600090815260976020908152604080832081518083018352815460ff16151581526001820180548451818702810187019095528085529195929486810194939192919084015b82821015610a3457600084815260208082206040805160c0810182526003870290920180546001600160a01b0381168452600160a01b810460ff16151584860152600160a81b810460020b84840152600160c01b900463ffffffff16606084015260018101805483518187028101870190945280845293959194608087019491929084015b82821015610a075760008481526020908190206040805180820190915260028502909101805463ffffffff1682526001908101548284015290835290920191016109c2565b50505090825250600291909101546001600160a01b0316602091820152908252600192909201910161093d565b505050915250909392505050565b610a4a610ab8565b6001600160a01b038116610aaf5760405162461bcd60e51b815260206004820152602660248201527f4f776e61626c653a206e6577206f776e657220697320746865207a65726f206160448201526564647265737360d01b6064820152608401610849565b61039281610b77565b33610ac16103a9565b6001600160a01b0316146103a75760405162461bcd60e51b815260206004820181905260248201527f4f776e61626c653a2063616c6c6572206973206e6f7420746865206f776e65726044820152606401610849565b600260655403610b695760405162461bcd60e51b815260206004820152601f60248201527f5265656e7472616e637947756172643a207265656e7472616e742063616c6c006044820152606401610849565b6002606555565b6001606555565b603380546001600160a01b038381166001600160a01b0319831681179093556040519116919082907f8be0079c531659141344cd1fd0a4f28419497f9722a3daafe3b4186f6b6457e090600090a35050565b6000816020015115610be957610be28686868686610c5f565b9050610bf8565b610bf586868585610e7f565b90505b95945050505050565b600054610100900460ff16610c285760405162461bcd60e51b8152600401610849906120be565b6103a761103a565b600054610100900460ff16610c575760405162461bcd60e51b8152600401610849906120be565b6103a761106a565b600080826000015190506000816001600160a01b0316630dfe16816040518163ffffffff1660e01b8152600401602060405180830381865afa158015610ca9573d6000803e3d6000fd5b505050506040513d601f19601f82011682018060405250810190610ccd9190612109565b90506000826001600160a01b031663d21220a76040518163ffffffff1660e01b8152600401602060405180830381865afa158015610d0f573d6000803e3d6000fd5b505050506040513d601f19601f82011682018060405250810190610d339190612109565b90506000896001600160a01b0316836001600160a01b03161490506000610d638760000151886060015184611091565b90506000610d7a828a670de0b6b3a76400006111fc565b90508915610e4e5760005b886080015151811015610e4c57600089608001518281518110610daa57610daa611d62565b602002602001015160000151905060008a608001518381518110610dd057610dd0611d62565b60200260200101516020015190506000610def8c600001518489611091565b9050610e04818e670de0b6b3a76400006111fc565b90506000610e128683611375565b905082811115610e3557604051634661db5960e01b815260040160405180910390fd5b505050508080610e449061203f565b915050610d85565b505b610e5a818686866113dd565b9050610e6f818c670de0b6b3a76400006111fc565b9c9b505050505050505050505050565b600080826000015190506000866001600160a01b031663313ce5676040518163ffffffff1660e01b8152600401602060405180830381865afa158015610ec9573d6000803e3d6000fd5b505050506040513d601f19601f82011682018060405250810190610eed9190612126565b905060008460a001516001600160a01b031663313ce5676040518163ffffffff1660e01b8152600401602060405180830381865afa158015610f33573d6000803e3d6000fd5b505050506040513d601f19601f82011682018060405250810190610f579190612126565b6040516378a051ad60e11b8152600481018990526001600160a01b038a8116602483015291925060009185169063f140a35a90604401602060405180830381865afa925050508015610fc6575060408051601f3d908101601f19168201909252610fc391810190612149565b60015b6110095760405162461bcd60e51b8152602060048201526014602482015273115e1d195c9b985b0818d85b1b0819985a5b195960621b6044820152606401610849565b905060006110178284611591565b905061102c8189670de0b6b3a76400006111fc565b9a9950505050505050505050565b600054610100900460ff166110615760405162461bcd60e51b8152600401610849906120be565b6103a733610b77565b600054610100900460ff16610b705760405162461bcd60e51b8152600401610849906120be565b6040805160028082526060820183526000928392919060208301908036833701905050905083816000815181106110ca576110ca611d62565b602002602001019063ffffffff16908163ffffffff16815250506000816001815181106110f9576110f9611d62565b63ffffffff9092166020928302919091019091015260405163883bdbfd60e01b81526001600160a01b0386169063883bdbfd9061113a908490600401612162565b600060405180830381865afa92505050801561117857506040513d6000823e601f3d908101601f191682016040526111759190810190612273565b60015b611187576000199150506111f5565b600061119383886115e6565b9050856111a6576111a38161233e565b90505b60006111b18261164e565b905060006111e76001600160a01b0383166111d4670de0b6b3a764000082611e65565b6111e2600160601b80611e65565b6111fc565b96506111f595505050505050565b9392505050565b6000808060001985870985870292508281108382030391505080600003611235576000841161122a57600080fd5b5082900490506111f5565b80841161124157600080fd5b600084868809808403938111909203919050600061126186196001612360565b86169586900495938490049360008190030460010190506112828184611e65565b909317926000611293876003611e65565b60021890506112a28188611e65565b6112ad906002612373565b6112b79082611e65565b90506112c38188611e65565b6112ce906002612373565b6112d89082611e65565b90506112e48188611e65565b6112ef906002612373565b6112f99082611e65565b90506113058188611e65565b611310906002612373565b61131a9082611e65565b90506113268188611e65565b611331906002612373565b61133b9082611e65565b90506113478188611e65565b611352906002612373565b61135c9082611e65565b90506113688186611e65565b9998505050505050505050565b6000821580611382575081155b1561139057506000196113d7565b8183116113b8576113b36113a48484612373565b670de0b6b3a7640000856111fc565b6113d4565b6113d46113c58385612373565b670de0b6b3a7640000846111fc565b90505b92915050565b600080846001600160a01b031663313ce5676040518163ffffffff1660e01b8152600401602060405180830381865afa15801561141e573d6000803e3d6000fd5b505050506040513d601f19601f820116820180604052508101906114429190612126565b90506000846001600160a01b031663313ce5676040518163ffffffff1660e01b8152600401602060405180830381865afa158015611484573d6000803e3d6000fd5b505050506040513d601f19601f820116820180604052508101906114a89190612126565b9050831561152d578060ff168260ff1611156114ec5760006114ca8284612386565b60ff1690506114da81600a612483565b6114e49089611e65565b975050611586565b8160ff168160ff1611156115285760006115068383612386565b60ff16905087156115265761151c81600a612483565b6114e490896124a5565b505b611586565b8160ff168160ff1611156115475760006114ca8383612386565b8060ff168260ff1611156115865760006115618284612386565b60ff16905087156115845761157781600a612483565b61158190896124a5565b97505b505b509495945050505050565b600060128260ff1611156115c6576115aa601283612386565b6115b590600a6124b9565b6115bf90846124a5565b90506113d7565b6115d1826012612386565b6115dc90600a6124b9565b6113d49084611e65565b600080836000815181106115fc576115fc611d62565b60200260200101518460018151811061161757611617611d62565b602002602001015161162991906124c8565b905061164661163e63ffffffff8516836124f5565b60060b611a5b565b949350505050565b60008060008360020b12611665578260020b611672565b8260020b61167290612533565b9050611681620d89e71961233e565b60020b8111156116b75760405162461bcd60e51b81526020600482015260016024820152601560fa1b6044820152606401610849565b6000816001166000036116ce57600160801b6116e0565b6ffffcb933bd6fad37aa2d162d1a5940015b6001600160881b031690506002821615611715576080611710826ffff97272373d413259a46990580e213a611e65565b901c90505b600482161561173f57608061173a826ffff2e50f5f656932ef12357cf3c7fdcc611e65565b901c90505b6008821615611769576080611764826fffe5caca7e10e4e61c3624eaa0941cd0611e65565b901c90505b601082161561179357608061178e826fffcb9843d60f6159c9db58835c926644611e65565b901c90505b60208216156117bd5760806117b8826fff973b41fa98c081472e6896dfb254c0611e65565b901c90505b60408216156117e75760806117e2826fff2ea16466c96a3843ec78b326b52861611e65565b901c90505b608082161561181157608061180c826ffe5dee046a99a2a811c461f1969c3053611e65565b901c90505b61010082161561183c576080611837826ffcbe86c7900a88aedcffc83b479aa3a4611e65565b901c90505b610200821615611867576080611862826ff987a7253ac413176f2b074cf7815e54611e65565b901c90505b61040082161561189257608061188d826ff3392b0822b70005940c7a398e4b70f3611e65565b901c90505b6108008216156118bd5760806118b8826fe7159475a2c29b7443b29c7fa6e889d9611e65565b901c90505b6110008216156118e85760806118e3826fd097f3bdfd2022b8845ad8f792aa5825611e65565b901c90505b61200082161561191357608061190e826fa9f746462d870fdf8a65dc1f90e061e5611e65565b901c90505b61400082161561193e576080611939826f70d869a156d2a1b890bb3df62baf32f7611e65565b901c90505b618000821615611969576080611964826f31be135f97d08fd981231505542fcfa6611e65565b901c90505b62010000821615611995576080611990826f09aa508b5b7a84e1c677de54f3e99bc9611e65565b901c90505b620200008216156119c05760806119bb826e5d6af8dedb81196699c329225ee604611e65565b901c90505b620400008216156119ea5760806119e5826d2216e584f5fa1ea926041bedfe98611e65565b901c90505b62080000821615611a12576080611a0d826b048a170391f7dc42444e8fa2611e65565b901c90505b60008460020b1315611a2d57611a2a816000196124a5565b90505b611a3b600160201b8261254f565b15611a47576001611a4a565b60005b6116469060ff16602083901c612360565b80600281900b8114611abe5760405162461bcd60e51b815260206004820152602660248201527f53616665436173743a2076616c756520646f65736e27742066697420696e203260448201526534206269747360d01b6064820152608401610849565b919050565b508054600082556003029060005260206000209081019061039291905b80821115611b205780546001600160e01b03191681556000611b056001830182611b24565b506002810180546001600160a01b0319169055600301611ae0565b5090565b508054600082556002029060005260206000209081019061039291905b80821115611b2057805463ffffffff1916815560006001820155600201611b41565b6001600160a01b038116811461039257600080fd5b600060208284031215611b8a57600080fd5b81356111f581611b63565b600080600060408486031215611baa57600080fd5b8335611bb581611b63565b925060208401356001600160401b0380821115611bd157600080fd5b818601915086601f830112611be557600080fd5b813581811115611bf457600080fd5b8760208260051b8501011115611c0957600080fd5b6020830194508093505050509250925092565b600060208284031215611c2e57600080fd5b81356001600160401b03811115611c4457600080fd5b820160a081850312156111f557600080fd5b600060208083526060830184511515828501528185015160408081870152828251808552608094508488019150848160051b890101868501945060005b82811015611d5457898203607f19018452855180516001600160a01b03168352888101511515898401528581015160020b8684015260608082015163ffffffff908116918501919091528882015160c08a8601819052815190860181905260e0860192918c01916000915b80831015611d295783518051831686528e01518e860152938a0193928d019260019290920191611cfe565b5050505060a0918201516001600160a01b031693909101929092529487019492870192600101611c93565b509998505050505050505050565b634e487b7160e01b600052603260045260246000fd5b6000823560be19833603018112611d8e57600080fd5b9190910192915050565b600081356113d781611b63565b80546001600160a01b0319166001600160a01b0392909216919091179055565b801515811461039257600080fd5b6000813563ffffffff811681146113d757600080fd5b6000808335601e19843603018112611e0057600080fd5b8301803591506001600160401b03821115611e1a57600080fd5b6020019150600681901b3603821315611e3257600080fd5b9250929050565b634e487b7160e01b600052604160045260246000fd5b634e487b7160e01b600052601160045260246000fd5b80820281158282048414176113d7576113d7611e4f565b63ffffffff611e8a83611dd3565b1663ffffffff19825416178155602082013560018201555050565b600160401b831115611eb957611eb9611e39565b805483825580841015611f275760016001600160ff1b038281168314611ee157611ee1611e4f565b8086168614611ef257611ef2611e4f565b5060008381526020812086831b81019084841b015b80821015611f22578282558284830155600282019150611f07565b505050505b5060008181526020812083915b85811015611f5c57611f468383611e7c565b6040929092019160029190910190600101611f34565b505050505050565b8135611f6f81611b63565b611f798183611da5565b506020820135611f8881611dc5565b815460ff60a01b19811691151560a01b60ff60a01b1691821783556040840135600281900b8114611fb857600080fd5b8060a81b62ffffff60a81b168363ffffffff60a01b1984161717845550505061200a611fe660608401611dd3565b82805463ffffffff60c01b191660c09290921b63ffffffff60c01b16919091179055565b6120176080830183611de9565b612025818360018601611ea5565b50506108d461203660a08401611d98565b60028301611da5565b60006001820161205157612051611e4f565b5060010190565b6000808335601e1984360301811261206f57600080fd5b8301803591506001600160401b0382111561208957600080fd5b6020019150600581901b3603821315611e3257600080fd5b6000602082840312156120b357600080fd5b81356111f581611dc5565b6020808252602b908201527f496e697469616c697a61626c653a20636f6e7472616374206973206e6f74206960408201526a6e697469616c697a696e6760a81b606082015260800190565b60006020828403121561211b57600080fd5b81516111f581611b63565b60006020828403121561213857600080fd5b815160ff811681146111f557600080fd5b60006020828403121561215b57600080fd5b5051919050565b6020808252825182820181905260009190848201906040850190845b818110156121a057835163ffffffff168352928401929184019160010161217e565b50909695505050505050565b604051601f8201601f191681016001600160401b03811182821017156121d4576121d4611e39565b604052919050565b60006001600160401b038211156121f5576121f5611e39565b5060051b60200190565b600082601f83011261221057600080fd5b81516020612225612220836121dc565b6121ac565b82815260059290921b8401810191818101908684111561224457600080fd5b8286015b8481101561226857805161225b81611b63565b8352918301918301612248565b509695505050505050565b6000806040838503121561228657600080fd5b82516001600160401b038082111561229d57600080fd5b818501915085601f8301126122b157600080fd5b815160206122c1612220836121dc565b82815260059290921b840181019181810190898411156122e057600080fd5b948201945b8386101561230e5785518060060b81146122ff5760008081fd5b825294820194908201906122e5565b9188015191965090935050508082111561232757600080fd5b50612334858286016121ff565b9150509250929050565b60008160020b627fffff19810361235757612357611e4f565b60000392915050565b808201808211156113d7576113d7611e4f565b818103818111156113d7576113d7611e4f565b60ff82811682821603908111156113d7576113d7611e4f565b600181815b808511156123da5781600019048211156123c0576123c0611e4f565b808516156123cd57918102915b93841c93908002906123a4565b509250929050565b6000826123f1575060016113d7565b816123fe575060006113d7565b8160018114612414576002811461241e5761243a565b60019150506113d7565b60ff84111561242f5761242f611e4f565b50506001821b6113d7565b5060208310610133831016604e8410600b841016171561245d575081810a6113d7565b612467838361239f565b806000190482111561247b5761247b611e4f565b029392505050565b60006113d483836123e2565b634e487b7160e01b600052601260045260246000fd5b6000826124b4576124b461248f565b500490565b60006113d460ff8416836123e2565b600682810b9082900b03667fffffffffffff198112667fffffffffffff821317156113d7576113d7611e4f565b60008160060b8360060b8061250c5761250c61248f565b667fffffffffffff1982146000198214161561252a5761252a611e4f565b90059392505050565b6000600160ff1b820161254857612548611e4f565b5060000390565b60008261255e5761255e61248f565b50069056fea2646970667358221220fe3221c5283452754473d0e43ac79ae1af32a45a07227b19898f00cd00a5e1e764736f6c63430008110033",
  "devdoc": {
    "details": "Calculates the USD value of an asset using multiple pools.      The contract supports both centralized liquidity (CL) pools and AMM pools.      In this refactored version, each pool config stores a single short TWAP duration (used      to derive the price) and an array of TWAP deviation checks. Each deviation check      consists of a TWAP duration and a maximum allowed deviation. When enabled, the oracle      will iterate over these checks to verify that the short TWAP price does not deviate      too much from prices calculated over other durations.",
    "kind": "dev",
    "methods": {
      "configureToken(address,(address,bool,int24,uint32,(uint32,uint256)[],address)[])": {
        "details": "Only callable by the owner. Reverts if no pools are provided or if a base asset is invalid.",
        "params": {
          "pools": "Array of pool configurations for the token.",
          "token": "The address of the token to configure."
        }
      },
      "constructor": {
        "custom:oz-upgrades-unsafe-allow": "constructor"
      },
      "getFullTokenConfig(address)": {
        "params": {
          "token": "The address of the token to query"
        },
        "returns": {
          "_0": "The complete TokenConfig struct containing the token's configuration"
        }
      },
      "initialize(address)": {
        "params": {
          "_initialOwner": "The address of the initial owner."
        }
      },
      "owner()": {
        "details": "Returns the address of the current owner."
      },
      "removeToken(address)": {
        "details": "Only callable by the owner.",
        "params": {
          "token": "The address of the token to remove."
        }
      },
      "renounceOwnership()": {
        "details": "Leaves the contract without owner. It will not be possible to call `onlyOwner` functions. Can only be called by the current owner. NOTE: Renouncing ownership will leave the contract without an owner, thereby disabling any functionality that is only available to the owner."
      },
      "transferOwnership(address)": {
        "details": "Transfers ownership of the contract to a new account (`newOwner`). Can only be called by the current owner."
      }
    },
    "title": "BaseOracle",
    "version": 1
  },
  "userdoc": {
    "kind": "user",
    "methods": {
      "configureToken(address,(address,bool,int24,uint32,(uint32,uint256)[],address)[])": {
        "notice": "Configures a token with its associated pools."
      },
      "getDollarValue((address,uint256,bool,address[],uint256[]))": {
        "notice": "Calculates the USD value of an asset based on its configured pools.         Each pool returns the full USD value for the provided amount."
      },
      "getFullTokenConfig(address)": {
        "notice": "Retrieves the full configuration for a token."
      },
      "initialize(address)": {
        "notice": "Initializes the contract and sets the initial owner."
      },
      "removeToken(address)": {
        "notice": "Removes a token and its associated pools from the configuration."
      }
    },
    "version": 1
  },
  "storageLayout": {
    "storage": [
      {
        "astId": 138,
        "contract": "contracts/oracle/BaseOracle.sol:BaseOracle",
        "label": "_initialized",
        "offset": 0,
        "slot": "0",
        "type": "t_uint8"
      },
      {
        "astId": 141,
        "contract": "contracts/oracle/BaseOracle.sol:BaseOracle",
        "label": "_initializing",
        "offset": 1,
        "slot": "0",
        "type": "t_bool"
      },
      {
        "astId": 755,
        "contract": "contracts/oracle/BaseOracle.sol:BaseOracle",
        "label": "__gap",
        "offset": 0,
        "slot": "1",
        "type": "t_array(t_uint256)50_storage"
      },
      {
        "astId": 10,
        "contract": "contracts/oracle/BaseOracle.sol:BaseOracle",
        "label": "_owner",
        "offset": 0,
        "slot": "51",
        "type": "t_address"
      },
      {
        "astId": 130,
        "contract": "contracts/oracle/BaseOracle.sol:BaseOracle",
        "label": "__gap",
        "offset": 0,
        "slot": "52",
        "type": "t_array(t_uint256)49_storage"
      },
      {
        "astId": 314,
        "contract": "contracts/oracle/BaseOracle.sol:BaseOracle",
        "label": "_status",
        "offset": 0,
        "slot": "101",
        "type": "t_uint256"
      },
      {
        "astId": 383,
        "contract": "contracts/oracle/BaseOracle.sol:BaseOracle",
        "label": "__gap",
        "offset": 0,
        "slot": "102",
        "type": "t_array(t_uint256)49_storage"
      },
      {
        "astId": 3993,
        "contract": "contracts/oracle/BaseOracle.sol:BaseOracle",
        "label": "tokenConfigs",
        "offset": 0,
        "slot": "151",
        "type": "t_mapping(t_address,t_struct(TokenConfig)3988_storage)"
      }
    ],
    "types": {
      "t_address": {
        "encoding": "inplace",
        "label": "address",
        "numberOfBytes": "20"
      },
      "t_array(t_struct(PoolConfig)3981_storage)dyn_storage": {
        "base": "t_struct(PoolConfig)3981_storage",
        "encoding": "dynamic_array",
        "label": "struct BaseOracle.PoolConfig[]",
        "numberOfBytes": "32"
      },
      "t_array(t_struct(TWAPCheck)3966_storage)dyn_storage": {
        "base": "t_struct(TWAPCheck)3966_storage",
        "encoding": "dynamic_array",
        "label": "struct BaseOracle.TWAPCheck[]",
        "numberOfBytes": "32"
      },
      "t_array(t_uint256)49_storage": {
        "base": "t_uint256",
        "encoding": "inplace",
        "label": "uint256[49]",
        "numberOfBytes": "1568"
      },
      "t_array(t_uint256)50_storage": {
        "base": "t_uint256",
        "encoding": "inplace",
        "label": "uint256[50]",
        "numberOfBytes": "1600"
      },
      "t_bool": {
        "encoding": "inplace",
        "label": "bool",
        "numberOfBytes": "1"
      },
      "t_int24": {
        "encoding": "inplace",
        "label": "int24",
        "numberOfBytes": "3"
      },
      "t_mapping(t_address,t_struct(TokenConfig)3988_storage)": {
        "encoding": "mapping",
        "key": "t_address",
        "label": "mapping(address => struct BaseOracle.TokenConfig)",
        "numberOfBytes": "32",
        "value": "t_struct(TokenConfig)3988_storage"
      },
      "t_struct(PoolConfig)3981_storage": {
        "encoding": "inplace",
        "label": "struct BaseOracle.PoolConfig",
        "members": [
          {
            "astId": 3968,
            "contract": "contracts/oracle/BaseOracle.sol:BaseOracle",
            "label": "poolAddress",
            "offset": 0,
            "slot": "0",
            "type": "t_address"
          },
          {
            "astId": 3970,
            "contract": "contracts/oracle/BaseOracle.sol:BaseOracle",
            "label": "isCL",
            "offset": 20,
            "slot": "0",
            "type": "t_bool"
          },
          {
            "astId": 3972,
            "contract": "contracts/oracle/BaseOracle.sol:BaseOracle",
            "label": "tickSpacing",
            "offset": 21,
            "slot": "0",
            "type": "t_int24"
          },
          {
            "astId": 3974,
            "contract": "contracts/oracle/BaseOracle.sol:BaseOracle",
            "label": "shortTwap",
            "offset": 24,
            "slot": "0",
            "type": "t_uint32"
          },
          {
            "astId": 3978,
            "contract": "contracts/oracle/BaseOracle.sol:BaseOracle",
            "label": "twapChecks",
            "offset": 0,
            "slot": "1",
            "type": "t_array(t_struct(TWAPCheck)3966_storage)dyn_storage"
          },
          {
            "astId": 3980,
            "contract": "contracts/oracle/BaseOracle.sol:BaseOracle",
            "label": "baseAsset",
            "offset": 0,
            "slot": "2",
            "type": "t_address"
          }
        ],
        "numberOfBytes": "96"
      },
      "t_struct(TWAPCheck)3966_storage": {
        "encoding": "inplace",
        "label": "struct BaseOracle.TWAPCheck",
        "members": [
          {
            "astId": 3963,
            "contract": "contracts/oracle/BaseOracle.sol:BaseOracle",
            "label": "duration",
            "offset": 0,
            "slot": "0",
            "type": "t_uint32"
          },
          {
            "astId": 3965,
            "contract": "contracts/oracle/BaseOracle.sol:BaseOracle",
            "label": "maxDeviation",
            "offset": 0,
            "slot": "1",
            "type": "t_uint256"
          }
        ],
        "numberOfBytes": "64"
      },
      "t_struct(TokenConfig)3988_storage": {
        "encoding": "inplace",
        "label": "struct BaseOracle.TokenConfig",
        "members": [
          {
            "astId": 3983,
            "contract": "contracts/oracle/BaseOracle.sol:BaseOracle",
            "label": "isConfigured",
            "offset": 0,
            "slot": "0",
            "type": "t_bool"
          },
          {
            "astId": 3987,
            "contract": "contracts/oracle/BaseOracle.sol:BaseOracle",
            "label": "pools",
            "offset": 0,
            "slot": "1",
            "type": "t_array(t_struct(PoolConfig)3981_storage)dyn_storage"
          }
        ],
        "numberOfBytes": "64"
      },
      "t_uint256": {
        "encoding": "inplace",
        "label": "uint256",
        "numberOfBytes": "32"
      },
      "t_uint32": {
        "encoding": "inplace",
        "label": "uint32",
        "numberOfBytes": "4"
      },
      "t_uint8": {
        "encoding": "inplace",
        "label": "uint8",
        "numberOfBytes": "1"
      }
    }
  }
}