{
  "_format": "hh-sol-artifact-1",
  "contractName": "WrappedNativeTokenPool",
  "sourceName": "contracts/WrappedNativeTokenPool.sol",
  "abi": [
    {
      "inputs": [],
      "name": "BorrowersRegistryNotConfigured",
      "type": "error"
    },
    {
      "inputs": [],
      "name": "BurnAmountExceedsAvailableForUser",
      "type": "error"
    },
    {
      "inputs": [],
      "name": "BurnAmountExceedsBalance",
      "type": "error"
    },
    {
      "inputs": [
        {
          "internalType": "uint256",
          "name": "requested",
          "type": "uint256"
        },
        {
          "internalType": "uint256",
          "name": "allowance",
          "type": "uint256"
        }
      ],
      "name": "InsufficientAllowance",
      "type": "error"
    },
    {
      "inputs": [],
      "name": "InsufficientPoolFunds",
      "type": "error"
    },
    {
      "inputs": [],
      "name": "InsufficientSurplus",
      "type": "error"
    },
    {
      "inputs": [],
      "name": "MaxPoolUtilisationBreached",
      "type": "error"
    },
    {
      "inputs": [],
      "name": "MintToAddressZero",
      "type": "error"
    },
    {
      "inputs": [
        {
          "internalType": "address",
          "name": "target",
          "type": "address"
        }
      ],
      "name": "NotAContract",
      "type": "error"
    },
    {
      "inputs": [],
      "name": "NotAuthorizedToBorrow",
      "type": "error"
    },
    {
      "inputs": [],
      "name": "PoolFrozen",
      "type": "error"
    },
    {
      "inputs": [],
      "name": "RepayingMoreThanWasBorrowed",
      "type": "error"
    },
    {
      "inputs": [],
      "name": "SpenderZeroAddress",
      "type": "error"
    },
    {
      "inputs": [],
      "name": "TotalSupplyCapBreached",
      "type": "error"
    },
    {
      "inputs": [
        {
          "internalType": "uint256",
          "name": "amount",
          "type": "uint256"
        },
        {
          "internalType": "uint256",
          "name": "balance",
          "type": "uint256"
        }
      ],
      "name": "TransferAmountExceedsBalance",
      "type": "error"
    },
    {
      "inputs": [],
      "name": "TransferToPoolAddress",
      "type": "error"
    },
    {
      "inputs": [],
      "name": "TransferToZeroAddress",
      "type": "error"
    },
    {
      "inputs": [],
      "name": "ZeroDepositAmount",
      "type": "error"
    },
    {
      "anonymous": false,
      "inputs": [
        {
          "indexed": true,
          "internalType": "address",
          "name": "owner",
          "type": "address"
        },
        {
          "indexed": true,
          "internalType": "address",
          "name": "spender",
          "type": "address"
        },
        {
          "indexed": false,
          "internalType": "uint256",
          "name": "value",
          "type": "uint256"
        }
      ],
      "name": "Approval",
      "type": "event"
    },
    {
      "anonymous": false,
      "inputs": [
        {
          "indexed": true,
          "internalType": "address",
          "name": "registry",
          "type": "address"
        },
        {
          "indexed": false,
          "internalType": "uint256",
          "name": "timestamp",
          "type": "uint256"
        }
      ],
      "name": "BorrowersRegistryChanged",
      "type": "event"
    },
    {
      "anonymous": false,
      "inputs": [
        {
          "indexed": true,
          "internalType": "address",
          "name": "user",
          "type": "address"
        },
        {
          "indexed": false,
          "internalType": "uint256",
          "name": "value",
          "type": "uint256"
        },
        {
          "indexed": false,
          "internalType": "uint256",
          "name": "timestamp",
          "type": "uint256"
        }
      ],
      "name": "Borrowing",
      "type": "event"
    },
    {
      "anonymous": false,
      "inputs": [
        {
          "indexed": true,
          "internalType": "address",
          "name": "user",
          "type": "address"
        },
        {
          "indexed": false,
          "internalType": "uint256",
          "name": "value",
          "type": "uint256"
        },
        {
          "indexed": false,
          "internalType": "uint256",
          "name": "timestamp",
          "type": "uint256"
        }
      ],
      "name": "Deposit",
      "type": "event"
    },
    {
      "anonymous": false,
      "inputs": [
        {
          "indexed": true,
          "internalType": "address",
          "name": "user",
          "type": "address"
        },
        {
          "indexed": true,
          "internalType": "address",
          "name": "_of",
          "type": "address"
        },
        {
          "indexed": false,
          "internalType": "uint256",
          "name": "value",
          "type": "uint256"
        },
        {
          "indexed": false,
          "internalType": "uint256",
          "name": "timestamp",
          "type": "uint256"
        }
      ],
      "name": "DepositOnBehalfOf",
      "type": "event"
    },
    {
      "anonymous": false,
      "inputs": [
        {
          "indexed": true,
          "internalType": "address",
          "name": "user",
          "type": "address"
        },
        {
          "indexed": false,
          "internalType": "uint256",
          "name": "value",
          "type": "uint256"
        },
        {
          "indexed": false,
          "internalType": "uint256",
          "name": "timestamp",
          "type": "uint256"
        }
      ],
      "name": "InterestCollected",
      "type": "event"
    },
    {
      "anonymous": false,
      "inputs": [
        {
          "indexed": true,
          "internalType": "address",
          "name": "previousOwner",
          "type": "address"
        },
        {
          "indexed": true,
          "internalType": "address",
          "name": "newOwner",
          "type": "address"
        }
      ],
      "name": "OwnershipTransferred",
      "type": "event"
    },
    {
      "anonymous": false,
      "inputs": [
        {
          "indexed": true,
          "internalType": "address",
          "name": "poolRewarder",
          "type": "address"
        },
        {
          "indexed": false,
          "internalType": "uint256",
          "name": "timestamp",
          "type": "uint256"
        }
      ],
      "name": "PoolRewarderChanged",
      "type": "event"
    },
    {
      "anonymous": false,
      "inputs": [
        {
          "indexed": true,
          "internalType": "address",
          "name": "calculator",
          "type": "address"
        },
        {
          "indexed": false,
          "internalType": "uint256",
          "name": "timestamp",
          "type": "uint256"
        }
      ],
      "name": "RatesCalculatorChanged",
      "type": "event"
    },
    {
      "anonymous": false,
      "inputs": [
        {
          "indexed": true,
          "internalType": "address",
          "name": "user",
          "type": "address"
        },
        {
          "indexed": false,
          "internalType": "uint256",
          "name": "value",
          "type": "uint256"
        },
        {
          "indexed": false,
          "internalType": "uint256",
          "name": "timestamp",
          "type": "uint256"
        }
      ],
      "name": "Repayment",
      "type": "event"
    },
    {
      "anonymous": false,
      "inputs": [
        {
          "indexed": true,
          "internalType": "address",
          "name": "from",
          "type": "address"
        },
        {
          "indexed": true,
          "internalType": "address",
          "name": "to",
          "type": "address"
        },
        {
          "indexed": false,
          "internalType": "uint256",
          "name": "value",
          "type": "uint256"
        }
      ],
      "name": "Transfer",
      "type": "event"
    },
    {
      "anonymous": false,
      "inputs": [
        {
          "indexed": true,
          "internalType": "address",
          "name": "distributor",
          "type": "address"
        },
        {
          "indexed": false,
          "internalType": "uint256",
          "name": "timestamp",
          "type": "uint256"
        }
      ],
      "name": "VestingDistributorChanged",
      "type": "event"
    },
    {
      "anonymous": false,
      "inputs": [
        {
          "indexed": true,
          "internalType": "address",
          "name": "user",
          "type": "address"
        },
        {
          "indexed": false,
          "internalType": "uint256",
          "name": "value",
          "type": "uint256"
        },
        {
          "indexed": false,
          "internalType": "uint256",
          "name": "timestamp",
          "type": "uint256"
        }
      ],
      "name": "Withdrawal",
      "type": "event"
    },
    {
      "inputs": [
        {
          "internalType": "address",
          "name": "owner",
          "type": "address"
        },
        {
          "internalType": "address",
          "name": "spender",
          "type": "address"
        }
      ],
      "name": "allowance",
      "outputs": [
        {
          "internalType": "uint256",
          "name": "",
          "type": "uint256"
        }
      ],
      "stateMutability": "view",
      "type": "function"
    },
    {
      "inputs": [
        {
          "internalType": "address",
          "name": "spender",
          "type": "address"
        },
        {
          "internalType": "uint256",
          "name": "amount",
          "type": "uint256"
        }
      ],
      "name": "approve",
      "outputs": [
        {
          "internalType": "bool",
          "name": "",
          "type": "bool"
        }
      ],
      "stateMutability": "nonpayable",
      "type": "function"
    },
    {
      "inputs": [
        {
          "internalType": "address",
          "name": "user",
          "type": "address"
        }
      ],
      "name": "balanceOf",
      "outputs": [
        {
          "internalType": "uint256",
          "name": "",
          "type": "uint256"
        }
      ],
      "stateMutability": "view",
      "type": "function"
    },
    {
      "inputs": [
        {
          "internalType": "uint256",
          "name": "_amount",
          "type": "uint256"
        }
      ],
      "name": "borrow",
      "outputs": [],
      "stateMutability": "nonpayable",
      "type": "function"
    },
    {
      "inputs": [],
      "name": "borrowIndex",
      "outputs": [
        {
          "internalType": "contract IIndex",
          "name": "",
          "type": "address"
        }
      ],
      "stateMutability": "view",
      "type": "function"
    },
    {
      "inputs": [
        {
          "internalType": "address",
          "name": "",
          "type": "address"
        }
      ],
      "name": "borrowed",
      "outputs": [
        {
          "internalType": "uint256",
          "name": "",
          "type": "uint256"
        }
      ],
      "stateMutability": "view",
      "type": "function"
    },
    {
      "inputs": [],
      "name": "borrowersRegistry",
      "outputs": [
        {
          "internalType": "contract IBorrowersRegistry",
          "name": "",
          "type": "address"
        }
      ],
      "stateMutability": "view",
      "type": "function"
    },
    {
      "inputs": [],
      "name": "checkRewards",
      "outputs": [
        {
          "internalType": "uint256",
          "name": "",
          "type": "uint256"
        }
      ],
      "stateMutability": "view",
      "type": "function"
    },
    {
      "inputs": [],
      "name": "decimals",
      "outputs": [
        {
          "internalType": "uint8",
          "name": "",
          "type": "uint8"
        }
      ],
      "stateMutability": "view",
      "type": "function"
    },
    {
      "inputs": [
        {
          "internalType": "address",
          "name": "spender",
          "type": "address"
        },
        {
          "internalType": "uint256",
          "name": "subtractedValue",
          "type": "uint256"
        }
      ],
      "name": "decreaseAllowance",
      "outputs": [
        {
          "internalType": "bool",
          "name": "",
          "type": "bool"
        }
      ],
      "stateMutability": "nonpayable",
      "type": "function"
    },
    {
      "inputs": [
        {
          "internalType": "uint256",
          "name": "_amount",
          "type": "uint256"
        }
      ],
      "name": "deposit",
      "outputs": [],
      "stateMutability": "nonpayable",
      "type": "function"
    },
    {
      "inputs": [],
      "name": "depositIndex",
      "outputs": [
        {
          "internalType": "contract IIndex",
          "name": "",
          "type": "address"
        }
      ],
      "stateMutability": "view",
      "type": "function"
    },
    {
      "inputs": [],
      "name": "depositNativeToken",
      "outputs": [],
      "stateMutability": "payable",
      "type": "function"
    },
    {
      "inputs": [
        {
          "internalType": "uint256",
          "name": "_amount",
          "type": "uint256"
        },
        {
          "internalType": "address",
          "name": "_of",
          "type": "address"
        }
      ],
      "name": "depositOnBehalf",
      "outputs": [],
      "stateMutability": "nonpayable",
      "type": "function"
    },
    {
      "inputs": [
        {
          "internalType": "address",
          "name": "_user",
          "type": "address"
        }
      ],
      "name": "getBorrowed",
      "outputs": [
        {
          "internalType": "uint256",
          "name": "",
          "type": "uint256"
        }
      ],
      "stateMutability": "view",
      "type": "function"
    },
    {
      "inputs": [],
      "name": "getBorrowingRate",
      "outputs": [
        {
          "internalType": "uint256",
          "name": "",
          "type": "uint256"
        }
      ],
      "stateMutability": "view",
      "type": "function"
    },
    {
      "inputs": [],
      "name": "getDepositRate",
      "outputs": [
        {
          "internalType": "uint256",
          "name": "",
          "type": "uint256"
        }
      ],
      "stateMutability": "view",
      "type": "function"
    },
    {
      "inputs": [],
      "name": "getFullPoolStatus",
      "outputs": [
        {
          "internalType": "uint256[5]",
          "name": "",
          "type": "uint256[5]"
        }
      ],
      "stateMutability": "view",
      "type": "function"
    },
    {
      "inputs": [],
      "name": "getMaxPoolUtilisationForBorrowing",
      "outputs": [
        {
          "internalType": "uint256",
          "name": "",
          "type": "uint256"
        }
      ],
      "stateMutability": "view",
      "type": "function"
    },
    {
      "inputs": [],
      "name": "getRewards",
      "outputs": [],
      "stateMutability": "nonpayable",
      "type": "function"
    },
    {
      "inputs": [
        {
          "internalType": "address",
          "name": "spender",
          "type": "address"
        },
        {
          "internalType": "uint256",
          "name": "addedValue",
          "type": "uint256"
        }
      ],
      "name": "increaseAllowance",
      "outputs": [
        {
          "internalType": "bool",
          "name": "",
          "type": "bool"
        }
      ],
      "stateMutability": "nonpayable",
      "type": "function"
    },
    {
      "inputs": [
        {
          "internalType": "contract IRatesCalculator",
          "name": "ratesCalculator_",
          "type": "address"
        },
        {
          "internalType": "contract IBorrowersRegistry",
          "name": "borrowersRegistry_",
          "type": "address"
        },
        {
          "internalType": "contract IIndex",
          "name": "depositIndex_",
          "type": "address"
        },
        {
          "internalType": "contract IIndex",
          "name": "borrowIndex_",
          "type": "address"
        },
        {
          "internalType": "address payable",
          "name": "tokenAddress_",
          "type": "address"
        },
        {
          "internalType": "contract IPoolRewarder",
          "name": "poolRewarder_",
          "type": "address"
        },
        {
          "internalType": "uint256",
          "name": "totalSupplyCap_",
          "type": "uint256"
        }
      ],
      "name": "initialize",
      "outputs": [],
      "stateMutability": "nonpayable",
      "type": "function"
    },
    {
      "inputs": [],
      "name": "name",
      "outputs": [
        {
          "internalType": "string",
          "name": "_name",
          "type": "string"
        }
      ],
      "stateMutability": "pure",
      "type": "function"
    },
    {
      "inputs": [],
      "name": "owner",
      "outputs": [
        {
          "internalType": "address",
          "name": "",
          "type": "address"
        }
      ],
      "stateMutability": "view",
      "type": "function"
    },
    {
      "inputs": [],
      "name": "poolRewarder",
      "outputs": [
        {
          "internalType": "contract IPoolRewarder",
          "name": "",
          "type": "address"
        }
      ],
      "stateMutability": "view",
      "type": "function"
    },
    {
      "inputs": [],
      "name": "ratesCalculator",
      "outputs": [
        {
          "internalType": "contract IRatesCalculator",
          "name": "",
          "type": "address"
        }
      ],
      "stateMutability": "view",
      "type": "function"
    },
    {
      "inputs": [
        {
          "internalType": "uint256",
          "name": "amount",
          "type": "uint256"
        },
        {
          "internalType": "address",
          "name": "account",
          "type": "address"
        }
      ],
      "name": "recoverSurplus",
      "outputs": [],
      "stateMutability": "nonpayable",
      "type": "function"
    },
    {
      "inputs": [],
      "name": "renounceOwnership",
      "outputs": [],
      "stateMutability": "nonpayable",
      "type": "function"
    },
    {
      "inputs": [
        {
          "internalType": "uint256",
          "name": "amount",
          "type": "uint256"
        }
      ],
      "name": "repay",
      "outputs": [],
      "stateMutability": "nonpayable",
      "type": "function"
    },
    {
      "inputs": [
        {
          "internalType": "contract IBorrowersRegistry",
          "name": "borrowersRegistry_",
          "type": "address"
        }
      ],
      "name": "setBorrowersRegistry",
      "outputs": [],
      "stateMutability": "nonpayable",
      "type": "function"
    },
    {
      "inputs": [
        {
          "internalType": "contract IPoolRewarder",
          "name": "_poolRewarder",
          "type": "address"
        }
      ],
      "name": "setPoolRewarder",
      "outputs": [],
      "stateMutability": "nonpayable",
      "type": "function"
    },
    {
      "inputs": [
        {
          "internalType": "contract IRatesCalculator",
          "name": "ratesCalculator_",
          "type": "address"
        }
      ],
      "name": "setRatesCalculator",
      "outputs": [],
      "stateMutability": "nonpayable",
      "type": "function"
    },
    {
      "inputs": [
        {
          "internalType": "uint256",
          "name": "_newTotalSupplyCap",
          "type": "uint256"
        }
      ],
      "name": "setTotalSupplyCap",
      "outputs": [],
      "stateMutability": "nonpayable",
      "type": "function"
    },
    {
      "inputs": [
        {
          "internalType": "address",
          "name": "_distributor",
          "type": "address"
        }
      ],
      "name": "setVestingDistributor",
      "outputs": [],
      "stateMutability": "nonpayable",
      "type": "function"
    },
    {
      "inputs": [],
      "name": "symbol",
      "outputs": [
        {
          "internalType": "string",
          "name": "_symbol",
          "type": "string"
        }
      ],
      "stateMutability": "pure",
      "type": "function"
    },
    {
      "inputs": [],
      "name": "tokenAddress",
      "outputs": [
        {
          "internalType": "address payable",
          "name": "",
          "type": "address"
        }
      ],
      "stateMutability": "view",
      "type": "function"
    },
    {
      "inputs": [],
      "name": "totalBorrowed",
      "outputs": [
        {
          "internalType": "uint256",
          "name": "",
          "type": "uint256"
        }
      ],
      "stateMutability": "view",
      "type": "function"
    },
    {
      "inputs": [],
      "name": "totalSupply",
      "outputs": [
        {
          "internalType": "uint256",
          "name": "",
          "type": "uint256"
        }
      ],
      "stateMutability": "view",
      "type": "function"
    },
    {
      "inputs": [],
      "name": "totalSupplyCap",
      "outputs": [
        {
          "internalType": "uint256",
          "name": "",
          "type": "uint256"
        }
      ],
      "stateMutability": "view",
      "type": "function"
    },
    {
      "inputs": [
        {
          "internalType": "address",
          "name": "recipient",
          "type": "address"
        },
        {
          "internalType": "uint256",
          "name": "amount",
          "type": "uint256"
        }
      ],
      "name": "transfer",
      "outputs": [
        {
          "internalType": "bool",
          "name": "",
          "type": "bool"
        }
      ],
      "stateMutability": "nonpayable",
      "type": "function"
    },
    {
      "inputs": [
        {
          "internalType": "address",
          "name": "sender",
          "type": "address"
        },
        {
          "internalType": "address",
          "name": "recipient",
          "type": "address"
        },
        {
          "internalType": "uint256",
          "name": "amount",
          "type": "uint256"
        }
      ],
      "name": "transferFrom",
      "outputs": [
        {
          "internalType": "bool",
          "name": "",
          "type": "bool"
        }
      ],
      "stateMutability": "nonpayable",
      "type": "function"
    },
    {
      "inputs": [
        {
          "internalType": "address",
          "name": "newOwner",
          "type": "address"
        }
      ],
      "name": "transferOwnership",
      "outputs": [],
      "stateMutability": "nonpayable",
      "type": "function"
    },
    {
      "inputs": [],
      "name": "vestingDistributor",
      "outputs": [
        {
          "internalType": "contract VestingDistributor",
          "name": "",
          "type": "address"
        }
      ],
      "stateMutability": "view",
      "type": "function"
    },
    {
      "inputs": [
        {
          "internalType": "uint256",
          "name": "_amount",
          "type": "uint256"
        }
      ],
      "name": "withdraw",
      "outputs": [],
      "stateMutability": "nonpayable",
      "type": "function"
    },
    {
      "inputs": [
        {
          "internalType": "uint256",
          "name": "_amount",
          "type": "uint256"
        }
      ],
      "name": "withdrawNativeToken",
      "outputs": [],
      "stateMutability": "nonpayable",
      "type": "function"
    },
    {
      "stateMutability": "payable",
      "type": "receive"
    }
  ],
  "bytecode": "0x608060405234801561001057600080fd5b50613574806100206000396000f3fe6080604052600436106102065760003560e01c80630572b0cc1461021257806306fdde03146102295780630790ef9a1461025957806307bbebdd146102795780630941cb3d146102a6578063095ea7b3146102e15780631457db34146103115780631460e3901461033157806317e0f2521461035157806318160ddd1461037157806323b872dd146103865780632aeaa291146103a65780632e1a7d4d146103bb578063313ce567146103db57806331d05b1114610407578063371fd8e61461042757806339509351146104475780634c19386c146104675780636011163e1461047c57806361215aa81461049c5780636ca6d5d0146104b75780636cf55ea2146104d757806370a08231146104f757806370d4cea014610517578063715018a61461053757806379433d8b146105435780637b8989391461054b5780638c1a38111461056b5780638da5cb5b1461058b57806395d89b41146102295780639d76ea58146105a0578063a457c2d7146105c0578063a9059cbb146105e0578063aa5af0fd14610600578063b6b55f2514610620578063b75c42bd14610640578063b790634e14610662578063bb102aea14610677578063c5ebeaec1461068d578063d06dca89146106ad578063dd62ed3e146106cd578063ee61bd6e14610713578063f2fde38b14610733578063f36b242514610753578063fc68f6611461076857600080fd5b3661020d57005b600080fd5b34801561021e57600080fd5b50610227610788565b005b34801561023557600080fd5b506040805160208101825260008152905161025091906130ff565b60405180910390f35b34801561026557600080fd5b50610227610274366004613147565b6107ec565b34801561028557600080fd5b5060a154610299906001600160a01b031681565b6040516102509190613177565b3480156102b257600080fd5b506102d36102c136600461318b565b609a6020526000908152604090205481565b604051908152602001610250565b3480156102ed57600080fd5b506103016102fc3660046131a8565b61093e565b6040519015158152602001610250565b34801561031d57600080fd5b5061022761032c36600461318b565b6109ba565b34801561033d57600080fd5b5061022761034c3660046131d4565b610a7c565b34801561035d57600080fd5b5061022761036c366004613261565b610cd5565b34801561037d57600080fd5b506102d3610f2c565b34801561039257600080fd5b506103016103a136600461327a565b610f3c565b3480156103b257600080fd5b506102d3611255565b3480156103c757600080fd5b506102276103d6366004613261565b6112c5565b3480156103e757600080fd5b5060a154600160a01b900460ff1660405160ff9091168152602001610250565b34801561041357600080fd5b50610227610422366004613261565b611404565b34801561043357600080fd5b50610227610442366004613261565b611438565b34801561045357600080fd5b506103016104623660046131a8565b61152e565b34801561047357600080fd5b506102d36115db565b34801561048857600080fd5b506102d361049736600461318b565b6115e2565b3480156104a857600080fd5b50670cd64299613c80006102d3565b3480156104c357600080fd5b50609d54610299906001600160a01b031681565b3480156104e357600080fd5b506102276104f2366004613147565b611669565b34801561050357600080fd5b506102d361051236600461318b565b611928565b34801561052357600080fd5b5061022761053236600461318b565b61196e565b34801561022757600080fd5b610227611a43565b34801561055757600080fd5b50609e54610299906001600160a01b031681565b34801561057757600080fd5b5061022761058636600461318b565b611c0d565b34801561059757600080fd5b50610299611cc8565b3480156105ac57600080fd5b5060a054610299906001600160a01b031681565b3480156105cc57600080fd5b506103016105db3660046131a8565b611cd7565b3480156105ec57600080fd5b506103016105fb3660046131a8565b611dab565b34801561060c57600080fd5b50609f54610299906001600160a01b031681565b34801561062c57600080fd5b5061022761063b366004613261565b612013565b34801561064c57600080fd5b50610655612020565b60405161025091906132bb565b34801561066e57600080fd5b506102d3612077565b34801561068357600080fd5b506102d360975481565b34801561069957600080fd5b506102276106a8366004613261565b6120b8565b3480156106b957600080fd5b50609c54610299906001600160a01b031681565b3480156106d957600080fd5b506102d36106e83660046132ec565b6001600160a01b03918216600090815260986020908152604080832093909416825291909152205490565b34801561071f57600080fd5b50609b54610299906001600160a01b031681565b34801561073f57600080fd5b5061022761074e36600461318b565b61234f565b34801561075f57600080fd5b506102d36123ec565b34801561077457600080fd5b5061022761078336600461318b565b612408565b609d546040516311305c1f60e11b81526001600160a01b0390911690632260b83e906107b8903390600401613177565b600060405180830381600087803b1580156107d257600080fd5b505af11580156107e6573d6000803e3d6000fd5b50505050565b336107f5611cc8565b6001600160a01b0316146108245760405162461bcd60e51b815260040161081b9061331a565b60405180910390fd5b6002606554036108465760405162461bcd60e51b815260040161081b9061334f565b600260655560a0546040516370a0823160e01b81526000916001600160a01b0316906370a082319061087c903090600401613177565b602060405180830381865afa158015610899573d6000803e3d6000fd5b505050506040513d601f19601f820116820180604052508101906108bd9190613386565b905060006108c9610f2c565b6108d16115db565b6108db90846133b5565b6108e591906133c8565b905081841115610908576040516316d5c93f60e21b815260040160405180910390fd5b83811015610929576040516394290ab960e01b815260040160405180910390fd5b61093383856124ad565b505060016065555050565b60006001600160a01b03831661096757604051633d6601c760e11b815260040160405180910390fd5b3360008181526098602090815260408083206001600160a01b038816808552908352928190208690555185815291929160008051602061351f833981519152910160405180910390a35060015b92915050565b336109c3611cc8565b6001600160a01b0316146109e95760405162461bcd60e51b815260040161081b9061331a565b6109f2816124c8565b158015610a0757506001600160a01b03811615155b15610a2757806040516322a2d07b60e21b815260040161081b9190613177565b609d80546001600160a01b0319166001600160a01b0383169081179091556040514281527f85796821ee1d670b0fdb986f256b5c1a29b9019038831c7f09df2061879cf9e5906020015b60405180910390a250565b600054610100900460ff16610a975760005460ff1615610a9f565b610a9f6124d7565b610b025760405162461bcd60e51b815260206004820152602e60248201527f496e697469616c697a61626c653a20636f6e747261637420697320616c72656160448201526d191e481a5b9a5d1a585b1a5e995960921b606482015260840161081b565b600054610100900460ff16158015610b24576000805461ffff19166101011790555b610b2d886124c8565b8015610b3d5750610b3d876124c8565b8015610b4d5750610b4d866124c8565b8015610b5d5750610b5d856124c8565b8015610b7f5750610b6d836124c8565b80610b7f57506001600160a01b038316155b610bc25760405162461bcd60e51b815260206004820152601460248201527357726f6e6720696e697420617267756d656e747360601b604482015260640161081b565b609c80546001600160a01b03199081166001600160a01b038a811691909117909255609b805482168b8416179055609e80548216898416179055609f80548216888416179055609d8054821686841617905560a08054909116918616918217905560978390556040805163313ce56760e01b8152905163313ce567916004818101926020929091908290030181865afa158015610c63573d6000803e3d6000fd5b505050506040513d601f19601f82011682018060405250810190610c8791906133db565b60a160146101000a81548160ff021916908360ff160217905550610ca96124e8565b610cb1612517565b610cb9612546565b8015610ccb576000805461ff00191690555b5050505050505050565b600260655403610cf75760405162461bcd60e51b815260040161081b9061334f565b600260655560a0546040516370a0823160e01b81526001600160a01b03909116906370a0823190610d2c903090600401613177565b602060405180830381865afa158015610d49573d6000803e3d6000fd5b505050506040513d601f19601f82011682018060405250810190610d6d9190613386565b811115610d8d576040516316d5c93f60e21b815260040160405180910390fd5b610d9633612729565b30600090815260996020526040902054811115610dc657604051630bba337f60e11b815260040160405180910390fd5b30600090815260996020526040902080548290039055610de63382612854565b610dee612546565b60a054604051632e1a7d4d60e01b8152600481018390526001600160a01b0390911690632e1a7d4d90602401600060405180830381600087803b158015610e3457600080fd5b505af1158015610e48573d6000803e3d6000fd5b50610e599250339150839050612911565b609d546001600160a01b031615610ee157609d54604051630d5dbdb360e21b81526001600160a01b0390911690633576f6cc90610e9c90849033906004016133fe565b6020604051808303816000875af1158015610ebb573d6000803e3d6000fd5b505050506040513d601f19601f82011682018060405250810190610edf9190613386565b505b336001600160a01b03167fdf273cb619d95419a9cd0ec88123a0538c85064229baa6363788f743fff90deb8242604051610f1c929190613415565b60405180910390a2506001606555565b6000610f3730611928565b905090565b6000600260655403610f605760405162461bcd60e51b815260040161081b9061334f565b60026065556001600160a01b0384166000908152609860209081526040808320338452909152902054821115610fd0576001600160a01b03841660009081526098602090815260408083203384529091529081902054905163054365bb60e31b815261081b918491600401613415565b6001600160a01b038316610ff757604051633a954ecd60e21b815260040160405180910390fd5b306001600160a01b038416036110205760405163ed728e5760e01b815260040160405180910390fd5b61102984612729565b600080611035866129f0565b915091508084111561105e5783816040516350d2479d60e11b815260040161081b929190613415565b611069868584612b43565b6001600160a01b038616600090815260996020526040812080548692906110919084906133c8565b90915550506001600160a01b0386166000908152609860209081526040808320338452909152812080548692906110c99084906133c8565b909155506110d8905085612729565b6001600160a01b038516600090815260996020526040812080548692906111009084906133b5565b9091555050609d546001600160a01b03161580159061111e57508315155b1561120857609d54604051630d5dbdb360e21b81526000916001600160a01b031690633576f6cc906111569088908b906004016133fe565b6020604051808303816000875af1158015611175573d6000803e3d6000fd5b505050506040513d601f19601f820116820180604052508101906111999190613386565b9050801561120657609d546040516328ba35d960e11b81526001600160a01b03909116906351746bb2906111d39084908a906004016133fe565b600060405180830381600087803b1580156111ed57600080fd5b505af1158015611201573d6000803e3d6000fd5b505050505b505b846001600160a01b0316866001600160a01b03166000805160206134ff8339815191528660405161123b91815260200190565b60405180910390a360019250505060016065559392505050565b609d546040516246613160e11b81526000916001600160a01b031690628cc26290611284903390600401613177565b602060405180830381865afa1580156112a1573d6000803e3d6000fd5b505050506040513d601f19601f82011682018060405250810190610f379190613386565b6002606554036112e75760405162461bcd60e51b815260040161081b9061334f565b60026065556112f533612729565b33600090815260996020526040902054611310908290612bee565b60a0546040516370a0823160e01b81529192506001600160a01b0316906370a0823190611341903090600401613177565b602060405180830381865afa15801561135e573d6000803e3d6000fd5b505050506040513d601f19601f820116820180604052508101906113829190613386565b8111156113a2576040516316d5c93f60e21b815260040160405180910390fd5b306000908152609960205260409020548111156113d257604051630bba337f60e11b815260040160405180910390fd5b306000908152609960205260409020805482900390556113f23382612854565b6113fa612546565b610e5933826124ad565b3361140d611cc8565b6001600160a01b0316146114335760405162461bcd60e51b815260040161081b9061331a565b609755565b60026065540361145a5760405162461bcd60e51b815260040161081b9061334f565b600260655561146833612c06565b336000908152609a602052604090205481111561149857604051630dcad43360e11b815260040160405180910390fd5b6114a23382612d0c565b336000908152609a6020526040812080548392906114c19084906133c8565b9091555050306000908152609a6020526040812080548392906114e59084906133c8565b909155506114f39050612546565b336001600160a01b03167f24fcca58a997b1b2eff6db8107e860458544c09ddd3693b3b779e1df6c0d6c5d8242604051610f1c929190613415565b60006001600160a01b03831661155757604051633d6601c760e11b815260040160405180910390fd5b3360009081526098602090815260408083206001600160a01b03871684529091528120546115869084906133b5565b3360008181526098602090815260408083206001600160a01b038a168085529083529281902085905551848152939450909260008051602061351f833981519152910160405180910390a35060019392505050565b6000610f37305b609f546001600160a01b038281166000908152609a602052604080822054905163966da88960e01b81529193929092169163966da88991611628919086906004016133fe565b602060405180830381865afa158015611645573d6000803e3d6000fd5b505050506040513d601f19601f820116820180604052508101906109b49190613386565b60026065540361168b5760405162461bcd60e51b815260040161081b9061334f565b600260655560008290036116b25760405163078e1d8560e01b815260040160405180910390fd5b6001600160a01b0381166116f75760405162461bcd60e51b815260206004820152600c60248201526b41646472657373207a65726f60a01b604482015260640161081b565b306001600160a01b0382160361174f5760405162461bcd60e51b815260206004820181905260248201527f43616e6e6f74206465706f736974206f6e20626568616c66206f6620706f6f6c604482015260640161081b565b60a0546040516370a0823160e01b81526117cb9184916001600160a01b03909116906370a0823190611785903390600401613177565b602060405180830381865afa1580156117a2573d6000803e3d6000fd5b505050506040513d601f19601f820116820180604052508101906117c69190613386565b612bee565b91506117d681612729565b6097541561181b57609754306000908152609960205260409020546117fc9084906133b5565b111561181b57604051633f27d61760e01b815260040160405180910390fd5b6118253383612d0c565b61182f8183612d24565b306000908152609960205260408120805484929061184e9084906133b5565b9091555061185c9050612546565b609d546001600160a01b0316156118d257609d546040516328ba35d960e11b81526001600160a01b03909116906351746bb29061189f90859085906004016133fe565b600060405180830381600087803b1580156118b957600080fd5b505af11580156118cd573d6000803e3d6000fd5b505050505b806001600160a01b0316336001600160a01b03167fef0ada5ca19bede6a40b575865a6ce451938d26835b7215e6a5e03bb2c4392128442604051611917929190613415565b60405180910390a350506001606555565b609e546001600160a01b0382811660009081526099602052604080822054905163966da88960e01b81529193929092169163966da88991611628919086906004016133fe565b33611977611cc8565b6001600160a01b03161461199d5760405162461bcd60e51b815260040161081b9061331a565b6119a6816124c8565b1580156119bb57506001600160a01b03811615155b156119db57806040516322a2d07b60e21b815260040161081b9190613177565b609b80546001600160a01b0319166001600160a01b03831690811790915515611a0657611a06612546565b806001600160a01b03167fef1b7e9216e08b283cc613824ccb26ea505227777839a4f3c6810d64594e018242604051610a7191815260200190565b565b34600003611a645760405163078e1d8560e01b815260040160405180910390fd5b611a6d33612729565b60975415611ab25760975430600090815260996020526040902054611a939034906133b5565b1115611ab257604051633f27d61760e01b815260040160405180910390fd5b60a060009054906101000a90046001600160a01b03166001600160a01b031663d0e30db0346040518263ffffffff1660e01b81526004016000604051808303818588803b158015611b0257600080fd5b505af1158015611b16573d6000803e3d6000fd5b5050505050611b253334612d24565b3060009081526099602052604081208054349290611b449084906133b5565b90915550611b529050612546565b609d546001600160a01b031615611bc857609d546040516328ba35d960e11b81526001600160a01b03909116906351746bb290611b9590349033906004016133fe565b600060405180830381600087803b158015611baf57600080fd5b505af1158015611bc3573d6000803e3d6000fd5b505050505b336001600160a01b03167f90890809c654f11d6e72a28fa60149770a0d11ec6c92319d6ceb2bb0a4ea1a153442604051611c03929190613415565b60405180910390a2565b33611c16611cc8565b6001600160a01b031614611c3c5760405162461bcd60e51b815260040161081b9061331a565b611c45816124c8565b158015611c5a57506001600160a01b03811615155b15611c7a57806040516322a2d07b60e21b815260040161081b9190613177565b60a180546001600160a01b0319166001600160a01b0383169081179091556040514281527f8e6481d1924c9bb8cdfd9d6140f3e5570c34c6c580d915144728bbbf394eed0a90602001610a71565b6033546001600160a01b031690565b60006001600160a01b038316611d0057604051633d6601c760e11b815260040160405180910390fd5b3360009081526098602090815260408083206001600160a01b038716845290915290205482811015611d4957828160405163054365bb60e31b815260040161081b929190613415565b6000611d5584836133c8565b3360008181526098602090815260408083206001600160a01b038b168085529083529281902085905551848152939450909260008051602061351f833981519152910160405180910390a3506001949350505050565b6000600260655403611dcf5760405162461bcd60e51b815260040161081b9061334f565b60026065556001600160a01b038316611dfb57604051633a954ecd60e21b815260040160405180910390fd5b306001600160a01b03841603611e245760405163ed728e5760e01b815260040160405180910390fd5b33611e2e81612729565b600080611e3a836129f0565b9150915080851115611e635784816040516350d2479d60e11b815260040161081b929190613415565b611e6e838684612b43565b6001600160a01b038316600090815260996020526040902080548690039055611e9686612729565b6001600160a01b03861660009081526099602052604081208054879290611ebe9084906133b5565b9091555050609d546001600160a01b031615801590611edc57508415155b15611fc657609d54604051630d5dbdb360e21b81526000916001600160a01b031690633576f6cc90611f1490899088906004016133fe565b6020604051808303816000875af1158015611f33573d6000803e3d6000fd5b505050506040513d601f19601f82011682018060405250810190611f579190613386565b90508015611fc457609d546040516328ba35d960e11b81526001600160a01b03909116906351746bb290611f919084908b906004016133fe565b600060405180830381600087803b158015611fab57600080fd5b505af1158015611fbf573d6000803e3d6000fd5b505050505b505b856001600160a01b0316836001600160a01b03166000805160206134ff83398151915287604051611ff991815260200190565b60405180910390a360019350505050600160655592915050565b61201d8133611669565b50565b6120286130bd565b6040518060a0016040528061203b610f2c565b8152602001612048612077565b81526020016120556123ec565b81526020016120626115db565b8152602001670cd64299613c80009052919050565b609b546000906001600160a01b0316637cd083316120936115db565b61209b610f2c565b6040518363ffffffff1660e01b8152600401611284929190613415565b609c546001600160a01b03166120e157604051631c038dab60e21b815260040160405180910390fd5b609c5460405163039ff21960e21b81526001600160a01b0390911690630e7fc86490612111903390600401613177565b602060405180830381865afa15801561212e573d6000803e3d6000fd5b505050506040513d601f19601f820116820180604052508101906121529190613423565b61216f57604051637582fa9b60e11b815260040160405180910390fd5b612177610f2c565b600003612197576040516316d5c93f60e21b815260040160405180910390fd5b6002606554036121b95760405162461bcd60e51b815260040161081b9061334f565b600260655560a0546040516370a0823160e01b81526001600160a01b03909116906370a08231906121ee903090600401613177565b602060405180830381865afa15801561220b573d6000803e3d6000fd5b505050506040513d601f19601f8201168201806040525081019061222f9190613386565b81111561224f576040516316d5c93f60e21b815260040160405180910390fd5b61225833612c06565b336000908152609a6020526040812080548392906122779084906133b5565b9091555050306000908152609a60205260408120805483929061229b9084906133b5565b909155506122ab905033826124ad565b6122b3612546565b336001600160a01b03167fd6b37be10b58108f696d9ed067fedad0bff7cb417ef4c28d2f8a25d6d83c98d582426040516122ee929190613415565b60405180910390a26001606555670cd64299613c800061230c610f2c565b6123146115db565b61232690670de0b6b3a7640000613445565b612330919061345c565b111561201d576040516372b9ce3f60e11b815260040160405180910390fd5b33612358611cc8565b6001600160a01b03161461237e5760405162461bcd60e51b815260040161081b9061331a565b6001600160a01b0381166123e35760405162461bcd60e51b815260206004820152602660248201527f4f776e61626c653a206e6577206f776e657220697320746865207a65726f206160448201526564647265737360d01b606482015260840161081b565b61201d81612dab565b609b546000906001600160a01b031663df841eec6120936115db565b33612411611cc8565b6001600160a01b0316146124375760405162461bcd60e51b815260040161081b9061331a565b612440816124c8565b61245f57806040516322a2d07b60e21b815260040161081b9190613177565b609c80546001600160a01b0319166001600160a01b0383169081179091556040514281527f04dce7d074f7e287a2e6e3516c802271d58d5c14e0dede83a49719eb6b92046990602001610a71565b60a0546124c4906001600160a01b03168383612dfd565b5050565b6001600160a01b03163b151590565b60006124e2306124c8565b15905090565b600054610100900460ff1661250f5760405162461bcd60e51b815260040161081b9061347e565b611a41612f29565b600054610100900460ff1661253e5760405162461bcd60e51b815260040161081b9061347e565b611a41612f59565b60006125506115db565b9050600061255c610f2c565b609b549091506001600160a01b03166125885760405163fd4851e960e01b815260040160405180910390fd5b609e54609b54604051637cd0833160e01b81526001600160a01b03928316926334fcf437921690637cd08331906125c59087908790600401613415565b602060405180830381865afa1580156125e2573d6000803e3d6000fd5b505050506040513d601f19601f820116820180604052508101906126069190613386565b6040518263ffffffff1660e01b815260040161262491815260200190565b600060405180830381600087803b15801561263e57600080fd5b505af1158015612652573d6000803e3d6000fd5b5050609f54609b546040516337e107bb60e21b81526001600160a01b0392831694506334fcf437935091169063df841eec906126949087908790600401613415565b602060405180830381865afa1580156126b1573d6000803e3d6000fd5b505050506040513d601f19601f820116820180604052508101906126d59190613386565b6040518263ffffffff1660e01b81526004016126f391815260200190565b600060405180830381600087803b15801561270d57600080fd5b505af1158015612721573d6000803e3d6000fd5b505050505050565b6001600160a01b03811660009081526099602052604081205461274b83611928565b61275591906133c8565b90506127618282612d24565b61276a30611928565b306000908152609960205260409081902091909155516001600160a01b038316907f9bbd517758fbae61197f1c1c04c8614064e89512dbaf4350dcdf76fcaa5e2161906127ba9084904290613415565b60405180910390a2609e54604051637681d99b60e11b81526001600160a01b039091169063ed03b336906127f2908590600401613177565b600060405180830381600087803b15801561280c57600080fd5b505af1158015612820573d6000803e3d6000fd5b5050609e54604051637681d99b60e11b81526001600160a01b03909116925063ed03b33691506126f3903090600401613177565b6001600160a01b03821660009081526099602052604090205481111561288d57604051630bba337f60e11b815260040160405180910390fd5b600080612899846129f0565b91509150808311156128be5760405163a06a83a160e01b815260040160405180910390fd5b6128c9848484612b43565b6001600160a01b038416600081815260996020908152604080832080548890039055518681529192916000805160206134ff833981519152910160405180910390a350505050565b604080516000808252602082019092526001600160a01b03841690839060405161293b91906134c9565b60006040518083038185875af1925050503d8060008114612978576040519150601f19603f3d011682016040523d82523d6000602084013e61297d565b606091505b50509050806129eb5760405162461bcd60e51b815260206004820152603460248201527f5472616e7366657248656c7065723a3a736166655472616e736665724554483a60448201527308115512081d1c985b9cd9995c8819985a5b195960621b606482015260840161081b565b505050565b60a15460009081906001600160a01b031615612b245760a15460405163cbf9fe5f60e01b81526001600160a01b039091169063cbf9fe5f90612a36908690600401613177565b602060405180830381865afa158015612a53573d6000803e3d6000fd5b505050506040513d601f19601f82011682018060405250810190612a779190613386565b91508115612b245760a15460405163512edc6760e11b81526001600160a01b039091169063a25db8ce90612aaf908690600401613177565b602060405180830381865afa158015612acc573d6000803e3d6000fd5b505050506040513d601f19601f82011682018060405250810190612af09190613386565b612afa90836133c8565b6001600160a01b038416600090815260996020526040902054612b1d91906133c8565b9050915091565b506001600160a01b038216600090815260996020526040902054915091565b6001600160a01b038316600090815260996020526040812054612b679083906133c8565b90508083118015612b82575060a1546001600160a01b031615155b156107e65760a1546001600160a01b03166349c1de3f85612ba384876133c8565b6040518363ffffffff1660e01b8152600401612bc09291906134e5565b600060405180830381600087803b158015612bda57600080fd5b505af1158015610ccb573d6000803e3d6000fd5b6000818310612bfd5781612bff565b825b9392505050565b612c0f816115e2565b6001600160a01b0382166000908152609a6020526040902055612c31306115e2565b306000908152609a60205260409081902091909155609f549051637681d99b60e11b81526001600160a01b039091169063ed03b33690612c75908490600401613177565b600060405180830381600087803b158015612c8f57600080fd5b505af1158015612ca3573d6000803e3d6000fd5b5050609f54604051637681d99b60e11b81526001600160a01b03909116925063ed03b3369150612cd7903090600401613177565b600060405180830381600087803b158015612cf157600080fd5b505af1158015612d05573d6000803e3d6000fd5b5050505050565b60a0546124c4906001600160a01b0316833084612f87565b6001600160a01b038216612d4b576040516346dbfb6d60e11b815260040160405180910390fd5b6001600160a01b03821660009081526099602052604081208054839290612d739084906133b5565b90915550506040518181526001600160a01b038316906000906000805160206134ff8339815191529060200160405180910390a35050565b603380546001600160a01b038381166001600160a01b0319831681179093556040519116919082907f8be0079c531659141344cd1fd0a4f28419497f9722a3daafe3b4186f6b6457e090600090a35050565b600080846001600160a01b031663a9059cbb8585604051602401612e229291906134e5565b6040516020818303038152906040529060e01b6020820180516001600160e01b038381831617835250505050604051612e5b91906134c9565b6000604051808303816000865af19150503d8060008114612e98576040519150601f19603f3d011682016040523d82523d6000602084013e612e9d565b606091505b5091509150818015612ec7575080511580612ec7575080806020019051810190612ec79190613423565b612d055760405162461bcd60e51b815260206004820152602d60248201527f5472616e7366657248656c7065723a3a736166655472616e736665723a20747260448201526c185b9cd9995c8819985a5b1959609a1b606482015260840161081b565b600054610100900460ff16612f505760405162461bcd60e51b815260040161081b9061347e565b611a4133612dab565b600054610100900460ff16612f805760405162461bcd60e51b815260040161081b9061347e565b6001606555565b604080516001600160a01b0385811660248301528481166044830152606480830185905283518084039091018152608490920183526020820180516001600160e01b03166323b872dd60e01b1790529151600092839290881691612feb91906134c9565b6000604051808303816000865af19150503d8060008114613028576040519150601f19603f3d011682016040523d82523d6000602084013e61302d565b606091505b50915091508180156130575750805115806130575750808060200190518101906130579190613423565b6127215760405162461bcd60e51b815260206004820152603160248201527f5472616e7366657248656c7065723a3a7472616e7366657246726f6d3a207472604482015270185b9cd9995c919c9bdb4819985a5b1959607a1b606482015260840161081b565b6040518060a001604052806005906020820280368337509192915050565b60005b838110156130f65781810151838201526020016130de565b50506000910152565b602081526000825180602084015261311e8160408501602087016130db565b601f01601f19169190910160400192915050565b6001600160a01b038116811461201d57600080fd5b6000806040838503121561315a57600080fd5b82359150602083013561316c81613132565b809150509250929050565b6001600160a01b0391909116815260200190565b60006020828403121561319d57600080fd5b8135612bff81613132565b600080604083850312156131bb57600080fd5b82356131c681613132565b946020939093013593505050565b600080600080600080600060e0888a0312156131ef57600080fd5b87356131fa81613132565b9650602088013561320a81613132565b9550604088013561321a81613132565b9450606088013561322a81613132565b9350608088013561323a81613132565b925060a088013561324a81613132565b8092505060c0880135905092959891949750929550565b60006020828403121561327357600080fd5b5035919050565b60008060006060848603121561328f57600080fd5b833561329a81613132565b925060208401356132aa81613132565b929592945050506040919091013590565b60a08101818360005b60058110156132e35781518352602092830192909101906001016132c4565b50505092915050565b600080604083850312156132ff57600080fd5b823561330a81613132565b9150602083013561316c81613132565b6020808252818101527f4f776e61626c653a2063616c6c6572206973206e6f7420746865206f776e6572604082015260600190565b6020808252601f908201527f5265656e7472616e637947756172643a207265656e7472616e742063616c6c00604082015260600190565b60006020828403121561339857600080fd5b5051919050565b634e487b7160e01b600052601160045260246000fd5b808201808211156109b4576109b461339f565b818103818111156109b4576109b461339f565b6000602082840312156133ed57600080fd5b815160ff81168114612bff57600080fd5b9182526001600160a01b0316602082015260400190565b918252602082015260400190565b60006020828403121561343557600080fd5b81518015158114612bff57600080fd5b80820281158282048414176109b4576109b461339f565b60008261347957634e487b7160e01b600052601260045260246000fd5b500490565b6020808252602b908201527f496e697469616c697a61626c653a20636f6e7472616374206973206e6f74206960408201526a6e697469616c697a696e6760a81b606082015260800190565b600082516134db8184602087016130db565b9190910192915050565b6001600160a01b0392909216825260208201526040019056feddf252ad1be2c89b69c2b068fc378daa952ba7f163c4a11628f55a4df523b3ef8c5be1e5ebec7d5bd14f71427d1e84f3dd0314c0f7b2291e5b200ac8c7c3b925a2646970667358221220829792c0e46223807a293520de9921c946a5eb8e2bd2c415515993300fbcc7d064736f6c63430008110033",
  "linkReferences": {},
  "deployedLinkReferences": {}
}