{
  "address": "0x9b4eFbfb63c2c0488A1550595e0296226B78a193",
  "abi": [
    {
      "inputs": [],
      "name": "BorrowersRegistryNotConfigured",
      "type": "error"
    },
    {
      "inputs": [],
      "name": "BurnAmountExceedsAvailableForUser",
      "type": "error"
    },
    {
      "inputs": [],
      "name": "BurnAmountExceedsBalance",
      "type": "error"
    },
    {
      "inputs": [],
      "name": "CalldataMustHaveValidPayload",
      "type": "error"
    },
    {
      "inputs": [],
      "name": "CalldataOverOrUnderFlow",
      "type": "error"
    },
    {
      "inputs": [],
      "name": "DataPackageTimestampMustNotBeZero",
      "type": "error"
    },
    {
      "inputs": [],
      "name": "DataPackageTimestampsMustBeEqual",
      "type": "error"
    },
    {
      "inputs": [],
      "name": "EachSignerMustProvideTheSameValue",
      "type": "error"
    },
    {
      "inputs": [],
      "name": "EmptyCalldataPointersArr",
      "type": "error"
    },
    {
      "inputs": [],
      "name": "IncorrectUnsignedMetadataSize",
      "type": "error"
    },
    {
      "inputs": [
        {
          "internalType": "uint256",
          "name": "requested",
          "type": "uint256"
        },
        {
          "internalType": "uint256",
          "name": "allowance",
          "type": "uint256"
        }
      ],
      "name": "InsufficientAllowance",
      "type": "error"
    },
    {
      "inputs": [
        {
          "internalType": "uint256",
          "name": "amount",
          "type": "uint256"
        },
        {
          "internalType": "uint256",
          "name": "availableBalance",
          "type": "uint256"
        }
      ],
      "name": "InsufficientAvailableBalance",
      "type": "error"
    },
    {
      "inputs": [
        {
          "internalType": "uint256",
          "name": "receivedSignersCount",
          "type": "uint256"
        },
        {
          "internalType": "uint256",
          "name": "requiredSignersCount",
          "type": "uint256"
        }
      ],
      "name": "InsufficientNumberOfUniqueSigners",
      "type": "error"
    },
    {
      "inputs": [],
      "name": "InsufficientPoolFunds",
      "type": "error"
    },
    {
      "inputs": [],
      "name": "InsufficientSurplus",
      "type": "error"
    },
    {
      "inputs": [],
      "name": "InvalidCalldataPointer",
      "type": "error"
    },
    {
      "inputs": [],
      "name": "MaxPoolUtilisationBreached",
      "type": "error"
    },
    {
      "inputs": [],
      "name": "MintToAddressZero",
      "type": "error"
    },
    {
      "inputs": [
        {
          "internalType": "address",
          "name": "target",
          "type": "address"
        }
      ],
      "name": "NotAContract",
      "type": "error"
    },
    {
      "inputs": [],
      "name": "NotAuthorizedToBorrow",
      "type": "error"
    },
    {
      "inputs": [],
      "name": "PoolFrozen",
      "type": "error"
    },
    {
      "inputs": [
        {
          "internalType": "bytes",
          "name": "result",
          "type": "bytes"
        }
      ],
      "name": "ProxyCalldataFailedWithCustomError",
      "type": "error"
    },
    {
      "inputs": [
        {
          "internalType": "string",
          "name": "message",
          "type": "string"
        }
      ],
      "name": "ProxyCalldataFailedWithStringMessage",
      "type": "error"
    },
    {
      "inputs": [],
      "name": "ProxyCalldataFailedWithoutErrMsg",
      "type": "error"
    },
    {
      "inputs": [],
      "name": "RedstonePayloadMustHaveAtLeastOneDataPackage",
      "type": "error"
    },
    {
      "inputs": [],
      "name": "RepayingMoreThanWasBorrowed",
      "type": "error"
    },
    {
      "inputs": [
        {
          "internalType": "address",
          "name": "receivedSigner",
          "type": "address"
        }
      ],
      "name": "SignerNotAuthorised",
      "type": "error"
    },
    {
      "inputs": [],
      "name": "SpenderZeroAddress",
      "type": "error"
    },
    {
      "inputs": [],
      "name": "TotalSupplyCapBreached",
      "type": "error"
    },
    {
      "inputs": [
        {
          "internalType": "uint256",
          "name": "amount",
          "type": "uint256"
        },
        {
          "internalType": "uint256",
          "name": "balance",
          "type": "uint256"
        }
      ],
      "name": "TransferAmountExceedsBalance",
      "type": "error"
    },
    {
      "inputs": [],
      "name": "TransferToPoolAddress",
      "type": "error"
    },
    {
      "inputs": [],
      "name": "TransferToZeroAddress",
      "type": "error"
    },
    {
      "inputs": [],
      "name": "ZeroDepositAmount",
      "type": "error"
    },
    {
      "anonymous": false,
      "inputs": [
        {
          "indexed": true,
          "internalType": "address",
          "name": "owner",
          "type": "address"
        },
        {
          "indexed": true,
          "internalType": "address",
          "name": "spender",
          "type": "address"
        },
        {
          "indexed": false,
          "internalType": "uint256",
          "name": "value",
          "type": "uint256"
        }
      ],
      "name": "Approval",
      "type": "event"
    },
    {
      "anonymous": false,
      "inputs": [
        {
          "indexed": true,
          "internalType": "address",
          "name": "user",
          "type": "address"
        },
        {
          "indexed": true,
          "internalType": "address",
          "name": "borrower",
          "type": "address"
        },
        {
          "indexed": false,
          "internalType": "uint256",
          "name": "value",
          "type": "uint256"
        },
        {
          "indexed": false,
          "internalType": "uint256",
          "name": "timestamp",
          "type": "uint256"
        }
      ],
      "name": "BorrowerInitialized",
      "type": "event"
    },
    {
      "anonymous": false,
      "inputs": [
        {
          "indexed": true,
          "internalType": "address",
          "name": "registry",
          "type": "address"
        },
        {
          "indexed": false,
          "internalType": "uint256",
          "name": "timestamp",
          "type": "uint256"
        }
      ],
      "name": "BorrowersRegistryChanged",
      "type": "event"
    },
    {
      "anonymous": false,
      "inputs": [
        {
          "indexed": true,
          "internalType": "address",
          "name": "user",
          "type": "address"
        },
        {
          "indexed": false,
          "internalType": "uint256",
          "name": "value",
          "type": "uint256"
        },
        {
          "indexed": false,
          "internalType": "uint256",
          "name": "timestamp",
          "type": "uint256"
        }
      ],
      "name": "Borrowing",
      "type": "event"
    },
    {
      "anonymous": false,
      "inputs": [
        {
          "indexed": true,
          "internalType": "address",
          "name": "user",
          "type": "address"
        },
        {
          "indexed": false,
          "internalType": "uint256",
          "name": "value",
          "type": "uint256"
        },
        {
          "indexed": false,
          "internalType": "uint256",
          "name": "timestamp",
          "type": "uint256"
        }
      ],
      "name": "Deposit",
      "type": "event"
    },
    {
      "anonymous": false,
      "inputs": [
        {
          "indexed": true,
          "internalType": "address",
          "name": "user",
          "type": "address"
        },
        {
          "indexed": false,
          "internalType": "uint256",
          "name": "amount",
          "type": "uint256"
        },
        {
          "indexed": false,
          "internalType": "uint256",
          "name": "lockTime",
          "type": "uint256"
        },
        {
          "indexed": false,
          "internalType": "uint256",
          "name": "unlockTime",
          "type": "uint256"
        }
      ],
      "name": "DepositLocked",
      "type": "event"
    },
    {
      "anonymous": false,
      "inputs": [
        {
          "indexed": true,
          "internalType": "address",
          "name": "user",
          "type": "address"
        },
        {
          "indexed": true,
          "internalType": "address",
          "name": "_of",
          "type": "address"
        },
        {
          "indexed": false,
          "internalType": "uint256",
          "name": "value",
          "type": "uint256"
        },
        {
          "indexed": false,
          "internalType": "uint256",
          "name": "timestamp",
          "type": "uint256"
        }
      ],
      "name": "DepositOnBehalfOf",
      "type": "event"
    },
    {
      "anonymous": false,
      "inputs": [
        {
          "indexed": true,
          "internalType": "address",
          "name": "user",
          "type": "address"
        },
        {
          "indexed": true,
          "internalType": "address",
          "name": "depositor",
          "type": "address"
        },
        {
          "indexed": false,
          "internalType": "uint256",
          "name": "value",
          "type": "uint256"
        },
        {
          "indexed": false,
          "internalType": "uint256",
          "name": "timestamp",
          "type": "uint256"
        }
      ],
      "name": "DepositorInitialized",
      "type": "event"
    },
    {
      "anonymous": false,
      "inputs": [
        {
          "indexed": false,
          "internalType": "uint8",
          "name": "version",
          "type": "uint8"
        }
      ],
      "name": "Initialized",
      "type": "event"
    },
    {
      "anonymous": false,
      "inputs": [
        {
          "indexed": true,
          "internalType": "address",
          "name": "user",
          "type": "address"
        },
        {
          "indexed": false,
          "internalType": "uint256",
          "name": "value",
          "type": "uint256"
        },
        {
          "indexed": false,
          "internalType": "uint256",
          "name": "timestamp",
          "type": "uint256"
        }
      ],
      "name": "InterestCollected",
      "type": "event"
    },
    {
      "anonymous": false,
      "inputs": [
        {
          "indexed": true,
          "internalType": "address",
          "name": "from",
          "type": "address"
        },
        {
          "indexed": true,
          "internalType": "address",
          "name": "to",
          "type": "address"
        }
      ],
      "name": "OwnershipTransferRequested",
      "type": "event"
    },
    {
      "anonymous": false,
      "inputs": [
        {
          "indexed": true,
          "internalType": "address",
          "name": "previousOwner",
          "type": "address"
        },
        {
          "indexed": true,
          "internalType": "address",
          "name": "newOwner",
          "type": "address"
        }
      ],
      "name": "OwnershipTransferred",
      "type": "event"
    },
    {
      "anonymous": false,
      "inputs": [
        {
          "indexed": true,
          "internalType": "address",
          "name": "poolRewarder",
          "type": "address"
        },
        {
          "indexed": false,
          "internalType": "uint256",
          "name": "timestamp",
          "type": "uint256"
        }
      ],
      "name": "PoolRewarderChanged",
      "type": "event"
    },
    {
      "anonymous": false,
      "inputs": [
        {
          "indexed": true,
          "internalType": "address",
          "name": "calculator",
          "type": "address"
        },
        {
          "indexed": false,
          "internalType": "uint256",
          "name": "timestamp",
          "type": "uint256"
        }
      ],
      "name": "RatesCalculatorChanged",
      "type": "event"
    },
    {
      "anonymous": false,
      "inputs": [
        {
          "indexed": true,
          "internalType": "address",
          "name": "user",
          "type": "address"
        },
        {
          "indexed": false,
          "internalType": "uint256",
          "name": "value",
          "type": "uint256"
        },
        {
          "indexed": false,
          "internalType": "uint256",
          "name": "timestamp",
          "type": "uint256"
        }
      ],
      "name": "Repayment",
      "type": "event"
    },
    {
      "anonymous": false,
      "inputs": [
        {
          "indexed": true,
          "internalType": "address",
          "name": "from",
          "type": "address"
        },
        {
          "indexed": true,
          "internalType": "address",
          "name": "to",
          "type": "address"
        },
        {
          "indexed": false,
          "internalType": "uint256",
          "name": "value",
          "type": "uint256"
        }
      ],
      "name": "Transfer",
      "type": "event"
    },
    {
      "anonymous": false,
      "inputs": [
        {
          "indexed": true,
          "internalType": "address",
          "name": "user",
          "type": "address"
        },
        {
          "indexed": false,
          "internalType": "uint256",
          "name": "value",
          "type": "uint256"
        },
        {
          "indexed": false,
          "internalType": "uint256",
          "name": "timestamp",
          "type": "uint256"
        }
      ],
      "name": "Withdrawal",
      "type": "event"
    },
    {
      "anonymous": false,
      "inputs": [
        {
          "indexed": true,
          "internalType": "address",
          "name": "user",
          "type": "address"
        },
        {
          "indexed": false,
          "internalType": "uint256",
          "name": "amount",
          "type": "uint256"
        },
        {
          "indexed": false,
          "internalType": "uint256",
          "name": "timestamp",
          "type": "uint256"
        }
      ],
      "name": "WithdrawalIntentCancelled",
      "type": "event"
    },
    {
      "anonymous": false,
      "inputs": [
        {
          "indexed": true,
          "internalType": "address",
          "name": "user",
          "type": "address"
        },
        {
          "indexed": false,
          "internalType": "uint256",
          "name": "amount",
          "type": "uint256"
        },
        {
          "indexed": false,
          "internalType": "uint256",
          "name": "actionableAt",
          "type": "uint256"
        },
        {
          "indexed": false,
          "internalType": "uint256",
          "name": "expiresAt",
          "type": "uint256"
        }
      ],
      "name": "WithdrawalIntentCreated",
      "type": "event"
    },
    {
      "inputs": [],
      "name": "MAX_LOCK_TIME",
      "outputs": [
        {
          "internalType": "uint256",
          "name": "",
          "type": "uint256"
        }
      ],
      "stateMutability": "view",
      "type": "function"
    },
    {
      "inputs": [],
      "name": "acceptOwnership",
      "outputs": [],
      "stateMutability": "nonpayable",
      "type": "function"
    },
    {
      "inputs": [
        {
          "internalType": "address",
          "name": "owner",
          "type": "address"
        },
        {
          "internalType": "address",
          "name": "spender",
          "type": "address"
        }
      ],
      "name": "allowance",
      "outputs": [
        {
          "internalType": "uint256",
          "name": "",
          "type": "uint256"
        }
      ],
      "stateMutability": "view",
      "type": "function"
    },
    {
      "inputs": [
        {
          "internalType": "address",
          "name": "spender",
          "type": "address"
        },
        {
          "internalType": "uint256",
          "name": "amount",
          "type": "uint256"
        }
      ],
      "name": "approve",
      "outputs": [
        {
          "internalType": "bool",
          "name": "",
          "type": "bool"
        }
      ],
      "stateMutability": "nonpayable",
      "type": "function"
    },
    {
      "inputs": [
        {
          "internalType": "address",
          "name": "user",
          "type": "address"
        }
      ],
      "name": "balanceOf",
      "outputs": [
        {
          "internalType": "uint256",
          "name": "",
          "type": "uint256"
        }
      ],
      "stateMutability": "view",
      "type": "function"
    },
    {
      "inputs": [
        {
          "internalType": "uint256",
          "name": "_amount",
          "type": "uint256"
        }
      ],
      "name": "borrow",
      "outputs": [],
      "stateMutability": "nonpayable",
      "type": "function"
    },
    {
      "inputs": [],
      "name": "borrowIndex",
      "outputs": [
        {
          "internalType": "contract IIndex",
          "name": "",
          "type": "address"
        }
      ],
      "stateMutability": "view",
      "type": "function"
    },
    {
      "inputs": [
        {
          "internalType": "address",
          "name": "",
          "type": "address"
        }
      ],
      "name": "borrowed",
      "outputs": [
        {
          "internalType": "uint256",
          "name": "",
          "type": "uint256"
        }
      ],
      "stateMutability": "view",
      "type": "function"
    },
    {
      "inputs": [],
      "name": "borrowersRegistry",
      "outputs": [
        {
          "internalType": "contract IBorrowersRegistry",
          "name": "",
          "type": "address"
        }
      ],
      "stateMutability": "view",
      "type": "function"
    },
    {
      "inputs": [
        {
          "internalType": "uint256",
          "name": "intentIndex",
          "type": "uint256"
        }
      ],
      "name": "cancelWithdrawalIntent",
      "outputs": [],
      "stateMutability": "nonpayable",
      "type": "function"
    },
    {
      "inputs": [],
      "name": "checkRewards",
      "outputs": [
        {
          "internalType": "uint256",
          "name": "",
          "type": "uint256"
        }
      ],
      "stateMutability": "view",
      "type": "function"
    },
    {
      "inputs": [],
      "name": "clearExpiredIntents",
      "outputs": [],
      "stateMutability": "nonpayable",
      "type": "function"
    },
    {
      "inputs": [],
      "name": "containsOracleCalldata",
      "outputs": [
        {
          "internalType": "bool",
          "name": "",
          "type": "bool"
        }
      ],
      "stateMutability": "view",
      "type": "function"
    },
    {
      "inputs": [
        {
          "internalType": "uint256",
          "name": "amount",
          "type": "uint256"
        }
      ],
      "name": "createWithdrawalIntent",
      "outputs": [],
      "stateMutability": "nonpayable",
      "type": "function"
    },
    {
      "inputs": [],
      "name": "decimals",
      "outputs": [
        {
          "internalType": "uint8",
          "name": "decimals",
          "type": "uint8"
        }
      ],
      "stateMutability": "pure",
      "type": "function"
    },
    {
      "inputs": [
        {
          "internalType": "address",
          "name": "spender",
          "type": "address"
        },
        {
          "internalType": "uint256",
          "name": "subtractedValue",
          "type": "uint256"
        }
      ],
      "name": "decreaseAllowance",
      "outputs": [
        {
          "internalType": "bool",
          "name": "",
          "type": "bool"
        }
      ],
      "stateMutability": "nonpayable",
      "type": "function"
    },
    {
      "inputs": [
        {
          "internalType": "uint256",
          "name": "_amount",
          "type": "uint256"
        }
      ],
      "name": "deposit",
      "outputs": [],
      "stateMutability": "nonpayable",
      "type": "function"
    },
    {
      "inputs": [],
      "name": "depositIndex",
      "outputs": [
        {
          "internalType": "contract IIndex",
          "name": "",
          "type": "address"
        }
      ],
      "stateMutability": "view",
      "type": "function"
    },
    {
      "inputs": [
        {
          "internalType": "uint256",
          "name": "_amount",
          "type": "uint256"
        },
        {
          "internalType": "address",
          "name": "_of",
          "type": "address"
        }
      ],
      "name": "depositOnBehalf",
      "outputs": [],
      "stateMutability": "nonpayable",
      "type": "function"
    },
    {
      "inputs": [],
      "name": "extractTimestampsAndAssertAllAreEqual",
      "outputs": [
        {
          "internalType": "uint256",
          "name": "extractedTimestamp",
          "type": "uint256"
        }
      ],
      "stateMutability": "pure",
      "type": "function"
    },
    {
      "inputs": [
        {
          "internalType": "address",
          "name": "_user",
          "type": "address"
        }
      ],
      "name": "getBorrowed",
      "outputs": [
        {
          "internalType": "uint256",
          "name": "",
          "type": "uint256"
        }
      ],
      "stateMutability": "view",
      "type": "function"
    },
    {
      "inputs": [],
      "name": "getBorrowingRate",
      "outputs": [
        {
          "internalType": "uint256",
          "name": "",
          "type": "uint256"
        }
      ],
      "stateMutability": "view",
      "type": "function"
    },
    {
      "inputs": [],
      "name": "getDepositRate",
      "outputs": [
        {
          "internalType": "uint256",
          "name": "",
          "type": "uint256"
        }
      ],
      "stateMutability": "view",
      "type": "function"
    },
    {
      "inputs": [],
      "name": "getFullPoolStatus",
      "outputs": [
        {
          "internalType": "uint256[5]",
          "name": "",
          "type": "uint256[5]"
        }
      ],
      "stateMutability": "view",
      "type": "function"
    },
    {
      "inputs": [
        {
          "internalType": "address",
          "name": "account",
          "type": "address"
        }
      ],
      "name": "getFullyVestedLockedBalance",
      "outputs": [
        {
          "internalType": "uint256",
          "name": "fullyVestedBalance",
          "type": "uint256"
        }
      ],
      "stateMutability": "view",
      "type": "function"
    },
    {
      "inputs": [
        {
          "internalType": "address",
          "name": "account",
          "type": "address"
        }
      ],
      "name": "getLockedBalance",
      "outputs": [
        {
          "internalType": "uint256",
          "name": "",
          "type": "uint256"
        }
      ],
      "stateMutability": "view",
      "type": "function"
    },
    {
      "inputs": [],
      "name": "getMaxPoolUtilisationForBorrowing",
      "outputs": [
        {
          "internalType": "uint256",
          "name": "",
          "type": "uint256"
        }
      ],
      "stateMutability": "view",
      "type": "function"
    },
    {
      "inputs": [
        {
          "internalType": "address",
          "name": "account",
          "type": "address"
        },
        {
          "internalType": "uint256",
          "name": "excludedIntentAmount",
          "type": "uint256"
        }
      ],
      "name": "getNotLockedBalance",
      "outputs": [
        {
          "internalType": "uint256",
          "name": "notLockedBalance",
          "type": "uint256"
        }
      ],
      "stateMutability": "view",
      "type": "function"
    },
    {
      "inputs": [],
      "name": "getRewards",
      "outputs": [],
      "stateMutability": "nonpayable",
      "type": "function"
    },
    {
      "inputs": [
        {
          "internalType": "address",
          "name": "user",
          "type": "address"
        }
      ],
      "name": "getTotalIntentAmount",
      "outputs": [
        {
          "internalType": "uint256",
          "name": "totalIntentAmount",
          "type": "uint256"
        }
      ],
      "stateMutability": "view",
      "type": "function"
    },
    {
      "inputs": [
        {
          "internalType": "address",
          "name": "user",
          "type": "address"
        }
      ],
      "name": "getUserIntents",
      "outputs": [
        {
          "components": [
            {
              "internalType": "uint256",
              "name": "amount",
              "type": "uint256"
            },
            {
              "internalType": "uint256",
              "name": "actionableAt",
              "type": "uint256"
            },
            {
              "internalType": "uint256",
              "name": "expiresAt",
              "type": "uint256"
            },
            {
              "internalType": "bool",
              "name": "isPending",
              "type": "bool"
            },
            {
              "internalType": "bool",
              "name": "isActionable",
              "type": "bool"
            },
            {
              "internalType": "bool",
              "name": "isExpired",
              "type": "bool"
            }
          ],
          "internalType": "struct Pool.IntentInfo[]",
          "name": "",
          "type": "tuple[]"
        }
      ],
      "stateMutability": "view",
      "type": "function"
    },
    {
      "inputs": [],
      "name": "getVPrimeControllerAddress",
      "outputs": [
        {
          "internalType": "address",
          "name": "",
          "type": "address"
        }
      ],
      "stateMutability": "view",
      "type": "function"
    },
    {
      "inputs": [
        {
          "internalType": "address",
          "name": "spender",
          "type": "address"
        },
        {
          "internalType": "uint256",
          "name": "addedValue",
          "type": "uint256"
        }
      ],
      "name": "increaseAllowance",
      "outputs": [
        {
          "internalType": "bool",
          "name": "",
          "type": "bool"
        }
      ],
      "stateMutability": "nonpayable",
      "type": "function"
    },
    {
      "inputs": [
        {
          "internalType": "contract IRatesCalculator",
          "name": "ratesCalculator_",
          "type": "address"
        },
        {
          "internalType": "contract IBorrowersRegistry",
          "name": "borrowersRegistry_",
          "type": "address"
        },
        {
          "internalType": "contract IIndex",
          "name": "depositIndex_",
          "type": "address"
        },
        {
          "internalType": "contract IIndex",
          "name": "borrowIndex_",
          "type": "address"
        },
        {
          "internalType": "address payable",
          "name": "tokenAddress_",
          "type": "address"
        },
        {
          "internalType": "contract IPoolRewarder",
          "name": "poolRewarder_",
          "type": "address"
        },
        {
          "internalType": "uint256",
          "name": "_totalSupplyCap",
          "type": "uint256"
        }
      ],
      "name": "initialize",
      "outputs": [],
      "stateMutability": "nonpayable",
      "type": "function"
    },
    {
      "inputs": [
        {
          "internalType": "address[]",
          "name": "borrowers",
          "type": "address[]"
        },
        {
          "internalType": "uint256[]",
          "name": "amounts",
          "type": "uint256[]"
        }
      ],
      "name": "initializeBorrows",
      "outputs": [],
      "stateMutability": "nonpayable",
      "type": "function"
    },
    {
      "inputs": [
        {
          "internalType": "address[]",
          "name": "depositors",
          "type": "address[]"
        },
        {
          "internalType": "uint256[]",
          "name": "depositAmounts",
          "type": "uint256[]"
        }
      ],
      "name": "initializeDeposits",
      "outputs": [],
      "stateMutability": "nonpayable",
      "type": "function"
    },
    {
      "inputs": [
        {
          "internalType": "address",
          "name": "account",
          "type": "address"
        },
        {
          "internalType": "uint256",
          "name": "amount",
          "type": "uint256"
        },
        {
          "internalType": "uint256",
          "name": "excludedIntentAmount",
          "type": "uint256"
        }
      ],
      "name": "isWithdrawalAmountAvailable",
      "outputs": [
        {
          "internalType": "bool",
          "name": "",
          "type": "bool"
        }
      ],
      "stateMutability": "view",
      "type": "function"
    },
    {
      "inputs": [
        {
          "internalType": "uint256",
          "name": "amount",
          "type": "uint256"
        },
        {
          "internalType": "uint256",
          "name": "lockTime",
          "type": "uint256"
        }
      ],
      "name": "lockDeposit",
      "outputs": [],
      "stateMutability": "nonpayable",
      "type": "function"
    },
    {
      "inputs": [
        {
          "internalType": "address",
          "name": "",
          "type": "address"
        },
        {
          "internalType": "uint256",
          "name": "",
          "type": "uint256"
        }
      ],
      "name": "locks",
      "outputs": [
        {
          "internalType": "uint256",
          "name": "lockTime",
          "type": "uint256"
        },
        {
          "internalType": "uint256",
          "name": "amount",
          "type": "uint256"
        },
        {
          "internalType": "uint256",
          "name": "unlockTime",
          "type": "uint256"
        }
      ],
      "stateMutability": "view",
      "type": "function"
    },
    {
      "inputs": [],
      "name": "name",
      "outputs": [
        {
          "internalType": "string",
          "name": "_name",
          "type": "string"
        }
      ],
      "stateMutability": "pure",
      "type": "function"
    },
    {
      "inputs": [],
      "name": "owner",
      "outputs": [
        {
          "internalType": "address",
          "name": "",
          "type": "address"
        }
      ],
      "stateMutability": "view",
      "type": "function"
    },
    {
      "inputs": [],
      "name": "pendingOwner",
      "outputs": [
        {
          "internalType": "address",
          "name": "",
          "type": "address"
        }
      ],
      "stateMutability": "view",
      "type": "function"
    },
    {
      "inputs": [],
      "name": "poolRewarder",
      "outputs": [
        {
          "internalType": "contract IPoolRewarder",
          "name": "",
          "type": "address"
        }
      ],
      "stateMutability": "view",
      "type": "function"
    },
    {
      "inputs": [],
      "name": "ratesCalculator",
      "outputs": [
        {
          "internalType": "contract IRatesCalculator",
          "name": "",
          "type": "address"
        }
      ],
      "stateMutability": "view",
      "type": "function"
    },
    {
      "inputs": [
        {
          "internalType": "uint256",
          "name": "amount",
          "type": "uint256"
        },
        {
          "internalType": "address",
          "name": "account",
          "type": "address"
        }
      ],
      "name": "recoverSurplus",
      "outputs": [],
      "stateMutability": "nonpayable",
      "type": "function"
    },
    {
      "inputs": [],
      "name": "renounceOwnership",
      "outputs": [],
      "stateMutability": "nonpayable",
      "type": "function"
    },
    {
      "inputs": [
        {
          "internalType": "uint256",
          "name": "amount",
          "type": "uint256"
        }
      ],
      "name": "repay",
      "outputs": [],
      "stateMutability": "nonpayable",
      "type": "function"
    },
    {
      "inputs": [
        {
          "internalType": "contract IBorrowersRegistry",
          "name": "borrowersRegistry_",
          "type": "address"
        }
      ],
      "name": "setBorrowersRegistry",
      "outputs": [],
      "stateMutability": "nonpayable",
      "type": "function"
    },
    {
      "inputs": [
        {
          "internalType": "contract IPoolRewarder",
          "name": "_poolRewarder",
          "type": "address"
        }
      ],
      "name": "setPoolRewarder",
      "outputs": [],
      "stateMutability": "nonpayable",
      "type": "function"
    },
    {
      "inputs": [
        {
          "internalType": "contract IRatesCalculator",
          "name": "ratesCalculator_",
          "type": "address"
        }
      ],
      "name": "setRatesCalculator",
      "outputs": [],
      "stateMutability": "nonpayable",
      "type": "function"
    },
    {
      "inputs": [
        {
          "internalType": "contract ITokenManager",
          "name": "_tokenManager",
          "type": "address"
        }
      ],
      "name": "setTokenManager",
      "outputs": [],
      "stateMutability": "nonpayable",
      "type": "function"
    },
    {
      "inputs": [
        {
          "internalType": "uint256",
          "name": "_newTotalSupplyCap",
          "type": "uint256"
        }
      ],
      "name": "setTotalSupplyCap",
      "outputs": [],
      "stateMutability": "nonpayable",
      "type": "function"
    },
    {
      "inputs": [],
      "name": "symbol",
      "outputs": [
        {
          "internalType": "string",
          "name": "_symbol",
          "type": "string"
        }
      ],
      "stateMutability": "pure",
      "type": "function"
    },
    {
      "inputs": [],
      "name": "tokenAddress",
      "outputs": [
        {
          "internalType": "address payable",
          "name": "",
          "type": "address"
        }
      ],
      "stateMutability": "view",
      "type": "function"
    },
    {
      "inputs": [],
      "name": "tokenManager",
      "outputs": [
        {
          "internalType": "contract ITokenManager",
          "name": "",
          "type": "address"
        }
      ],
      "stateMutability": "view",
      "type": "function"
    },
    {
      "inputs": [],
      "name": "totalBorrowed",
      "outputs": [
        {
          "internalType": "uint256",
          "name": "",
          "type": "uint256"
        }
      ],
      "stateMutability": "view",
      "type": "function"
    },
    {
      "inputs": [],
      "name": "totalSupply",
      "outputs": [
        {
          "internalType": "uint256",
          "name": "",
          "type": "uint256"
        }
      ],
      "stateMutability": "view",
      "type": "function"
    },
    {
      "inputs": [],
      "name": "totalSupplyCap",
      "outputs": [
        {
          "internalType": "uint256",
          "name": "",
          "type": "uint256"
        }
      ],
      "stateMutability": "view",
      "type": "function"
    },
    {
      "inputs": [
        {
          "internalType": "address",
          "name": "recipient",
          "type": "address"
        },
        {
          "internalType": "uint256",
          "name": "amount",
          "type": "uint256"
        }
      ],
      "name": "transfer",
      "outputs": [
        {
          "internalType": "bool",
          "name": "",
          "type": "bool"
        }
      ],
      "stateMutability": "nonpayable",
      "type": "function"
    },
    {
      "inputs": [
        {
          "internalType": "address",
          "name": "sender",
          "type": "address"
        },
        {
          "internalType": "address",
          "name": "recipient",
          "type": "address"
        },
        {
          "internalType": "uint256",
          "name": "amount",
          "type": "uint256"
        }
      ],
      "name": "transferFrom",
      "outputs": [
        {
          "internalType": "bool",
          "name": "",
          "type": "bool"
        }
      ],
      "stateMutability": "nonpayable",
      "type": "function"
    },
    {
      "inputs": [
        {
          "internalType": "address",
          "name": "newOwner",
          "type": "address"
        }
      ],
      "name": "transferOwnership",
      "outputs": [],
      "stateMutability": "nonpayable",
      "type": "function"
    },
    {
      "inputs": [],
      "name": "vestingDistributor",
      "outputs": [
        {
          "internalType": "contract VestingDistributor",
          "name": "",
          "type": "address"
        }
      ],
      "stateMutability": "view",
      "type": "function"
    },
    {
      "inputs": [
        {
          "internalType": "uint256",
          "name": "_amount",
          "type": "uint256"
        },
        {
          "internalType": "uint256[]",
          "name": "intentIndices",
          "type": "uint256[]"
        }
      ],
      "name": "withdraw",
      "outputs": [],
      "stateMutability": "nonpayable",
      "type": "function"
    },
    {
      "inputs": [
        {
          "internalType": "address",
          "name": "",
          "type": "address"
        },
        {
          "internalType": "uint256",
          "name": "",
          "type": "uint256"
        }
      ],
      "name": "withdrawalIntents",
      "outputs": [
        {
          "internalType": "uint256",
          "name": "amount",
          "type": "uint256"
        },
        {
          "internalType": "uint256",
          "name": "actionableAt",
          "type": "uint256"
        },
        {
          "internalType": "uint256",
          "name": "expiresAt",
          "type": "uint256"
        }
      ],
      "stateMutability": "view",
      "type": "function"
    }
  ],
  "transactionHash": "0x68b10d2a4bd1daa8ead7b5ed6133875be10cd99db7ca790ec488ea058217681b",
  "args": [],
  "numDeployments": 1,
  "solcInputHash": "c04d10a911247f57fa62b141026c4e2d",
  "bytecode": "0x608060405234801561001057600080fd5b50614b25806100206000396000f3fe608060405234801561001057600080fd5b50600436106102f05760003560e01c8063726cd4151161018f578063726cd4151461056e57806379ba5097146105765780637b8989391461057e5780637cb2b79c1461059157806389e8adb4146105a45780638da5cb5b146105b757806395d89b41146105bf5780639d76ea58146105e0578063a457c2d7146105f3578063a9059cbb14610606578063aa5af0fd14610619578063ab9eb1481461062c578063b425f8021461063f578063b6b55f2514610652578063b75c42bd14610665578063b790634e1461067a578063bb102aea14610682578063c40868931461068b578063c4ce63581461069e578063c5ebeaec146106b1578063d06dca89146106c4578063dd62ed3e146106d7578063e2b9442e14610710578063e30c397814610723578063e84d13c81461072b578063ee61bd6e1461073e578063ef5fd2d114610751578063f2fde38b14610759578063f36b24251461076c578063fa3209b214610774578063fa78668f14610794578063fc68f6611461079f57600080fd5b80630572b0cc146102f557806306fdde03146102ff5780630790ef9a1461034057806307bbebdd146103535780630941cb3d14610373578063095ea7b3146103a15780630d1870df146103c45780631457db34146103cc5780631460e390146103df57806318160ddd146103f257806323b872dd146103fa5780632742f2531461040d57806329194a7c1461042f5780632a709b14146104425780632aeaa29114610455578063313ce5671461045d57806331d05b111461046c578063371fd8e61461047f57806337b764fe146104925780633866ecf7146104a557806339509351146104b85780634c19386c146104cb57806355a547d5146104d3578063562b1168146104db5780635915d806146104ee5780636011163e1461050157806361215aa8146105145780636ca6d5d0146105225780636cf55ea21461053557806370a082311461054857806370d4cea01461055b578063715018a6146102fd575b600080fd5b6102fd6107b2565b005b60408051808201909152601381527244656c74615072696d6541726269627472756d60681b60208201525b6040516103379190614401565b60405180910390f35b6102fd61034e366004614429565b610816565b60a154610366906001600160a01b031681565b6040516103379190614459565b61039361038136600461446d565b609a6020526000908152604090205481565b604051908152602001610337565b6103b46103af36600461448a565b61091e565b6040519015158152602001610337565b6103b461099a565b6102fd6103da36600461446d565b6109ae565b6102fd6103ed3660046144b6565b610a5d565b610393610d09565b6103b4610408366004614543565b610d19565b61042061041b36600461448a565b61101e565b60405161033793929190614584565b6102fd61043d3660046145e5565b611060565b60a354610366906001600160a01b031681565b61039361123d565b60405160128152602001610337565b6102fd61047a366004614650565b6112ad565b6102fd61048d366004614650565b6112ba565b6102fd6104a0366004614650565b6113a6565b6103b46104b3366004614669565b611517565b6103b46104c636600461448a565b611530565b6103936115dd565b6103936115e8565b6102fd6104e9366004614650565b611700565b6102fd6104fc36600461469e565b611858565b61039361050f36600461446d565b611baa565b670cd64299613c8000610393565b609d54610366906001600160a01b031681565b6102fd610543366004614429565b611c31565b61039361055636600461446d565b611e8b565b6102fd61056936600461446d565b611ed1565b610366611f7f565b6102fd612010565b609e54610366906001600160a01b031681565b6102fd61059f36600461446d565b61209f565b6103936105b236600461448a565b6120c9565b610366612141565b604080518082019091526005815264222820a92160d91b602082015261032a565b60a054610366906001600160a01b031681565b6103b461060136600461448a565b612150565b6103b461061436600461448a565b612224565b609f54610366906001600160a01b031681565b6102fd61063a3660046145e5565b612458565b61042061064d36600461448a565b612715565b6102fd610660366004614650565b612731565b61066d61273b565b60405161033791906146e9565b610393612792565b61039360975481565b61039361069936600461446d565b6127d3565b6103936106ac36600461446d565b6128a0565b6102fd6106bf366004614650565b6129c0565b609c54610366906001600160a01b031681565b6103936106e536600461471a565b6001600160a01b03918216600090815260986020908152604080832093909416825291909152205490565b6102fd61071e366004614748565b612c3d565b610366612da9565b61039361073936600461446d565b612db3565b609b54610366906001600160a01b031681565b6102fd612e4b565b6102fd61076736600461446d565b612e54565b610393612f1b565b61078761078236600461446d565b612f37565b604051610337919061476a565b6103936305a39a8081565b6102fd6107ad36600461446d565b61309a565b609d546040516311305c1f60e11b81526001600160a01b0390911690632260b83e906107e2903390600401614459565b600060405180830381600087803b1580156107fc57600080fd5b505af1158015610810573d6000803e3d6000fd5b50505050565b61081e613118565b610826613177565b60a0546040516370a0823160e01b81526000916001600160a01b0316906370a0823190610857903090600401614459565b602060405180830381865afa158015610874573d6000803e3d6000fd5b505050506040513d601f19601f8201168201806040525081019061089891906147e8565b905060006108a4610d09565b6108ac6115dd565b6108b69084614817565b6108c0919061482a565b9050818411156108e3576040516316d5c93f60e21b815260040160405180910390fd5b83811015610904576040516394290ab960e01b815260040160405180910390fd5b61090e83856131d0565b505061091a6001606555565b5050565b60006001600160a01b03831661094757604051633d6601c760e11b815260040160405180910390fd5b3360008181526098602090815260408083206001600160a01b0388168085529083529281902086905551858152919291600080516020614ad0833981519152910160405180910390a35060015b92915050565b6602ed57011e0000601f1936013581161490565b6109b6613118565b6109bf816131ee565b1580156109d457506001600160a01b03811615155b15610a0857609d546040516322a2d07b60e21b81526109ff916001600160a01b031690600401614459565b60405180910390fd5b609d80546001600160a01b0319166001600160a01b0383169081179091556040514281527f85796821ee1d670b0fdb986f256b5c1a29b9019038831c7f09df2061879cf9e5906020015b60405180910390a250565b600054610100900460ff1615808015610a7d5750600054600160ff909116105b80610a9e5750610a8c306131ee565b158015610a9e575060005460ff166001145b610b015760405162461bcd60e51b815260206004820152602e60248201527f496e697469616c697a61626c653a20636f6e747261637420697320616c72656160448201526d191e481a5b9a5d1a585b1a5e995960921b60648201526084016109ff565b6000805460ff191660011790558015610b24576000805461ff0019166101001790555b610b2d886131ee565b8015610b3d5750610b3d876131ee565b8015610b4d5750610b4d866131ee565b8015610b5d5750610b5d856131ee565b8015610b7f5750610b6d836131ee565b80610b7f57506001600160a01b038316155b610bc25760405162461bcd60e51b815260206004820152601460248201527357726f6e6720696e697420617267756d656e747360601b60448201526064016109ff565b609c80546001600160a01b03199081166001600160a01b038a811691909117909255609b805482168b8416179055609e80548216898416179055609f80548216888416179055609d8054821686841617905560a08054909116918616918217905560978390556040805163313ce56760e01b8152905163313ce567916004818101926020929091908290030181865afa158015610c63573d6000803e3d6000fd5b505050506040513d601f19601f82011682018060405250810190610c87919061483d565b60a160146101000a81548160ff021916908360ff160217905550610ca96131fd565b610cb161322c565b610cb961325b565b8015610cff576000805461ff0019169055604051600181527f7f26b83ff96e1f2b6a682f133852f6798a09c465da95921460cefb38474024989060200160405180910390a15b5050505050505050565b6000610d1430611e8b565b905090565b6000610d23613177565b6001600160a01b0384166000908152609860209081526040808320338452909152902054821115610d8e576001600160a01b03841660009081526098602090815260408083203384529091529081902054905163054365bb60e31b81526109ff918491600401614860565b6001600160a01b038316610db557604051633a954ecd60e21b815260040160405180910390fd5b306001600160a01b03841603610dde5760405163ed728e5760e01b815260040160405180910390fd5b610dea84836000611517565b610e155781610dfa8560006120c9565b60405163adb9e04360e01b81526004016109ff929190614860565b610e1e8461343e565b6001600160a01b03841660009081526099602052604081208054849290610e4690849061482a565b90915550506001600160a01b038416600090815260986020908152604080832033845290915281208054849290610e7e90849061482a565b90915550610e8d90508361343e565b6001600160a01b03831660009081526099602052604081208054849290610eb5908490614817565b9091555050609d546001600160a01b031615801590610ed357508115155b15610fbd57609d54604051630d5dbdb360e21b81526000916001600160a01b031690633576f6cc90610f0b908690899060040161486e565b6020604051808303816000875af1158015610f2a573d6000803e3d6000fd5b505050506040513d601f19601f82011682018060405250810190610f4e91906147e8565b90508015610fbb57609d546040516328ba35d960e11b81526001600160a01b03909116906351746bb290610f88908490889060040161486e565b600060405180830381600087803b158015610fa257600080fd5b505af1158015610fb6573d6000803e3d6000fd5b505050505b505b826001600160a01b0316846001600160a01b0316600080516020614ab083398151915284604051610ff091815260200190565b60405180910390a361100184613569565b61100a83613569565b5060016110176001606555565b9392505050565b60a4602052816000526040600020818154811061103a57600080fd5b600091825260209091206003909102018054600182015460029092015490935090915083565b611068613177565b611070613118565b82811461108f5760405162461bcd60e51b81526004016109ff90614885565b60005b838110156112325760008585838181106110ae576110ae6148b5565b90506020020160208101906110c3919061446d565b905060008484848181106110d9576110d96148b5565b9050602002013590506110eb82613603565b61110857604051637582fa9b60e11b815260040160405180910390fd5b6001600160a01b0382166000908152609a60205260409020541561116d5760405162461bcd60e51b815260206004820152601c60248201527b109bdc9c9bddd95c88185b1c9958591e481a5b9a5d1a585b1a5e995960221b60448201526064016109ff565b611176826136c5565b6001600160a01b0382166000908152609a60205260408120805483929061119e908490614817565b9091555050306000908152609a6020526040812080548392906111c2908490614817565b909155506111d0905061325b565b816001600160a01b0316336001600160a01b03167f3b9a3aee39a2a7e2a67dfc91feeddddff04dccb47d2f13be4d8938e08ffae5c98342604051611215929190614860565b60405180910390a35050808061122a906148cb565b915050611092565b506108106001606555565b609d546040516246613160e11b81526000916001600160a01b031690628cc2629061126c903390600401614459565b602060405180830381865afa158015611289573d6000803e3d6000fd5b505050506040513d601f19601f82011682018060405250810190610d1491906147e8565b6112b5613118565b609755565b6112c2613177565b6112cb336136c5565b336000908152609a60205260409020548111156112fb57604051630dcad43360e11b815260040160405180910390fd5b61130533826137cb565b336000908152609a60205260408120805483929061132490849061482a565b9091555050306000908152609a60205260408120805483929061134890849061482a565b90915550611356905061325b565b336001600160a01b03167f24fcca58a997b1b2eff6db8107e860458544c09ddd3693b3b779e1df6c0d6c5d8242604051611391929190614860565b60405180910390a26113a36001606555565b50565b6113ae613177565b33600090815260a460205260409020805482106113dd5760405162461bcd60e51b81526004016109ff906148e4565b60008183815481106113f1576113f16148b5565b600091825260208083206040805160608101825260039094029091018054845260018082015493850193909352600201549083015284549193506114349161482a565b90508084146114985782818154811061144f5761144f6148b5565b906000526020600020906003020183858154811061146f5761146f6148b5565b600091825260209091208254600390920201908155600180830154908201556002918201549101555b828054806114a8576114a8614912565b60008281526020812060036000199093019283020181815560018101829055600201559055815160405133917fd33d8fdc6783acd0812c254bbb11863beb43e98ae9bb139867d674bb2a32336e9161150291904290614860565b60405180910390a25050506113a36001606555565b60008061152485846120c9565b90931115949350505050565b60006001600160a01b03831661155957604051633d6601c760e11b815260040160405180910390fd5b3360009081526098602090815260408083206001600160a01b0387168452909152812054611588908490614817565b3360008181526098602090815260408083206001600160a01b038a1680855290835292819020859055518481529394509092600080516020614ad0833981519152910160405180910390a35060019392505050565b6000610d1430611baa565b6000806115f36137e3565b905060006116008261388a565b61ffff1690508060000361162757604051632154bfcf60e21b815260040160405180910390fd5b611632600283614817565b915060005b818110156116fa57600061164a846138c4565b905060008061165a606887614817565b90506000611668823661482a565b9050803592508265ffffffffffff1660000361169757604051630336dc9d60e41b815260040160405180910390fd5b876000036116af578265ffffffffffff1697506116d7565b878365ffffffffffff16146116d75760405163d9d1f46560e01b815260040160405180910390fd5b6116e18488614817565b96505050505080806116f2906148cb565b915050611637565b50505090565b611708613177565b600081116117585760405162461bcd60e51b815260206004820181905260248201527f416d6f756e74206d7573742062652067726561746572207468616e207a65726f60448201526064016109ff565b61176133613900565b600061176e3360006120c9565b90508082111561179557818160405163adb9e04360e01b81526004016109ff929190614860565b60006117a44262015180614817565b905060006117b58262015180614817565b60408051606081018252868152602080820186815282840185815233600081815260a48552868120805460018181018355918352959091208651600390960201948555925192840192909255516002909201919091559151929350917ff7e664c0da2f587b77873cf0f2c343841d19557b27f07a4fadf367fcabb15e679061184290889087908790614584565b60405180910390a2505050506113a36001606555565b611860613177565b33600090815260a4602052604081209061187c82858588613a10565b9050611889338283611517565b6118c95760405162461bcd60e51b815260206004820152601160248201527010985b185b98d9481a5cc81b1bd8dad959607a1b60448201526064016109ff565b825b80156119b957600085856118e060018561482a565b8181106118ef576118ef6148b5565b90506020020135905060006001858054905061190b919061482a565b905080821461196f57848181548110611926576119266148b5565b9060005260206000209060030201858381548110611946576119466148b5565b600091825260209091208254600390920201908155600180830154908201556002918201549101555b8480548061197f5761197f614912565b60008281526020812060036000199093019283020181815560018101829055600201559055508190506119b181614928565b9150506118cb565b506119c33361343e565b60a0546040516370a0823160e01b81526001600160a01b03909116906370a08231906119f3903090600401614459565b602060405180830381865afa158015611a10573d6000803e3d6000fd5b505050506040513d601f19601f82011682018060405250810190611a3491906147e8565b811115611a54576040516316d5c93f60e21b815260040160405180910390fd5b30600090815260996020526040902054811115611a8457604051630bba337f60e11b815260040160405180910390fd5b3060009081526099602052604081208054839290611aa390849061482a565b90915550611ab390503382613cf2565b611abb61325b565b611ac433613569565b609d546001600160a01b031615611b4c57609d54604051630d5dbdb360e21b81526001600160a01b0390911690633576f6cc90611b07908490339060040161486e565b6020604051808303816000875af1158015611b26573d6000803e3d6000fd5b505050506040513d601f19601f82011682018060405250810190611b4a91906147e8565b505b611b5633826131d0565b336001600160a01b03167fdf273cb619d95419a9cd0ec88123a0538c85064229baa6363788f743fff90deb8242604051611b91929190614860565b60405180910390a25050611ba56001606555565b505050565b609f546001600160a01b038281166000908152609a602052604080822054905163966da88960e01b81529193929092169163966da88991611bf09190869060040161486e565b602060405180830381865afa158015611c0d573d6000803e3d6000fd5b505050506040513d601f19601f8201168201806040525081019061099491906147e8565b611c39613177565b81600003611c5a5760405163078e1d8560e01b815260040160405180910390fd5b6001600160a01b038116611c805760405162461bcd60e51b81526004016109ff9061493f565b306001600160a01b03821603611ca85760405162461bcd60e51b81526004016109ff90614965565b60a0546040516370a0823160e01b8152611d249184916001600160a01b03909116906370a0823190611cde903390600401614459565b602060405180830381865afa158015611cfb573d6000803e3d6000fd5b505050506040513d601f19601f82011682018060405250810190611d1f91906147e8565b613d72565b9150611d2f8161343e565b60975415611d745760975430600090815260996020526040902054611d55908490614817565b1115611d7457604051633f27d61760e01b815260040160405180910390fd5b611d7e33836137cb565b611d888183613d88565b3060009081526099602052604081208054849290611da7908490614817565b90915550611db5905061325b565b609d546001600160a01b031615611e2b57609d546040516328ba35d960e11b81526001600160a01b03909116906351746bb290611df8908590859060040161486e565b600060405180830381600087803b158015611e1257600080fd5b505af1158015611e26573d6000803e3d6000fd5b505050505b806001600160a01b0316336001600160a01b03167fef0ada5ca19bede6a40b575865a6ce451938d26835b7215e6a5e03bb2c4392128442604051611e70929190614860565b60405180910390a3611e8181613569565b61091a6001606555565b609e546001600160a01b0382811660009081526099602052604080822054905163966da88960e01b81529193929092169163966da88991611bf09190869060040161486e565b611ed9613118565b611ee2816131ee565b158015611ef757506001600160a01b03811615155b15611f1757806040516322a2d07b60e21b81526004016109ff9190614459565b609b80546001600160a01b0319166001600160a01b03831690811790915515611f4257611f4261325b565b806001600160a01b03167fef1b7e9216e08b283cc613824ccb26ea505227777839a4f3c6810d64594e018242604051610a5291815260200190565b565b60a3546000906001600160a01b03161561200a5760a360009054906101000a90046001600160a01b03166001600160a01b031663726cd4156040518163ffffffff1660e01b8152600401602060405180830381865afa158015611fe6573d6000803e3d6000fd5b505050506040513d601f19601f82011682018060405250810190610d14919061499a565b50600090565b600061201a613e08565b9050336001600160a01b0382161461208c5760405162461bcd60e51b815260206004820152602f60248201527f50656e64696e674f776e61626c653a2063616c6c6572206973206e6f7420746860448201526e32903832b73234b7339037bbb732b960891b60648201526084016109ff565b61209581613e1b565b6113a36000613e6d565b6120a7613118565b60a380546001600160a01b0319166001600160a01b0392909216919091179055565b6000806120d5846127d3565b905060006120e285612db3565b90508381116120f25760006120fc565b6120fc848261482a565b9050600061210986611e8b565b905060006121178385614817565b90508082101561212a5760009450612137565b612134818361482a565b94505b5050505092915050565b6033546001600160a01b031690565b60006001600160a01b03831661217957604051633d6601c760e11b815260040160405180910390fd5b3360009081526098602090815260408083206001600160a01b0387168452909152902054828110156121c257828160405163054365bb60e31b81526004016109ff929190614860565b60006121ce848361482a565b3360008181526098602090815260408083206001600160a01b038b1680855290835292819020859055518481529394509092600080516020614ad0833981519152910160405180910390a3506001949350505050565b600061222e613177565b6001600160a01b03831661225557604051633a954ecd60e21b815260040160405180910390fd5b306001600160a01b0384160361227e5760405163ed728e5760e01b815260040160405180910390fd5b61228a33836000611517565b61229a5781610dfa3360006120c9565b336122a48161343e565b6001600160a01b0381166000908152609960205260409020805484900390556122cc8461343e565b6001600160a01b038416600090815260996020526040812080548592906122f4908490614817565b9091555050609d546001600160a01b03161580159061231257508215155b156123fc57609d54604051630d5dbdb360e21b81526000916001600160a01b031690633576f6cc9061234a908790869060040161486e565b6020604051808303816000875af1158015612369573d6000803e3d6000fd5b505050506040513d601f19601f8201168201806040525081019061238d91906147e8565b905080156123fa57609d546040516328ba35d960e11b81526001600160a01b03909116906351746bb2906123c7908490899060040161486e565b600060405180830381600087803b1580156123e157600080fd5b505af11580156123f5573d6000803e3d6000fd5b505050505b505b836001600160a01b0316816001600160a01b0316600080516020614ab08339815191528560405161242f91815260200190565b60405180910390a361244033613569565b61244984613569565b60019150506109946001606555565b612460613177565b612468613118565b8083146124875760405162461bcd60e51b81526004016109ff90614885565b60005b838110156112325760008383838181106124a6576124a66148b5565b90506020020135905060008686848181106124c3576124c36148b5565b90506020020160208101906124d8919061446d565b9050816000036124fb5760405163078e1d8560e01b815260040160405180910390fd5b6001600160a01b0381166125215760405162461bcd60e51b81526004016109ff9061493f565b306001600160a01b038216036125495760405162461bcd60e51b81526004016109ff90614965565b6001600160a01b038116600090815260996020526040902054156125af5760405162461bcd60e51b815260206004820152601d60248201527f4465706f7369746f7220616c726561647920696e697469616c697a656400000060448201526064016109ff565b6125b88161343e565b609754156125fd57609754306000908152609960205260409020546125de908490614817565b11156125fd57604051633f27d61760e01b815260040160405180910390fd5b6126078183613d88565b3060009081526099602052604081208054849290612626908490614817565b90915550612634905061325b565b609d546001600160a01b0316156126aa57609d546040516328ba35d960e11b81526001600160a01b03909116906351746bb290612677908590859060040161486e565b600060405180830381600087803b15801561269157600080fd5b505af11580156126a5573d6000803e3d6000fd5b505050505b806001600160a01b0316336001600160a01b03167fb5a680d9a22629ee5eef8f54bfbe6204ddb674ca26425ddadb06cb4b53313d5684426040516126ef929190614860565b60405180910390a361270081613569565b5050808061270d906148cb565b91505061248a565b60a2602052816000526040600020818154811061103a57600080fd5b6113a38133611c31565b612743614393565b6040518060a00160405280612756610d09565b8152602001612763612792565b8152602001612770612f1b565b815260200161277d6115dd565b8152602001670cd64299613c80009052919050565b609b546000906001600160a01b0316637cd083316127ae6115dd565b6127b6610d09565b6040518363ffffffff1660e01b815260040161126c929190614860565b600080805b6001600160a01b038416600090815260a26020526040902054811015612899576001600160a01b038416600090815260a260205260409020805442919083908110612825576128256148b5565b9060005260206000209060030201600201541115612887576001600160a01b038416600090815260a260205260409020805482908110612867576128676148b5565b906000526020600020906003020160010154826128849190614817565b91505b80612891816148cb565b9150506127d8565b5092915050565b6000805b6001600160a01b038316600090815260a260205260409020548110156129ba576001600160a01b038316600090815260a2602052604090208054429190839081106128f1576128f16148b5565b90600052602060002090600302016002015411156129a8576001600160a01b038316600090815260a26020526040902080546305a39a8091908390811061293a5761293a6148b5565b600091825260208083206003909202909101546001600160a01b038716835260a29091526040909120805484908110612975576129756148b5565b90600052602060002090600302016001015461299191906149b7565b61299b91906149ce565b6129a59083614817565b91505b806129b2816148cb565b9150506128a4565b50919050565b609c546001600160a01b03166129e957604051631c038dab60e21b815260040160405180910390fd5b609c5460405163039ff21960e21b81526001600160a01b0390911690630e7fc86490612a19903390600401614459565b602060405180830381865afa158015612a36573d6000803e3d6000fd5b505050506040513d601f19601f82011682018060405250810190612a5a91906149f0565b612a7757604051637582fa9b60e11b815260040160405180910390fd5b612a7f610d09565b600003612a9f576040516316d5c93f60e21b815260040160405180910390fd5b612aa7613177565b60a0546040516370a0823160e01b81526001600160a01b03909116906370a0823190612ad7903090600401614459565b602060405180830381865afa158015612af4573d6000803e3d6000fd5b505050506040513d601f19601f82011682018060405250810190612b1891906147e8565b811115612b38576040516316d5c93f60e21b815260040160405180910390fd5b612b41336136c5565b336000908152609a602052604081208054839290612b60908490614817565b9091555050306000908152609a602052604081208054839290612b84908490614817565b90915550612b94905033826131d0565b612b9c61325b565b336001600160a01b03167fd6b37be10b58108f696d9ed067fedad0bff7cb417ef4c28d2f8a25d6d83c98d58242604051612bd7929190614860565b60405180910390a2612be96001606555565b670cd64299613c8000612bfa610d09565b612c026115dd565b612c1490670de0b6b3a76400006149b7565b612c1e91906149ce565b11156113a3576040516372b9ce3f60e11b815260040160405180910390fd5b81612c493360006120c9565b1015612c965760405162461bcd60e51b815260206004820152601c60248201527b496e73756666696369656e742062616c616e636520746f206c6f636b60201b60448201526064016109ff565b6305a39a80811115612cf45760405162461bcd60e51b815260206004820152602160248201527f43616e6e6f74206c6f636b20666f72206d6f7265207468616e203320796561726044820152607360f81b60648201526084016109ff565b33600090815260a260209081526040918290208251606081018452848152918201859052918101612d258442614817565b905281546001818101845560009384526020938490208351600390930201918255928201519281019290925560400151600290910155337fada80de846c2fa6289ae8db8bd0145346851ca76d49946df18240ebbf97200a78383612d898142614817565b604051612d9893929190614584565b60405180910390a261091a33613569565b6000610d14613e08565b6001600160a01b038116600090815260a460205260408120815b8154811015612e4457818181548110612de857612de86148b5565b9060005260206000209060030201600201544211612e3257818181548110612e1257612e126148b5565b90600052602060002090600302016000015483612e2f9190614817565b92505b80612e3c816148cb565b915050612dcd565b5050919050565b611f7d33613900565b612e5c613118565b6001600160a01b038116612ec85760405162461bcd60e51b815260206004820152602d60248201527f50656e64696e674f776e61626c653a206e6577206f776e65722069732074686560448201526c207a65726f206164647265737360981b60648201526084016109ff565b612ed181613e6d565b806001600160a01b0316612ee3612141565b6001600160a01b03167fed8889f560326eb138920d842192f0eb3dd22b4f139c87a2c57538e05bae127860405160405180910390a350565b609b546000906001600160a01b031663df841eec6127ae6115dd565b6001600160a01b038116600090815260a4602052604081208054606092906001600160401b03811115612f6c57612f6c614a12565b604051908082528060200260200182016040528015612fcc57816020015b6040805160c08101825260008082526020808301829052928201819052606082018190526080820181905260a08201528252600019909201910181612f8a5790505b50905060005b8254811015613092576000838281548110612fef57612fef6148b5565b906000526020600020906003020190506040518060c0016040528082600001548152602001826001015481526020018260020154815260200182600101544210151581526020018260010154421015801561304e575082600201544211155b15158152602001826002015442111515815250838381518110613073576130736148b5565b602002602001018190525050808061308a906148cb565b915050612fd2565b509392505050565b6130a2613118565b6130ab816131ee565b6130ca57806040516322a2d07b60e21b81526004016109ff9190614459565b609c80546001600160a01b0319166001600160a01b0383169081179091556040514281527f04dce7d074f7e287a2e6e3516c802271d58d5c14e0dede83a49719eb6b92046990602001610a52565b33613121612141565b6001600160a01b031614611f7d5760405162461bcd60e51b815260206004820181905260248201527f4f776e61626c653a2063616c6c6572206973206e6f7420746865206f776e657260448201526064016109ff565b6002606554036131c95760405162461bcd60e51b815260206004820152601f60248201527f5265656e7472616e637947756172643a207265656e7472616e742063616c6c0060448201526064016109ff565b6002606555565b60a05461091a906001600160a01b03168383613e7f565b6001606555565b6001600160a01b03163b151590565b600054610100900460ff166132245760405162461bcd60e51b81526004016109ff90614a28565b611f7d613fa9565b600054610100900460ff166132535760405162461bcd60e51b81526004016109ff90614a28565b611f7d613fd9565b60006132656115dd565b90506000613271610d09565b609b549091506001600160a01b031661329d5760405163fd4851e960e01b815260040160405180910390fd5b609e54609b54604051637cd0833160e01b81526001600160a01b03928316926334fcf437921690637cd08331906132da9087908790600401614860565b602060405180830381865afa1580156132f7573d6000803e3d6000fd5b505050506040513d601f19601f8201168201806040525081019061331b91906147e8565b6040518263ffffffff1660e01b815260040161333991815260200190565b600060405180830381600087803b15801561335357600080fd5b505af1158015613367573d6000803e3d6000fd5b5050609f54609b546040516337e107bb60e21b81526001600160a01b0392831694506334fcf437935091169063df841eec906133a99087908790600401614860565b602060405180830381865afa1580156133c6573d6000803e3d6000fd5b505050506040513d601f19601f820116820180604052508101906133ea91906147e8565b6040518263ffffffff1660e01b815260040161340891815260200190565b600060405180830381600087803b15801561342257600080fd5b505af1158015613436573d6000803e3d6000fd5b505050505050565b6001600160a01b03811660009081526099602052604081205461346083611e8b565b61346a919061482a565b90506134768282613d88565b61347f30611e8b565b306000908152609960205260409081902091909155516001600160a01b038316907f9bbd517758fbae61197f1c1c04c8614064e89512dbaf4350dcdf76fcaa5e2161906134cf9084904290614860565b60405180910390a2609e54604051637681d99b60e11b81526001600160a01b039091169063ed03b33690613507908590600401614459565b600060405180830381600087803b15801561352157600080fd5b505af1158015613535573d6000803e3d6000fd5b5050609e54604051637681d99b60e11b81526001600160a01b03909116925063ed03b3369150613408903090600401614459565b6000613573611f7f565b90506001600160a01b0381161561091a5761358c61099a565b156135d757611ba581836040516024016135a69190614459565b60408051601f198184030181529190526020810180516001600160e01b0316636cec346160e01b1790526000614000565b60405163bf18c23960e01b81526001600160a01b0382169063bf18c23990613408908590600401614459565b609c546000906001600160a01b031661362f57604051631c038dab60e21b815260040160405180910390fd5b609c5460405163039ff21960e21b81526001600160a01b0390911690630e7fc8649061365f908590600401614459565b602060405180830381865afa15801561367c573d6000803e3d6000fd5b505050506040513d601f19601f820116820180604052508101906136a091906149f0565b6136bd57604051637582fa9b60e11b815260040160405180910390fd5b506001919050565b6136ce81611baa565b6001600160a01b0382166000908152609a60205260409020556136f030611baa565b306000908152609a60205260409081902091909155609f549051637681d99b60e11b81526001600160a01b039091169063ed03b33690613734908490600401614459565b600060405180830381600087803b15801561374e57600080fd5b505af1158015613762573d6000803e3d6000fd5b5050609f54604051637681d99b60e11b81526001600160a01b03909116925063ed03b3369150613796903090600401614459565b600060405180830381600087803b1580156137b057600080fd5b505af11580156137c4573d6000803e3d6000fd5b5050505050565b60a05461091a906001600160a01b0316833084614089565b60006602ed57011e0000601f1936013581161480613814576040516373bb264f60e11b815260040160405180910390fd5b6000366029111561383857604051632bcb7bc560e11b815260040160405180910390fd5b5060281936013560006009613853600362ffffff8516614817565b61385d9190614817565b90503661386b600283614817565b11156110175760405163c30a7bd760e01b815260040160405180910390fd5b600080613898602084614817565b9050368111156138bb57604051632bcb7bc560e11b815260040160405180910390fd5b36033592915050565b60008060006138d2846141bf565b9092509050604e6138e4826020614817565b6138ee90846149b7565b6138f89190614817565b949350505050565b6001600160a01b038116600090815260a460205260408120905b8154811015611ba557818181548110613935576139356148b5565b9060005260206000209060030201600201544211156139fe57815460009061395f9060019061482a565b90508082146139c35782818154811061397a5761397a6148b5565b906000526020600020906003020183838154811061399a5761399a6148b5565b600091825260209091208254600390920201908155600180830154908201556002918201549101555b828054806139d3576139d3614912565b600082815260208120600360001990930192830201818155600181018290556002015590555061391a565b80613a08816148cb565b91505061391a565b600082613a5f5760405162461bcd60e51b815260206004820181905260248201527f4d7573742070726f76696465206174206c65617374206f6e6520696e74656e7460448201526064016109ff565b60015b83811015613b18578484613a7760018461482a565b818110613a8657613a866148b5565b90506020020135858583818110613a9f57613a9f6148b5565b9050602002013511613b065760405162461bcd60e51b815260206004820152602a60248201527f496e74656e7420696e6469636573206d757374206265207374726963746c7920604482015269696e6372656173696e6760b01b60648201526084016109ff565b80613b10816148cb565b915050613a62565b506000805b84811015613c50576000868683818110613b3957613b396148b5565b90506020020135905087805490508110613b655760405162461bcd60e51b81526004016109ff906148e4565b6000888281548110613b7957613b796148b5565b906000526020600020906003020190508060010154421015613bdd5760405162461bcd60e51b815260206004820152601d60248201527f5769746864726177616c20696e74656e74206e6f74206d61747572656400000060448201526064016109ff565b8060020154421115613c2d5760405162461bcd60e51b815260206004820152601960248201527815da5d1a191c985dd85b081a5b9d195b9d08195e1c1a5c9959603a1b60448201526064016109ff565b8054613c399085614817565b935050508080613c48906148cb565b915050613b1d565b506000613c5e6064836149ce565b613c689083614817565b905080841115613cd95760405162461bcd60e51b815260206004820152603660248201527f52657175657374656420616d6f756e74206578636565647320696e74656e7420604482015275616d6f756e74206279206d6f7265207468616e20312560501b60648201526084016109ff565b613ce784611d1f33856120c9565b979650505050505050565b6001600160a01b038216600090815260996020526040902054811115613d2b57604051630bba337f60e11b815260040160405180910390fd5b6001600160a01b03821660008181526099602090815260408083208054869003905551848152919291600080516020614ab083398151915291015b60405180910390a35050565b6000818310613d815781611017565b5090919050565b6001600160a01b038216613daf576040516346dbfb6d60e11b815260040160405180910390fd5b6001600160a01b03821660009081526099602052604081208054839290613dd7908490614817565b90915550506040518181526001600160a01b03831690600090600080516020614ab083398151915290602001613d66565b600080516020614a908339815191525490565b603380546001600160a01b038381166001600160a01b0319831681179093556040519116919082907f8be0079c531659141344cd1fd0a4f28419497f9722a3daafe3b4186f6b6457e090600090a35050565b600080516020614a9083398151915255565b604080516001600160a01b038481166024830152604480830185905283518084039091018152606490920183526020820180516001600160e01b031663a9059cbb60e01b1790529151600092839290871691613edb9190614a73565b6000604051808303816000865af19150503d8060008114613f18576040519150601f19603f3d011682016040523d82523d6000602084013e613f1d565b606091505b5091509150818015613f47575080511580613f47575080806020019051810190613f4791906149f0565b6137c45760405162461bcd60e51b815260206004820152602d60248201527f5472616e7366657248656c7065723a3a736166655472616e736665723a20747260448201526c185b9cd9995c8819985a5b1959609a1b60648201526084016109ff565b600054610100900460ff16613fd05760405162461bcd60e51b81526004016109ff90614a28565b611f7d33613e1b565b600054610100900460ff166131e75760405162461bcd60e51b81526004016109ff90614a28565b6060600061400d84614216565b9050600080866001600160a01b03168561402857600061402a565b345b846040516140389190614a73565b60006040518083038185875af1925050503d8060008114614075576040519150601f19603f3d011682016040523d82523d6000602084013e61407a565b606091505b5091509150613ce782826142a5565b604080516001600160a01b0385811660248301528481166044830152606480830185905283518084039091018152608490920183526020820180516001600160e01b03166323b872dd60e01b17905291516000928392908816916140ed9190614a73565b6000604051808303816000865af19150503d806000811461412a576040519150601f19603f3d011682016040523d82523d6000602084013e61412f565b606091505b509150915081801561415957508051158061415957508080602001905181019061415991906149f0565b6134365760405162461bcd60e51b815260206004820152603160248201527f5472616e7366657248656c7065723a3a7472616e7366657246726f6d3a207472604482015270185b9cd9995c919c9bdb4819985a5b1959607a1b60648201526084016109ff565b6000808080806141d0604187614817565b905060006141e96141e2602084614817565b369061431c565b8035945090506141fa81600361431c565b62ffffff9490941697933563ffffffff16965092945050505050565b80516060906000614225614328565b905060006142338284614817565b90503682111561425657604051632bcb7bc560e11b815260040160405180910390fd5b6060604051905081815285602001848101826020015b8183101561428457825181526020928301920161426c565b50505082833603856020018301379190920181016020016040529392505050565b6060826129ba5781516000036142ce57604051632b3ff13d60e11b815260040160405180910390fd5b602082015162461bcd60e51b148015614301576040516301efd04f60e31b815260448401906109ff908290600401614401565b8260405163fd36fde360e01b81526004016109ff9190614401565b6000611017828461482a565b6000806143336137e3565b905060006143408261388a565b61ffff169050614351600283614817565b915060005b8181101561438b576000614369846138c4565b90506143758185614817565b9350508080614383906148cb565b915050614356565b509092915050565b6040518060a001604052806005906020820280368337509192915050565b60005b838110156143cc5781810151838201526020016143b4565b50506000910152565b600081518084526143ed8160208601602086016143b1565b601f01601f19169290920160200192915050565b60208152600061101760208301846143d5565b6001600160a01b03811681146113a357600080fd5b6000806040838503121561443c57600080fd5b82359150602083013561444e81614414565b809150509250929050565b6001600160a01b0391909116815260200190565b60006020828403121561447f57600080fd5b813561101781614414565b6000806040838503121561449d57600080fd5b82356144a881614414565b946020939093013593505050565b600080600080600080600060e0888a0312156144d157600080fd5b87356144dc81614414565b965060208801356144ec81614414565b955060408801356144fc81614414565b9450606088013561450c81614414565b9350608088013561451c81614414565b925060a088013561452c81614414565b8092505060c0880135905092959891949750929550565b60008060006060848603121561455857600080fd5b833561456381614414565b9250602084013561457381614414565b929592945050506040919091013590565b9283526020830191909152604082015260600190565b60008083601f8401126145ac57600080fd5b5081356001600160401b038111156145c357600080fd5b6020830191508360208260051b85010111156145de57600080fd5b9250929050565b600080600080604085870312156145fb57600080fd5b84356001600160401b038082111561461257600080fd5b61461e8883890161459a565b9096509450602087013591508082111561463757600080fd5b506146448782880161459a565b95989497509550505050565b60006020828403121561466257600080fd5b5035919050565b60008060006060848603121561467e57600080fd5b833561468981614414565b95602085013595506040909401359392505050565b6000806000604084860312156146b357600080fd5b8335925060208401356001600160401b038111156146d057600080fd5b6146dc8682870161459a565b9497909650939450505050565b60a08101818360005b60058110156147115781518352602092830192909101906001016146f2565b50505092915050565b6000806040838503121561472d57600080fd5b823561473881614414565b9150602083013561444e81614414565b6000806040838503121561475b57600080fd5b50508035926020909101359150565b602080825282518282018190526000919060409081850190868401855b828110156147db578151805185528681015187860152858101518686015260608082015115159086015260808082015115159086015260a09081015115159085015260c09093019290850190600101614787565b5091979650505050505050565b6000602082840312156147fa57600080fd5b5051919050565b634e487b7160e01b600052601160045260246000fd5b8082018082111561099457610994614801565b8181038181111561099457610994614801565b60006020828403121561484f57600080fd5b815160ff8116811461101757600080fd5b918252602082015260400190565b9182526001600160a01b0316602082015260400190565b602080825260169082015275082e4e4c2f2e640d8cadccee8d040dad2e6dac2e8c6d60531b604082015260600190565b634e487b7160e01b600052603260045260246000fd5b6000600182016148dd576148dd614801565b5060010190565b602080825260149082015273092dcecc2d8d2c840d2dce8cadce840d2dcc8caf60631b604082015260600190565b634e487b7160e01b600052603160045260246000fd5b60008161493757614937614801565b506000190190565b6020808252600c908201526b41646472657373207a65726f60a01b604082015260600190565b6020808252818101527f43616e6e6f74206465706f736974206f6e20626568616c66206f6620706f6f6c604082015260600190565b6000602082840312156149ac57600080fd5b815161101781614414565b808202811582820484141761099457610994614801565b6000826149eb57634e487b7160e01b600052601260045260246000fd5b500490565b600060208284031215614a0257600080fd5b8151801515811461101757600080fd5b634e487b7160e01b600052604160045260246000fd5b6020808252602b908201527f496e697469616c697a61626c653a20636f6e7472616374206973206e6f74206960408201526a6e697469616c697a696e6760a81b606082015260800190565b60008251614a858184602087016143b1565b919091019291505056fe63a0d9df49fae3f1b9d24f8dc819a568c429a1b11d0d8e9de63df53a0194acb2ddf252ad1be2c89b69c2b068fc378daa952ba7f163c4a11628f55a4df523b3ef8c5be1e5ebec7d5bd14f71427d1e84f3dd0314c0f7b2291e5b200ac8c7c3b925a264697066735822122072ff6d46979bc472188a39bb97507d672f470d2f735009c2c00b2f71fc8b813264736f6c63430008110033",
  "devdoc": {
    "details": "Contract allowing user to deposit to and borrow ARB from a dedicated user account",
    "errors": {
      "InsufficientAllowance(uint256,uint256)": [
        {
          "params": {
            "allowance": "current allowance",
            "requested": "requested transfer amount"
          }
        }
      ],
      "TransferAmountExceedsBalance(uint256,uint256)": [
        {
          "params": {
            "amount": "transfer amount",
            "balance": "available balance"
          }
        }
      ]
    },
    "kind": "dev",
    "methods": {
      "allowance(address,address)": {
        "details": "Returns the remaining number of tokens that `spender` will be allowed to spend on behalf of `owner` through {transferFrom}. This is zero by default. This value changes when {approve} or {transferFrom} are called."
      },
      "approve(address,uint256)": {
        "details": "Sets `amount` as the allowance of `spender` over the caller's tokens. Returns a boolean value indicating whether the operation succeeded. IMPORTANT: Beware that changing an allowance with this method brings the risk that someone may use both the old and the new allowance by unfortunate transaction ordering. One possible solution to mitigate this race condition is to first reduce the spender's allowance to 0 and set the desired value afterwards: https://github.com/ethereum/EIPs/issues/20#issuecomment-263524729 Emits an {Approval} event."
      },
      "balanceOf(address)": {
        "details": "_user the address of queried depositor*"
      },
      "borrow(uint256)": {
        "details": "_amount the amount to be borrowedIt is only meant to be used by a SmartLoanDiamondProxy*"
      },
      "getBorrowed(address)": {
        "details": "_user the address of queried borrower*"
      },
      "getFullyVestedLockedBalance(address)": {
        "details": "The fully vested locked balance is used in the governance mechanism of the system, specifically for the allocation of vPrime tokens. The method calculates the fully vested locked balance by iterating over all the locks of the account and summing up the amounts of those locks that are still active (i.e., their `unlockTime` is greater than the current block timestamp). However, the amount of each lock is scaled by the ratio of its `lockTime` to the `MAX_LOCK_TIME` (3 years). This means that the longer the lock time, the larger the contribution of the lock to the fully vested locked balance. The fully vested locked balance is used to calculate the maximum vPrime allocation for a user. Users accrue vPrime over a period of 3 years, from 0 to the maximum vPrime based on their 10-1 pairs of pool-deposit and sPrime. Locking pool deposits and sPrime immediately vests the vPrime.",
        "params": {
          "account": "The address of the account for which to calculate the fully vested locked balance."
        },
        "returns": {
          "fullyVestedBalance": "The fully vested locked balance of the provided account."
        }
      },
      "getTotalIntentAmount(address)": {
        "details": "user the address of the queried user*"
      },
      "getUserIntents(address)": {
        "details": "Returns array of all intents with their current status for a given user",
        "params": {
          "user": "Address of the user to check intents for"
        },
        "returns": {
          "_0": "Array of IntentInfo structs containing all intent details and status*"
        }
      },
      "owner()": {
        "details": "Returns the address of the current owner."
      },
      "renounceOwnership()": {
        "details": "Leaves the contract without owner. It will not be possible to call `onlyOwner` functions. Can only be called by the current owner. NOTE: Renouncing ownership will leave the contract without an owner, thereby disabling any functionality that is only available to the owner."
      },
      "repay(uint256)": {
        "details": "It is only meant to be used by a SmartLoanDiamondProxy*"
      },
      "setBorrowersRegistry(address)": {
        "details": "borrowersRegistry the address of borrowers registry*"
      },
      "setPoolRewarder(address)": {
        "details": "_poolRewarder the address of PoolRewarder*"
      },
      "setRatesCalculator(address)": {
        "details": "ratesCalculator the address of rates calculator*"
      },
      "setTotalSupplyCap(uint256)": {
        "details": "_newTotalSupplyCap new deposit cap*"
      },
      "totalSupply()": {
        "details": "Returns the amount of tokens in existence."
      },
      "withdraw(uint256,uint256[])": {
        "params": {
          "_amount": "the total amount to be withdrawn",
          "intentIndices": "array of intent indices to be used for withdrawal*"
        }
      }
    },
    "title": "`ArbPool`",
    "version": 1
  },
  "userdoc": {
    "kind": "user",
    "methods": {
      "balanceOf(address)": {
        "notice": "Returns the current deposited amount for the given user The value includes the interest rates earned at the current moment"
      },
      "borrow(uint256)": {
        "notice": "Borrows the specified amount It updates user borrowed balance, total borrowed amount and rates"
      },
      "deposit(uint256)": {
        "notice": "Deposits the amount It updates user deposited balance, total deposited and rates*"
      },
      "depositOnBehalf(uint256,address)": {
        "notice": "Deposits the amount on behalf of `_of` user. It updates `_of` user deposited balance, total deposited and rates*"
      },
      "getBorrowed(address)": {
        "notice": "Returns the current borrowed amount for the given user The value includes the interest rates owned at the current moment"
      },
      "getBorrowingRate()": {
        "notice": "Returns the current interest rate for borrowings*"
      },
      "getDepositRate()": {
        "notice": "Returns the current interest rate for deposits*"
      },
      "getFullPoolStatus()": {
        "notice": "Returns full pool status"
      },
      "getFullyVestedLockedBalance(address)": {
        "notice": "Calculates and returns the fully vested locked balance for a given account."
      },
      "getTotalIntentAmount(address)": {
        "notice": "Returns the total amount of the withdrawal intents for the given user"
      },
      "recoverSurplus(uint256,address)": {
        "notice": "Recovers the surplus funds resultant from difference between deposit and borrowing rates*"
      },
      "repay(uint256)": {
        "notice": "Repays the amount It updates user borrowed balance, total borrowed amount and rates"
      },
      "setBorrowersRegistry(address)": {
        "notice": "Sets the new borrowers registry contract. The borrowers registry decides if an account can borrow funds. Only the owner of the Contract can execute this function."
      },
      "setPoolRewarder(address)": {
        "notice": "Sets the new Pool Rewarder. The IPoolRewarder that distributes additional token rewards to people having a stake in this pool proportionally to their stake and time of participance. Only the owner of the Contract can execute this function."
      },
      "setRatesCalculator(address)": {
        "notice": "Sets the new rate calculator. The calculator is an external contract that contains the logic for calculating deposit and borrowing rates. Only the owner of the Contract can execute this function."
      },
      "setTotalSupplyCap(uint256)": {
        "notice": "Sets new totalSupplyCap limiting how much in total can be deposited to the Pool. Only the owner of the Contract can execute this function."
      },
      "withdraw(uint256,uint256[])": {
        "notice": "Withdraws selected amount using multiple intents"
      }
    },
    "version": 1
  },
  "storageLayout": {
    "storage": [
      {
        "astId": 3226,
        "contract": "contracts/deployment/arbitrum/ArbPool.sol:ArbPool",
        "label": "_initialized",
        "offset": 0,
        "slot": "0",
        "type": "t_uint8"
      },
      {
        "astId": 3229,
        "contract": "contracts/deployment/arbitrum/ArbPool.sol:ArbPool",
        "label": "_initializing",
        "offset": 1,
        "slot": "0",
        "type": "t_bool"
      },
      {
        "astId": 4623,
        "contract": "contracts/deployment/arbitrum/ArbPool.sol:ArbPool",
        "label": "__gap",
        "offset": 0,
        "slot": "1",
        "type": "t_array(t_uint256)50_storage"
      },
      {
        "astId": 3098,
        "contract": "contracts/deployment/arbitrum/ArbPool.sol:ArbPool",
        "label": "_owner",
        "offset": 0,
        "slot": "51",
        "type": "t_address"
      },
      {
        "astId": 3218,
        "contract": "contracts/deployment/arbitrum/ArbPool.sol:ArbPool",
        "label": "__gap",
        "offset": 0,
        "slot": "52",
        "type": "t_array(t_uint256)49_storage"
      },
      {
        "astId": 3402,
        "contract": "contracts/deployment/arbitrum/ArbPool.sol:ArbPool",
        "label": "_status",
        "offset": 0,
        "slot": "101",
        "type": "t_uint256"
      },
      {
        "astId": 3471,
        "contract": "contracts/deployment/arbitrum/ArbPool.sol:ArbPool",
        "label": "__gap",
        "offset": 0,
        "slot": "102",
        "type": "t_array(t_uint256)49_storage"
      },
      {
        "astId": 17309,
        "contract": "contracts/deployment/arbitrum/ArbPool.sol:ArbPool",
        "label": "totalSupplyCap",
        "offset": 0,
        "slot": "151",
        "type": "t_uint256"
      },
      {
        "astId": 17315,
        "contract": "contracts/deployment/arbitrum/ArbPool.sol:ArbPool",
        "label": "_allowed",
        "offset": 0,
        "slot": "152",
        "type": "t_mapping(t_address,t_mapping(t_address,t_uint256))"
      },
      {
        "astId": 17319,
        "contract": "contracts/deployment/arbitrum/ArbPool.sol:ArbPool",
        "label": "_deposited",
        "offset": 0,
        "slot": "153",
        "type": "t_mapping(t_address,t_uint256)"
      },
      {
        "astId": 17323,
        "contract": "contracts/deployment/arbitrum/ArbPool.sol:ArbPool",
        "label": "borrowed",
        "offset": 0,
        "slot": "154",
        "type": "t_mapping(t_address,t_uint256)"
      },
      {
        "astId": 17326,
        "contract": "contracts/deployment/arbitrum/ArbPool.sol:ArbPool",
        "label": "ratesCalculator",
        "offset": 0,
        "slot": "155",
        "type": "t_contract(IRatesCalculator)73108"
      },
      {
        "astId": 17329,
        "contract": "contracts/deployment/arbitrum/ArbPool.sol:ArbPool",
        "label": "borrowersRegistry",
        "offset": 0,
        "slot": "156",
        "type": "t_contract(IBorrowersRegistry)72387"
      },
      {
        "astId": 17332,
        "contract": "contracts/deployment/arbitrum/ArbPool.sol:ArbPool",
        "label": "poolRewarder",
        "offset": 0,
        "slot": "157",
        "type": "t_contract(IPoolRewarder)72968"
      },
      {
        "astId": 17335,
        "contract": "contracts/deployment/arbitrum/ArbPool.sol:ArbPool",
        "label": "depositIndex",
        "offset": 0,
        "slot": "158",
        "type": "t_contract(IIndex)72632"
      },
      {
        "astId": 17338,
        "contract": "contracts/deployment/arbitrum/ArbPool.sol:ArbPool",
        "label": "borrowIndex",
        "offset": 0,
        "slot": "159",
        "type": "t_contract(IIndex)72632"
      },
      {
        "astId": 17340,
        "contract": "contracts/deployment/arbitrum/ArbPool.sol:ArbPool",
        "label": "tokenAddress",
        "offset": 0,
        "slot": "160",
        "type": "t_address_payable"
      },
      {
        "astId": 17343,
        "contract": "contracts/deployment/arbitrum/ArbPool.sol:ArbPool",
        "label": "vestingDistributor",
        "offset": 0,
        "slot": "161",
        "type": "t_contract(VestingDistributor)26445"
      },
      {
        "astId": 17345,
        "contract": "contracts/deployment/arbitrum/ArbPool.sol:ArbPool",
        "label": "_decimals",
        "offset": 20,
        "slot": "161",
        "type": "t_uint8"
      },
      {
        "astId": 17358,
        "contract": "contracts/deployment/arbitrum/ArbPool.sol:ArbPool",
        "label": "locks",
        "offset": 0,
        "slot": "162",
        "type": "t_mapping(t_address,t_array(t_struct(LockDetails)17352_storage)dyn_storage)"
      },
      {
        "astId": 17366,
        "contract": "contracts/deployment/arbitrum/ArbPool.sol:ArbPool",
        "label": "tokenManager",
        "offset": 0,
        "slot": "163",
        "type": "t_contract(ITokenManager)73541"
      },
      {
        "astId": 17392,
        "contract": "contracts/deployment/arbitrum/ArbPool.sol:ArbPool",
        "label": "withdrawalIntents",
        "offset": 0,
        "slot": "164",
        "type": "t_mapping(t_address,t_array(t_struct(WithdrawalIntent)17373_storage)dyn_storage)"
      }
    ],
    "types": {
      "t_address": {
        "encoding": "inplace",
        "label": "address",
        "numberOfBytes": "20"
      },
      "t_address_payable": {
        "encoding": "inplace",
        "label": "address payable",
        "numberOfBytes": "20"
      },
      "t_array(t_struct(LockDetails)17352_storage)dyn_storage": {
        "base": "t_struct(LockDetails)17352_storage",
        "encoding": "dynamic_array",
        "label": "struct Pool.LockDetails[]",
        "numberOfBytes": "32"
      },
      "t_array(t_struct(WithdrawalIntent)17373_storage)dyn_storage": {
        "base": "t_struct(WithdrawalIntent)17373_storage",
        "encoding": "dynamic_array",
        "label": "struct Pool.WithdrawalIntent[]",
        "numberOfBytes": "32"
      },
      "t_array(t_uint256)49_storage": {
        "base": "t_uint256",
        "encoding": "inplace",
        "label": "uint256[49]",
        "numberOfBytes": "1568"
      },
      "t_array(t_uint256)50_storage": {
        "base": "t_uint256",
        "encoding": "inplace",
        "label": "uint256[50]",
        "numberOfBytes": "1600"
      },
      "t_bool": {
        "encoding": "inplace",
        "label": "bool",
        "numberOfBytes": "1"
      },
      "t_contract(IBorrowersRegistry)72387": {
        "encoding": "inplace",
        "label": "contract IBorrowersRegistry",
        "numberOfBytes": "20"
      },
      "t_contract(IIndex)72632": {
        "encoding": "inplace",
        "label": "contract IIndex",
        "numberOfBytes": "20"
      },
      "t_contract(IPoolRewarder)72968": {
        "encoding": "inplace",
        "label": "contract IPoolRewarder",
        "numberOfBytes": "20"
      },
      "t_contract(IRatesCalculator)73108": {
        "encoding": "inplace",
        "label": "contract IRatesCalculator",
        "numberOfBytes": "20"
      },
      "t_contract(ITokenManager)73541": {
        "encoding": "inplace",
        "label": "contract ITokenManager",
        "numberOfBytes": "20"
      },
      "t_contract(VestingDistributor)26445": {
        "encoding": "inplace",
        "label": "contract VestingDistributor",
        "numberOfBytes": "20"
      },
      "t_mapping(t_address,t_array(t_struct(LockDetails)17352_storage)dyn_storage)": {
        "encoding": "mapping",
        "key": "t_address",
        "label": "mapping(address => struct Pool.LockDetails[])",
        "numberOfBytes": "32",
        "value": "t_array(t_struct(LockDetails)17352_storage)dyn_storage"
      },
      "t_mapping(t_address,t_array(t_struct(WithdrawalIntent)17373_storage)dyn_storage)": {
        "encoding": "mapping",
        "key": "t_address",
        "label": "mapping(address => struct Pool.WithdrawalIntent[])",
        "numberOfBytes": "32",
        "value": "t_array(t_struct(WithdrawalIntent)17373_storage)dyn_storage"
      },
      "t_mapping(t_address,t_mapping(t_address,t_uint256))": {
        "encoding": "mapping",
        "key": "t_address",
        "label": "mapping(address => mapping(address => uint256))",
        "numberOfBytes": "32",
        "value": "t_mapping(t_address,t_uint256)"
      },
      "t_mapping(t_address,t_uint256)": {
        "encoding": "mapping",
        "key": "t_address",
        "label": "mapping(address => uint256)",
        "numberOfBytes": "32",
        "value": "t_uint256"
      },
      "t_struct(LockDetails)17352_storage": {
        "encoding": "inplace",
        "label": "struct Pool.LockDetails",
        "members": [
          {
            "astId": 17347,
            "contract": "contracts/deployment/arbitrum/ArbPool.sol:ArbPool",
            "label": "lockTime",
            "offset": 0,
            "slot": "0",
            "type": "t_uint256"
          },
          {
            "astId": 17349,
            "contract": "contracts/deployment/arbitrum/ArbPool.sol:ArbPool",
            "label": "amount",
            "offset": 0,
            "slot": "1",
            "type": "t_uint256"
          },
          {
            "astId": 17351,
            "contract": "contracts/deployment/arbitrum/ArbPool.sol:ArbPool",
            "label": "unlockTime",
            "offset": 0,
            "slot": "2",
            "type": "t_uint256"
          }
        ],
        "numberOfBytes": "96"
      },
      "t_struct(WithdrawalIntent)17373_storage": {
        "encoding": "inplace",
        "label": "struct Pool.WithdrawalIntent",
        "members": [
          {
            "astId": 17368,
            "contract": "contracts/deployment/arbitrum/ArbPool.sol:ArbPool",
            "label": "amount",
            "offset": 0,
            "slot": "0",
            "type": "t_uint256"
          },
          {
            "astId": 17370,
            "contract": "contracts/deployment/arbitrum/ArbPool.sol:ArbPool",
            "label": "actionableAt",
            "offset": 0,
            "slot": "1",
            "type": "t_uint256"
          },
          {
            "astId": 17372,
            "contract": "contracts/deployment/arbitrum/ArbPool.sol:ArbPool",
            "label": "expiresAt",
            "offset": 0,
            "slot": "2",
            "type": "t_uint256"
          }
        ],
        "numberOfBytes": "96"
      },
      "t_uint256": {
        "encoding": "inplace",
        "label": "uint256",
        "numberOfBytes": "32"
      },
      "t_uint8": {
        "encoding": "inplace",
        "label": "uint8",
        "numberOfBytes": "1"
      }
    }
  }
}