{
  "address": "0xb218DbE9d51b69DfB213a0d67579E3442B3Bae74",
  "abi": [
    {
      "anonymous": false,
      "inputs": [
        {
          "indexed": true,
          "internalType": "address",
          "name": "previousOwner",
          "type": "address"
        },
        {
          "indexed": true,
          "internalType": "address",
          "name": "newOwner",
          "type": "address"
        }
      ],
      "name": "OwnershipTransferred",
      "type": "event"
    },
    {
      "anonymous": false,
      "inputs": [
        {
          "indexed": true,
          "internalType": "address",
          "name": "performer",
          "type": "address"
        },
        {
          "indexed": false,
          "internalType": "uint256",
          "name": "newSpread",
          "type": "uint256"
        },
        {
          "indexed": false,
          "internalType": "uint256",
          "name": "timestamp",
          "type": "uint256"
        }
      ],
      "name": "SpreadChanged",
      "type": "event"
    },
    {
      "inputs": [],
      "name": "BREAKPOINT_1",
      "outputs": [
        {
          "internalType": "uint256",
          "name": "",
          "type": "uint256"
        }
      ],
      "stateMutability": "view",
      "type": "function"
    },
    {
      "inputs": [],
      "name": "BREAKPOINT_2",
      "outputs": [
        {
          "internalType": "uint256",
          "name": "",
          "type": "uint256"
        }
      ],
      "stateMutability": "view",
      "type": "function"
    },
    {
      "inputs": [],
      "name": "BREAKPOINT_3",
      "outputs": [
        {
          "internalType": "uint256",
          "name": "",
          "type": "uint256"
        }
      ],
      "stateMutability": "view",
      "type": "function"
    },
    {
      "inputs": [],
      "name": "MAX_RATE",
      "outputs": [
        {
          "internalType": "uint256",
          "name": "",
          "type": "uint256"
        }
      ],
      "stateMutability": "view",
      "type": "function"
    },
    {
      "inputs": [],
      "name": "OFFSET_1",
      "outputs": [
        {
          "internalType": "uint256",
          "name": "",
          "type": "uint256"
        }
      ],
      "stateMutability": "view",
      "type": "function"
    },
    {
      "inputs": [],
      "name": "OFFSET_2",
      "outputs": [
        {
          "internalType": "uint256",
          "name": "",
          "type": "uint256"
        }
      ],
      "stateMutability": "view",
      "type": "function"
    },
    {
      "inputs": [],
      "name": "OFFSET_3",
      "outputs": [
        {
          "internalType": "uint256",
          "name": "",
          "type": "uint256"
        }
      ],
      "stateMutability": "view",
      "type": "function"
    },
    {
      "inputs": [],
      "name": "OFFSET_4",
      "outputs": [
        {
          "internalType": "uint256",
          "name": "",
          "type": "uint256"
        }
      ],
      "stateMutability": "view",
      "type": "function"
    },
    {
      "inputs": [],
      "name": "SLOPE_1",
      "outputs": [
        {
          "internalType": "uint256",
          "name": "",
          "type": "uint256"
        }
      ],
      "stateMutability": "view",
      "type": "function"
    },
    {
      "inputs": [],
      "name": "SLOPE_2",
      "outputs": [
        {
          "internalType": "uint256",
          "name": "",
          "type": "uint256"
        }
      ],
      "stateMutability": "view",
      "type": "function"
    },
    {
      "inputs": [],
      "name": "SLOPE_3",
      "outputs": [
        {
          "internalType": "uint256",
          "name": "",
          "type": "uint256"
        }
      ],
      "stateMutability": "view",
      "type": "function"
    },
    {
      "inputs": [],
      "name": "SLOPE_4",
      "outputs": [
        {
          "internalType": "uint256",
          "name": "",
          "type": "uint256"
        }
      ],
      "stateMutability": "view",
      "type": "function"
    },
    {
      "inputs": [
        {
          "internalType": "uint256",
          "name": "totalLoans",
          "type": "uint256"
        },
        {
          "internalType": "uint256",
          "name": "totalDeposits",
          "type": "uint256"
        }
      ],
      "name": "calculateBorrowingRate",
      "outputs": [
        {
          "internalType": "uint256",
          "name": "",
          "type": "uint256"
        }
      ],
      "stateMutability": "pure",
      "type": "function"
    },
    {
      "inputs": [
        {
          "internalType": "uint256",
          "name": "_totalLoans",
          "type": "uint256"
        },
        {
          "internalType": "uint256",
          "name": "_totalDeposits",
          "type": "uint256"
        }
      ],
      "name": "calculateDepositRate",
      "outputs": [
        {
          "internalType": "uint256",
          "name": "",
          "type": "uint256"
        }
      ],
      "stateMutability": "view",
      "type": "function"
    },
    {
      "inputs": [
        {
          "internalType": "uint256",
          "name": "_totalLoans",
          "type": "uint256"
        },
        {
          "internalType": "uint256",
          "name": "_totalDeposits",
          "type": "uint256"
        }
      ],
      "name": "getPoolUtilisation",
      "outputs": [
        {
          "internalType": "uint256",
          "name": "",
          "type": "uint256"
        }
      ],
      "stateMutability": "pure",
      "type": "function"
    },
    {
      "inputs": [],
      "name": "owner",
      "outputs": [
        {
          "internalType": "address",
          "name": "",
          "type": "address"
        }
      ],
      "stateMutability": "view",
      "type": "function"
    },
    {
      "inputs": [],
      "name": "renounceOwnership",
      "outputs": [],
      "stateMutability": "nonpayable",
      "type": "function"
    },
    {
      "inputs": [
        {
          "internalType": "uint256",
          "name": "_spread",
          "type": "uint256"
        }
      ],
      "name": "setSpread",
      "outputs": [],
      "stateMutability": "nonpayable",
      "type": "function"
    },
    {
      "inputs": [],
      "name": "spread",
      "outputs": [
        {
          "internalType": "uint256",
          "name": "",
          "type": "uint256"
        }
      ],
      "stateMutability": "view",
      "type": "function"
    },
    {
      "inputs": [
        {
          "internalType": "address",
          "name": "newOwner",
          "type": "address"
        }
      ],
      "name": "transferOwnership",
      "outputs": [],
      "stateMutability": "nonpayable",
      "type": "function"
    }
  ],
  "transactionHash": "0x548cb1d0d9b8148115cb00229b76994ff1b9e961b99da8d4606ffa304df4de9f",
  "args": [],
  "numDeployments": 1,
  "solcInputHash": "f784d779a739b411079f86d98f7d3d2d",
  "bytecode": "0x608060405264e8d4a5100060015534801561001957600080fd5b5061002333610028565b610078565b600080546001600160a01b038381166001600160a01b0319831681178455604051919092169283917f8be0079c531659141344cd1fd0a4f28419497f9722a3daafe3b4186f6b6457e09190a35050565b61054b806100876000396000f3fe608060405234801561001057600080fd5b50600436106100fc5760003560e01c806301a5e5a01461010157806318c544b114610123578063321105fb1461012b5780633bf42d4b1461013a57806349d94fee1461014957806356f21639146101585780635c25c76c146101675780636e28a05d1461017057806370935a501461017e578063715018a61461018d5780637cd083311461018f5780638da5cb5b146101a25780639a6fc9dc146101c25780639ceca965146101d1578063b5f78b05146101e4578063b66a261c146101f3578063bfe7cfd214610206578063c24dbebd146101e4578063df841eec14610215578063f2fde38b14610232575b600080fd5b610110670853a0d2313c000081565b6040519081526020015b60405180910390f35b610110600081565b6101106702514d9d7d7d800081565b6101106703782dace9d9000081565b610110674db732547630000081565b610110670905438e6001000081565b61011060015481565b61011066b1a2bc2ec5000081565b610110670b1a2bc2ec50000081565b005b61011061019d36600461046a565b610247565b6101aa610257565b6040516001600160a01b03909116815260200161011a565b610110675a34a38fc00a000081565b6101106101df36600461046a565b610266565b610110670c7d713b49da000081565b61018d61020136600461048c565b61029c565b610110670de0b6b3a764000081565b61011061022336600461046a565b670285872ff3b0400092915050565b61018d6102403660046104a5565b610342565b565b670219e17f72fe80005b92915050565b6000546001600160a01b031690565b60008160000361027857506000610251565b8161028b84670de0b6b3a76400006104ce565b61029591906104f3565b9392505050565b6102a46103bb565b670de0b6b3a764000081106103005760405162461bcd60e51b815260206004820181905260248201527f537072656164206d75737420626520736d616c6c6572207468616e203165313860448201526064015b60405180910390fd5b60018190556040805182815242602082015233917f9e606dc778840dd5372c982cb6a54acae1e2f85905de7f64d37c63a0c5830e22910160405180910390a250565b61034a6103bb565b6001600160a01b0381166103af5760405162461bcd60e51b815260206004820152602660248201527f4f776e61626c653a206e6577206f776e657220697320746865207a65726f206160448201526564647265737360d01b60648201526084016102f7565b6103b88161041a565b50565b336103c4610257565b6001600160a01b0316146102455760405162461bcd60e51b815260206004820181905260248201527f4f776e61626c653a2063616c6c6572206973206e6f7420746865206f776e657260448201526064016102f7565b600080546001600160a01b038381166001600160a01b0319831681178455604051919092169283917f8be0079c531659141344cd1fd0a4f28419497f9722a3daafe3b4186f6b6457e09190a35050565b6000806040838503121561047d57600080fd5b50508035926020909101359150565b60006020828403121561049e57600080fd5b5035919050565b6000602082840312156104b757600080fd5b81356001600160a01b038116811461029557600080fd5b808202811582820484141761025157634e487b7160e01b600052601160045260246000fd5b60008261051057634e487b7160e01b600052601260045260246000fd5b50049056fea2646970667358221220cbd133d58089063ab779d28d93b88baff01fad008cad99a9678c4c382e04fd7564736f6c63430008110033",
  "devdoc": {
    "kind": "dev",
    "methods": {
      "getPoolUtilisation(uint256,uint256)": {
        "details": "_totalLoans total value of loans_totalDeposits total value of deposits*"
      },
      "owner()": {
        "details": "Returns the address of the current owner."
      },
      "renounceOwnership()": {
        "details": "Leaves the contract without owner. It will not be possible to call `onlyOwner` functions. Can only be called by the current owner. NOTE: Renouncing ownership will leave the contract without an owner, thereby disabling any functionality that is only available to the owner."
      },
      "setSpread(uint256)": {
        "params": {
          "_spread": "spread defined by user*"
        }
      },
      "transferOwnership(address)": {
        "details": "Transfers ownership of the contract to a new account (`newOwner`). Can only be called by the current owner."
      }
    },
    "version": 1
  },
  "userdoc": {
    "kind": "user",
    "methods": {
      "calculateBorrowingRate(uint256,uint256)": {
        "notice": "Always return fixed deposit rate*"
      },
      "calculateDepositRate(uint256,uint256)": {
        "notice": "*"
      },
      "getPoolUtilisation(uint256,uint256)": {
        "notice": "Returns the pool utilisation, which is a ratio between loans and deposits utilisation = value_of_loans / value_of_deposits"
      },
      "setSpread(uint256)": {
        "notice": "Sets the spread between deposit and borrow rate, number between 0 and 1e18"
      }
    },
    "version": 1
  },
  "storageLayout": {
    "storage": [
      {
        "astId": 7,
        "contract": "contracts/deployment/arbitrum/UsdcVariableUtilisationRatesCalculatorFixedRate.sol:UsdcVariableUtilisationRatesCalculatorFixedRate",
        "label": "_owner",
        "offset": 0,
        "slot": "0",
        "type": "t_address"
      },
      {
        "astId": 182,
        "contract": "contracts/deployment/arbitrum/UsdcVariableUtilisationRatesCalculatorFixedRate.sol:UsdcVariableUtilisationRatesCalculatorFixedRate",
        "label": "spread",
        "offset": 0,
        "slot": "1",
        "type": "t_uint256"
      }
    ],
    "types": {
      "t_address": {
        "encoding": "inplace",
        "label": "address",
        "numberOfBytes": "20"
      },
      "t_uint256": {
        "encoding": "inplace",
        "label": "uint256",
        "numberOfBytes": "32"
      }
    }
  }
}